{
  "_format": "hh3-artifact-1",
  "contractName": "MintGateV2",
  "sourceName": "src/MintGateV2.sol",
  "abi": [
    {
      "inputs": [
        {
          "internalType": "address",
          "name": "_gameConfig",
          "type": "address"
        },
        {
          "internalType": "address",
          "name": "_creatureContract",
          "type": "address"
        },
        {
          "internalType": "address",
          "name": "_signer",
          "type": "address"
        }
      ],
      "stateMutability": "nonpayable",
      "type": "constructor"
    },
    {
      "inputs": [],
      "name": "ECDSAInvalidSignature",
      "type": "error"
    },
    {
      "inputs": [
        {
          "internalType": "uint256",
          "name": "length",
          "type": "uint256"
        }
      ],
      "name": "ECDSAInvalidSignatureLength",
      "type": "error"
    },
    {
      "inputs": [
        {
          "internalType": "bytes32",
          "name": "s",
          "type": "bytes32"
        }
      ],
      "name": "ECDSAInvalidSignatureS",
      "type": "error"
    },
    {
      "inputs": [],
      "name": "EnforcedPause",
      "type": "error"
    },
    {
      "inputs": [],
      "name": "ExpectedPause",
      "type": "error"
    },
    {
      "inputs": [],
      "name": "InvalidAddress",
      "type": "error"
    },
    {
      "inputs": [],
      "name": "InvalidSignature",
      "type": "error"
    },
    {
      "inputs": [
        {
          "internalType": "address",
          "name": "owner",
          "type": "address"
        }
      ],
      "name": "OwnableInvalidOwner",
      "type": "error"
    },
    {
      "inputs": [
        {
          "internalType": "address",
          "name": "account",
          "type": "address"
        }
      ],
      "name": "OwnableUnauthorizedAccount",
      "type": "error"
    },
    {
      "inputs": [],
      "name": "ReentrancyGuardReentrantCall",
      "type": "error"
    },
    {
      "inputs": [
        {
          "internalType": "address",
          "name": "token",
          "type": "address"
        }
      ],
      "name": "SafeERC20FailedOperation",
      "type": "error"
    },
    {
      "inputs": [],
      "name": "SignatureExpired",
      "type": "error"
    },
    {
      "inputs": [],
      "name": "TreasuryNotSet",
      "type": "error"
    },
    {
      "anonymous": false,
      "inputs": [
        {
          "indexed": true,
          "internalType": "address",
          "name": "oldVault",
          "type": "address"
        },
        {
          "indexed": true,
          "internalType": "address",
          "name": "newVault",
          "type": "address"
        }
      ],
      "name": "AirdropVaultUpdated",
      "type": "event"
    },
    {
      "anonymous": false,
      "inputs": [
        {
          "indexed": true,
          "internalType": "uint256",
          "name": "tokenId",
          "type": "uint256"
        },
        {
          "indexed": true,
          "internalType": "address",
          "name": "minter",
          "type": "address"
        },
        {
          "indexed": false,
          "internalType": "uint256",
          "name": "dgneSpent",
          "type": "uint256"
        },
        {
          "indexed": false,
          "internalType": "uint256",
          "name": "fromLocked",
          "type": "uint256"
        },
        {
          "indexed": false,
          "internalType": "bytes32",
          "name": "genSeed",
          "type": "bytes32"
        }
      ],
      "name": "CreatureMinted",
      "type": "event"
    },
    {
      "anonymous": false,
      "inputs": [
        {
          "indexed": true,
          "internalType": "address",
          "name": "previousOwner",
          "type": "address"
        },
        {
          "indexed": true,
          "internalType": "address",
          "name": "newOwner",
          "type": "address"
        }
      ],
      "name": "OwnershipTransferred",
      "type": "event"
    },
    {
      "anonymous": false,
      "inputs": [
        {
          "indexed": false,
          "internalType": "address",
          "name": "account",
          "type": "address"
        }
      ],
      "name": "Paused",
      "type": "event"
    },
    {
      "anonymous": false,
      "inputs": [
        {
          "indexed": true,
          "internalType": "address",
          "name": "user",
          "type": "address"
        },
        {
          "indexed": false,
          "internalType": "uint256",
          "name": "dgneSpent",
          "type": "uint256"
        },
        {
          "indexed": false,
          "internalType": "uint256",
          "name": "fromLocked",
          "type": "uint256"
        }
      ],
      "name": "PreviewSkipped",
      "type": "event"
    },
    {
      "anonymous": false,
      "inputs": [
        {
          "indexed": true,
          "internalType": "address",
          "name": "oldSigner",
          "type": "address"
        },
        {
          "indexed": true,
          "internalType": "address",
          "name": "newSigner",
          "type": "address"
        }
      ],
      "name": "SignerUpdated",
      "type": "event"
    },
    {
      "anonymous": false,
      "inputs": [
        {
          "indexed": false,
          "internalType": "address",
          "name": "account",
          "type": "address"
        }
      ],
      "name": "Unpaused",
      "type": "event"
    },
    {
      "inputs": [],
      "name": "DOMAIN_SEPARATOR",
      "outputs": [
        {
          "internalType": "bytes32",
          "name": "",
          "type": "bytes32"
        }
      ],
      "stateMutability": "view",
      "type": "function"
    },
    {
      "inputs": [],
      "name": "DOMAIN_TYPEHASH",
      "outputs": [
        {
          "internalType": "bytes32",
          "name": "",
          "type": "bytes32"
        }
      ],
      "stateMutability": "view",
      "type": "function"
    },
    {
      "inputs": [],
      "name": "MINT_TYPEHASH",
      "outputs": [
        {
          "internalType": "bytes32",
          "name": "",
          "type": "bytes32"
        }
      ],
      "stateMutability": "view",
      "type": "function"
    },
    {
      "inputs": [],
      "name": "airdropVault",
      "outputs": [
        {
          "internalType": "contract IAirdropVault",
          "name": "",
          "type": "address"
        }
      ],
      "stateMutability": "view",
      "type": "function"
    },
    {
      "inputs": [],
      "name": "creatureContract",
      "outputs": [
        {
          "internalType": "address",
          "name": "",
          "type": "address"
        }
      ],
      "stateMutability": "view",
      "type": "function"
    },
    {
      "inputs": [],
      "name": "gameConfig",
      "outputs": [
        {
          "internalType": "contract GameConfig",
          "name": "",
          "type": "address"
        }
      ],
      "stateMutability": "view",
      "type": "function"
    },
    {
      "inputs": [],
      "name": "getCosts",
      "outputs": [
        {
          "internalType": "uint256",
          "name": "mintCost",
          "type": "uint256"
        },
        {
          "internalType": "uint256",
          "name": "skipCost",
          "type": "uint256"
        }
      ],
      "stateMutability": "view",
      "type": "function"
    },
    {
      "inputs": [
        {
          "internalType": "address",
          "name": "user",
          "type": "address"
        }
      ],
      "name": "getNonce",
      "outputs": [
        {
          "internalType": "uint256",
          "name": "",
          "type": "uint256"
        }
      ],
      "stateMutability": "view",
      "type": "function"
    },
    {
      "inputs": [
        {
          "internalType": "address",
          "name": "user",
          "type": "address"
        }
      ],
      "name": "getSkipCount",
      "outputs": [
        {
          "internalType": "uint256",
          "name": "",
          "type": "uint256"
        }
      ],
      "stateMutability": "view",
      "type": "function"
    },
    {
      "inputs": [
        {
          "internalType": "address",
          "name": "to",
          "type": "address"
        },
        {
          "internalType": "bytes32",
          "name": "genSeed",
          "type": "bytes32"
        },
        {
          "internalType": "uint8",
          "name": "talent",
          "type": "uint8"
        },
        {
          "internalType": "bytes32",
          "name": "personality",
          "type": "bytes32"
        },
        {
          "internalType": "bytes32",
          "name": "elementType",
          "type": "bytes32"
        },
        {
          "internalType": "bytes32",
          "name": "temperament",
          "type": "bytes32"
        },
        {
          "internalType": "uint72",
          "name": "baseStats",
          "type": "uint72"
        },
        {
          "internalType": "uint144",
          "name": "growthRates",
          "type": "uint144"
        },
        {
          "components": [
            {
              "internalType": "uint8",
              "name": "moveId",
              "type": "uint8"
            },
            {
              "internalType": "uint8",
              "name": "moveType",
              "type": "uint8"
            },
            {
              "internalType": "uint8",
              "name": "category",
              "type": "uint8"
            },
            {
              "internalType": "uint8",
              "name": "power",
              "type": "uint8"
            },
            {
              "internalType": "uint8",
              "name": "accuracy",
              "type": "uint8"
            },
            {
              "internalType": "uint8",
              "name": "cooldownMax",
              "type": "uint8"
            },
            {
              "internalType": "uint8",
              "name": "statusEffect",
              "type": "uint8"
            },
            {
              "internalType": "uint8",
              "name": "statusChance",
              "type": "uint8"
            }
          ],
          "internalType": "struct IRMRKCreature.Move[4]",
          "name": "moves",
          "type": "tuple[4]"
        },
        {
          "internalType": "uint8",
          "name": "moveCount",
          "type": "uint8"
        },
        {
          "internalType": "uint8[4]",
          "name": "mastery",
          "type": "uint8[4]"
        },
        {
          "internalType": "uint64",
          "name": "aptitudes",
          "type": "uint64"
        },
        {
          "internalType": "uint256",
          "name": "deadline",
          "type": "uint256"
        },
        {
          "internalType": "bytes",
          "name": "signature",
          "type": "bytes"
        }
      ],
      "name": "mintCreature",
      "outputs": [
        {
          "internalType": "uint256",
          "name": "tokenId",
          "type": "uint256"
        }
      ],
      "stateMutability": "nonpayable",
      "type": "function"
    },
    {
      "inputs": [
        {
          "internalType": "address",
          "name": "",
          "type": "address"
        }
      ],
      "name": "nonces",
      "outputs": [
        {
          "internalType": "uint256",
          "name": "",
          "type": "uint256"
        }
      ],
      "stateMutability": "view",
      "type": "function"
    },
    {
      "inputs": [],
      "name": "owner",
      "outputs": [
        {
          "internalType": "address",
          "name": "",
          "type": "address"
        }
      ],
      "stateMutability": "view",
      "type": "function"
    },
    {
      "inputs": [],
      "name": "pause",
      "outputs": [],
      "stateMutability": "nonpayable",
      "type": "function"
    },
    {
      "inputs": [],
      "name": "paused",
      "outputs": [
        {
          "internalType": "bool",
          "name": "",
          "type": "bool"
        }
      ],
      "stateMutability": "view",
      "type": "function"
    },
    {
      "inputs": [],
      "name": "renounceOwnership",
      "outputs": [],
      "stateMutability": "nonpayable",
      "type": "function"
    },
    {
      "inputs": [
        {
          "internalType": "address",
          "name": "_airdropVault",
          "type": "address"
        }
      ],
      "name": "setAirdropVault",
      "outputs": [],
      "stateMutability": "nonpayable",
      "type": "function"
    },
    {
      "inputs": [
        {
          "internalType": "address",
          "name": "_creatureContract",
          "type": "address"
        }
      ],
      "name": "setCreatureContract",
      "outputs": [],
      "stateMutability": "nonpayable",
      "type": "function"
    },
    {
      "inputs": [
        {
          "internalType": "address",
          "name": "_gameConfig",
          "type": "address"
        }
      ],
      "name": "setGameConfig",
      "outputs": [],
      "stateMutability": "nonpayable",
      "type": "function"
    },
    {
      "inputs": [
        {
          "internalType": "address",
          "name": "_signer",
          "type": "address"
        }
      ],
      "name": "setSigner",
      "outputs": [],
      "stateMutability": "nonpayable",
      "type": "function"
    },
    {
      "inputs": [],
      "name": "signer",
      "outputs": [
        {
          "internalType": "address",
          "name": "",
          "type": "address"
        }
      ],
      "stateMutability": "view",
      "type": "function"
    },
    {
      "inputs": [
        {
          "internalType": "address",
          "name": "",
          "type": "address"
        }
      ],
      "name": "skipCounts",
      "outputs": [
        {
          "internalType": "uint256",
          "name": "",
          "type": "uint256"
        }
      ],
      "stateMutability": "view",
      "type": "function"
    },
    {
      "inputs": [],
      "name": "skipPreview",
      "outputs": [],
      "stateMutability": "nonpayable",
      "type": "function"
    },
    {
      "inputs": [
        {
          "internalType": "address",
          "name": "newOwner",
          "type": "address"
        }
      ],
      "name": "transferOwnership",
      "outputs": [],
      "stateMutability": "nonpayable",
      "type": "function"
    },
    {
      "inputs": [],
      "name": "unpause",
      "outputs": [],
      "stateMutability": "nonpayable",
      "type": "function"
    }
  ],
  "bytecode": "0x608034620001ff576001600160401b0390601f6200150638819003918201601f1916830192919084841183851017620001a3578160609284926040968752833981010312620001ff57620000538162000203565b6200006e83620000666020850162000203565b930162000203565b3315620001e8575f549260018060a01b03908160018060a01b03199433868816175f55875196823391167f8be0079c531659141344cd1fd0a4f28419497f9722a3daafe3b4186f6b6457e05f80a36001805516948515620001d957508116918215620001c85716928315620001b7578260025416176002558160035416176003556004541617600455805160208101917f8b73c3c69bb8fe3d512ecc4cf759cc79239f7b179b0ffacaa9a75d522b39400f83527fc761c24434da9502948fe721ad6e51e8f52f7e81f27bf6dcd891686a034a301b818301527fc89efdaa54c0f20c7adf612882df0950f5a951637e0307cdcb4c672f298b8bc660608301524660808301523060a083015260a0825260c082019382851090851117620001a3578390525190206008556112ed9081620002198239f35b634e487b7160e01b5f52604160045260245ffd5b845163e6c4247b60e01b8152600490fd5b855163e6c4247b60e01b8152600490fd5b63e6c4247b60e01b8152600490fd5b8351631e4fbdf760e01b81525f6004820152602490fd5b5f80fd5b51906001600160a01b0382168203620001ff5756fe6080806040526004361015610012575f80fd5b5f3560e01c9081630307501814610ed65750806308e9962d14610e935780631176829d14610e6b57806320606b7014610e31578063238ac93314610e095780632d0335ab14610c0d5780632efe155b146101be57806332c9009914610de15780633644e51514610dc45780633f4ba83a14610d555780635c975abb14610d315780636c19e78314610cb15780636cbc16ef14610c89578063715018a614610c455780637ecebe0014610c0d5780638456cb5914610bad5780638da5cb5b14610b8657806391507bdb14610b1d57806395afd65614610ada578063c280980f146108cc578063c6a9a16e146101f6578063cd47f260146101be578063f2fde38b1461014f5763f76fc35e14610124575f80fd5b3461014b575f36600319011261014b5760206040515f805160206112788339815191528152f35b5f80fd5b3461014b57602036600319011261014b57610168610faa565b610170611038565b6001600160a01b039081169081156101a6575f548260018060a01b03198216175f55165f805160206112988339815191525f80a3005b604051631e4fbdf760e01b81525f6004820152602490fd5b3461014b57602036600319011261014b576001600160a01b036101df610faa565b165f526007602052602060405f2054604051908152f35b3461014b5761060036600319011261014b57610210610faa565b60443560ff8116810361014b5760c4356001600160481b038116810361014b5760e435916001600160901b038316830361014b57366105041161014b576105043560ff8116810361014b57366105a41161014b576105a435906001600160401b038216820361014b576001600160401b036105e4351161014b573660236105e43501121561014b576001600160401b0360046105e43501351161014b573660246105e435600401356105e43501011161014b576102cb611063565b6102d3611086565b6105c43542116108ba57335f908152600660209081526040918290205482515f80516020611278833981519152928101929092526001600160a01b03891692820192909252602435606082015260ff858116608083015260643560a083015260843560c083015260a43560e08301526001600160481b0387166101008301526001600160901b0388166101208301526001600160401b0385811661014084015290841661016083015261018082018390526105c4356101a08084019190915282526101c08201908111908211176108a65761042060426101c0838161042995016040528051602082012060085461190160f01b848401526101c28301526101e28201520120604051906103f76020601f19601f6105e4356004013501160183610fce565b6105e43560048101358084529060240160208401375f60206105e4356004013584010152611142565b9092919261117c565b6004546001600160a01b039081169116036108945760018101811161088057600190335f5260066020520160405f205560076020525f604081205560018060a01b0360025416946040519463012e3b5760e71b86526020866004818a5afa95861561063f575f96610849575b506020600497604051988980926371f1a83160e11b82525afa96871561063f575f97610828575b506001600160a01b03871615610816576005545f97906001600160a01b0316806107a4575b506104ec888861102b565b80610725575b50506003546040516308f63b7960e41b81526001600160a01b03998a166004820152602480359082015260ff90961660448701526064803590870152608480359087015260a48035908701526001600160481b0390911660c48601526001600160901b0390911660e4850152929592909216918591906101045f8185015b600482106106705750505060ff166105048301526105245f8184015b6004821061064a575050506001600160401b03166105a48201526020916105c49082905f905af191821561063f575f9261060a575b60209350604051918252838201526024356040820152817fed59f322743b1496d31a9e5f2afb05f8724a220a30a4ab54bb502b065dcd3e7660603393a360018055604051908152f35b91506020833d602011610637575b8161062560209383610fce565b8101031261014b5760209251916105c1565b3d9150610618565b6040513d5f823e3d90fd5b829394506020809160ff61066060019596610fc0565b168152019301910187939261058c565b8293949550610100809160ff61068860019596610fc0565b16815260ff61069960208801610fc0565b16602082015260ff6106ad60408801610fc0565b16604082015260ff6106c160608801610fc0565b16606082015260ff6106d560808801610fc0565b16608082015260ff6106e960a08801610fc0565b1660a082015260ff6106fd60c08801610fc0565b1660c082015260ff61071160e08801610fc0565b1660e0820152019301910188949392610570565b600254604051630e42323b60e01b81529290602090849060049082906001600160a01b03165afa801561063f5761076e935f91610775575b5033906001600160a01b03166110a6565b88806104f2565b610797915060203d60201161079d575b61078f8183610fce565b810190610ff1565b8c61075d565b503d610785565b6040516324bf68e160e21b81529198506020908290815f816107ca8d3360048401611010565b03925af190811561063f575f916107e4575b5096896104e1565b90506020813d60201161080e575b816107ff60209383610fce565b8101031261014b5751896107dc565b3d91506107f2565b60405163b2c4cce960e01b8152600490fd5b61084291975060203d60201161079d5761078f8183610fce565b95886104bc565b9695506020873d602011610878575b8161086560209383610fce565b8101031261014b57955194956020610495565b3d9150610858565b634e487b7160e01b5f52601160045260245ffd5b604051638baa579f60e01b8152600490fd5b634e487b7160e01b5f52604160045260245ffd5b604051630819bdcd60e01b8152600490fd5b3461014b575f36600319011261014b576108e4611063565b6108ec611086565b60025460405163ced4ceb960e01b81526001600160a01b03918216916020908183600481875afa92831561063f575f93610aab575b508160049394604051948580926371f1a83160e11b82525afa92831561063f575f93610a8c575b5080831615610816575f92816005541680610a20575b50610969848661102b565b90816109c2575b505050335f526007815260405f2080545f1981146108805760010190556040519283528201527f45f4a2f1b20a074b2712ba11b809c0b26cf6ef7c950834c5531e2c573c38f73c60403392a260018055005b82846004946002541660405195868092630e42323b60e01b82525afa90811561063f576109f9945f92610a01575b503391166110a6565b838080610970565b610a19919250863d881161079d5761078f8183610fce565b90886109f0565b6040516324bf68e160e21b815291945083908290815f81610a458b3360048401611010565b03925af190811561063f575f91610a5f575b50928561095e565b90508281813d8311610a85575b610a768183610fce565b8101031261014b575185610a57565b503d610a6c565b610aa4919350823d841161079d5761078f8183610fce565b9184610948565b92508183813d8311610ad3575b610ac28183610fce565b8101031261014b5791519181610921565b503d610ab8565b3461014b57602036600319011261014b57610af3610faa565b610afb611038565b600380546001600160a01b0319166001600160a01b0392909216919091179055005b3461014b57602036600319011261014b57610b36610faa565b610b3e611038565b600580546001600160a01b039283166001600160a01b0319821681179092559091167f254390ccd8b54fe63666b9fb343bb297c582cebb2e88bcdd48b3a499576485915f80a3005b3461014b575f36600319011261014b575f546040516001600160a01b039091168152602090f35b3461014b575f36600319011261014b57610bc5611038565b610bcd611086565b5f805460ff60a01b1916600160a01b1790556040513381527f62e78cea01bee320cd4e420270b5ea74000d11b0c9f74754ebdbfc544b05a25890602090a1005b3461014b57602036600319011261014b576001600160a01b03610c2e610faa565b165f526006602052602060405f2054604051908152f35b3461014b575f36600319011261014b57610c5d611038565b5f80546001600160a01b0319811682556001600160a01b03165f805160206112988339815191528280a3005b3461014b575f36600319011261014b576003546040516001600160a01b039091168152602090f35b3461014b57602036600319011261014b57610cca610faa565b610cd2611038565b6001600160a01b03908116908115610d1f57600480546001600160a01b031981168417909155167f2d025324f0a785e8c12d0a0d91a9caa49df4ef20ff87e0df7213a1d4f3157beb5f80a3005b60405163e6c4247b60e01b8152600490fd5b3461014b575f36600319011261014b57602060ff5f5460a01c166040519015158152f35b3461014b575f36600319011261014b57610d6d611038565b5f5460ff8160a01c1615610db25760ff60a01b19165f556040513381527f5db9ee0a495bf2e6ff9c91a7834c1ba4fdd244a5e8aa4e537bd38aeae4b073aa90602090a1005b604051638dfc202b60e01b8152600490fd5b3461014b575f36600319011261014b576020600854604051908152f35b3461014b575f36600319011261014b576005546040516001600160a01b039091168152602090f35b3461014b575f36600319011261014b576004546040516001600160a01b039091168152602090f35b3461014b575f36600319011261014b5760206040517f8b73c3c69bb8fe3d512ecc4cf759cc79239f7b179b0ffacaa9a75d522b39400f8152f35b3461014b575f36600319011261014b576002546040516001600160a01b039091168152602090f35b3461014b57602036600319011261014b57610eac610faa565b610eb4611038565b600280546001600160a01b0319166001600160a01b0392909216919091179055005b3461014b575f36600319011261014b5760025463012e3b5760e71b82526001600160a01b03169060208082600481865afa91821561063f575f92610f79575b50806004936040519485809263ced4ceb960e01b82525afa90811561063f575f91610f49575b604080945051928352820152f35b80915083813d8311610f72575b610f608183610fce565b8101031261014b576040925190610f3b565b503d610f56565b9291508083813d8311610fa3575b610f918183610fce565b8101031261014b579151909180610f15565b503d610f87565b600435906001600160a01b038216820361014b57565b359060ff8216820361014b57565b601f909101601f19168101906001600160401b038211908210176108a657604052565b9081602091031261014b57516001600160a01b038116810361014b5790565b6001600160a01b039091168152602081019190915260400190565b9190820391821161088057565b5f546001600160a01b0316330361104b57565b60405163118cdaa760e01b8152336004820152602490fd5b600260015414611074576002600155565b604051633ee5aeb560e01b8152600490fd5b60ff5f5460a01c1661109457565b60405163d93c066560e01b8152600490fd5b6040516323b872dd60e01b602082019081526001600160a01b039384166024830152938316604482015260648082019590955293845292909160a08201906001600160401b038211838310176108a6576020925f92604052519082865af11561063f575f513d61113957508082163b155b61111f575050565b604051635274afe760e01b81529116600482015260249150fd5b60011415611117565b81519190604183036111725761116b9250602082015190606060408401519301515f1a906111ff565b9192909190565b50505f9160029190565b60048110156111eb578061118e575050565b600181036111a85760405163f645eedf60e01b8152600490fd5b600281036111c95760405163fce698f760e01b815260048101839052602490fd5b6003146111d35750565b602490604051906335e2f38360e21b82526004820152fd5b634e487b7160e01b5f52602160045260245ffd5b91906fa2a8918ca85bafe22016d0b997e4df60600160ff1b03841161126c579160209360809260ff5f9560405194855216868401526040830152606082015282805260015afa1561063f575f516001600160a01b0381161561126257905f905f90565b505f906001905f90565b5050505f916003919056fe3e316168ae11d85e55f646e06c1a2a47992c5f3c0504e123e24843c53687aba18be0079c531659141344cd1fd0a4f28419497f9722a3daafe3b4186f6b6457e0a26469706673582212204983dcacfc50cd7d0a61d5d93b5a78e52a809e72d7e54c8eaa72b5ca9fa3963764736f6c63430008180033",
  "linkReferences": {},
  "deployedLinkReferences": {},
  "immutableReferences": {},
  "inputSourceName": "project/src/MintGateV2.sol",
  "buildInfoId": "solc-0_8_24-67eb50a512e466a4c1b495b30256d28c374942f1"
}