{
  "_format": "hh3-artifact-1",
  "contractName": "DragonToken",
  "sourceName": "src/DragonToken.sol",
  "abi": [
    {
      "inputs": [],
      "stateMutability": "nonpayable",
      "type": "constructor"
    },
    {
      "inputs": [
        {
          "internalType": "address",
          "name": "spender",
          "type": "address"
        },
        {
          "internalType": "uint256",
          "name": "allowance",
          "type": "uint256"
        },
        {
          "internalType": "uint256",
          "name": "needed",
          "type": "uint256"
        }
      ],
      "name": "ERC20InsufficientAllowance",
      "type": "error"
    },
    {
      "inputs": [
        {
          "internalType": "address",
          "name": "sender",
          "type": "address"
        },
        {
          "internalType": "uint256",
          "name": "balance",
          "type": "uint256"
        },
        {
          "internalType": "uint256",
          "name": "needed",
          "type": "uint256"
        }
      ],
      "name": "ERC20InsufficientBalance",
      "type": "error"
    },
    {
      "inputs": [
        {
          "internalType": "address",
          "name": "approver",
          "type": "address"
        }
      ],
      "name": "ERC20InvalidApprover",
      "type": "error"
    },
    {
      "inputs": [
        {
          "internalType": "address",
          "name": "receiver",
          "type": "address"
        }
      ],
      "name": "ERC20InvalidReceiver",
      "type": "error"
    },
    {
      "inputs": [
        {
          "internalType": "address",
          "name": "sender",
          "type": "address"
        }
      ],
      "name": "ERC20InvalidSender",
      "type": "error"
    },
    {
      "inputs": [
        {
          "internalType": "address",
          "name": "spender",
          "type": "address"
        }
      ],
      "name": "ERC20InvalidSpender",
      "type": "error"
    },
    {
      "inputs": [],
      "name": "EnforcedPause",
      "type": "error"
    },
    {
      "inputs": [],
      "name": "ExpectedPause",
      "type": "error"
    },
    {
      "inputs": [
        {
          "internalType": "address",
          "name": "owner",
          "type": "address"
        }
      ],
      "name": "OwnableInvalidOwner",
      "type": "error"
    },
    {
      "inputs": [
        {
          "internalType": "address",
          "name": "account",
          "type": "address"
        }
      ],
      "name": "OwnableUnauthorizedAccount",
      "type": "error"
    },
    {
      "anonymous": false,
      "inputs": [
        {
          "indexed": true,
          "internalType": "address",
          "name": "owner",
          "type": "address"
        },
        {
          "indexed": true,
          "internalType": "address",
          "name": "spender",
          "type": "address"
        },
        {
          "indexed": false,
          "internalType": "uint256",
          "name": "value",
          "type": "uint256"
        }
      ],
      "name": "Approval",
      "type": "event"
    },
    {
      "anonymous": false,
      "inputs": [
        {
          "indexed": true,
          "internalType": "address",
          "name": "account",
          "type": "address"
        },
        {
          "indexed": false,
          "internalType": "bool",
          "name": "authorized",
          "type": "bool"
        }
      ],
      "name": "MinterSet",
      "type": "event"
    },
    {
      "anonymous": false,
      "inputs": [
        {
          "indexed": true,
          "internalType": "address",
          "name": "previousOwner",
          "type": "address"
        },
        {
          "indexed": true,
          "internalType": "address",
          "name": "newOwner",
          "type": "address"
        }
      ],
      "name": "OwnershipTransferred",
      "type": "event"
    },
    {
      "anonymous": false,
      "inputs": [
        {
          "indexed": false,
          "internalType": "address",
          "name": "account",
          "type": "address"
        }
      ],
      "name": "Paused",
      "type": "event"
    },
    {
      "anonymous": false,
      "inputs": [
        {
          "indexed": true,
          "internalType": "address",
          "name": "from",
          "type": "address"
        },
        {
          "indexed": true,
          "internalType": "address",
          "name": "to",
          "type": "address"
        },
        {
          "indexed": false,
          "internalType": "uint256",
          "name": "value",
          "type": "uint256"
        }
      ],
      "name": "Transfer",
      "type": "event"
    },
    {
      "anonymous": false,
      "inputs": [
        {
          "indexed": false,
          "internalType": "address",
          "name": "account",
          "type": "address"
        }
      ],
      "name": "Unpaused",
      "type": "event"
    },
    {
      "inputs": [
        {
          "internalType": "address",
          "name": "owner",
          "type": "address"
        },
        {
          "internalType": "address",
          "name": "spender",
          "type": "address"
        }
      ],
      "name": "allowance",
      "outputs": [
        {
          "internalType": "uint256",
          "name": "",
          "type": "uint256"
        }
      ],
      "stateMutability": "view",
      "type": "function"
    },
    {
      "inputs": [
        {
          "internalType": "address",
          "name": "spender",
          "type": "address"
        },
        {
          "internalType": "uint256",
          "name": "value",
          "type": "uint256"
        }
      ],
      "name": "approve",
      "outputs": [
        {
          "internalType": "bool",
          "name": "",
          "type": "bool"
        }
      ],
      "stateMutability": "nonpayable",
      "type": "function"
    },
    {
      "inputs": [
        {
          "internalType": "address",
          "name": "account",
          "type": "address"
        }
      ],
      "name": "balanceOf",
      "outputs": [
        {
          "internalType": "uint256",
          "name": "",
          "type": "uint256"
        }
      ],
      "stateMutability": "view",
      "type": "function"
    },
    {
      "inputs": [
        {
          "internalType": "uint256",
          "name": "value",
          "type": "uint256"
        }
      ],
      "name": "burn",
      "outputs": [],
      "stateMutability": "nonpayable",
      "type": "function"
    },
    {
      "inputs": [
        {
          "internalType": "address",
          "name": "account",
          "type": "address"
        },
        {
          "internalType": "uint256",
          "name": "value",
          "type": "uint256"
        }
      ],
      "name": "burnFrom",
      "outputs": [],
      "stateMutability": "nonpayable",
      "type": "function"
    },
    {
      "inputs": [],
      "name": "decimals",
      "outputs": [
        {
          "internalType": "uint8",
          "name": "",
          "type": "uint8"
        }
      ],
      "stateMutability": "view",
      "type": "function"
    },
    {
      "inputs": [
        {
          "internalType": "address",
          "name": "to",
          "type": "address"
        },
        {
          "internalType": "uint256",
          "name": "amount",
          "type": "uint256"
        }
      ],
      "name": "mint",
      "outputs": [],
      "stateMutability": "nonpayable",
      "type": "function"
    },
    {
      "inputs": [
        {
          "internalType": "address",
          "name": "",
          "type": "address"
        }
      ],
      "name": "minters",
      "outputs": [
        {
          "internalType": "bool",
          "name": "",
          "type": "bool"
        }
      ],
      "stateMutability": "view",
      "type": "function"
    },
    {
      "inputs": [],
      "name": "name",
      "outputs": [
        {
          "internalType": "string",
          "name": "",
          "type": "string"
        }
      ],
      "stateMutability": "view",
      "type": "function"
    },
    {
      "inputs": [],
      "name": "owner",
      "outputs": [
        {
          "internalType": "address",
          "name": "",
          "type": "address"
        }
      ],
      "stateMutability": "view",
      "type": "function"
    },
    {
      "inputs": [],
      "name": "pause",
      "outputs": [],
      "stateMutability": "nonpayable",
      "type": "function"
    },
    {
      "inputs": [],
      "name": "paused",
      "outputs": [
        {
          "internalType": "bool",
          "name": "",
          "type": "bool"
        }
      ],
      "stateMutability": "view",
      "type": "function"
    },
    {
      "inputs": [],
      "name": "renounceOwnership",
      "outputs": [],
      "stateMutability": "nonpayable",
      "type": "function"
    },
    {
      "inputs": [
        {
          "internalType": "address",
          "name": "account",
          "type": "address"
        },
        {
          "internalType": "bool",
          "name": "authorized",
          "type": "bool"
        }
      ],
      "name": "setMinter",
      "outputs": [],
      "stateMutability": "nonpayable",
      "type": "function"
    },
    {
      "inputs": [],
      "name": "symbol",
      "outputs": [
        {
          "internalType": "string",
          "name": "",
          "type": "string"
        }
      ],
      "stateMutability": "view",
      "type": "function"
    },
    {
      "inputs": [],
      "name": "totalSupply",
      "outputs": [
        {
          "internalType": "uint256",
          "name": "",
          "type": "uint256"
        }
      ],
      "stateMutability": "view",
      "type": "function"
    },
    {
      "inputs": [
        {
          "internalType": "address",
          "name": "to",
          "type": "address"
        },
        {
          "internalType": "uint256",
          "name": "value",
          "type": "uint256"
        }
      ],
      "name": "transfer",
      "outputs": [
        {
          "internalType": "bool",
          "name": "",
          "type": "bool"
        }
      ],
      "stateMutability": "nonpayable",
      "type": "function"
    },
    {
      "inputs": [
        {
          "internalType": "address",
          "name": "from",
          "type": "address"
        },
        {
          "internalType": "address",
          "name": "to",
          "type": "address"
        },
        {
          "internalType": "uint256",
          "name": "value",
          "type": "uint256"
        }
      ],
      "name": "transferFrom",
      "outputs": [
        {
          "internalType": "bool",
          "name": "",
          "type": "bool"
        }
      ],
      "stateMutability": "nonpayable",
      "type": "function"
    },
    {
      "inputs": [
        {
          "internalType": "address",
          "name": "newOwner",
          "type": "address"
        }
      ],
      "name": "transferOwnership",
      "outputs": [],
      "stateMutability": "nonpayable",
      "type": "function"
    },
    {
      "inputs": [],
      "name": "unpause",
      "outputs": [],
      "stateMutability": "nonpayable",
      "type": "function"
    }
  ],
  "bytecode": "0x608034620003a4576001600160401b039060408181018381118382101762000390578152600e82526020926d447261676f6e20457373656e636560901b8484015281519082820182811082821117620003905783526004918281526344474e4560e01b8682015284518281116200037d576003918254916001978884811c9416801562000372575b8a8510146200035f578190601f948581116200030c575b508a90858311600114620002a7575f926200029b575b50505f1982861b1c191690881b1783555b8051938411620002885784548781811c911680156200027d575b898210146200026a57908183869594931162000213575b5088918411600114620001ac575f93620001a0575b505082861b925f19911b1c19161781555b33156200018b575060058054336001600160a01b03198216811790925582519460069290916001600160a01b03167f8be0079c531659141344cd1fd0a4f28419497f9722a3daafe3b4186f6b6457e05f80a3335f52525f209060ff19825416179055610ba99081620003a98239f35b5f6024925191631e4fbdf760e01b8352820152fd5b015191505f806200010b565b9190879450601f19841692865f52895f20935f5b8b828210620001fc5750508511620001e2575b50505050811b0181556200011c565b01519060f8845f19921b161c191690555f808080620001d3565b8385015187558b98909601959384019301620001c0565b9091929350855f52885f208380870160051c8201928b881062000260575b918a918897969594930160051c01915b82811062000251575050620000f6565b5f81558796508a910162000241565b9250819262000231565b602286634e487b7160e01b5f525260245ffd5b90607f1690620000df565b604185634e487b7160e01b5f525260245ffd5b015190505f80620000b4565b5f8781528c81208c9550929190601f198516908e5b828210620002f45750508411620002dc575b505050811b018355620000c5565b01515f1983881b60f8161c191690555f8080620002ce565b8385015186558e979095019493840193018e620002bc565b909150855f528a5f208580850160051c8201928d861062000355575b918c91869594930160051c01915b828110620003465750506200009e565b5f81558594508c910162000336565b9250819262000328565b602287634e487b7160e01b5f525260245ffd5b93607f169362000087565b604184634e487b7160e01b5f525260245ffd5b634e487b7160e01b5f52604160045260245ffd5b5f80fdfe6080604090808252600480361015610015575f80fd5b5f3560e01c91826306fdde03146107a257508163095ea7b3146106fa57816318160ddd146106dc57816323b872dd146106a0578163313ce567146106855781633f4ba83a1461061657816340c10f191461052157816342966c68146105055781635c975abb146104df57816370a08231146104a9578163715018a61461046157816379cc6790146104305781638456cb59146103d15781638da5cb5b146103a957816395d89b41146102a7578163a9059cbb14610277578163cf456ae7146101fa578163dd62ed3e146101b1578163f2fde38b1461013b575063f46eccc4146100fc575f80fd5b34610137576020366003190112610137576020906001600160a01b036101206108a3565b165f526006825260ff815f20541690519015158152f35b5f80fd5b905034610137576020366003190112610137576101566108a3565b9061015f610a66565b6001600160a01b0391821692831561019b575050600580546001600160a01b031981168417909155165f80516020610b348339815191525f80a3005b905f6024925191631e4fbdf760e01b8352820152fd5b82346101375780600319360112610137576020906101cd6108a3565b6101d56108b9565b9060018060a01b038091165f5260018452825f2091165f528252805f20549051908152f35b82346101375780600319360112610137576102136108a3565b60243590811515809203610137577f583b0aa0e528532caf4b907c11d7a8158a122fe2a6fb80cd9b09776ebea8d92d9160209161024e610a66565b6001600160a01b03165f81815260068452859020805460ff191660ff84161790559351908152a2005b82346101375780600319360112610137576020906102a06102966108a3565b60243590336109ac565b5160018152f35b8234610137575f366003190112610137578051905f835460018160011c906001831692831561039f575b602093848410811461038c578388529081156103705750600114610338575b505050829003601f01601f19168201926001600160401b03841183851017610325575082918261032192528261085c565b0390f35b604190634e487b7160e01b5f525260245ffd5b919250855f52825f2091835f935b83851061035c57505050508301018480806102f0565b805488860183015293019284908201610346565b60ff1916878501525050151560051b84010190508480806102f0565b602289634e487b7160e01b5f525260245ffd5b91607f16916102d1565b8234610137575f3660031901126101375760055490516001600160a01b039091168152602090f35b8234610137575f3660031901126101375760207f62e78cea01bee320cd4e420270b5ea74000d11b0c9f74754ebdbfc544b05a2589161040e610a66565b610416610a92565b6005805460ff60a01b1916600160a01b17905551338152a1005b8234610137573660031901126101375761045f61044b6108a3565b6024359061045a8233836108ed565b610ab3565b005b34610137575f36600319011261013757610479610a66565b600580546001600160a01b031981169091555f906001600160a01b03165f80516020610b348339815191528280a3005b8234610137576020366003190112610137576020906001600160a01b036104ce6108a3565b165f525f8252805f20549051908152f35b8234610137575f3660031901126101375760209060ff60055460a01c1690519015158152f35b346101375760203660031901126101375761045f903533610ab3565b823461013757806003193601126101375761053a6108a3565b9060243591335f52600660205260ff825f205416156105d75761055b610a92565b6001600160a01b03169283156105c257610573610a92565b600254908382018092116105af57505f925f80516020610b548339815191529260209260025585855284835280852082815401905551908152a3005b601190634e487b7160e01b5f525260245ffd5b5f602492519163ec442f0560e01b8352820152fd5b815162461bcd60e51b81526020818601526019602482015278223930b3b7b72a37b5b2b71d103737ba10309036b4b73a32b960391b6044820152606490fd5b8234610137575f3660031901126101375761062f610a66565b6005549160ff8360a01c16156106775760ff60a01b19831660055581513381527f5db9ee0a495bf2e6ff9c91a7834c1ba4fdd244a5e8aa4e537bd38aeae4b073aa90602090a1005b9051638dfc202b60e01b8152fd5b8234610137575f366003190112610137576020905160128152f35b8234610137576060366003190112610137576020906102a06106c06108a3565b6106c86108b9565b604435916106d78333836108ed565b6109ac565b8234610137575f366003190112610137576020906002549051908152f35b82346101375780600319360112610137576107136108a3565b60243590331561078c576001600160a01b03169081156107765760209350335f5260018452825f20825f52845280835f205582519081527f8c5be1e5ebec7d5bd14f71427d1e84f3dd0314c0f7b2291e5b200ac8c7c3b925843392a35160018152f35b8251634a1406b160e11b81525f81860152602490fd5b825163e602df0560e01b81525f81860152602490fd5b8334610137575f366003190112610137575f60035460018160011c9060018316928315610852575b602093848410811461038c57838852908115610370575060011461081957505050829003601f01601f19168201926001600160401b03841183851017610325575082918261032192528261085c565b91925060035f52825f2091835f935b83851061083e57505050508301018480806102f0565b805488860183015293019284908201610828565b91607f16916107ca565b602080825282518183018190529093925f5b82811061088f57505060409293505f838284010152601f8019910116010190565b81810186015184820160400152850161086e565b600435906001600160a01b038216820361013757565b602435906001600160a01b038216820361013757565b604091949392606082019560018060a01b0316825260208201520152565b919060018060a01b0380931692835f526001602052604093845f2091831691825f52602052845f2054925f198410610928575b505050505050565b84841061098a5750801561097357811561095c575f526001602052835f20905f5260205203905f20555f8080808080610920565b8451634a1406b160e11b81525f6004820152602490fd5b845163e602df0560e01b81525f6004820152602490fd5b83906109a8868851938493637dc7a0d960e11b8552600485016108cf565b0390fd5b916001600160a01b03808416928315610a4e5716928315610a36576109cf610a92565b825f525f60205260405f205490828210610a195750815f80516020610b5483398151915292602092855f525f84520360405f2055845f5260405f20818154019055604051908152a3565b6109a88360405193849363391434e360e21b8552600485016108cf565b60405163ec442f0560e01b81525f6004820152602490fd5b604051634b637e8f60e11b81525f6004820152602490fd5b6005546001600160a01b03163303610a7a57565b60405163118cdaa760e01b8152336004820152602490fd5b60ff60055460a01c16610aa157565b60405163d93c066560e01b8152600490fd5b91906001600160a01b038316908115610a4e57610ace610a92565b815f525f60205260405f205493818510610b1557506020815f80516020610b54833981519152925f95968587528684520360408620558060025403600255604051908152a3565b6109a8859260405193849363391434e360e21b8552600485016108cf56fe8be0079c531659141344cd1fd0a4f28419497f9722a3daafe3b4186f6b6457e0ddf252ad1be2c89b69c2b068fc378daa952ba7f163c4a11628f55a4df523b3efa2646970667358221220206bf1ccc2b09d33ae639eca5abe8023ab98ecc508fa16afb9dc6e3e73a25c9564736f6c63430008180033",
  "linkReferences": {},
  "deployedLinkReferences": {},
  "immutableReferences": {},
  "inputSourceName": "project/src/DragonToken.sol",
  "buildInfoId": "solc-0_8_24-51e682cd951db4ab161c5dde04dbd3ae1866b31c"
}