{
  "_format": "hh3-artifact-1",
  "contractName": "BattleGate",
  "sourceName": "src/BattleGate.sol",
  "abi": [
    {
      "inputs": [
        {
          "internalType": "address",
          "name": "_gameConfig",
          "type": "address"
        },
        {
          "internalType": "address",
          "name": "_dragonToken",
          "type": "address"
        }
      ],
      "stateMutability": "nonpayable",
      "type": "constructor"
    },
    {
      "inputs": [],
      "name": "EnforcedPause",
      "type": "error"
    },
    {
      "inputs": [],
      "name": "ExpectedPause",
      "type": "error"
    },
    {
      "inputs": [
        {
          "internalType": "address",
          "name": "owner",
          "type": "address"
        }
      ],
      "name": "OwnableInvalidOwner",
      "type": "error"
    },
    {
      "inputs": [
        {
          "internalType": "address",
          "name": "account",
          "type": "address"
        }
      ],
      "name": "OwnableUnauthorizedAccount",
      "type": "error"
    },
    {
      "inputs": [],
      "name": "ReentrancyGuardReentrantCall",
      "type": "error"
    },
    {
      "inputs": [
        {
          "internalType": "address",
          "name": "token",
          "type": "address"
        }
      ],
      "name": "SafeERC20FailedOperation",
      "type": "error"
    },
    {
      "anonymous": false,
      "inputs": [
        {
          "indexed": true,
          "internalType": "address",
          "name": "player",
          "type": "address"
        },
        {
          "indexed": true,
          "internalType": "uint256",
          "name": "creatureId",
          "type": "uint256"
        },
        {
          "indexed": false,
          "internalType": "uint256",
          "name": "dgneCost",
          "type": "uint256"
        },
        {
          "indexed": false,
          "internalType": "bytes32",
          "name": "nonce",
          "type": "bytes32"
        }
      ],
      "name": "BattleEntryPaid",
      "type": "event"
    },
    {
      "anonymous": false,
      "inputs": [
        {
          "indexed": true,
          "internalType": "address",
          "name": "player",
          "type": "address"
        },
        {
          "indexed": true,
          "internalType": "uint256",
          "name": "creatureId",
          "type": "uint256"
        },
        {
          "indexed": false,
          "internalType": "bytes32",
          "name": "nonce",
          "type": "bytes32"
        }
      ],
      "name": "BattleRefunded",
      "type": "event"
    },
    {
      "anonymous": false,
      "inputs": [
        {
          "indexed": true,
          "internalType": "address",
          "name": "operator",
          "type": "address"
        },
        {
          "indexed": false,
          "internalType": "bool",
          "name": "authorized",
          "type": "bool"
        }
      ],
      "name": "OperatorUpdated",
      "type": "event"
    },
    {
      "anonymous": false,
      "inputs": [
        {
          "indexed": true,
          "internalType": "address",
          "name": "previousOwner",
          "type": "address"
        },
        {
          "indexed": true,
          "internalType": "address",
          "name": "newOwner",
          "type": "address"
        }
      ],
      "name": "OwnershipTransferred",
      "type": "event"
    },
    {
      "anonymous": false,
      "inputs": [
        {
          "indexed": false,
          "internalType": "address",
          "name": "account",
          "type": "address"
        }
      ],
      "name": "Paused",
      "type": "event"
    },
    {
      "anonymous": false,
      "inputs": [
        {
          "indexed": false,
          "internalType": "address",
          "name": "account",
          "type": "address"
        }
      ],
      "name": "Unpaused",
      "type": "event"
    },
    {
      "anonymous": false,
      "inputs": [
        {
          "indexed": true,
          "internalType": "address",
          "name": "winner",
          "type": "address"
        },
        {
          "indexed": false,
          "internalType": "uint256",
          "name": "amount",
          "type": "uint256"
        },
        {
          "indexed": false,
          "internalType": "bytes32",
          "name": "battleNonce",
          "type": "bytes32"
        }
      ],
      "name": "WinnerRewarded",
      "type": "event"
    },
    {
      "inputs": [
        {
          "internalType": "address",
          "name": "",
          "type": "address"
        }
      ],
      "name": "authorizedOperators",
      "outputs": [
        {
          "internalType": "bool",
          "name": "",
          "type": "bool"
        }
      ],
      "stateMutability": "view",
      "type": "function"
    },
    {
      "inputs": [
        {
          "internalType": "address",
          "name": "player",
          "type": "address"
        }
      ],
      "name": "canEnterBattle",
      "outputs": [
        {
          "internalType": "bool",
          "name": "",
          "type": "bool"
        }
      ],
      "stateMutability": "view",
      "type": "function"
    },
    {
      "inputs": [],
      "name": "dragonToken",
      "outputs": [
        {
          "internalType": "contract IERC20",
          "name": "",
          "type": "address"
        }
      ],
      "stateMutability": "view",
      "type": "function"
    },
    {
      "inputs": [],
      "name": "gameConfig",
      "outputs": [
        {
          "internalType": "contract GameConfig",
          "name": "",
          "type": "address"
        }
      ],
      "stateMutability": "view",
      "type": "function"
    },
    {
      "inputs": [],
      "name": "getEntryCost",
      "outputs": [
        {
          "internalType": "uint256",
          "name": "dgneCost",
          "type": "uint256"
        },
        {
          "internalType": "uint256",
          "name": "reward",
          "type": "uint256"
        }
      ],
      "stateMutability": "view",
      "type": "function"
    },
    {
      "inputs": [],
      "name": "owner",
      "outputs": [
        {
          "internalType": "address",
          "name": "",
          "type": "address"
        }
      ],
      "stateMutability": "view",
      "type": "function"
    },
    {
      "inputs": [],
      "name": "pause",
      "outputs": [],
      "stateMutability": "nonpayable",
      "type": "function"
    },
    {
      "inputs": [],
      "name": "paused",
      "outputs": [
        {
          "internalType": "bool",
          "name": "",
          "type": "bool"
        }
      ],
      "stateMutability": "view",
      "type": "function"
    },
    {
      "inputs": [
        {
          "internalType": "uint256",
          "name": "creatureId",
          "type": "uint256"
        },
        {
          "internalType": "bytes32",
          "name": "nonce",
          "type": "bytes32"
        }
      ],
      "name": "payEntryFee",
      "outputs": [],
      "stateMutability": "nonpayable",
      "type": "function"
    },
    {
      "inputs": [
        {
          "internalType": "address",
          "name": "player",
          "type": "address"
        },
        {
          "internalType": "uint256",
          "name": "creatureId",
          "type": "uint256"
        },
        {
          "internalType": "bytes32",
          "name": "nonce",
          "type": "bytes32"
        }
      ],
      "name": "refundEntryFee",
      "outputs": [],
      "stateMutability": "nonpayable",
      "type": "function"
    },
    {
      "inputs": [],
      "name": "renounceOwnership",
      "outputs": [],
      "stateMutability": "nonpayable",
      "type": "function"
    },
    {
      "inputs": [
        {
          "internalType": "address",
          "name": "winner",
          "type": "address"
        },
        {
          "internalType": "bytes32",
          "name": "battleNonce",
          "type": "bytes32"
        }
      ],
      "name": "rewardWinner",
      "outputs": [],
      "stateMutability": "nonpayable",
      "type": "function"
    },
    {
      "inputs": [
        {
          "internalType": "address",
          "name": "_gameConfig",
          "type": "address"
        }
      ],
      "name": "setGameConfig",
      "outputs": [],
      "stateMutability": "nonpayable",
      "type": "function"
    },
    {
      "inputs": [
        {
          "internalType": "address",
          "name": "operator",
          "type": "address"
        },
        {
          "internalType": "bool",
          "name": "authorized",
          "type": "bool"
        }
      ],
      "name": "setOperator",
      "outputs": [],
      "stateMutability": "nonpayable",
      "type": "function"
    },
    {
      "inputs": [
        {
          "internalType": "address",
          "name": "newOwner",
          "type": "address"
        }
      ],
      "name": "transferOwnership",
      "outputs": [],
      "stateMutability": "nonpayable",
      "type": "function"
    },
    {
      "inputs": [],
      "name": "unpause",
      "outputs": [],
      "stateMutability": "nonpayable",
      "type": "function"
    },
    {
      "inputs": [
        {
          "internalType": "bytes32",
          "name": "",
          "type": "bytes32"
        }
      ],
      "name": "usedNonces",
      "outputs": [
        {
          "internalType": "bool",
          "name": "",
          "type": "bool"
        }
      ],
      "stateMutability": "view",
      "type": "function"
    },
    {
      "inputs": [
        {
          "internalType": "address",
          "name": "token",
          "type": "address"
        },
        {
          "internalType": "address",
          "name": "to",
          "type": "address"
        },
        {
          "internalType": "uint256",
          "name": "amount",
          "type": "uint256"
        }
      ],
      "name": "withdrawTokens",
      "outputs": [],
      "stateMutability": "nonpayable",
      "type": "function"
    }
  ],
  "bytecode": "0x60803461017357610f1490601f38839003908101601f19168201906001600160401b03821183831017610177578083916040958694855283398101031261017357610055602061004e8361018b565b920161018b565b90331561015c575f549160018060a01b03908160018060a01b03199333858716175f55865195823391167f8be0079c531659141344cd1fd0a4f28419497f9722a3daafe3b4186f6b6457e05f80a3600180551693841561011a5750169182156100d657816002541617600255600354161760035551610d7490816101a08239f35b835162461bcd60e51b815260206004820152601460248201527f496e76616c696420647261676f6e20746f6b656e0000000000000000000000006044820152606490fd5b62461bcd60e51b815260206004820152601360248201527f496e76616c69642067616d6520636f6e666967000000000000000000000000006044820152606490fd5b8251631e4fbdf760e01b81525f6004820152602490fd5b5f80fd5b634e487b7160e01b5f52604160045260245ffd5b51906001600160a01b03821682036101735756fe60406080815260049081361015610014575f80fd5b5f915f3560e01c806308e9962d14610b2b5780630e42323b14610b035780631176829d14610adb578063181d989b14610a9f57806338858c81146109ab5780633f4ba83a1461093d5780634883d86d146106fe578063558a7297146106815780635c975abb1461065c5780635d0f370f146105835780635e35359e146104fb5780636d607d4e1461042b578063715018a6146103e75780638456cb59146103895780638da5cb5b14610362578063f2fde38b146102f1578063f8197986146101125763feb61724146100e4575f80fd5b3461010e57602036600319011261010e57816020938260ff93358252855220541690519015158152f35b8280fd5b50823461024157826003193601126102415761012c610baa565b9260243593335f526020906005825260ff835f205416156102b457855f5284825260ff835f2054161561027e57600254835163153276e760e11b815295969495946001600160a01b03939091819087908a90829088165afa958615610274575f96610245575b508360035416803b15610241575f876101c29286838d8b51968795869485936340c10f1960e01b85528401610bf7565b03925af1801561023757610205575b507f212d2fff4310ea4f01098e6c3b6867bf6df7a58b96fd02c8bdb9a3874e0512819596975084519687528601521692a280f35b9096506001600160401b0381116102245784529495505f9486886101d1565b604188634e487b7160e01b5f525260245ffd5b86513d5f823e3d90fd5b5f80fd5b9080965081813d831161026d575b61025d8183610bc0565b8101031261024157519488610192565b503d610253565b85513d5f823e3d90fd5b825162461bcd60e51b8152808601839052601060248201526f10985d1d1b19481b9bdd08199bdd5b9960821b6044820152606490fd5b825162461bcd60e51b815280860183905260176024820152762737ba1030baba3437b934bd32b21037b832b930ba37b960491b6044820152606490fd5b50346102415760203660031901126102415761030b610baa565b90610314610c12565b6001600160a01b0391821692831561034c5750505f548260018060a01b03198216175f55165f80516020610d1f8339815191525f80a3005b905f6024925191631e4fbdf760e01b8352820152fd5b8234610241575f366003190112610241575f5490516001600160a01b039091168152602090f35b8234610241575f3660031901126102415760207f62e78cea01bee320cd4e420270b5ea74000d11b0c9f74754ebdbfc544b05a258916103c6610c12565b6103ce610c3d565b5f805460ff60a01b1916600160a01b17905551338152a1005b34610241575f366003190112610241576103ff610c12565b5f80546001600160a01b0319811682556001600160a01b03165f80516020610d1f8339815191528280a3005b503461024157606036600319011261024157610445610baa565b9161044e610c12565b600254815163d03db08960e01b81526001600160a01b039390916020918391829087165afa9081156104f1575f916104b2575b505f80516020610cff833981519152916104a2602092868660035416610c5d565b51926044358452602435941692a3005b90506020813d6020116104e9575b816104cd60209383610bc0565b8101031261024157515f80516020610cff833981519152610481565b3d91506104c0565b82513d5f823e3d90fd5b503461024157606036600319011261024157610515610baa565b90602435906001600160a01b039081831680840361024157610535610c12565b1561054c575061054a93506044359216610c5d565b005b606490602086519162461bcd60e51b83528201526011602482015270125b9d985b1a59081c9958da5c1a595b9d607a1b6044820152fd5b5034610241575f36600319011261024157600254825163d03db08960e01b815291906020906001600160a01b031681848481845afa938415610274575f9461062d575b50819085519384809263153276e760e11b82525afa918215610623575f926105f4575b508351928352820152f35b9080925081813d831161061c575b61060c8183610bc0565b81010312610241575190846105e9565b503d610602565b84513d5f823e3d90fd5b9093508181813d8311610655575b6106458183610bc0565b81010312610241575192816105c6565b503d61063b565b8234610241575f3660031901126102415760209060ff5f5460a01c1690519015158152f35b823461024157806003193601126102415761069a610baa565b60243590811515809203610241577f966c160e1c4dbc7df8d69af4ace01e9297c3cf016397b7914971f2fbfa32672d916020916106d5610c12565b6001600160a01b03165f81815260058452859020805460ff191660ff84161790559351908152a2005b5034610241578160031936011261024157602480359061071c610c3d565b60026001541461092d576002600155815f5260209083825260ff855f2054166108f757600254855163d03db08960e01b815294939291906001600160a01b0390839087908790829085165afa9586156108ed575f966108be575b506003541686516370a0823160e01b8152338682015283818481855afa80156108b45787915f91610883575b501061084d5786516323b872dd60e01b848201523383820152306044820152606480820188905281529160a08301906001600160401b0382118483101761083b575087527f6b29b5b6f86c2f0bb920053af8923b25dc79a680a2f004411897104cd57070ad9493929161081491610c99565b815f52828152855f20600160ff19825416179055855194855284015235923392a360018055005b634e487b7160e01b5f90815260418852fd5b865162461bcd60e51b815280860184905260118184015270496e73756666696369656e742044474e4560781b6044820152606490fd5b809250858092503d83116108ad575b61089c8183610bc0565b8101031261024157869051896107a2565b503d610892565b88513d5f823e3d90fd5b9095508281813d83116108e6575b6108d68183610bc0565b8101031261024157519487610776565b503d6108cc565b87513d5f823e3d90fd5b9060129250606494519362461bcd60e51b855284015282015271139bdb98d948185b1c9958591e481d5cd95960721b6044820152fd5b8351633ee5aeb560e01b81528390fd5b509034610241575f36600319011261024157610957610c12565b5f549160ff8360a01c161561099d5760ff60a01b1983165f5581513381527f5db9ee0a495bf2e6ff9c91a7834c1ba4fdd244a5e8aa4e537bd38aeae4b073aa90602090a1005b9051638dfc202b60e01b8152fd5b5090346102415760209182600319360112610241576109c8610baa565b60035483516370a0823160e01b81526001600160a01b039283168482015293919085908590602490829085165afa9384156104f1579085915f95610a6e575b506002541682519384809263d03db08960e01b82525afa918215610a64575f92610a35575b50519110158152f35b9091508381813d8311610a5d575b610a4d8183610bc0565b8101031261024157519084610a2c565b503d610a43565b50513d5f823e3d90fd5b8281939296503d8311610a98575b610a868183610bc0565b81010312610241578490519386610a07565b503d610a7c565b8234610241576020366003190112610241576020906001600160a01b03610ac4610baa565b165f526005825260ff815f20541690519015158152f35b8234610241575f3660031901126102415760025490516001600160a01b039091168152602090f35b8234610241575f3660031901126102415760035490516001600160a01b039091168152602090f35b503461024157602036600319011261024157610b45610baa565b610b4d610c12565b6001600160a01b0316918215610b7157600280546001600160a01b03191684179055005b906020606492519162461bcd60e51b83528201526013602482015272496e76616c69642067616d6520636f6e66696760681b6044820152fd5b600435906001600160a01b038216820361024157565b601f909101601f19168101906001600160401b03821190821017610be357604052565b634e487b7160e01b5f52604160045260245ffd5b6001600160a01b039091168152602081019190915260400190565b5f546001600160a01b03163303610c2557565b60405163118cdaa760e01b8152336004820152602490fd5b60ff5f5460a01c16610c4b57565b60405163d93c066560e01b8152600490fd5b610c92610c979392610c8460405194859263a9059cbb60e01b602085015260248401610bf7565b03601f198101845283610bc0565b610c99565b565b905f602091828151910182855af115610cf3575f513d610cea57506001600160a01b0381163b155b610cc85750565b604051635274afe760e01b81526001600160a01b039091166004820152602490fd5b60011415610cc1565b6040513d5f823e3d90fdfe162e294362958f02915ce43c72518c8124a9e70ed61854c2894cac3698b344138be0079c531659141344cd1fd0a4f28419497f9722a3daafe3b4186f6b6457e0a2646970667358221220e8603fa4a2e13df2146c9d8e14e20d952b6041fc6898cd951818e8112d3d96b964736f6c63430008180033",
  "linkReferences": {},
  "deployedLinkReferences": {},
  "immutableReferences": {},
  "inputSourceName": "project/src/BattleGate.sol",
  "buildInfoId": "solc-0_8_24-29916ace19ef803ba5a875dd4db799ef46327a6c"
}