{
  "_format": "hh3-artifact-1",
  "contractName": "MintGate",
  "sourceName": "src/MintGate.sol",
  "abi": [
    {
      "inputs": [
        {
          "internalType": "address",
          "name": "_gameConfig",
          "type": "address"
        },
        {
          "internalType": "address",
          "name": "_rmrkCreature",
          "type": "address"
        }
      ],
      "stateMutability": "nonpayable",
      "type": "constructor"
    },
    {
      "inputs": [],
      "name": "EnforcedPause",
      "type": "error"
    },
    {
      "inputs": [],
      "name": "ExpectedPause",
      "type": "error"
    },
    {
      "inputs": [],
      "name": "InsufficientDGNE",
      "type": "error"
    },
    {
      "inputs": [],
      "name": "InsufficientRMRK",
      "type": "error"
    },
    {
      "inputs": [],
      "name": "InvalidAddress",
      "type": "error"
    },
    {
      "inputs": [
        {
          "internalType": "address",
          "name": "owner",
          "type": "address"
        }
      ],
      "name": "OwnableInvalidOwner",
      "type": "error"
    },
    {
      "inputs": [
        {
          "internalType": "address",
          "name": "account",
          "type": "address"
        }
      ],
      "name": "OwnableUnauthorizedAccount",
      "type": "error"
    },
    {
      "inputs": [],
      "name": "ReentrancyGuardReentrantCall",
      "type": "error"
    },
    {
      "inputs": [
        {
          "internalType": "address",
          "name": "token",
          "type": "address"
        }
      ],
      "name": "SafeERC20FailedOperation",
      "type": "error"
    },
    {
      "anonymous": false,
      "inputs": [
        {
          "indexed": true,
          "internalType": "uint256",
          "name": "tokenId",
          "type": "uint256"
        },
        {
          "indexed": true,
          "internalType": "address",
          "name": "minter",
          "type": "address"
        },
        {
          "indexed": false,
          "internalType": "uint256",
          "name": "dgneBurned",
          "type": "uint256"
        },
        {
          "indexed": false,
          "internalType": "uint256",
          "name": "rmrkBurned",
          "type": "uint256"
        }
      ],
      "name": "CreatureMintedViaGate",
      "type": "event"
    },
    {
      "anonymous": false,
      "inputs": [
        {
          "indexed": true,
          "internalType": "address",
          "name": "newConfig",
          "type": "address"
        }
      ],
      "name": "GameConfigUpdated",
      "type": "event"
    },
    {
      "anonymous": false,
      "inputs": [
        {
          "indexed": true,
          "internalType": "address",
          "name": "previousOwner",
          "type": "address"
        },
        {
          "indexed": true,
          "internalType": "address",
          "name": "newOwner",
          "type": "address"
        }
      ],
      "name": "OwnershipTransferred",
      "type": "event"
    },
    {
      "anonymous": false,
      "inputs": [
        {
          "indexed": false,
          "internalType": "address",
          "name": "account",
          "type": "address"
        }
      ],
      "name": "Paused",
      "type": "event"
    },
    {
      "anonymous": false,
      "inputs": [
        {
          "indexed": true,
          "internalType": "address",
          "name": "newCreature",
          "type": "address"
        }
      ],
      "name": "RMRKCreatureUpdated",
      "type": "event"
    },
    {
      "anonymous": false,
      "inputs": [
        {
          "indexed": false,
          "internalType": "address",
          "name": "account",
          "type": "address"
        }
      ],
      "name": "Unpaused",
      "type": "event"
    },
    {
      "inputs": [
        {
          "internalType": "address",
          "name": "user",
          "type": "address"
        }
      ],
      "name": "canMint",
      "outputs": [
        {
          "internalType": "bool",
          "name": "",
          "type": "bool"
        }
      ],
      "stateMutability": "view",
      "type": "function"
    },
    {
      "inputs": [],
      "name": "gameConfig",
      "outputs": [
        {
          "internalType": "contract GameConfig",
          "name": "",
          "type": "address"
        }
      ],
      "stateMutability": "view",
      "type": "function"
    },
    {
      "inputs": [],
      "name": "getMintCosts",
      "outputs": [
        {
          "internalType": "uint256",
          "name": "dgneCost",
          "type": "uint256"
        },
        {
          "internalType": "uint256",
          "name": "rmrkCost",
          "type": "uint256"
        }
      ],
      "stateMutability": "view",
      "type": "function"
    },
    {
      "inputs": [
        {
          "internalType": "address",
          "name": "to",
          "type": "address"
        },
        {
          "internalType": "bytes32",
          "name": "genSeed",
          "type": "bytes32"
        },
        {
          "internalType": "uint8",
          "name": "talent",
          "type": "uint8"
        },
        {
          "internalType": "bytes32",
          "name": "personality",
          "type": "bytes32"
        },
        {
          "internalType": "bytes32",
          "name": "elementType",
          "type": "bytes32"
        },
        {
          "internalType": "bytes32",
          "name": "temperament",
          "type": "bytes32"
        },
        {
          "internalType": "uint72",
          "name": "baseStats",
          "type": "uint72"
        },
        {
          "internalType": "uint144",
          "name": "growthRates",
          "type": "uint144"
        },
        {
          "components": [
            {
              "internalType": "uint8",
              "name": "moveId",
              "type": "uint8"
            },
            {
              "internalType": "uint8",
              "name": "moveType",
              "type": "uint8"
            },
            {
              "internalType": "uint8",
              "name": "category",
              "type": "uint8"
            },
            {
              "internalType": "uint8",
              "name": "power",
              "type": "uint8"
            },
            {
              "internalType": "uint8",
              "name": "accuracy",
              "type": "uint8"
            },
            {
              "internalType": "uint8",
              "name": "cooldownMax",
              "type": "uint8"
            },
            {
              "internalType": "uint8",
              "name": "statusEffect",
              "type": "uint8"
            },
            {
              "internalType": "uint8",
              "name": "statusChance",
              "type": "uint8"
            }
          ],
          "internalType": "struct IRMRKCreature.Move[4]",
          "name": "moves",
          "type": "tuple[4]"
        },
        {
          "internalType": "uint8",
          "name": "moveCount",
          "type": "uint8"
        },
        {
          "internalType": "uint8[4]",
          "name": "mastery",
          "type": "uint8[4]"
        },
        {
          "internalType": "uint64",
          "name": "aptitudes",
          "type": "uint64"
        }
      ],
      "name": "mintCreature",
      "outputs": [
        {
          "internalType": "uint256",
          "name": "tokenId",
          "type": "uint256"
        }
      ],
      "stateMutability": "nonpayable",
      "type": "function"
    },
    {
      "inputs": [],
      "name": "owner",
      "outputs": [
        {
          "internalType": "address",
          "name": "",
          "type": "address"
        }
      ],
      "stateMutability": "view",
      "type": "function"
    },
    {
      "inputs": [],
      "name": "pause",
      "outputs": [],
      "stateMutability": "nonpayable",
      "type": "function"
    },
    {
      "inputs": [],
      "name": "paused",
      "outputs": [
        {
          "internalType": "bool",
          "name": "",
          "type": "bool"
        }
      ],
      "stateMutability": "view",
      "type": "function"
    },
    {
      "inputs": [
        {
          "internalType": "address",
          "name": "token",
          "type": "address"
        },
        {
          "internalType": "uint256",
          "name": "amount",
          "type": "uint256"
        }
      ],
      "name": "recoverTokens",
      "outputs": [],
      "stateMutability": "nonpayable",
      "type": "function"
    },
    {
      "inputs": [],
      "name": "renounceOwnership",
      "outputs": [],
      "stateMutability": "nonpayable",
      "type": "function"
    },
    {
      "inputs": [],
      "name": "rmrkCreature",
      "outputs": [
        {
          "internalType": "contract IRMRKCreature",
          "name": "",
          "type": "address"
        }
      ],
      "stateMutability": "view",
      "type": "function"
    },
    {
      "inputs": [
        {
          "internalType": "address",
          "name": "_gameConfig",
          "type": "address"
        }
      ],
      "name": "setGameConfig",
      "outputs": [],
      "stateMutability": "nonpayable",
      "type": "function"
    },
    {
      "inputs": [
        {
          "internalType": "address",
          "name": "_rmrkCreature",
          "type": "address"
        }
      ],
      "name": "setRMRKCreature",
      "outputs": [],
      "stateMutability": "nonpayable",
      "type": "function"
    },
    {
      "inputs": [
        {
          "internalType": "address",
          "name": "newOwner",
          "type": "address"
        }
      ],
      "name": "transferOwnership",
      "outputs": [],
      "stateMutability": "nonpayable",
      "type": "function"
    },
    {
      "inputs": [],
      "name": "unpause",
      "outputs": [],
      "stateMutability": "nonpayable",
      "type": "function"
    }
  ],
  "bytecode": "0x60803461010d576110dd90601f38839003908101601f19168201906001600160401b03821183831017610111578083916040958694855283398101031261010d57610055602061004e83610125565b9201610125565b9033156100f6575f549160018060a01b03908160018060a01b03199333858716175f55865195823391167f8be0079c531659141344cd1fd0a4f28419497f9722a3daafe3b4186f6b6457e05f80a360018055169384156100e75750169182156100d657816002541617600255600354161760035551610fa3908161013a8239f35b835163e6c4247b60e01b8152600490fd5b63e6c4247b60e01b8152600490fd5b8251631e4fbdf760e01b81525f6004820152602490fd5b5f80fd5b634e487b7160e01b5f52604160045260245ffd5b51906001600160a01b038216820361010d5756fe60806040526004361015610011575f80fd5b5f803560e01c8063069c9fae14610d4557806308e9962d14610cdd5780631176829d14610cb55780633f4ba83a14610c465780635c975abb14610c22578063715018a614610bde57806374ac072b14610bb65780638456cb5914610b565780638da5cb5b14610b2f5780638f63b7901461051d578063a428369d146104a1578063c2ba47441461021c578063cc86d971146101285763f2fde38b146100b4575f80fd5b34610125576020366003190112610125576100cd610dd5565b6100d5610e4e565b6001600160a01b0390811690811561010c575f548260018060a01b03198216175f55165f80516020610f4e8339815191525f80a380f35b604051631e4fbdf760e01b815260048101849052602490fd5b80fd5b503461012557806003193601126101255760025460405163012e3b5760e71b81526001600160a01b039091169160208083600481875afa9283156102115782936101e0575b50806004946040519586809263576deb1d60e01b82525afa9182156101d457916101a0575b604080945051928352820152f35b80915083813d83116101cd575b6101b78183610e0c565b810103126101c9576040925190610192565b5f80fd5b503d6101ad565b604051903d90823e3d90fd5b9392508084813d831161020a575b6101f88183610e0c565b810103126101c957925191928061016d565b503d6101ee565b6040513d84823e3d90fd5b5034610125576020908160031936011261012557610238610dd5565b600254604051630e42323b60e01b81526001600160a01b03939291841691908581600481865afa908115610496578491610479575b50604051633abd065160e01b8152918683600481875afa92831561046e57859361043f575b5060405187816024818a806370a0823160e01b978884521697886004840152165afa908115610434578691610407575b5060405163012e3b5760e71b8152908882600481895afa9182156103fc5790899493929188926103cb575b5010159687610303575b83886040519015158152f35b602492939495969750604051958694859384526004840152165afa9081156103c05784908492610392575b5060405163576deb1d60e01b81529192829060049082905afa9283156101d45792610363575b5010155f8080848180806102f7565b9091508281813d831161038b575b61037b8183610e0c565b810103126101c95751905f610354565b503d610371565b809250813d83116103b9575b6103a88183610e0c565b810103126101c9575183600461032e565b503d61039e565b6040513d85823e3d90fd5b8581969293503d83116103f5575b6103e38183610e0c565b810103126101c957889351905f6102ed565b503d6103d9565b6040513d89823e3d90fd5b90508781813d831161042d575b61041e8183610e0c565b810103126101c957515f6102c2565b503d610414565b6040513d88823e3d90fd5b610460919350873d8911610467575b6104588183610e0c565b810190610e2f565b915f610292565b503d61044e565b6040513d87823e3d90fd5b6104909150863d8811610467576104588183610e0c565b5f61026d565b6040513d86823e3d90fd5b5034610125576020366003190112610125576104bb610dd5565b6104c3610e4e565b6001600160a01b0316801561050b57600380546001600160a01b031916821790557f3a23c688f880d4e816bd312af6fd6be18295f4925f702bb50e052dee185313018280a280f35b60405163e6c4247b60e01b8152600490fd5b50346101c9576105c03660031901126101c957610538610dd5565b9060443560ff811681036101c95760c435906001600160481b03821682036101c95760e435906001600160901b03821682036101c95736610504116101c9576105043560ff811681036101c957366105a4116101c9576105a435906001600160401b03821682036101c957600260015414610b1d5760026001556105ba610e79565b60025460405163012e3b5760e71b8152956001600160a01b039091169490602087600481895afa968715610a20575f97610ae9575b5060405163576deb1d60e01b815295602087600481845afa968715610a20575f97610ab5575b50604051630e42323b60e01b815290602082600481845afa908115610a20576004925f92610a93575b5060209060405193848092633abd065160e01b82525afa918215610a20575f92610a72575b506040516370a0823160e01b81523360048201526020816024816001600160a01b0386165afa8015610a20578a915f91610a3d575b5010610a2b576040516370a0823160e01b81523360048201526020816024816001600160a01b0387165afa8015610a205789915f916109eb575b50106109d9576106ed8930336001600160a01b038516610e99565b6107028830336001600160a01b038616610e99565b6001600160a01b0381163b156101c957604051630852cd8d60e31b8152600481018a9052905f908290602490829084906001600160a01b03165af16109c6575b506001600160a01b0381163b156109c257604051630852cd8d60e31b815260048101889052899182908290602490829084906001600160a01b03165af16109aa575b506003546040516308f63b7960e41b81526001600160a01b039b8c166004820152602480359082015260ff90971660448801526064803590880152608480359088015260a48035908801526001600160481b0390921660c48701526001600160901b0390921660e48601529397939093169287929091826101048086015b600483106108f15750505060ff16610504840152610524828185015b600482106108c6575050506001600160401b03166105a48301526020926105c49183915af19283156101d45792610891575b6020935060405191825283820152817f86e244d2b69e5a737fdea30eff8bddb53dac1e431de0c10f438a61f091dc08d860403393a360018055604051908152f35b91506020833d6020116108be575b816108ac60209383610e0c565b810103126101c9576020925191610850565b3d915061089f565b602091939550829450819060ff6108de600195610deb565b168152019301910190889391889361081e565b9092945060019193955060ff61090684610deb565b16815260ff61091760208501610deb565b16602082015260ff61092b60408501610deb565b166040820152606060ff610940828601610deb565b1690820152608060ff610954828601610deb565b169082015260a060ff610968828601610deb565b169082015260c060ff61097c828601610deb565b169082015260ff61098f60e08501610deb565b1660e082015261010080910192019201899492899492610802565b6109b390610df9565b6109be57875f610784565b8780fd5b8880fd5b6109d1919950610df9565b5f975f610742565b6040516336e6412f60e11b8152600490fd5b9150506020813d602011610a18575b81610a0760209383610e0c565b810103126101c9578890515f6106d2565b3d91506109fa565b6040513d5f823e3d90fd5b604051633046821560e11b8152600490fd5b9150506020813d602011610a6a575b81610a5960209383610e0c565b810103126101c9578990515f610698565b3d9150610a4c565b610a8c91925060203d602011610467576104588183610e0c565b905f610663565b6020919250610aae90823d8411610467576104588183610e0c565b919061063e565b9096506020813d602011610ae1575b81610ad160209383610e0c565b810103126101c95751955f610615565b3d9150610ac4565b9096506020813d602011610b15575b81610b0560209383610e0c565b810103126101c95751955f6105ef565b3d9150610af8565b604051633ee5aeb560e01b8152600490fd5b346101c9575f3660031901126101c9575f546040516001600160a01b039091168152602090f35b346101c9575f3660031901126101c957610b6e610e4e565b610b76610e79565b5f805460ff60a01b1916600160a01b1790556040513381527f62e78cea01bee320cd4e420270b5ea74000d11b0c9f74754ebdbfc544b05a25890602090a1005b346101c9575f3660031901126101c9576003546040516001600160a01b039091168152602090f35b346101c9575f3660031901126101c957610bf6610e4e565b5f80546001600160a01b0319811682556001600160a01b03165f80516020610f4e8339815191528280a3005b346101c9575f3660031901126101c957602060ff5f5460a01c166040519015158152f35b346101c9575f3660031901126101c957610c5e610e4e565b5f5460ff8160a01c1615610ca35760ff60a01b19165f556040513381527f5db9ee0a495bf2e6ff9c91a7834c1ba4fdd244a5e8aa4e537bd38aeae4b073aa90602090a1005b604051638dfc202b60e01b8152600490fd5b346101c9575f3660031901126101c9576002546040516001600160a01b039091168152602090f35b346101c95760203660031901126101c957610cf6610dd5565b610cfe610e4e565b6001600160a01b0316801561050b57600280546001600160a01b031916821790557f321f7f07e4fdc18fd5f0d9fc17f82bbf9c93b37136c50f1b72012919ef4076ab5f80a2005b346101c95760403660031901126101c957610d5e610dd5565b610d66610e4e565b5f5460405163a9059cbb60e01b60208201526001600160a01b0391821660248083019190915235604480830191909152815260808101929091906001600160401b03841183851017610dc157610dbf9360405216610ef3565b005b634e487b7160e01b5f52604160045260245ffd5b600435906001600160a01b03821682036101c957565b359060ff821682036101c957565b6001600160401b038111610dc157604052565b601f909101601f19168101906001600160401b03821190821017610dc157604052565b908160209103126101c957516001600160a01b03811681036101c95790565b5f546001600160a01b03163303610e6157565b60405163118cdaa760e01b8152336004820152602490fd5b60ff5f5460a01c16610e8757565b60405163d93c066560e01b8152600490fd5b6040516323b872dd60e01b60208201526001600160a01b03928316602482015292909116604483015260648083019390935291815260a08101918183106001600160401b03841117610dc157610ef192604052610ef3565b565b905f602091828151910182855af115610a20575f513d610f4457506001600160a01b0381163b155b610f225750565b604051635274afe760e01b81526001600160a01b039091166004820152602490fd5b60011415610f1b56fe8be0079c531659141344cd1fd0a4f28419497f9722a3daafe3b4186f6b6457e0a264697066735822122004c5c3d0f7e0e3223033830092da920e9cb29db4f8b70f45c1c5b2950249a3e264736f6c63430008180033",
  "linkReferences": {},
  "deployedLinkReferences": {},
  "immutableReferences": {},
  "inputSourceName": "project/src/MintGate.sol",
  "buildInfoId": "solc-0_8_24-131852bb837723ad01ff5b5445a456e497323693"
}