{"project/src/GameConfig.sol":{"GameConfig":{"abi":[{"inputs":[],"stateMutability":"nonpayable","type":"constructor"},{"inputs":[],"name":"EnforcedPause","type":"error"},{"inputs":[],"name":"ExpectedPause","type":"error"},{"inputs":[{"internalType":"address","name":"owner","type":"address"}],"name":"OwnableInvalidOwner","type":"error"},{"inputs":[{"internalType":"address","name":"account","type":"address"}],"name":"OwnableUnauthorizedAccount","type":"error"},{"anonymous":false,"inputs":[{"indexed":false,"internalType":"uint256","name":"dgne","type":"uint256"},{"indexed":false,"internalType":"uint256","name":"rmrk","type":"uint256"},{"indexed":false,"internalType":"uint256","name":"reward","type":"uint256"}],"name":"BattleCostsUpdated","type":"event"},{"anonymous":false,"inputs":[{"indexed":false,"internalType":"string","name":"name","type":"string"},{"indexed":false,"internalType":"address","name":"addr","type":"address"}],"name":"ContractAddressUpdated","type":"event"},{"anonymous":false,"inputs":[{"indexed":false,"internalType":"uint256","name":"costPerHP","type":"uint256"},{"indexed":false,"internalType":"uint256","name":"regenPercent","type":"uint256"}],"name":"HealingParamsUpdated","type":"event"},{"anonymous":false,"inputs":[{"indexed":false,"internalType":"uint256","name":"dgne","type":"uint256"},{"indexed":false,"internalType":"uint256","name":"rmrk","type":"uint256"}],"name":"MintCostsUpdated","type":"event"},{"anonymous":false,"inputs":[{"indexed":true,"internalType":"address","name":"previousOwner","type":"address"},{"indexed":true,"internalType":"address","name":"newOwner","type":"address"}],"name":"OwnershipTransferred","type":"event"},{"anonymous":false,"inputs":[{"indexed":false,"internalType":"address","name":"account","type":"address"}],"name":"Paused","type":"event"},{"anonymous":false,"inputs":[{"indexed":false,"internalType":"uint256","name":"baseRate","type":"uint256"},{"indexed":false,"internalType":"uint256","name":"multiplier","type":"uint256"}],"name":"StakingParamsUpdated","type":"event"},{"anonymous":false,"inputs":[{"indexed":false,"internalType":"address","name":"account","type":"address"}],"name":"Unpaused","type":"event"},{"inputs":[],"name":"battleCostDGNE","outputs":[{"internalType":"uint256","name":"","type":"uint256"}],"stateMutability":"view","type":"function"},{"inputs":[],"name":"battleCostRMRK","outputs":[{"internalType":"uint256","name":"","type":"uint256"}],"stateMutability":"view","type":"function"},{"inputs":[],"name":"battleGate","outputs":[{"internalType":"address","name":"","type":"address"}],"stateMutability":"view","type":"function"},{"inputs":[],"name":"battleRewardDGNE","outputs":[{"internalType":"uint256","name":"","type":"uint256"}],"stateMutability":"view","type":"function"},{"inputs":[],"name":"creatureContract","outputs":[{"internalType":"address","name":"","type":"address"}],"stateMutability":"view","type":"function"},{"inputs":[],"name":"dragonToken","outputs":[{"internalType":"address","name":"","type":"address"}],"stateMutability":"view","type":"function"},{"inputs":[{"internalType":"uint256","name":"maxHP","type":"uint256"},{"internalType":"uint256","name":"hoursElapsed","type":"uint256"}],"name":"getHPRegen","outputs":[{"internalType":"uint256","name":"","type":"uint256"}],"stateMutability":"view","type":"function"},{"inputs":[{"internalType":"uint256","name":"hpToHeal","type":"uint256"}],"name":"getHealCost","outputs":[{"internalType":"uint256","name":"","type":"uint256"}],"stateMutability":"view","type":"function"},{"inputs":[{"internalType":"uint8","name":"talent","type":"uint8"}],"name":"getStakingRate","outputs":[{"internalType":"uint256","name":"","type":"uint256"}],"stateMutability":"view","type":"function"},{"inputs":[],"name":"healCostPerHP","outputs":[{"internalType":"uint256","name":"","type":"uint256"}],"stateMutability":"view","type":"function"},{"inputs":[],"name":"mintCostDGNE","outputs":[{"internalType":"uint256","name":"","type":"uint256"}],"stateMutability":"view","type":"function"},{"inputs":[],"name":"mintCostRMRK","outputs":[{"internalType":"uint256","name":"","type":"uint256"}],"stateMutability":"view","type":"function"},{"inputs":[],"name":"mintTreasury","outputs":[{"internalType":"address","name":"","type":"address"}],"stateMutability":"view","type":"function"},{"inputs":[],"name":"owner","outputs":[{"internalType":"address","name":"","type":"address"}],"stateMutability":"view","type":"function"},{"inputs":[],"name":"pause","outputs":[],"stateMutability":"nonpayable","type":"function"},{"inputs":[],"name":"paused","outputs":[{"internalType":"bool","name":"","type":"bool"}],"stateMutability":"view","type":"function"},{"inputs":[],"name":"regenPercentPerHour","outputs":[{"internalType":"uint256","name":"","type":"uint256"}],"stateMutability":"view","type":"function"},{"inputs":[],"name":"renounceOwnership","outputs":[],"stateMutability":"nonpayable","type":"function"},{"inputs":[],"name":"rmrkToken","outputs":[{"internalType":"address","name":"","type":"address"}],"stateMutability":"view","type":"function"},{"inputs":[{"internalType":"uint256","name":"_dgne","type":"uint256"},{"internalType":"uint256","name":"_rmrk","type":"uint256"},{"internalType":"uint256","name":"_reward","type":"uint256"}],"name":"setBattleCosts","outputs":[],"stateMutability":"nonpayable","type":"function"},{"inputs":[{"internalType":"address","name":"_addr","type":"address"}],"name":"setBattleGate","outputs":[],"stateMutability":"nonpayable","type":"function"},{"inputs":[{"internalType":"address","name":"_addr","type":"address"}],"name":"setCreatureContract","outputs":[],"stateMutability":"nonpayable","type":"function"},{"inputs":[{"internalType":"address","name":"_addr","type":"address"}],"name":"setDragonToken","outputs":[],"stateMutability":"nonpayable","type":"function"},{"inputs":[{"internalType":"uint256","name":"_costPerHP","type":"uint256"},{"internalType":"uint256","name":"_regenPercent","type":"uint256"}],"name":"setHealingParams","outputs":[],"stateMutability":"nonpayable","type":"function"},{"inputs":[{"internalType":"uint256","name":"_mintCost","type":"uint256"},{"internalType":"uint256","name":"_skipCost","type":"uint256"},{"internalType":"uint256","name":"_rmrk","type":"uint256"}],"name":"setMintCosts","outputs":[],"stateMutability":"nonpayable","type":"function"},{"inputs":[{"internalType":"address","name":"_treasury","type":"address"}],"name":"setMintTreasury","outputs":[],"stateMutability":"nonpayable","type":"function"},{"inputs":[{"internalType":"address","name":"_addr","type":"address"}],"name":"setRmrkToken","outputs":[],"stateMutability":"nonpayable","type":"function"},{"inputs":[{"internalType":"address","name":"_addr","type":"address"}],"name":"setStakingContract","outputs":[],"stateMutability":"nonpayable","type":"function"},{"inputs":[{"internalType":"uint256","name":"_baseRate","type":"uint256"},{"internalType":"uint256","name":"_multiplier","type":"uint256"}],"name":"setStakingParams","outputs":[],"stateMutability":"nonpayable","type":"function"},{"inputs":[],"name":"skipCostDGNE","outputs":[{"internalType":"uint256","name":"","type":"uint256"}],"stateMutability":"view","type":"function"},{"inputs":[],"name":"stakingBaseRate","outputs":[{"internalType":"uint256","name":"","type":"uint256"}],"stateMutability":"view","type":"function"},{"inputs":[],"name":"stakingContract","outputs":[{"internalType":"address","name":"","type":"address"}],"stateMutability":"view","type":"function"},{"inputs":[],"name":"talentMultiplier","outputs":[{"internalType":"uint256","name":"","type":"uint256"}],"stateMutability":"view","type":"function"},{"inputs":[{"internalType":"address","name":"newOwner","type":"address"}],"name":"transferOwnership","outputs":[],"stateMutability":"nonpayable","type":"function"},{"inputs":[],"name":"unpause","outputs":[],"stateMutability":"nonpayable","type":"function"}],"evm":{"bytecode":{"linkReferences":{},"object":"608080604052346100dc5733156100c7575f8054336001600160a01b03198216811783556040519290916001600160a01b0316907f8be0079c531659141344cd1fd0a4f28419497f9722a3daafe3b4186f6b6457e09080a3674563918244f40000600155670de0b6b3a7640000600255676f05b59d3b200000600355683635c9adc5dea0000060045568056bc75e2d63100000600555678ac7230489e8000080600655600855606460095567016345785d8a0000600a556005600b55610c6790816100e18239f35b631e4fbdf760e01b81525f6004820152602490fd5b5f80fdfe6080604081815260049182361015610015575f80fd5b5f3560e01c9081630e42323b14610b4c5750806310c8181514610b2e57806314ffa85d14610b065780631c6fd22214610a955780631cdc523214610a775780631e0d6eea14610a265780632a64edce14610a085780633abd0651146109e05780633f4ba83a14610973578063430a83121461091957806343c5df531461089d578063576deb1d1461087f5780635c975abb1461085a5780636cbc16ef146108325780636ccaafba146107ed578063715018a6146107a95780637e227f4b146106ef5780638456cb591461067d5780638da5cb5b1461065657806393cf7abc1461062d57806395afd656146105ac578063971dab80146105905780639dd373b9146105155780639dea6f9714610484578063a87b6e1214610466578063abc508b314610448578063b12b0d9e146103ce578063ced4ceb9146103b0578063d03db08914610392578063d412d71914610374578063db1e4ab2146102f9578063ddcd79b814610267578063e3e350621461023f578063ee99205c146102175763f2fde38b146101a0575f80fd5b34610213576020366003190112610213576001600160a01b03823581811693919290849003610213576101d1610bc6565b83156101fd5750505f548260018060a01b03198216175f55165f80516020610c128339815191525f80a3005b905f6024925191631e4fbdf760e01b8352820152fd5b5f80fd5b5034610213575f36600319011261021357600f5490516001600160a01b039091168152602090f35b5034610213575f3660031901126102135760075490516001600160a01b039091168152602090f35b50346102135761027636610b89565b61027e610bc6565b606481116102be577f929aa5fbc5af73715b32bcf907f09be6ddf346f97acc57a5049e42bce228797a935081600a5580600b5582519182526020820152a1005b825162461bcd60e51b815260208186015260156024820152740526567656e2070657263656e74206d61782031303605c1b6044820152606490fd5b50903461021357602036600319011261021357356001600160a01b03811690819003610213575f80516020610bf283398151915291608091610339610bc6565b601080546001600160a01b031916821790558151828152600a9281019290925269626174746c654761746560b01b60608301526020820152a1005b5034610213575f366003190112610213576020906008549051908152f35b5034610213575f366003190112610213576020906001549051908152f35b5034610213575f366003190112610213576020906005549051908152f35b50903461021357602036600319011261021357356001600160a01b03811690819003610213575f80516020610bf28339815191529160809161040e610bc6565b600d80546001600160a01b031916821790558151828152600992810192909252683936b935aa37b5b2b760b91b60608301526020820152a1005b5034610213575f36600319011261021357602090600a549051908152f35b5034610213575f366003190112610213576020906002549051908152f35b50346102135761049336610b89565b61049b610bc6565b80156104d9577f61f6c4cc9665a257352c0b46189ffc2ae6fbbc11e155ff20901217ff203a517e9350816008558060095582519182526020820152a1005b825162461bcd60e51b8152602081860152601660248201527504d756c7469706c696572206d757374206265203e20360541b6044820152606490fd5b50903461021357602036600319011261021357356001600160a01b03811690819003610213575f80516020610bf283398151915291608091610555610bc6565b600f80546001600160a01b031916821781558251838152928301526e1cdd185ada5b99d0dbdb9d1c9858dd608a1b60608301526020820152a1005b5034610213575f36600319011261021357602091549051908152f35b50903461021357602036600319011261021357356001600160a01b03811690819003610213575f80516020610bf2833981519152916080916105ec610bc6565b600e80546001600160a01b0319168217905581518281526010928101929092526f18dc99585d1d5c9950dbdb9d1c9858dd60821b60608301526020820152a1005b50346102135760203660031901126102135761064f602092600a549035610b9f565b9051908152f35b5034610213575f366003190112610213575f5490516001600160a01b039091168152602090f35b5034610213575f36600319011261021357610696610bc6565b5f549160ff8360a01c166106e15760ff60a01b198316600160a01b175f5581513381527f62e78cea01bee320cd4e420270b5ea74000d11b0c9f74754ebdbfc544b05a25890602090a1005b905163d93c066560e01b8152fd5b5090346102135760203660031901126102135780356001600160a01b03811691908290036102135761071f610bc6565b811561077357600780546001600160a01b031916831790558251838152600c818501526b6d696e74547265617375727960a01b6060820152602081018390525f80516020610bf283398151915290608090a1005b606490602084519162461bcd60e51b8352820152601060248201526f496e76616c696420747265617375727960801b6044820152fd5b34610213575f366003190112610213576107c1610bc6565b5f80546001600160a01b0319811682556001600160a01b03165f80516020610c128339815191528280a3005b503461021357602090610818606461080436610b89565b610813600b9492945485610b9f565b610b9f565b048181111561082a5750905b51908152f35b905090610824565b5034610213575f36600319011261021357600e5490516001600160a01b039091168152602090f35b5034610213575f3660031901126102135760209060ff5f5460a01c1690519015158152f35b5034610213575f366003190112610213576020906006549051908152f35b50903461021357602036600319011261021357356001600160a01b03811690819003610213575f80516020610bf2833981519152916080916108dd610bc6565b600c80546001600160a01b031916821790558151828152600b928101929092526a323930b3b7b72a37b5b2b760a91b60608301526020820152a1005b50346102135760607f0406bdb1a2cb2047ec3753b3029833a110d31cfd012a3cd56a55fccc6cc5db669161094c36610b6f565b919290610957610bc6565b83600155806002558260035581519384526020840152820152a1005b5034610213575f3660031901126102135761098c610bc6565b5f549160ff8360a01c16156109d25760ff60a01b1983165f5581513381527f5db9ee0a495bf2e6ff9c91a7834c1ba4fdd244a5e8aa4e537bd38aeae4b073aa90602090a1005b9051638dfc202b60e01b8152fd5b5034610213575f36600319011261021357600d5490516001600160a01b039091168152602090f35b5034610213575f366003190112610213576020906003549051908152f35b5034610213577f9d3ed135dc28d913338c05114617e647db1079f0cb6877d77ddf3b1f7ca2188d91610a5736610b6f565b918093610a62610bc6565b556005558060065582519182526020820152a1005b5034610213575f36600319011261021357602090600b549051908152f35b50346102135760203660031901126102135781359060ff821680920361021357610ac26008549283610b9f565b600954908115610af357048201809211610ae0576020925051908152f35b601183634e487b7160e01b5f525260245ffd5b601285634e487b7160e01b5f525260245ffd5b5034610213575f3660031901126102135760105490516001600160a01b039091168152602090f35b5034610213575f366003190112610213576020906009549051908152f35b34610213575f36600319011261021357600c546001600160a01b03168152602090f35b606090600319011261021357600435906024359060443590565b6040906003190112610213576004359060243590565b81810292918115918404141715610bb257565b634e487b7160e01b5f52601160045260245ffd5b5f546001600160a01b03163303610bd957565b60405163118cdaa760e01b8152336004820152602490fdfea42de6429c1410f4470a8ff5afeeae27c734519ac1693e8eb58798a81715c9478be0079c531659141344cd1fd0a4f28419497f9722a3daafe3b4186f6b6457e0a2646970667358221220d05e4fca5602ea385ff7ab08bb5df7b5814c4a9ae865b12c552576f77de328b264736f6c63430008180033","opcodes":"PUSH1 0x80 DUP1 PUSH1 0x40 MSTORE CALLVALUE PUSH2 0xDC JUMPI CALLER ISZERO PUSH2 0xC7 JUMPI PUSH0 DUP1 SLOAD CALLER PUSH1 0x1 PUSH1 0x1 PUSH1 0xA0 SHL SUB NOT DUP3 AND DUP2 OR DUP4 SSTORE PUSH1 0x40 MLOAD SWAP3 SWAP1 SWAP2 PUSH1 0x1 PUSH1 0x1 PUSH1 0xA0 SHL SUB AND SWAP1 PUSH32 0x8BE0079C531659141344CD1FD0A4F28419497F9722A3DAAFE3B4186F6B6457E0 SWAP1 DUP1 LOG3 PUSH8 0x4563918244F40000 PUSH1 0x1 SSTORE PUSH8 0xDE0B6B3A7640000 PUSH1 0x2 SSTORE PUSH8 0x6F05B59D3B200000 PUSH1 0x3 SSTORE PUSH9 0x3635C9ADC5DEA00000 PUSH1 0x4 SSTORE PUSH9 0x56BC75E2D63100000 PUSH1 0x5 SSTORE PUSH8 0x8AC7230489E80000 DUP1 PUSH1 0x6 SSTORE PUSH1 0x8 SSTORE PUSH1 0x64 PUSH1 0x9 SSTORE PUSH8 0x16345785D8A0000 PUSH1 0xA SSTORE PUSH1 0x5 PUSH1 0xB SSTORE PUSH2 0xC67 SWAP1 DUP2 PUSH2 0xE1 DUP3 CODECOPY RETURN JUMPDEST PUSH4 0x1E4FBDF7 PUSH1 0xE0 SHL DUP2 MSTORE PUSH0 PUSH1 0x4 DUP3 ADD MSTORE PUSH1 0x24 SWAP1 REVERT JUMPDEST PUSH0 DUP1 REVERT INVALID PUSH1 0x80 PUSH1 0x40 DUP2 DUP2 MSTORE PUSH1 0x4 SWAP2 DUP3 CALLDATASIZE LT ISZERO PUSH2 0x15 JUMPI PUSH0 DUP1 REVERT JUMPDEST PUSH0 CALLDATALOAD PUSH1 0xE0 SHR SWAP1 DUP2 PUSH4 0xE42323B EQ PUSH2 0xB4C JUMPI POP DUP1 PUSH4 0x10C81815 EQ PUSH2 0xB2E JUMPI DUP1 PUSH4 0x14FFA85D EQ PUSH2 0xB06 JUMPI DUP1 PUSH4 0x1C6FD222 EQ PUSH2 0xA95 JUMPI DUP1 PUSH4 0x1CDC5232 EQ PUSH2 0xA77 JUMPI DUP1 PUSH4 0x1E0D6EEA EQ PUSH2 0xA26 JUMPI DUP1 PUSH4 0x2A64EDCE EQ PUSH2 0xA08 JUMPI DUP1 PUSH4 0x3ABD0651 EQ PUSH2 0x9E0 JUMPI DUP1 PUSH4 0x3F4BA83A EQ PUSH2 0x973 JUMPI DUP1 PUSH4 0x430A8312 EQ PUSH2 0x919 JUMPI DUP1 PUSH4 0x43C5DF53 EQ PUSH2 0x89D JUMPI DUP1 PUSH4 0x576DEB1D EQ PUSH2 0x87F JUMPI DUP1 PUSH4 0x5C975ABB EQ PUSH2 0x85A JUMPI DUP1 PUSH4 0x6CBC16EF EQ PUSH2 0x832 JUMPI DUP1 PUSH4 0x6CCAAFBA EQ PUSH2 0x7ED JUMPI DUP1 PUSH4 0x715018A6 EQ PUSH2 0x7A9 JUMPI DUP1 PUSH4 0x7E227F4B EQ PUSH2 0x6EF JUMPI DUP1 PUSH4 0x8456CB59 EQ PUSH2 0x67D JUMPI DUP1 PUSH4 0x8DA5CB5B EQ PUSH2 0x656 JUMPI DUP1 PUSH4 0x93CF7ABC EQ PUSH2 0x62D JUMPI DUP1 PUSH4 0x95AFD656 EQ PUSH2 0x5AC JUMPI DUP1 PUSH4 0x971DAB80 EQ PUSH2 0x590 JUMPI DUP1 PUSH4 0x9DD373B9 EQ PUSH2 0x515 JUMPI DUP1 PUSH4 0x9DEA6F97 EQ PUSH2 0x484 JUMPI DUP1 PUSH4 0xA87B6E12 EQ PUSH2 0x466 JUMPI DUP1 PUSH4 0xABC508B3 EQ PUSH2 0x448 JUMPI DUP1 PUSH4 0xB12B0D9E EQ PUSH2 0x3CE JUMPI DUP1 PUSH4 0xCED4CEB9 EQ PUSH2 0x3B0 JUMPI DUP1 PUSH4 0xD03DB089 EQ PUSH2 0x392 JUMPI DUP1 PUSH4 0xD412D719 EQ PUSH2 0x374 JUMPI DUP1 PUSH4 0xDB1E4AB2 EQ PUSH2 0x2F9 JUMPI DUP1 PUSH4 0xDDCD79B8 EQ PUSH2 0x267 JUMPI DUP1 PUSH4 0xE3E35062 EQ PUSH2 0x23F JUMPI DUP1 PUSH4 0xEE99205C EQ PUSH2 0x217 JUMPI PUSH4 0xF2FDE38B EQ PUSH2 0x1A0 JUMPI PUSH0 DUP1 REVERT JUMPDEST CALLVALUE PUSH2 0x213 JUMPI PUSH1 0x20 CALLDATASIZE PUSH1 0x3 NOT ADD SLT PUSH2 0x213 JUMPI PUSH1 0x1 PUSH1 0x1 PUSH1 0xA0 SHL SUB DUP3 CALLDATALOAD DUP2 DUP2 AND SWAP4 SWAP2 SWAP3 SWAP1 DUP5 SWAP1 SUB PUSH2 0x213 JUMPI PUSH2 0x1D1 PUSH2 0xBC6 JUMP JUMPDEST DUP4 ISZERO PUSH2 0x1FD JUMPI POP POP PUSH0 SLOAD DUP3 PUSH1 0x1 DUP1 PUSH1 0xA0 SHL SUB NOT DUP3 AND OR PUSH0 SSTORE AND PUSH0 DUP1 MLOAD PUSH1 0x20 PUSH2 0xC12 DUP4 CODECOPY DUP2 MLOAD SWAP2 MSTORE PUSH0 DUP1 LOG3 STOP JUMPDEST SWAP1 PUSH0 PUSH1 0x24 SWAP3 MLOAD SWAP2 PUSH4 0x1E4FBDF7 PUSH1 0xE0 SHL DUP4 MSTORE DUP3 ADD MSTORE REVERT JUMPDEST PUSH0 DUP1 REVERT JUMPDEST POP CALLVALUE PUSH2 0x213 JUMPI PUSH0 CALLDATASIZE PUSH1 0x3 NOT ADD SLT PUSH2 0x213 JUMPI PUSH1 0xF SLOAD SWAP1 MLOAD PUSH1 0x1 PUSH1 0x1 PUSH1 0xA0 SHL SUB SWAP1 SWAP2 AND DUP2 MSTORE PUSH1 0x20 SWAP1 RETURN JUMPDEST POP CALLVALUE PUSH2 0x213 JUMPI PUSH0 CALLDATASIZE PUSH1 0x3 NOT ADD SLT PUSH2 0x213 JUMPI PUSH1 0x7 SLOAD SWAP1 MLOAD PUSH1 0x1 PUSH1 0x1 PUSH1 0xA0 SHL SUB SWAP1 SWAP2 AND DUP2 MSTORE PUSH1 0x20 SWAP1 RETURN JUMPDEST POP CALLVALUE PUSH2 0x213 JUMPI PUSH2 0x276 CALLDATASIZE PUSH2 0xB89 JUMP JUMPDEST PUSH2 0x27E PUSH2 0xBC6 JUMP JUMPDEST PUSH1 0x64 DUP2 GT PUSH2 0x2BE JUMPI PUSH32 0x929AA5FBC5AF73715B32BCF907F09BE6DDF346F97ACC57A5049E42BCE228797A SWAP4 POP DUP2 PUSH1 0xA SSTORE DUP1 PUSH1 0xB SSTORE DUP3 MLOAD SWAP2 DUP3 MSTORE PUSH1 0x20 DUP3 ADD MSTORE LOG1 STOP JUMPDEST DUP3 MLOAD PUSH3 0x461BCD PUSH1 0xE5 SHL DUP2 MSTORE PUSH1 0x20 DUP2 DUP7 ADD MSTORE PUSH1 0x15 PUSH1 0x24 DUP3 ADD MSTORE PUSH21 0x526567656E2070657263656E74206D61782031303 PUSH1 0x5C SHL PUSH1 0x44 DUP3 ADD MSTORE PUSH1 0x64 SWAP1 REVERT JUMPDEST POP SWAP1 CALLVALUE PUSH2 0x213 JUMPI PUSH1 0x20 CALLDATASIZE PUSH1 0x3 NOT ADD SLT PUSH2 0x213 JUMPI CALLDATALOAD PUSH1 0x1 PUSH1 0x1 PUSH1 0xA0 SHL SUB DUP2 AND SWAP1 DUP2 SWAP1 SUB PUSH2 0x213 JUMPI PUSH0 DUP1 MLOAD PUSH1 0x20 PUSH2 0xBF2 DUP4 CODECOPY DUP2 MLOAD SWAP2 MSTORE SWAP2 PUSH1 0x80 SWAP2 PUSH2 0x339 PUSH2 0xBC6 JUMP JUMPDEST PUSH1 0x10 DUP1 SLOAD PUSH1 0x1 PUSH1 0x1 PUSH1 0xA0 SHL SUB NOT AND DUP3 OR SWAP1 SSTORE DUP2 MLOAD DUP3 DUP2 MSTORE PUSH1 0xA SWAP3 DUP2 ADD SWAP3 SWAP1 SWAP3 MSTORE PUSH10 0x626174746C6547617465 PUSH1 0xB0 SHL PUSH1 0x60 DUP4 ADD MSTORE PUSH1 0x20 DUP3 ADD MSTORE LOG1 STOP JUMPDEST POP CALLVALUE PUSH2 0x213 JUMPI PUSH0 CALLDATASIZE PUSH1 0x3 NOT ADD SLT PUSH2 0x213 JUMPI PUSH1 0x20 SWAP1 PUSH1 0x8 SLOAD SWAP1 MLOAD SWAP1 DUP2 MSTORE RETURN JUMPDEST POP CALLVALUE PUSH2 0x213 JUMPI PUSH0 CALLDATASIZE PUSH1 0x3 NOT ADD SLT PUSH2 0x213 JUMPI PUSH1 0x20 SWAP1 PUSH1 0x1 SLOAD SWAP1 MLOAD SWAP1 DUP2 MSTORE RETURN JUMPDEST POP CALLVALUE PUSH2 0x213 JUMPI PUSH0 CALLDATASIZE PUSH1 0x3 NOT ADD SLT PUSH2 0x213 JUMPI PUSH1 0x20 SWAP1 PUSH1 0x5 SLOAD SWAP1 MLOAD SWAP1 DUP2 MSTORE RETURN JUMPDEST POP SWAP1 CALLVALUE PUSH2 0x213 JUMPI PUSH1 0x20 CALLDATASIZE PUSH1 0x3 NOT ADD SLT PUSH2 0x213 JUMPI CALLDATALOAD PUSH1 0x1 PUSH1 0x1 PUSH1 0xA0 SHL SUB DUP2 AND SWAP1 DUP2 SWAP1 SUB PUSH2 0x213 JUMPI PUSH0 DUP1 MLOAD PUSH1 0x20 PUSH2 0xBF2 DUP4 CODECOPY DUP2 MLOAD SWAP2 MSTORE SWAP2 PUSH1 0x80 SWAP2 PUSH2 0x40E PUSH2 0xBC6 JUMP JUMPDEST PUSH1 0xD DUP1 SLOAD PUSH1 0x1 PUSH1 0x1 PUSH1 0xA0 SHL SUB NOT AND DUP3 OR SWAP1 SSTORE DUP2 MLOAD DUP3 DUP2 MSTORE PUSH1 0x9 SWAP3 DUP2 ADD SWAP3 SWAP1 SWAP3 MSTORE PUSH9 0x3936B935AA37B5B2B7 PUSH1 0xB9 SHL PUSH1 0x60 DUP4 ADD MSTORE PUSH1 0x20 DUP3 ADD MSTORE LOG1 STOP JUMPDEST POP CALLVALUE PUSH2 0x213 JUMPI PUSH0 CALLDATASIZE PUSH1 0x3 NOT ADD SLT PUSH2 0x213 JUMPI PUSH1 0x20 SWAP1 PUSH1 0xA SLOAD SWAP1 MLOAD SWAP1 DUP2 MSTORE RETURN JUMPDEST POP CALLVALUE PUSH2 0x213 JUMPI PUSH0 CALLDATASIZE PUSH1 0x3 NOT ADD SLT PUSH2 0x213 JUMPI PUSH1 0x20 SWAP1 PUSH1 0x2 SLOAD SWAP1 MLOAD SWAP1 DUP2 MSTORE RETURN JUMPDEST POP CALLVALUE PUSH2 0x213 JUMPI PUSH2 0x493 CALLDATASIZE PUSH2 0xB89 JUMP JUMPDEST PUSH2 0x49B PUSH2 0xBC6 JUMP JUMPDEST DUP1 ISZERO PUSH2 0x4D9 JUMPI PUSH32 0x61F6C4CC9665A257352C0B46189FFC2AE6FBBC11E155FF20901217FF203A517E SWAP4 POP DUP2 PUSH1 0x8 SSTORE DUP1 PUSH1 0x9 SSTORE DUP3 MLOAD SWAP2 DUP3 MSTORE PUSH1 0x20 DUP3 ADD MSTORE LOG1 STOP JUMPDEST DUP3 MLOAD PUSH3 0x461BCD PUSH1 0xE5 SHL DUP2 MSTORE PUSH1 0x20 DUP2 DUP7 ADD MSTORE PUSH1 0x16 PUSH1 0x24 DUP3 ADD MSTORE PUSH22 0x4D756C7469706C696572206D757374206265203E203 PUSH1 0x54 SHL PUSH1 0x44 DUP3 ADD MSTORE PUSH1 0x64 SWAP1 REVERT JUMPDEST POP SWAP1 CALLVALUE PUSH2 0x213 JUMPI PUSH1 0x20 CALLDATASIZE PUSH1 0x3 NOT ADD SLT PUSH2 0x213 JUMPI CALLDATALOAD PUSH1 0x1 PUSH1 0x1 PUSH1 0xA0 SHL SUB DUP2 AND SWAP1 DUP2 SWAP1 SUB PUSH2 0x213 JUMPI PUSH0 DUP1 MLOAD PUSH1 0x20 PUSH2 0xBF2 DUP4 CODECOPY DUP2 MLOAD SWAP2 MSTORE SWAP2 PUSH1 0x80 SWAP2 PUSH2 0x555 PUSH2 0xBC6 JUMP JUMPDEST PUSH1 0xF DUP1 SLOAD PUSH1 0x1 PUSH1 0x1 PUSH1 0xA0 SHL SUB NOT AND DUP3 OR DUP2 SSTORE DUP3 MLOAD DUP4 DUP2 MSTORE SWAP3 DUP4 ADD MSTORE PUSH15 0x1CDD185ADA5B99D0DBDB9D1C9858DD PUSH1 0x8A SHL PUSH1 0x60 DUP4 ADD MSTORE PUSH1 0x20 DUP3 ADD MSTORE LOG1 STOP JUMPDEST POP CALLVALUE PUSH2 0x213 JUMPI PUSH0 CALLDATASIZE PUSH1 0x3 NOT ADD SLT PUSH2 0x213 JUMPI PUSH1 0x20 SWAP2 SLOAD SWAP1 MLOAD SWAP1 DUP2 MSTORE RETURN JUMPDEST POP SWAP1 CALLVALUE PUSH2 0x213 JUMPI PUSH1 0x20 CALLDATASIZE PUSH1 0x3 NOT ADD SLT PUSH2 0x213 JUMPI CALLDATALOAD PUSH1 0x1 PUSH1 0x1 PUSH1 0xA0 SHL SUB DUP2 AND SWAP1 DUP2 SWAP1 SUB PUSH2 0x213 JUMPI PUSH0 DUP1 MLOAD PUSH1 0x20 PUSH2 0xBF2 DUP4 CODECOPY DUP2 MLOAD SWAP2 MSTORE SWAP2 PUSH1 0x80 SWAP2 PUSH2 0x5EC PUSH2 0xBC6 JUMP JUMPDEST PUSH1 0xE DUP1 SLOAD PUSH1 0x1 PUSH1 0x1 PUSH1 0xA0 SHL SUB NOT AND DUP3 OR SWAP1 SSTORE DUP2 MLOAD DUP3 DUP2 MSTORE PUSH1 0x10 SWAP3 DUP2 ADD SWAP3 SWAP1 SWAP3 MSTORE PUSH16 0x18DC99585D1D5C9950DBDB9D1C9858DD PUSH1 0x82 SHL PUSH1 0x60 DUP4 ADD MSTORE PUSH1 0x20 DUP3 ADD MSTORE LOG1 STOP JUMPDEST POP CALLVALUE PUSH2 0x213 JUMPI PUSH1 0x20 CALLDATASIZE PUSH1 0x3 NOT ADD SLT PUSH2 0x213 JUMPI PUSH2 0x64F PUSH1 0x20 SWAP3 PUSH1 0xA SLOAD SWAP1 CALLDATALOAD PUSH2 0xB9F JUMP JUMPDEST SWAP1 MLOAD SWAP1 DUP2 MSTORE RETURN JUMPDEST POP CALLVALUE PUSH2 0x213 JUMPI PUSH0 CALLDATASIZE PUSH1 0x3 NOT ADD SLT PUSH2 0x213 JUMPI PUSH0 SLOAD SWAP1 MLOAD PUSH1 0x1 PUSH1 0x1 PUSH1 0xA0 SHL SUB SWAP1 SWAP2 AND DUP2 MSTORE PUSH1 0x20 SWAP1 RETURN JUMPDEST POP CALLVALUE PUSH2 0x213 JUMPI PUSH0 CALLDATASIZE PUSH1 0x3 NOT ADD SLT PUSH2 0x213 JUMPI PUSH2 0x696 PUSH2 0xBC6 JUMP JUMPDEST PUSH0 SLOAD SWAP2 PUSH1 0xFF DUP4 PUSH1 0xA0 SHR AND PUSH2 0x6E1 JUMPI PUSH1 0xFF PUSH1 0xA0 SHL NOT DUP4 AND PUSH1 0x1 PUSH1 0xA0 SHL OR PUSH0 SSTORE DUP2 MLOAD CALLER DUP2 MSTORE PUSH32 0x62E78CEA01BEE320CD4E420270B5EA74000D11B0C9F74754EBDBFC544B05A258 SWAP1 PUSH1 0x20 SWAP1 LOG1 STOP JUMPDEST SWAP1 MLOAD PUSH4 0xD93C0665 PUSH1 0xE0 SHL DUP2 MSTORE REVERT JUMPDEST POP SWAP1 CALLVALUE PUSH2 0x213 JUMPI PUSH1 0x20 CALLDATASIZE PUSH1 0x3 NOT ADD SLT PUSH2 0x213 JUMPI DUP1 CALLDATALOAD PUSH1 0x1 PUSH1 0x1 PUSH1 0xA0 SHL SUB DUP2 AND SWAP2 SWAP1 DUP3 SWAP1 SUB PUSH2 0x213 JUMPI PUSH2 0x71F PUSH2 0xBC6 JUMP JUMPDEST DUP2 ISZERO PUSH2 0x773 JUMPI PUSH1 0x7 DUP1 SLOAD PUSH1 0x1 PUSH1 0x1 PUSH1 0xA0 SHL SUB NOT AND DUP4 OR SWAP1 SSTORE DUP3 MLOAD DUP4 DUP2 MSTORE PUSH1 0xC DUP2 DUP6 ADD MSTORE PUSH12 0x6D696E745472656173757279 PUSH1 0xA0 SHL PUSH1 0x60 DUP3 ADD MSTORE PUSH1 0x20 DUP2 ADD DUP4 SWAP1 MSTORE PUSH0 DUP1 MLOAD PUSH1 0x20 PUSH2 0xBF2 DUP4 CODECOPY DUP2 MLOAD SWAP2 MSTORE SWAP1 PUSH1 0x80 SWAP1 LOG1 STOP JUMPDEST PUSH1 0x64 SWAP1 PUSH1 0x20 DUP5 MLOAD SWAP2 PUSH3 0x461BCD PUSH1 0xE5 SHL DUP4 MSTORE DUP3 ADD MSTORE PUSH1 0x10 PUSH1 0x24 DUP3 ADD MSTORE PUSH16 0x496E76616C6964207472656173757279 PUSH1 0x80 SHL PUSH1 0x44 DUP3 ADD MSTORE REVERT JUMPDEST CALLVALUE PUSH2 0x213 JUMPI PUSH0 CALLDATASIZE PUSH1 0x3 NOT ADD SLT PUSH2 0x213 JUMPI PUSH2 0x7C1 PUSH2 0xBC6 JUMP JUMPDEST PUSH0 DUP1 SLOAD PUSH1 0x1 PUSH1 0x1 PUSH1 0xA0 SHL SUB NOT DUP2 AND DUP3 SSTORE PUSH1 0x1 PUSH1 0x1 PUSH1 0xA0 SHL SUB AND PUSH0 DUP1 MLOAD PUSH1 0x20 PUSH2 0xC12 DUP4 CODECOPY DUP2 MLOAD SWAP2 MSTORE DUP3 DUP1 LOG3 STOP JUMPDEST POP CALLVALUE PUSH2 0x213 JUMPI PUSH1 0x20 SWAP1 PUSH2 0x818 PUSH1 0x64 PUSH2 0x804 CALLDATASIZE PUSH2 0xB89 JUMP JUMPDEST PUSH2 0x813 PUSH1 0xB SWAP5 SWAP3 SWAP5 SLOAD DUP6 PUSH2 0xB9F JUMP JUMPDEST PUSH2 0xB9F JUMP JUMPDEST DIV DUP2 DUP2 GT ISZERO PUSH2 0x82A JUMPI POP SWAP1 JUMPDEST MLOAD SWAP1 DUP2 MSTORE RETURN JUMPDEST SWAP1 POP SWAP1 PUSH2 0x824 JUMP JUMPDEST POP CALLVALUE PUSH2 0x213 JUMPI PUSH0 CALLDATASIZE PUSH1 0x3 NOT ADD SLT PUSH2 0x213 JUMPI PUSH1 0xE SLOAD SWAP1 MLOAD PUSH1 0x1 PUSH1 0x1 PUSH1 0xA0 SHL SUB SWAP1 SWAP2 AND DUP2 MSTORE PUSH1 0x20 SWAP1 RETURN JUMPDEST POP CALLVALUE PUSH2 0x213 JUMPI PUSH0 CALLDATASIZE PUSH1 0x3 NOT ADD SLT PUSH2 0x213 JUMPI PUSH1 0x20 SWAP1 PUSH1 0xFF PUSH0 SLOAD PUSH1 0xA0 SHR AND SWAP1 MLOAD SWAP1 ISZERO ISZERO DUP2 MSTORE RETURN JUMPDEST POP CALLVALUE PUSH2 0x213 JUMPI PUSH0 CALLDATASIZE PUSH1 0x3 NOT ADD SLT PUSH2 0x213 JUMPI PUSH1 0x20 SWAP1 PUSH1 0x6 SLOAD SWAP1 MLOAD SWAP1 DUP2 MSTORE RETURN JUMPDEST POP SWAP1 CALLVALUE PUSH2 0x213 JUMPI PUSH1 0x20 CALLDATASIZE PUSH1 0x3 NOT ADD SLT PUSH2 0x213 JUMPI CALLDATALOAD PUSH1 0x1 PUSH1 0x1 PUSH1 0xA0 SHL SUB DUP2 AND SWAP1 DUP2 SWAP1 SUB PUSH2 0x213 JUMPI PUSH0 DUP1 MLOAD PUSH1 0x20 PUSH2 0xBF2 DUP4 CODECOPY DUP2 MLOAD SWAP2 MSTORE SWAP2 PUSH1 0x80 SWAP2 PUSH2 0x8DD PUSH2 0xBC6 JUMP JUMPDEST PUSH1 0xC DUP1 SLOAD PUSH1 0x1 PUSH1 0x1 PUSH1 0xA0 SHL SUB NOT AND DUP3 OR SWAP1 SSTORE DUP2 MLOAD DUP3 DUP2 MSTORE PUSH1 0xB SWAP3 DUP2 ADD SWAP3 SWAP1 SWAP3 MSTORE PUSH11 0x323930B3B7B72A37B5B2B7 PUSH1 0xA9 SHL PUSH1 0x60 DUP4 ADD MSTORE PUSH1 0x20 DUP3 ADD MSTORE LOG1 STOP JUMPDEST POP CALLVALUE PUSH2 0x213 JUMPI PUSH1 0x60 PUSH32 0x406BDB1A2CB2047EC3753B3029833A110D31CFD012A3CD56A55FCCC6CC5DB66 SWAP2 PUSH2 0x94C CALLDATASIZE PUSH2 0xB6F JUMP JUMPDEST SWAP2 SWAP3 SWAP1 PUSH2 0x957 PUSH2 0xBC6 JUMP JUMPDEST DUP4 PUSH1 0x1 SSTORE DUP1 PUSH1 0x2 SSTORE DUP3 PUSH1 0x3 SSTORE DUP2 MLOAD SWAP4 DUP5 MSTORE PUSH1 0x20 DUP5 ADD MSTORE DUP3 ADD MSTORE LOG1 STOP JUMPDEST POP CALLVALUE PUSH2 0x213 JUMPI PUSH0 CALLDATASIZE PUSH1 0x3 NOT ADD SLT PUSH2 0x213 JUMPI PUSH2 0x98C PUSH2 0xBC6 JUMP JUMPDEST PUSH0 SLOAD SWAP2 PUSH1 0xFF DUP4 PUSH1 0xA0 SHR AND ISZERO PUSH2 0x9D2 JUMPI PUSH1 0xFF PUSH1 0xA0 SHL NOT DUP4 AND PUSH0 SSTORE DUP2 MLOAD CALLER DUP2 MSTORE PUSH32 0x5DB9EE0A495BF2E6FF9C91A7834C1BA4FDD244A5E8AA4E537BD38AEAE4B073AA SWAP1 PUSH1 0x20 SWAP1 LOG1 STOP JUMPDEST SWAP1 MLOAD PUSH4 0x8DFC202B PUSH1 0xE0 SHL DUP2 MSTORE REVERT JUMPDEST POP CALLVALUE PUSH2 0x213 JUMPI PUSH0 CALLDATASIZE PUSH1 0x3 NOT ADD SLT PUSH2 0x213 JUMPI PUSH1 0xD SLOAD SWAP1 MLOAD PUSH1 0x1 PUSH1 0x1 PUSH1 0xA0 SHL SUB SWAP1 SWAP2 AND DUP2 MSTORE PUSH1 0x20 SWAP1 RETURN JUMPDEST POP CALLVALUE PUSH2 0x213 JUMPI PUSH0 CALLDATASIZE PUSH1 0x3 NOT ADD SLT PUSH2 0x213 JUMPI PUSH1 0x20 SWAP1 PUSH1 0x3 SLOAD SWAP1 MLOAD SWAP1 DUP2 MSTORE RETURN JUMPDEST POP CALLVALUE PUSH2 0x213 JUMPI PUSH32 0x9D3ED135DC28D913338C05114617E647DB1079F0CB6877D77DDF3B1F7CA2188D SWAP2 PUSH2 0xA57 CALLDATASIZE PUSH2 0xB6F JUMP JUMPDEST SWAP2 DUP1 SWAP4 PUSH2 0xA62 PUSH2 0xBC6 JUMP JUMPDEST SSTORE PUSH1 0x5 SSTORE DUP1 PUSH1 0x6 SSTORE DUP3 MLOAD SWAP2 DUP3 MSTORE PUSH1 0x20 DUP3 ADD MSTORE LOG1 STOP JUMPDEST POP CALLVALUE PUSH2 0x213 JUMPI PUSH0 CALLDATASIZE PUSH1 0x3 NOT ADD SLT PUSH2 0x213 JUMPI PUSH1 0x20 SWAP1 PUSH1 0xB SLOAD SWAP1 MLOAD SWAP1 DUP2 MSTORE RETURN JUMPDEST POP CALLVALUE PUSH2 0x213 JUMPI PUSH1 0x20 CALLDATASIZE PUSH1 0x3 NOT ADD SLT PUSH2 0x213 JUMPI DUP2 CALLDATALOAD SWAP1 PUSH1 0xFF DUP3 AND DUP1 SWAP3 SUB PUSH2 0x213 JUMPI PUSH2 0xAC2 PUSH1 0x8 SLOAD SWAP3 DUP4 PUSH2 0xB9F JUMP JUMPDEST PUSH1 0x9 SLOAD SWAP1 DUP2 ISZERO PUSH2 0xAF3 JUMPI DIV DUP3 ADD DUP1 SWAP3 GT PUSH2 0xAE0 JUMPI PUSH1 0x20 SWAP3 POP MLOAD SWAP1 DUP2 MSTORE RETURN JUMPDEST PUSH1 0x11 DUP4 PUSH4 0x4E487B71 PUSH1 0xE0 SHL PUSH0 MSTORE MSTORE PUSH1 0x24 PUSH0 REVERT JUMPDEST PUSH1 0x12 DUP6 PUSH4 0x4E487B71 PUSH1 0xE0 SHL PUSH0 MSTORE MSTORE PUSH1 0x24 PUSH0 REVERT JUMPDEST POP CALLVALUE PUSH2 0x213 JUMPI PUSH0 CALLDATASIZE PUSH1 0x3 NOT ADD SLT PUSH2 0x213 JUMPI PUSH1 0x10 SLOAD SWAP1 MLOAD PUSH1 0x1 PUSH1 0x1 PUSH1 0xA0 SHL SUB SWAP1 SWAP2 AND DUP2 MSTORE PUSH1 0x20 SWAP1 RETURN JUMPDEST POP CALLVALUE PUSH2 0x213 JUMPI PUSH0 CALLDATASIZE PUSH1 0x3 NOT ADD SLT PUSH2 0x213 JUMPI PUSH1 0x20 SWAP1 PUSH1 0x9 SLOAD SWAP1 MLOAD SWAP1 DUP2 MSTORE RETURN JUMPDEST CALLVALUE PUSH2 0x213 JUMPI PUSH0 CALLDATASIZE PUSH1 0x3 NOT ADD SLT PUSH2 0x213 JUMPI PUSH1 0xC SLOAD PUSH1 0x1 PUSH1 0x1 PUSH1 0xA0 SHL SUB AND DUP2 MSTORE PUSH1 0x20 SWAP1 RETURN JUMPDEST PUSH1 0x60 SWAP1 PUSH1 0x3 NOT ADD SLT PUSH2 0x213 JUMPI PUSH1 0x4 CALLDATALOAD SWAP1 PUSH1 0x24 CALLDATALOAD SWAP1 PUSH1 0x44 CALLDATALOAD SWAP1 JUMP JUMPDEST PUSH1 0x40 SWAP1 PUSH1 0x3 NOT ADD SLT PUSH2 0x213 JUMPI PUSH1 0x4 CALLDATALOAD SWAP1 PUSH1 0x24 CALLDATALOAD SWAP1 JUMP JUMPDEST DUP2 DUP2 MUL SWAP3 SWAP2 DUP2 ISZERO SWAP2 DUP5 DIV EQ OR ISZERO PUSH2 0xBB2 JUMPI JUMP JUMPDEST PUSH4 0x4E487B71 PUSH1 0xE0 SHL PUSH0 MSTORE PUSH1 0x11 PUSH1 0x4 MSTORE PUSH1 0x24 PUSH0 REVERT JUMPDEST PUSH0 SLOAD PUSH1 0x1 PUSH1 0x1 PUSH1 0xA0 SHL SUB AND CALLER SUB PUSH2 0xBD9 JUMPI JUMP JUMPDEST PUSH1 0x40 MLOAD PUSH4 0x118CDAA7 PUSH1 0xE0 SHL DUP2 MSTORE CALLER PUSH1 0x4 DUP3 ADD MSTORE PUSH1 0x24 SWAP1 REVERT INVALID LOG4 0x2D 0xE6 TIMESTAMP SWAP13 EQ LT DELEGATECALL SELFBALANCE EXP DUP16 CREATE2 0xAF 0xEE 0xAE 0x27 0xC7 CALLVALUE MLOAD SWAP11 0xC1 PUSH10 0x3E8EB58798A81715C947 DUP12 0xE0 SMOD SWAP13 MSTORE8 AND MSIZE EQ SGT PREVRANDAO 0xCD 0x1F 0xD0 LOG4 CALLCODE DUP5 NOT BLOBHASH PUSH32 0x9722A3DAAFE3B4186F6B6457E0A2646970667358221220D05E4FCA5602EA385F 0xF7 0xAB ADDMOD 0xBB TSTORE 0xF7 0xB5 DUP2 0x4C BLOBBASEFEE SWAP11 0xE8 PUSH6 0xB12C552576F7 PUSH30 0xE328B264736F6C6343000818003300000000000000000000000000000000 "},"methodIdentifiers":{"battleCostDGNE()":"d03db089","battleCostRMRK()":"a87b6e12","battleGate()":"14ffa85d","battleRewardDGNE()":"2a64edce","creatureContract()":"6cbc16ef","dragonToken()":"0e42323b","getHPRegen(uint256,uint256)":"6ccaafba","getHealCost(uint256)":"93cf7abc","getStakingRate(uint8)":"1c6fd222","healCostPerHP()":"abc508b3","mintCostDGNE()":"971dab80","mintCostRMRK()":"576deb1d","mintTreasury()":"e3e35062","owner()":"8da5cb5b","pause()":"8456cb59","paused()":"5c975abb","regenPercentPerHour()":"1cdc5232","renounceOwnership()":"715018a6","rmrkToken()":"3abd0651","setBattleCosts(uint256,uint256,uint256)":"430a8312","setBattleGate(address)":"db1e4ab2","setCreatureContract(address)":"95afd656","setDragonToken(address)":"43c5df53","setHealingParams(uint256,uint256)":"ddcd79b8","setMintCosts(uint256,uint256,uint256)":"1e0d6eea","setMintTreasury(address)":"7e227f4b","setRmrkToken(address)":"b12b0d9e","setStakingContract(address)":"9dd373b9","setStakingParams(uint256,uint256)":"9dea6f97","skipCostDGNE()":"ced4ceb9","stakingBaseRate()":"d412d719","stakingContract()":"ee99205c","talentMultiplier()":"10c81815","transferOwnership(address)":"f2fde38b","unpause()":"3f4ba83a"}}}}}