{"project/src/BattleGate.sol":{"BattleGate":{"abi":[{"inputs":[{"internalType":"address","name":"_gameConfig","type":"address"},{"internalType":"address","name":"_dragonToken","type":"address"}],"stateMutability":"nonpayable","type":"constructor"},{"inputs":[],"name":"EnforcedPause","type":"error"},{"inputs":[],"name":"ExpectedPause","type":"error"},{"inputs":[{"internalType":"address","name":"owner","type":"address"}],"name":"OwnableInvalidOwner","type":"error"},{"inputs":[{"internalType":"address","name":"account","type":"address"}],"name":"OwnableUnauthorizedAccount","type":"error"},{"inputs":[],"name":"ReentrancyGuardReentrantCall","type":"error"},{"inputs":[{"internalType":"address","name":"token","type":"address"}],"name":"SafeERC20FailedOperation","type":"error"},{"anonymous":false,"inputs":[{"indexed":true,"internalType":"address","name":"player","type":"address"},{"indexed":true,"internalType":"uint256","name":"creatureId","type":"uint256"},{"indexed":false,"internalType":"uint256","name":"dgneCost","type":"uint256"},{"indexed":false,"internalType":"bytes32","name":"nonce","type":"bytes32"}],"name":"BattleEntryPaid","type":"event"},{"anonymous":false,"inputs":[{"indexed":true,"internalType":"address","name":"player","type":"address"},{"indexed":true,"internalType":"uint256","name":"creatureId","type":"uint256"},{"indexed":false,"internalType":"bytes32","name":"nonce","type":"bytes32"}],"name":"BattleRefunded","type":"event"},{"anonymous":false,"inputs":[{"indexed":true,"internalType":"address","name":"operator","type":"address"},{"indexed":false,"internalType":"bool","name":"authorized","type":"bool"}],"name":"OperatorUpdated","type":"event"},{"anonymous":false,"inputs":[{"indexed":true,"internalType":"address","name":"previousOwner","type":"address"},{"indexed":true,"internalType":"address","name":"newOwner","type":"address"}],"name":"OwnershipTransferred","type":"event"},{"anonymous":false,"inputs":[{"indexed":false,"internalType":"address","name":"account","type":"address"}],"name":"Paused","type":"event"},{"anonymous":false,"inputs":[{"indexed":false,"internalType":"address","name":"account","type":"address"}],"name":"Unpaused","type":"event"},{"anonymous":false,"inputs":[{"indexed":true,"internalType":"address","name":"winner","type":"address"},{"indexed":false,"internalType":"uint256","name":"amount","type":"uint256"},{"indexed":false,"internalType":"bytes32","name":"battleNonce","type":"bytes32"}],"name":"WinnerRewarded","type":"event"},{"inputs":[{"internalType":"address","name":"","type":"address"}],"name":"authorizedOperators","outputs":[{"internalType":"bool","name":"","type":"bool"}],"stateMutability":"view","type":"function"},{"inputs":[{"internalType":"address","name":"player","type":"address"}],"name":"canEnterBattle","outputs":[{"internalType":"bool","name":"","type":"bool"}],"stateMutability":"view","type":"function"},{"inputs":[],"name":"dragonToken","outputs":[{"internalType":"contract IERC20","name":"","type":"address"}],"stateMutability":"view","type":"function"},{"inputs":[],"name":"gameConfig","outputs":[{"internalType":"contract GameConfig","name":"","type":"address"}],"stateMutability":"view","type":"function"},{"inputs":[],"name":"getEntryCost","outputs":[{"internalType":"uint256","name":"dgneCost","type":"uint256"},{"internalType":"uint256","name":"reward","type":"uint256"}],"stateMutability":"view","type":"function"},{"inputs":[],"name":"owner","outputs":[{"internalType":"address","name":"","type":"address"}],"stateMutability":"view","type":"function"},{"inputs":[],"name":"pause","outputs":[],"stateMutability":"nonpayable","type":"function"},{"inputs":[],"name":"paused","outputs":[{"internalType":"bool","name":"","type":"bool"}],"stateMutability":"view","type":"function"},{"inputs":[{"internalType":"uint256","name":"creatureId","type":"uint256"},{"internalType":"bytes32","name":"nonce","type":"bytes32"}],"name":"payEntryFee","outputs":[],"stateMutability":"nonpayable","type":"function"},{"inputs":[{"internalType":"address","name":"player","type":"address"},{"internalType":"uint256","name":"creatureId","type":"uint256"},{"internalType":"bytes32","name":"nonce","type":"bytes32"}],"name":"refundEntryFee","outputs":[],"stateMutability":"nonpayable","type":"function"},{"inputs":[],"name":"renounceOwnership","outputs":[],"stateMutability":"nonpayable","type":"function"},{"inputs":[{"internalType":"address","name":"winner","type":"address"},{"internalType":"bytes32","name":"battleNonce","type":"bytes32"}],"name":"rewardWinner","outputs":[],"stateMutability":"nonpayable","type":"function"},{"inputs":[{"internalType":"address","name":"_gameConfig","type":"address"}],"name":"setGameConfig","outputs":[],"stateMutability":"nonpayable","type":"function"},{"inputs":[{"internalType":"address","name":"operator","type":"address"},{"internalType":"bool","name":"authorized","type":"bool"}],"name":"setOperator","outputs":[],"stateMutability":"nonpayable","type":"function"},{"inputs":[{"internalType":"address","name":"newOwner","type":"address"}],"name":"transferOwnership","outputs":[],"stateMutability":"nonpayable","type":"function"},{"inputs":[],"name":"unpause","outputs":[],"stateMutability":"nonpayable","type":"function"},{"inputs":[{"internalType":"bytes32","name":"","type":"bytes32"}],"name":"usedNonces","outputs":[{"internalType":"bool","name":"","type":"bool"}],"stateMutability":"view","type":"function"},{"inputs":[{"internalType":"address","name":"token","type":"address"},{"internalType":"address","name":"to","type":"address"},{"internalType":"uint256","name":"amount","type":"uint256"}],"name":"withdrawTokens","outputs":[],"stateMutability":"nonpayable","type":"function"}],"evm":{"bytecode":{"linkReferences":{},"object":"60803461017357610f1490601f38839003908101601f19168201906001600160401b03821183831017610177578083916040958694855283398101031261017357610055602061004e8361018b565b920161018b565b90331561015c575f549160018060a01b03908160018060a01b03199333858716175f55865195823391167f8be0079c531659141344cd1fd0a4f28419497f9722a3daafe3b4186f6b6457e05f80a3600180551693841561011a5750169182156100d657816002541617600255600354161760035551610d7490816101a08239f35b835162461bcd60e51b815260206004820152601460248201527f496e76616c696420647261676f6e20746f6b656e0000000000000000000000006044820152606490fd5b62461bcd60e51b815260206004820152601360248201527f496e76616c69642067616d6520636f6e666967000000000000000000000000006044820152606490fd5b8251631e4fbdf760e01b81525f6004820152602490fd5b5f80fd5b634e487b7160e01b5f52604160045260245ffd5b51906001600160a01b03821682036101735756fe60406080815260049081361015610014575f80fd5b5f915f3560e01c806308e9962d14610b2b5780630e42323b14610b035780631176829d14610adb578063181d989b14610a9f57806338858c81146109ab5780633f4ba83a1461093d5780634883d86d146106fe578063558a7297146106815780635c975abb1461065c5780635d0f370f146105835780635e35359e146104fb5780636d607d4e1461042b578063715018a6146103e75780638456cb59146103895780638da5cb5b14610362578063f2fde38b146102f1578063f8197986146101125763feb61724146100e4575f80fd5b3461010e57602036600319011261010e57816020938260ff93358252855220541690519015158152f35b8280fd5b50823461024157826003193601126102415761012c610baa565b9260243593335f526020906005825260ff835f205416156102b457855f5284825260ff835f2054161561027e57600254835163153276e760e11b815295969495946001600160a01b03939091819087908a90829088165afa958615610274575f96610245575b508360035416803b15610241575f876101c29286838d8b51968795869485936340c10f1960e01b85528401610bf7565b03925af1801561023757610205575b507f212d2fff4310ea4f01098e6c3b6867bf6df7a58b96fd02c8bdb9a3874e0512819596975084519687528601521692a280f35b9096506001600160401b0381116102245784529495505f9486886101d1565b604188634e487b7160e01b5f525260245ffd5b86513d5f823e3d90fd5b5f80fd5b9080965081813d831161026d575b61025d8183610bc0565b8101031261024157519488610192565b503d610253565b85513d5f823e3d90fd5b825162461bcd60e51b8152808601839052601060248201526f10985d1d1b19481b9bdd08199bdd5b9960821b6044820152606490fd5b825162461bcd60e51b815280860183905260176024820152762737ba1030baba3437b934bd32b21037b832b930ba37b960491b6044820152606490fd5b50346102415760203660031901126102415761030b610baa565b90610314610c12565b6001600160a01b0391821692831561034c5750505f548260018060a01b03198216175f55165f80516020610d1f8339815191525f80a3005b905f6024925191631e4fbdf760e01b8352820152fd5b8234610241575f366003190112610241575f5490516001600160a01b039091168152602090f35b8234610241575f3660031901126102415760207f62e78cea01bee320cd4e420270b5ea74000d11b0c9f74754ebdbfc544b05a258916103c6610c12565b6103ce610c3d565b5f805460ff60a01b1916600160a01b17905551338152a1005b34610241575f366003190112610241576103ff610c12565b5f80546001600160a01b0319811682556001600160a01b03165f80516020610d1f8339815191528280a3005b503461024157606036600319011261024157610445610baa565b9161044e610c12565b600254815163d03db08960e01b81526001600160a01b039390916020918391829087165afa9081156104f1575f916104b2575b505f80516020610cff833981519152916104a2602092868660035416610c5d565b51926044358452602435941692a3005b90506020813d6020116104e9575b816104cd60209383610bc0565b8101031261024157515f80516020610cff833981519152610481565b3d91506104c0565b82513d5f823e3d90fd5b503461024157606036600319011261024157610515610baa565b90602435906001600160a01b039081831680840361024157610535610c12565b1561054c575061054a93506044359216610c5d565b005b606490602086519162461bcd60e51b83528201526011602482015270125b9d985b1a59081c9958da5c1a595b9d607a1b6044820152fd5b5034610241575f36600319011261024157600254825163d03db08960e01b815291906020906001600160a01b031681848481845afa938415610274575f9461062d575b50819085519384809263153276e760e11b82525afa918215610623575f926105f4575b508351928352820152f35b9080925081813d831161061c575b61060c8183610bc0565b81010312610241575190846105e9565b503d610602565b84513d5f823e3d90fd5b9093508181813d8311610655575b6106458183610bc0565b81010312610241575192816105c6565b503d61063b565b8234610241575f3660031901126102415760209060ff5f5460a01c1690519015158152f35b823461024157806003193601126102415761069a610baa565b60243590811515809203610241577f966c160e1c4dbc7df8d69af4ace01e9297c3cf016397b7914971f2fbfa32672d916020916106d5610c12565b6001600160a01b03165f81815260058452859020805460ff191660ff84161790559351908152a2005b5034610241578160031936011261024157602480359061071c610c3d565b60026001541461092d576002600155815f5260209083825260ff855f2054166108f757600254855163d03db08960e01b815294939291906001600160a01b0390839087908790829085165afa9586156108ed575f966108be575b506003541686516370a0823160e01b8152338682015283818481855afa80156108b45787915f91610883575b501061084d5786516323b872dd60e01b848201523383820152306044820152606480820188905281529160a08301906001600160401b0382118483101761083b575087527f6b29b5b6f86c2f0bb920053af8923b25dc79a680a2f004411897104cd57070ad9493929161081491610c99565b815f52828152855f20600160ff19825416179055855194855284015235923392a360018055005b634e487b7160e01b5f90815260418852fd5b865162461bcd60e51b815280860184905260118184015270496e73756666696369656e742044474e4560781b6044820152606490fd5b809250858092503d83116108ad575b61089c8183610bc0565b8101031261024157869051896107a2565b503d610892565b88513d5f823e3d90fd5b9095508281813d83116108e6575b6108d68183610bc0565b8101031261024157519487610776565b503d6108cc565b87513d5f823e3d90fd5b9060129250606494519362461bcd60e51b855284015282015271139bdb98d948185b1c9958591e481d5cd95960721b6044820152fd5b8351633ee5aeb560e01b81528390fd5b509034610241575f36600319011261024157610957610c12565b5f549160ff8360a01c161561099d5760ff60a01b1983165f5581513381527f5db9ee0a495bf2e6ff9c91a7834c1ba4fdd244a5e8aa4e537bd38aeae4b073aa90602090a1005b9051638dfc202b60e01b8152fd5b5090346102415760209182600319360112610241576109c8610baa565b60035483516370a0823160e01b81526001600160a01b039283168482015293919085908590602490829085165afa9384156104f1579085915f95610a6e575b506002541682519384809263d03db08960e01b82525afa918215610a64575f92610a35575b50519110158152f35b9091508381813d8311610a5d575b610a4d8183610bc0565b8101031261024157519084610a2c565b503d610a43565b50513d5f823e3d90fd5b8281939296503d8311610a98575b610a868183610bc0565b81010312610241578490519386610a07565b503d610a7c565b8234610241576020366003190112610241576020906001600160a01b03610ac4610baa565b165f526005825260ff815f20541690519015158152f35b8234610241575f3660031901126102415760025490516001600160a01b039091168152602090f35b8234610241575f3660031901126102415760035490516001600160a01b039091168152602090f35b503461024157602036600319011261024157610b45610baa565b610b4d610c12565b6001600160a01b0316918215610b7157600280546001600160a01b03191684179055005b906020606492519162461bcd60e51b83528201526013602482015272496e76616c69642067616d6520636f6e66696760681b6044820152fd5b600435906001600160a01b038216820361024157565b601f909101601f19168101906001600160401b03821190821017610be357604052565b634e487b7160e01b5f52604160045260245ffd5b6001600160a01b039091168152602081019190915260400190565b5f546001600160a01b03163303610c2557565b60405163118cdaa760e01b8152336004820152602490fd5b60ff5f5460a01c16610c4b57565b60405163d93c066560e01b8152600490fd5b610c92610c979392610c8460405194859263a9059cbb60e01b602085015260248401610bf7565b03601f198101845283610bc0565b610c99565b565b905f602091828151910182855af115610cf3575f513d610cea57506001600160a01b0381163b155b610cc85750565b604051635274afe760e01b81526001600160a01b039091166004820152602490fd5b60011415610cc1565b6040513d5f823e3d90fdfe162e294362958f02915ce43c72518c8124a9e70ed61854c2894cac3698b344138be0079c531659141344cd1fd0a4f28419497f9722a3daafe3b4186f6b6457e0a2646970667358221220e8603fa4a2e13df2146c9d8e14e20d952b6041fc6898cd951818e8112d3d96b964736f6c63430008180033","opcodes":"PUSH1 0x80 CALLVALUE PUSH2 0x173 JUMPI PUSH2 0xF14 SWAP1 PUSH1 0x1F CODESIZE DUP4 SWAP1 SUB SWAP1 DUP2 ADD PUSH1 0x1F NOT AND DUP3 ADD SWAP1 PUSH1 0x1 PUSH1 0x1 PUSH1 0x40 SHL SUB DUP3 GT DUP4 DUP4 LT OR PUSH2 0x177 JUMPI DUP1 DUP4 SWAP2 PUSH1 0x40 SWAP6 DUP7 SWAP5 DUP6 MSTORE DUP4 CODECOPY DUP2 ADD SUB SLT PUSH2 0x173 JUMPI PUSH2 0x55 PUSH1 0x20 PUSH2 0x4E DUP4 PUSH2 0x18B JUMP JUMPDEST SWAP3 ADD PUSH2 0x18B JUMP JUMPDEST SWAP1 CALLER ISZERO PUSH2 0x15C JUMPI PUSH0 SLOAD SWAP2 PUSH1 0x1 DUP1 PUSH1 0xA0 SHL SUB SWAP1 DUP2 PUSH1 0x1 DUP1 PUSH1 0xA0 SHL SUB NOT SWAP4 CALLER DUP6 DUP8 AND OR PUSH0 SSTORE DUP7 MLOAD SWAP6 DUP3 CALLER SWAP2 AND PUSH32 0x8BE0079C531659141344CD1FD0A4F28419497F9722A3DAAFE3B4186F6B6457E0 PUSH0 DUP1 LOG3 PUSH1 0x1 DUP1 SSTORE AND SWAP4 DUP5 ISZERO PUSH2 0x11A JUMPI POP AND SWAP2 DUP3 ISZERO PUSH2 0xD6 JUMPI DUP2 PUSH1 0x2 SLOAD AND OR PUSH1 0x2 SSTORE PUSH1 0x3 SLOAD AND OR PUSH1 0x3 SSTORE MLOAD PUSH2 0xD74 SWAP1 DUP2 PUSH2 0x1A0 DUP3 CODECOPY RETURN JUMPDEST DUP4 MLOAD PUSH3 0x461BCD PUSH1 0xE5 SHL DUP2 MSTORE PUSH1 0x20 PUSH1 0x4 DUP3 ADD MSTORE PUSH1 0x14 PUSH1 0x24 DUP3 ADD MSTORE PUSH32 0x496E76616C696420647261676F6E20746F6B656E000000000000000000000000 PUSH1 0x44 DUP3 ADD MSTORE PUSH1 0x64 SWAP1 REVERT JUMPDEST PUSH3 0x461BCD PUSH1 0xE5 SHL DUP2 MSTORE PUSH1 0x20 PUSH1 0x4 DUP3 ADD MSTORE PUSH1 0x13 PUSH1 0x24 DUP3 ADD MSTORE PUSH32 0x496E76616C69642067616D6520636F6E66696700000000000000000000000000 PUSH1 0x44 DUP3 ADD MSTORE PUSH1 0x64 SWAP1 REVERT JUMPDEST DUP3 MLOAD PUSH4 0x1E4FBDF7 PUSH1 0xE0 SHL DUP2 MSTORE PUSH0 PUSH1 0x4 DUP3 ADD MSTORE PUSH1 0x24 SWAP1 REVERT JUMPDEST PUSH0 DUP1 REVERT JUMPDEST PUSH4 0x4E487B71 PUSH1 0xE0 SHL PUSH0 MSTORE PUSH1 0x41 PUSH1 0x4 MSTORE PUSH1 0x24 PUSH0 REVERT JUMPDEST MLOAD SWAP1 PUSH1 0x1 PUSH1 0x1 PUSH1 0xA0 SHL SUB DUP3 AND DUP3 SUB PUSH2 0x173 JUMPI JUMP INVALID PUSH1 0x40 PUSH1 0x80 DUP2 MSTORE PUSH1 0x4 SWAP1 DUP2 CALLDATASIZE LT ISZERO PUSH2 0x14 JUMPI PUSH0 DUP1 REVERT JUMPDEST PUSH0 SWAP2 PUSH0 CALLDATALOAD PUSH1 0xE0 SHR DUP1 PUSH4 0x8E9962D EQ PUSH2 0xB2B JUMPI DUP1 PUSH4 0xE42323B EQ PUSH2 0xB03 JUMPI DUP1 PUSH4 0x1176829D EQ PUSH2 0xADB JUMPI DUP1 PUSH4 0x181D989B EQ PUSH2 0xA9F JUMPI DUP1 PUSH4 0x38858C81 EQ PUSH2 0x9AB JUMPI DUP1 PUSH4 0x3F4BA83A EQ PUSH2 0x93D JUMPI DUP1 PUSH4 0x4883D86D EQ PUSH2 0x6FE JUMPI DUP1 PUSH4 0x558A7297 EQ PUSH2 0x681 JUMPI DUP1 PUSH4 0x5C975ABB EQ PUSH2 0x65C JUMPI DUP1 PUSH4 0x5D0F370F EQ PUSH2 0x583 JUMPI DUP1 PUSH4 0x5E35359E EQ PUSH2 0x4FB JUMPI DUP1 PUSH4 0x6D607D4E EQ PUSH2 0x42B JUMPI DUP1 PUSH4 0x715018A6 EQ PUSH2 0x3E7 JUMPI DUP1 PUSH4 0x8456CB59 EQ PUSH2 0x389 JUMPI DUP1 PUSH4 0x8DA5CB5B EQ PUSH2 0x362 JUMPI DUP1 PUSH4 0xF2FDE38B EQ PUSH2 0x2F1 JUMPI DUP1 PUSH4 0xF8197986 EQ PUSH2 0x112 JUMPI PUSH4 0xFEB61724 EQ PUSH2 0xE4 JUMPI PUSH0 DUP1 REVERT JUMPDEST CALLVALUE PUSH2 0x10E JUMPI PUSH1 0x20 CALLDATASIZE PUSH1 0x3 NOT ADD SLT PUSH2 0x10E JUMPI DUP2 PUSH1 0x20 SWAP4 DUP3 PUSH1 0xFF SWAP4 CALLDATALOAD DUP3 MSTORE DUP6 MSTORE KECCAK256 SLOAD AND SWAP1 MLOAD SWAP1 ISZERO ISZERO DUP2 MSTORE RETURN JUMPDEST DUP3 DUP1 REVERT JUMPDEST POP DUP3 CALLVALUE PUSH2 0x241 JUMPI DUP3 PUSH1 0x3 NOT CALLDATASIZE ADD SLT PUSH2 0x241 JUMPI PUSH2 0x12C PUSH2 0xBAA JUMP JUMPDEST SWAP3 PUSH1 0x24 CALLDATALOAD SWAP4 CALLER PUSH0 MSTORE PUSH1 0x20 SWAP1 PUSH1 0x5 DUP3 MSTORE PUSH1 0xFF DUP4 PUSH0 KECCAK256 SLOAD AND ISZERO PUSH2 0x2B4 JUMPI DUP6 PUSH0 MSTORE DUP5 DUP3 MSTORE PUSH1 0xFF DUP4 PUSH0 KECCAK256 SLOAD AND ISZERO PUSH2 0x27E JUMPI PUSH1 0x2 SLOAD DUP4 MLOAD PUSH4 0x153276E7 PUSH1 0xE1 SHL DUP2 MSTORE SWAP6 SWAP7 SWAP5 SWAP6 SWAP5 PUSH1 0x1 PUSH1 0x1 PUSH1 0xA0 SHL SUB SWAP4 SWAP1 SWAP2 DUP2 SWAP1 DUP8 SWAP1 DUP11 SWAP1 DUP3 SWAP1 DUP9 AND GAS STATICCALL SWAP6 DUP7 ISZERO PUSH2 0x274 JUMPI PUSH0 SWAP7 PUSH2 0x245 JUMPI JUMPDEST POP DUP4 PUSH1 0x3 SLOAD AND DUP1 EXTCODESIZE ISZERO PUSH2 0x241 JUMPI PUSH0 DUP8 PUSH2 0x1C2 SWAP3 DUP7 DUP4 DUP14 DUP12 MLOAD SWAP7 DUP8 SWAP6 DUP7 SWAP5 DUP6 SWAP4 PUSH4 0x40C10F19 PUSH1 0xE0 SHL DUP6 MSTORE DUP5 ADD PUSH2 0xBF7 JUMP JUMPDEST SUB SWAP3 GAS CALL DUP1 ISZERO PUSH2 0x237 JUMPI PUSH2 0x205 JUMPI JUMPDEST POP PUSH32 0x212D2FFF4310EA4F01098E6C3B6867BF6DF7A58B96FD02C8BDB9A3874E051281 SWAP6 SWAP7 SWAP8 POP DUP5 MLOAD SWAP7 DUP8 MSTORE DUP7 ADD MSTORE AND SWAP3 LOG2 DUP1 RETURN JUMPDEST SWAP1 SWAP7 POP PUSH1 0x1 PUSH1 0x1 PUSH1 0x40 SHL SUB DUP2 GT PUSH2 0x224 JUMPI DUP5 MSTORE SWAP5 SWAP6 POP PUSH0 SWAP5 DUP7 DUP9 PUSH2 0x1D1 JUMP JUMPDEST PUSH1 0x41 DUP9 PUSH4 0x4E487B71 PUSH1 0xE0 SHL PUSH0 MSTORE MSTORE PUSH1 0x24 PUSH0 REVERT JUMPDEST DUP7 MLOAD RETURNDATASIZE PUSH0 DUP3 RETURNDATACOPY RETURNDATASIZE SWAP1 REVERT JUMPDEST PUSH0 DUP1 REVERT JUMPDEST SWAP1 DUP1 SWAP7 POP DUP2 DUP2 RETURNDATASIZE DUP4 GT PUSH2 0x26D JUMPI JUMPDEST PUSH2 0x25D DUP2 DUP4 PUSH2 0xBC0 JUMP JUMPDEST DUP2 ADD SUB SLT PUSH2 0x241 JUMPI MLOAD SWAP5 DUP9 PUSH2 0x192 JUMP JUMPDEST POP RETURNDATASIZE PUSH2 0x253 JUMP JUMPDEST DUP6 MLOAD RETURNDATASIZE PUSH0 DUP3 RETURNDATACOPY RETURNDATASIZE SWAP1 REVERT JUMPDEST DUP3 MLOAD PUSH3 0x461BCD PUSH1 0xE5 SHL DUP2 MSTORE DUP1 DUP7 ADD DUP4 SWAP1 MSTORE PUSH1 0x10 PUSH1 0x24 DUP3 ADD MSTORE PUSH16 0x10985D1D1B19481B9BDD08199BDD5B99 PUSH1 0x82 SHL PUSH1 0x44 DUP3 ADD MSTORE PUSH1 0x64 SWAP1 REVERT JUMPDEST DUP3 MLOAD PUSH3 0x461BCD PUSH1 0xE5 SHL DUP2 MSTORE DUP1 DUP7 ADD DUP4 SWAP1 MSTORE PUSH1 0x17 PUSH1 0x24 DUP3 ADD MSTORE PUSH23 0x2737BA1030BABA3437B934BD32B21037B832B930BA37B9 PUSH1 0x49 SHL PUSH1 0x44 DUP3 ADD MSTORE PUSH1 0x64 SWAP1 REVERT JUMPDEST POP CALLVALUE PUSH2 0x241 JUMPI PUSH1 0x20 CALLDATASIZE PUSH1 0x3 NOT ADD SLT PUSH2 0x241 JUMPI PUSH2 0x30B PUSH2 0xBAA JUMP JUMPDEST SWAP1 PUSH2 0x314 PUSH2 0xC12 JUMP JUMPDEST PUSH1 0x1 PUSH1 0x1 PUSH1 0xA0 SHL SUB SWAP2 DUP3 AND SWAP3 DUP4 ISZERO PUSH2 0x34C JUMPI POP POP PUSH0 SLOAD DUP3 PUSH1 0x1 DUP1 PUSH1 0xA0 SHL SUB NOT DUP3 AND OR PUSH0 SSTORE AND PUSH0 DUP1 MLOAD PUSH1 0x20 PUSH2 0xD1F DUP4 CODECOPY DUP2 MLOAD SWAP2 MSTORE PUSH0 DUP1 LOG3 STOP JUMPDEST SWAP1 PUSH0 PUSH1 0x24 SWAP3 MLOAD SWAP2 PUSH4 0x1E4FBDF7 PUSH1 0xE0 SHL DUP4 MSTORE DUP3 ADD MSTORE REVERT JUMPDEST DUP3 CALLVALUE PUSH2 0x241 JUMPI PUSH0 CALLDATASIZE PUSH1 0x3 NOT ADD SLT PUSH2 0x241 JUMPI PUSH0 SLOAD SWAP1 MLOAD PUSH1 0x1 PUSH1 0x1 PUSH1 0xA0 SHL SUB SWAP1 SWAP2 AND DUP2 MSTORE PUSH1 0x20 SWAP1 RETURN JUMPDEST DUP3 CALLVALUE PUSH2 0x241 JUMPI PUSH0 CALLDATASIZE PUSH1 0x3 NOT ADD SLT PUSH2 0x241 JUMPI PUSH1 0x20 PUSH32 0x62E78CEA01BEE320CD4E420270B5EA74000D11B0C9F74754EBDBFC544B05A258 SWAP2 PUSH2 0x3C6 PUSH2 0xC12 JUMP JUMPDEST PUSH2 0x3CE PUSH2 0xC3D JUMP JUMPDEST PUSH0 DUP1 SLOAD PUSH1 0xFF PUSH1 0xA0 SHL NOT AND PUSH1 0x1 PUSH1 0xA0 SHL OR SWAP1 SSTORE MLOAD CALLER DUP2 MSTORE LOG1 STOP JUMPDEST CALLVALUE PUSH2 0x241 JUMPI PUSH0 CALLDATASIZE PUSH1 0x3 NOT ADD SLT PUSH2 0x241 JUMPI PUSH2 0x3FF PUSH2 0xC12 JUMP JUMPDEST PUSH0 DUP1 SLOAD PUSH1 0x1 PUSH1 0x1 PUSH1 0xA0 SHL SUB NOT DUP2 AND DUP3 SSTORE PUSH1 0x1 PUSH1 0x1 PUSH1 0xA0 SHL SUB AND PUSH0 DUP1 MLOAD PUSH1 0x20 PUSH2 0xD1F DUP4 CODECOPY DUP2 MLOAD SWAP2 MSTORE DUP3 DUP1 LOG3 STOP JUMPDEST POP CALLVALUE PUSH2 0x241 JUMPI PUSH1 0x60 CALLDATASIZE PUSH1 0x3 NOT ADD SLT PUSH2 0x241 JUMPI PUSH2 0x445 PUSH2 0xBAA JUMP JUMPDEST SWAP2 PUSH2 0x44E PUSH2 0xC12 JUMP JUMPDEST PUSH1 0x2 SLOAD DUP2 MLOAD PUSH4 0xD03DB089 PUSH1 0xE0 SHL DUP2 MSTORE PUSH1 0x1 PUSH1 0x1 PUSH1 0xA0 SHL SUB SWAP4 SWAP1 SWAP2 PUSH1 0x20 SWAP2 DUP4 SWAP2 DUP3 SWAP1 DUP8 AND GAS STATICCALL SWAP1 DUP2 ISZERO PUSH2 0x4F1 JUMPI PUSH0 SWAP2 PUSH2 0x4B2 JUMPI JUMPDEST POP PUSH0 DUP1 MLOAD PUSH1 0x20 PUSH2 0xCFF DUP4 CODECOPY DUP2 MLOAD SWAP2 MSTORE SWAP2 PUSH2 0x4A2 PUSH1 0x20 SWAP3 DUP7 DUP7 PUSH1 0x3 SLOAD AND PUSH2 0xC5D JUMP JUMPDEST MLOAD SWAP3 PUSH1 0x44 CALLDATALOAD DUP5 MSTORE PUSH1 0x24 CALLDATALOAD SWAP5 AND SWAP3 LOG3 STOP JUMPDEST SWAP1 POP PUSH1 0x20 DUP2 RETURNDATASIZE PUSH1 0x20 GT PUSH2 0x4E9 JUMPI JUMPDEST DUP2 PUSH2 0x4CD PUSH1 0x20 SWAP4 DUP4 PUSH2 0xBC0 JUMP JUMPDEST DUP2 ADD SUB SLT PUSH2 0x241 JUMPI MLOAD PUSH0 DUP1 MLOAD PUSH1 0x20 PUSH2 0xCFF DUP4 CODECOPY DUP2 MLOAD SWAP2 MSTORE PUSH2 0x481 JUMP JUMPDEST RETURNDATASIZE SWAP2 POP PUSH2 0x4C0 JUMP JUMPDEST DUP3 MLOAD RETURNDATASIZE PUSH0 DUP3 RETURNDATACOPY RETURNDATASIZE SWAP1 REVERT JUMPDEST POP CALLVALUE PUSH2 0x241 JUMPI PUSH1 0x60 CALLDATASIZE PUSH1 0x3 NOT ADD SLT PUSH2 0x241 JUMPI PUSH2 0x515 PUSH2 0xBAA JUMP JUMPDEST SWAP1 PUSH1 0x24 CALLDATALOAD SWAP1 PUSH1 0x1 PUSH1 0x1 PUSH1 0xA0 SHL SUB SWAP1 DUP2 DUP4 AND DUP1 DUP5 SUB PUSH2 0x241 JUMPI PUSH2 0x535 PUSH2 0xC12 JUMP JUMPDEST ISZERO PUSH2 0x54C JUMPI POP PUSH2 0x54A SWAP4 POP PUSH1 0x44 CALLDATALOAD SWAP3 AND PUSH2 0xC5D JUMP JUMPDEST STOP JUMPDEST PUSH1 0x64 SWAP1 PUSH1 0x20 DUP7 MLOAD SWAP2 PUSH3 0x461BCD PUSH1 0xE5 SHL DUP4 MSTORE DUP3 ADD MSTORE PUSH1 0x11 PUSH1 0x24 DUP3 ADD MSTORE PUSH17 0x125B9D985B1A59081C9958DA5C1A595B9D PUSH1 0x7A SHL PUSH1 0x44 DUP3 ADD MSTORE REVERT JUMPDEST POP CALLVALUE PUSH2 0x241 JUMPI PUSH0 CALLDATASIZE PUSH1 0x3 NOT ADD SLT PUSH2 0x241 JUMPI PUSH1 0x2 SLOAD DUP3 MLOAD PUSH4 0xD03DB089 PUSH1 0xE0 SHL DUP2 MSTORE SWAP2 SWAP1 PUSH1 0x20 SWAP1 PUSH1 0x1 PUSH1 0x1 PUSH1 0xA0 SHL SUB AND DUP2 DUP5 DUP5 DUP2 DUP5 GAS STATICCALL SWAP4 DUP5 ISZERO PUSH2 0x274 JUMPI PUSH0 SWAP5 PUSH2 0x62D JUMPI JUMPDEST POP DUP2 SWAP1 DUP6 MLOAD SWAP4 DUP5 DUP1 SWAP3 PUSH4 0x153276E7 PUSH1 0xE1 SHL DUP3 MSTORE GAS STATICCALL SWAP2 DUP3 ISZERO PUSH2 0x623 JUMPI PUSH0 SWAP3 PUSH2 0x5F4 JUMPI JUMPDEST POP DUP4 MLOAD SWAP3 DUP4 MSTORE DUP3 ADD MSTORE RETURN JUMPDEST SWAP1 DUP1 SWAP3 POP DUP2 DUP2 RETURNDATASIZE DUP4 GT PUSH2 0x61C JUMPI JUMPDEST PUSH2 0x60C DUP2 DUP4 PUSH2 0xBC0 JUMP JUMPDEST DUP2 ADD SUB SLT PUSH2 0x241 JUMPI MLOAD SWAP1 DUP5 PUSH2 0x5E9 JUMP JUMPDEST POP RETURNDATASIZE PUSH2 0x602 JUMP JUMPDEST DUP5 MLOAD RETURNDATASIZE PUSH0 DUP3 RETURNDATACOPY RETURNDATASIZE SWAP1 REVERT JUMPDEST SWAP1 SWAP4 POP DUP2 DUP2 DUP2 RETURNDATASIZE DUP4 GT PUSH2 0x655 JUMPI JUMPDEST PUSH2 0x645 DUP2 DUP4 PUSH2 0xBC0 JUMP JUMPDEST DUP2 ADD SUB SLT PUSH2 0x241 JUMPI MLOAD SWAP3 DUP2 PUSH2 0x5C6 JUMP JUMPDEST POP RETURNDATASIZE PUSH2 0x63B JUMP JUMPDEST DUP3 CALLVALUE PUSH2 0x241 JUMPI PUSH0 CALLDATASIZE PUSH1 0x3 NOT ADD SLT PUSH2 0x241 JUMPI PUSH1 0x20 SWAP1 PUSH1 0xFF PUSH0 SLOAD PUSH1 0xA0 SHR AND SWAP1 MLOAD SWAP1 ISZERO ISZERO DUP2 MSTORE RETURN JUMPDEST DUP3 CALLVALUE PUSH2 0x241 JUMPI DUP1 PUSH1 0x3 NOT CALLDATASIZE ADD SLT PUSH2 0x241 JUMPI PUSH2 0x69A PUSH2 0xBAA JUMP JUMPDEST PUSH1 0x24 CALLDATALOAD SWAP1 DUP2 ISZERO ISZERO DUP1 SWAP3 SUB PUSH2 0x241 JUMPI PUSH32 0x966C160E1C4DBC7DF8D69AF4ACE01E9297C3CF016397B7914971F2FBFA32672D SWAP2 PUSH1 0x20 SWAP2 PUSH2 0x6D5 PUSH2 0xC12 JUMP JUMPDEST PUSH1 0x1 PUSH1 0x1 PUSH1 0xA0 SHL SUB AND PUSH0 DUP2 DUP2 MSTORE PUSH1 0x5 DUP5 MSTORE DUP6 SWAP1 KECCAK256 DUP1 SLOAD PUSH1 0xFF NOT AND PUSH1 0xFF DUP5 AND OR SWAP1 SSTORE SWAP4 MLOAD SWAP1 DUP2 MSTORE LOG2 STOP JUMPDEST POP CALLVALUE PUSH2 0x241 JUMPI DUP2 PUSH1 0x3 NOT CALLDATASIZE ADD SLT PUSH2 0x241 JUMPI PUSH1 0x24 DUP1 CALLDATALOAD SWAP1 PUSH2 0x71C PUSH2 0xC3D JUMP JUMPDEST PUSH1 0x2 PUSH1 0x1 SLOAD EQ PUSH2 0x92D JUMPI PUSH1 0x2 PUSH1 0x1 SSTORE DUP2 PUSH0 MSTORE PUSH1 0x20 SWAP1 DUP4 DUP3 MSTORE PUSH1 0xFF DUP6 PUSH0 KECCAK256 SLOAD AND PUSH2 0x8F7 JUMPI PUSH1 0x2 SLOAD DUP6 MLOAD PUSH4 0xD03DB089 PUSH1 0xE0 SHL DUP2 MSTORE SWAP5 SWAP4 SWAP3 SWAP2 SWAP1 PUSH1 0x1 PUSH1 0x1 PUSH1 0xA0 SHL SUB SWAP1 DUP4 SWAP1 DUP8 SWAP1 DUP8 SWAP1 DUP3 SWAP1 DUP6 AND GAS STATICCALL SWAP6 DUP7 ISZERO PUSH2 0x8ED JUMPI PUSH0 SWAP7 PUSH2 0x8BE JUMPI JUMPDEST POP PUSH1 0x3 SLOAD AND DUP7 MLOAD PUSH4 0x70A08231 PUSH1 0xE0 SHL DUP2 MSTORE CALLER DUP7 DUP3 ADD MSTORE DUP4 DUP2 DUP5 DUP2 DUP6 GAS STATICCALL DUP1 ISZERO PUSH2 0x8B4 JUMPI DUP8 SWAP2 PUSH0 SWAP2 PUSH2 0x883 JUMPI JUMPDEST POP LT PUSH2 0x84D JUMPI DUP7 MLOAD PUSH4 0x23B872DD PUSH1 0xE0 SHL DUP5 DUP3 ADD MSTORE CALLER DUP4 DUP3 ADD MSTORE ADDRESS PUSH1 0x44 DUP3 ADD MSTORE PUSH1 0x64 DUP1 DUP3 ADD DUP9 SWAP1 MSTORE DUP2 MSTORE SWAP2 PUSH1 0xA0 DUP4 ADD SWAP1 PUSH1 0x1 PUSH1 0x1 PUSH1 0x40 SHL SUB DUP3 GT DUP5 DUP4 LT OR PUSH2 0x83B JUMPI POP DUP8 MSTORE PUSH32 0x6B29B5B6F86C2F0BB920053AF8923B25DC79A680A2F004411897104CD57070AD SWAP5 SWAP4 SWAP3 SWAP2 PUSH2 0x814 SWAP2 PUSH2 0xC99 JUMP JUMPDEST DUP2 PUSH0 MSTORE DUP3 DUP2 MSTORE DUP6 PUSH0 KECCAK256 PUSH1 0x1 PUSH1 0xFF NOT DUP3 SLOAD AND OR SWAP1 SSTORE DUP6 MLOAD SWAP5 DUP6 MSTORE DUP5 ADD MSTORE CALLDATALOAD SWAP3 CALLER SWAP3 LOG3 PUSH1 0x1 DUP1 SSTORE STOP JUMPDEST PUSH4 0x4E487B71 PUSH1 0xE0 SHL PUSH0 SWAP1 DUP2 MSTORE PUSH1 0x41 DUP9 MSTORE REVERT JUMPDEST DUP7 MLOAD PUSH3 0x461BCD PUSH1 0xE5 SHL DUP2 MSTORE DUP1 DUP7 ADD DUP5 SWAP1 MSTORE PUSH1 0x11 DUP2 DUP5 ADD MSTORE PUSH17 0x496E73756666696369656E742044474E45 PUSH1 0x78 SHL PUSH1 0x44 DUP3 ADD MSTORE PUSH1 0x64 SWAP1 REVERT JUMPDEST DUP1 SWAP3 POP DUP6 DUP1 SWAP3 POP RETURNDATASIZE DUP4 GT PUSH2 0x8AD JUMPI JUMPDEST PUSH2 0x89C DUP2 DUP4 PUSH2 0xBC0 JUMP JUMPDEST DUP2 ADD SUB SLT PUSH2 0x241 JUMPI DUP7 SWAP1 MLOAD DUP10 PUSH2 0x7A2 JUMP JUMPDEST POP RETURNDATASIZE PUSH2 0x892 JUMP JUMPDEST DUP9 MLOAD RETURNDATASIZE PUSH0 DUP3 RETURNDATACOPY RETURNDATASIZE SWAP1 REVERT JUMPDEST SWAP1 SWAP6 POP DUP3 DUP2 DUP2 RETURNDATASIZE DUP4 GT PUSH2 0x8E6 JUMPI JUMPDEST PUSH2 0x8D6 DUP2 DUP4 PUSH2 0xBC0 JUMP JUMPDEST DUP2 ADD SUB SLT PUSH2 0x241 JUMPI MLOAD SWAP5 DUP8 PUSH2 0x776 JUMP JUMPDEST POP RETURNDATASIZE PUSH2 0x8CC JUMP JUMPDEST DUP8 MLOAD RETURNDATASIZE PUSH0 DUP3 RETURNDATACOPY RETURNDATASIZE SWAP1 REVERT JUMPDEST SWAP1 PUSH1 0x12 SWAP3 POP PUSH1 0x64 SWAP5 MLOAD SWAP4 PUSH3 0x461BCD PUSH1 0xE5 SHL DUP6 MSTORE DUP5 ADD MSTORE DUP3 ADD MSTORE PUSH18 0x139BDB98D948185B1C9958591E481D5CD959 PUSH1 0x72 SHL PUSH1 0x44 DUP3 ADD MSTORE REVERT JUMPDEST DUP4 MLOAD PUSH4 0x3EE5AEB5 PUSH1 0xE0 SHL DUP2 MSTORE DUP4 SWAP1 REVERT JUMPDEST POP SWAP1 CALLVALUE PUSH2 0x241 JUMPI PUSH0 CALLDATASIZE PUSH1 0x3 NOT ADD SLT PUSH2 0x241 JUMPI PUSH2 0x957 PUSH2 0xC12 JUMP JUMPDEST PUSH0 SLOAD SWAP2 PUSH1 0xFF DUP4 PUSH1 0xA0 SHR AND ISZERO PUSH2 0x99D JUMPI PUSH1 0xFF PUSH1 0xA0 SHL NOT DUP4 AND PUSH0 SSTORE DUP2 MLOAD CALLER DUP2 MSTORE PUSH32 0x5DB9EE0A495BF2E6FF9C91A7834C1BA4FDD244A5E8AA4E537BD38AEAE4B073AA SWAP1 PUSH1 0x20 SWAP1 LOG1 STOP JUMPDEST SWAP1 MLOAD PUSH4 0x8DFC202B PUSH1 0xE0 SHL DUP2 MSTORE REVERT JUMPDEST POP SWAP1 CALLVALUE PUSH2 0x241 JUMPI PUSH1 0x20 SWAP2 DUP3 PUSH1 0x3 NOT CALLDATASIZE ADD SLT PUSH2 0x241 JUMPI PUSH2 0x9C8 PUSH2 0xBAA JUMP JUMPDEST PUSH1 0x3 SLOAD DUP4 MLOAD PUSH4 0x70A08231 PUSH1 0xE0 SHL DUP2 MSTORE PUSH1 0x1 PUSH1 0x1 PUSH1 0xA0 SHL SUB SWAP3 DUP4 AND DUP5 DUP3 ADD MSTORE SWAP4 SWAP2 SWAP1 DUP6 SWAP1 DUP6 SWAP1 PUSH1 0x24 SWAP1 DUP3 SWAP1 DUP6 AND GAS STATICCALL SWAP4 DUP5 ISZERO PUSH2 0x4F1 JUMPI SWAP1 DUP6 SWAP2 PUSH0 SWAP6 PUSH2 0xA6E JUMPI JUMPDEST POP PUSH1 0x2 SLOAD AND DUP3 MLOAD SWAP4 DUP5 DUP1 SWAP3 PUSH4 0xD03DB089 PUSH1 0xE0 SHL DUP3 MSTORE GAS STATICCALL SWAP2 DUP3 ISZERO PUSH2 0xA64 JUMPI PUSH0 SWAP3 PUSH2 0xA35 JUMPI JUMPDEST POP MLOAD SWAP2 LT ISZERO DUP2 MSTORE RETURN JUMPDEST SWAP1 SWAP2 POP DUP4 DUP2 DUP2 RETURNDATASIZE DUP4 GT PUSH2 0xA5D JUMPI JUMPDEST PUSH2 0xA4D DUP2 DUP4 PUSH2 0xBC0 JUMP JUMPDEST DUP2 ADD SUB SLT PUSH2 0x241 JUMPI MLOAD SWAP1 DUP5 PUSH2 0xA2C JUMP JUMPDEST POP RETURNDATASIZE PUSH2 0xA43 JUMP JUMPDEST POP MLOAD RETURNDATASIZE PUSH0 DUP3 RETURNDATACOPY RETURNDATASIZE SWAP1 REVERT JUMPDEST DUP3 DUP2 SWAP4 SWAP3 SWAP7 POP RETURNDATASIZE DUP4 GT PUSH2 0xA98 JUMPI JUMPDEST PUSH2 0xA86 DUP2 DUP4 PUSH2 0xBC0 JUMP JUMPDEST DUP2 ADD SUB SLT PUSH2 0x241 JUMPI DUP5 SWAP1 MLOAD SWAP4 DUP7 PUSH2 0xA07 JUMP JUMPDEST POP RETURNDATASIZE PUSH2 0xA7C JUMP JUMPDEST DUP3 CALLVALUE PUSH2 0x241 JUMPI PUSH1 0x20 CALLDATASIZE PUSH1 0x3 NOT ADD SLT PUSH2 0x241 JUMPI PUSH1 0x20 SWAP1 PUSH1 0x1 PUSH1 0x1 PUSH1 0xA0 SHL SUB PUSH2 0xAC4 PUSH2 0xBAA JUMP JUMPDEST AND PUSH0 MSTORE PUSH1 0x5 DUP3 MSTORE PUSH1 0xFF DUP2 PUSH0 KECCAK256 SLOAD AND SWAP1 MLOAD SWAP1 ISZERO ISZERO DUP2 MSTORE RETURN JUMPDEST DUP3 CALLVALUE PUSH2 0x241 JUMPI PUSH0 CALLDATASIZE PUSH1 0x3 NOT ADD SLT PUSH2 0x241 JUMPI PUSH1 0x2 SLOAD SWAP1 MLOAD PUSH1 0x1 PUSH1 0x1 PUSH1 0xA0 SHL SUB SWAP1 SWAP2 AND DUP2 MSTORE PUSH1 0x20 SWAP1 RETURN JUMPDEST DUP3 CALLVALUE PUSH2 0x241 JUMPI PUSH0 CALLDATASIZE PUSH1 0x3 NOT ADD SLT PUSH2 0x241 JUMPI PUSH1 0x3 SLOAD SWAP1 MLOAD PUSH1 0x1 PUSH1 0x1 PUSH1 0xA0 SHL SUB SWAP1 SWAP2 AND DUP2 MSTORE PUSH1 0x20 SWAP1 RETURN JUMPDEST POP CALLVALUE PUSH2 0x241 JUMPI PUSH1 0x20 CALLDATASIZE PUSH1 0x3 NOT ADD SLT PUSH2 0x241 JUMPI PUSH2 0xB45 PUSH2 0xBAA JUMP JUMPDEST PUSH2 0xB4D PUSH2 0xC12 JUMP JUMPDEST PUSH1 0x1 PUSH1 0x1 PUSH1 0xA0 SHL SUB AND SWAP2 DUP3 ISZERO PUSH2 0xB71 JUMPI PUSH1 0x2 DUP1 SLOAD PUSH1 0x1 PUSH1 0x1 PUSH1 0xA0 SHL SUB NOT AND DUP5 OR SWAP1 SSTORE STOP JUMPDEST SWAP1 PUSH1 0x20 PUSH1 0x64 SWAP3 MLOAD SWAP2 PUSH3 0x461BCD PUSH1 0xE5 SHL DUP4 MSTORE DUP3 ADD MSTORE PUSH1 0x13 PUSH1 0x24 DUP3 ADD MSTORE PUSH19 0x496E76616C69642067616D6520636F6E666967 PUSH1 0x68 SHL PUSH1 0x44 DUP3 ADD MSTORE REVERT JUMPDEST PUSH1 0x4 CALLDATALOAD SWAP1 PUSH1 0x1 PUSH1 0x1 PUSH1 0xA0 SHL SUB DUP3 AND DUP3 SUB PUSH2 0x241 JUMPI JUMP JUMPDEST PUSH1 0x1F SWAP1 SWAP2 ADD PUSH1 0x1F NOT AND DUP2 ADD SWAP1 PUSH1 0x1 PUSH1 0x1 PUSH1 0x40 SHL SUB DUP3 GT SWAP1 DUP3 LT OR PUSH2 0xBE3 JUMPI PUSH1 0x40 MSTORE JUMP JUMPDEST PUSH4 0x4E487B71 PUSH1 0xE0 SHL PUSH0 MSTORE PUSH1 0x41 PUSH1 0x4 MSTORE PUSH1 0x24 PUSH0 REVERT JUMPDEST PUSH1 0x1 PUSH1 0x1 PUSH1 0xA0 SHL SUB SWAP1 SWAP2 AND DUP2 MSTORE PUSH1 0x20 DUP2 ADD SWAP2 SWAP1 SWAP2 MSTORE PUSH1 0x40 ADD SWAP1 JUMP JUMPDEST PUSH0 SLOAD PUSH1 0x1 PUSH1 0x1 PUSH1 0xA0 SHL SUB AND CALLER SUB PUSH2 0xC25 JUMPI JUMP JUMPDEST PUSH1 0x40 MLOAD PUSH4 0x118CDAA7 PUSH1 0xE0 SHL DUP2 MSTORE CALLER PUSH1 0x4 DUP3 ADD MSTORE PUSH1 0x24 SWAP1 REVERT JUMPDEST PUSH1 0xFF PUSH0 SLOAD PUSH1 0xA0 SHR AND PUSH2 0xC4B JUMPI JUMP JUMPDEST PUSH1 0x40 MLOAD PUSH4 0xD93C0665 PUSH1 0xE0 SHL DUP2 MSTORE PUSH1 0x4 SWAP1 REVERT JUMPDEST PUSH2 0xC92 PUSH2 0xC97 SWAP4 SWAP3 PUSH2 0xC84 PUSH1 0x40 MLOAD SWAP5 DUP6 SWAP3 PUSH4 0xA9059CBB PUSH1 0xE0 SHL PUSH1 0x20 DUP6 ADD MSTORE PUSH1 0x24 DUP5 ADD PUSH2 0xBF7 JUMP JUMPDEST SUB PUSH1 0x1F NOT DUP2 ADD DUP5 MSTORE DUP4 PUSH2 0xBC0 JUMP JUMPDEST PUSH2 0xC99 JUMP JUMPDEST JUMP JUMPDEST SWAP1 PUSH0 PUSH1 0x20 SWAP2 DUP3 DUP2 MLOAD SWAP2 ADD DUP3 DUP6 GAS CALL ISZERO PUSH2 0xCF3 JUMPI PUSH0 MLOAD RETURNDATASIZE PUSH2 0xCEA JUMPI POP PUSH1 0x1 PUSH1 0x1 PUSH1 0xA0 SHL SUB DUP2 AND EXTCODESIZE ISZERO JUMPDEST PUSH2 0xCC8 JUMPI POP JUMP JUMPDEST PUSH1 0x40 MLOAD PUSH4 0x5274AFE7 PUSH1 0xE0 SHL DUP2 MSTORE PUSH1 0x1 PUSH1 0x1 PUSH1 0xA0 SHL SUB SWAP1 SWAP2 AND PUSH1 0x4 DUP3 ADD MSTORE PUSH1 0x24 SWAP1 REVERT JUMPDEST PUSH1 0x1 EQ ISZERO PUSH2 0xCC1 JUMP JUMPDEST PUSH1 0x40 MLOAD RETURNDATASIZE PUSH0 DUP3 RETURNDATACOPY RETURNDATASIZE SWAP1 REVERT INVALID AND 0x2E 0x29 NUMBER PUSH3 0x958F02 SWAP2 TLOAD 0xE4 EXTCODECOPY PUSH19 0x518C8124A9E70ED61854C2894CAC3698B34413 DUP12 0xE0 SMOD SWAP13 MSTORE8 AND MSIZE EQ SGT PREVRANDAO 0xCD 0x1F 0xD0 LOG4 CALLCODE DUP5 NOT BLOBHASH PUSH32 0x9722A3DAAFE3B4186F6B6457E0A2646970667358221220E8603FA4A2E13DF214 PUSH13 0x9D8E14E20D952B6041FC6898CD SWAP6 XOR XOR 0xE8 GT 0x2D RETURNDATASIZE SWAP7 0xB9 PUSH5 0x736F6C6343 STOP ADDMOD XOR STOP CALLER "},"methodIdentifiers":{"authorizedOperators(address)":"181d989b","canEnterBattle(address)":"38858c81","dragonToken()":"0e42323b","gameConfig()":"1176829d","getEntryCost()":"5d0f370f","owner()":"8da5cb5b","pause()":"8456cb59","paused()":"5c975abb","payEntryFee(uint256,bytes32)":"4883d86d","refundEntryFee(address,uint256,bytes32)":"6d607d4e","renounceOwnership()":"715018a6","rewardWinner(address,bytes32)":"f8197986","setGameConfig(address)":"08e9962d","setOperator(address,bool)":"558a7297","transferOwnership(address)":"f2fde38b","unpause()":"3f4ba83a","usedNonces(bytes32)":"feb61724","withdrawTokens(address,address,uint256)":"5e35359e"}}}}}