{"project/src/BattleGateV2.sol":{"BattleGateV2":{"abi":[{"inputs":[{"internalType":"address","name":"_stakeToken","type":"address"},{"internalType":"address","name":"_trustedBackend","type":"address"},{"internalType":"address","name":"_treasury","type":"address"},{"internalType":"address","name":"_creatureContract","type":"address"}],"stateMutability":"nonpayable","type":"constructor"},{"inputs":[],"name":"AlreadyInBattle","type":"error"},{"inputs":[],"name":"BattleExpiredError","type":"error"},{"inputs":[],"name":"BattleNotInProgress","type":"error"},{"inputs":[],"name":"BattleNotOpen","type":"error"},{"inputs":[],"name":"BattleNotResolved","type":"error"},{"inputs":[],"name":"CancelLockoutNotPassed","type":"error"},{"inputs":[],"name":"CannotCancel","type":"error"},{"inputs":[],"name":"CannotJoinOwnBattle","type":"error"},{"inputs":[],"name":"CannotRefund","type":"error"},{"inputs":[],"name":"CreatureInBattle","type":"error"},{"inputs":[],"name":"ECDSAInvalidSignature","type":"error"},{"inputs":[{"internalType":"uint256","name":"length","type":"uint256"}],"name":"ECDSAInvalidSignatureLength","type":"error"},{"inputs":[{"internalType":"bytes32","name":"s","type":"bytes32"}],"name":"ECDSAInvalidSignatureS","type":"error"},{"inputs":[],"name":"EnforcedPause","type":"error"},{"inputs":[],"name":"ExpectedPause","type":"error"},{"inputs":[],"name":"FeeTransferFailed","type":"error"},{"inputs":[],"name":"InvalidSignature","type":"error"},{"inputs":[],"name":"InvalidStakeAmount","type":"error"},{"inputs":[],"name":"InvalidWinner","type":"error"},{"inputs":[],"name":"NotCreatureOwner","type":"error"},{"inputs":[],"name":"NotHost","type":"error"},{"inputs":[],"name":"NotTheWinner","type":"error"},{"inputs":[{"internalType":"address","name":"owner","type":"address"}],"name":"OwnableInvalidOwner","type":"error"},{"inputs":[{"internalType":"address","name":"account","type":"address"}],"name":"OwnableUnauthorizedAccount","type":"error"},{"inputs":[],"name":"PrizeTransferFailed","type":"error"},{"inputs":[],"name":"ReentrancyGuardReentrantCall","type":"error"},{"inputs":[],"name":"RefundFailed","type":"error"},{"inputs":[],"name":"SignatureAlreadyUsed","type":"error"},{"inputs":[],"name":"SignatureExpired","type":"error"},{"inputs":[],"name":"StakeTransferFailed","type":"error"},{"inputs":[],"name":"TimeoutNotReached","type":"error"},{"anonymous":false,"inputs":[{"indexed":true,"internalType":"address","name":"oldVault","type":"address"},{"indexed":true,"internalType":"address","name":"newVault","type":"address"}],"name":"AirdropVaultChanged","type":"event"},{"anonymous":false,"inputs":[{"indexed":true,"internalType":"address","name":"oldBackend","type":"address"},{"indexed":true,"internalType":"address","name":"newBackend","type":"address"}],"name":"BackendChanged","type":"event"},{"anonymous":false,"inputs":[{"indexed":true,"internalType":"address","name":"newBackend","type":"address"},{"indexed":false,"internalType":"uint256","name":"effectiveTime","type":"uint256"}],"name":"BackendProposed","type":"event"},{"anonymous":false,"inputs":[{"indexed":true,"internalType":"bytes32","name":"battleId","type":"bytes32"},{"indexed":true,"internalType":"address","name":"host","type":"address"}],"name":"BattleCancelled","type":"event"},{"anonymous":false,"inputs":[{"indexed":true,"internalType":"bytes32","name":"battleId","type":"bytes32"},{"indexed":true,"internalType":"address","name":"host","type":"address"},{"indexed":false,"internalType":"uint256","name":"creatureId","type":"uint256"},{"indexed":false,"internalType":"uint256","name":"stakeAmount","type":"uint256"}],"name":"BattleCreated","type":"event"},{"anonymous":false,"inputs":[{"indexed":true,"internalType":"bytes32","name":"battleId","type":"bytes32"},{"indexed":false,"internalType":"string","name":"reason","type":"string"}],"name":"BattleExpired","type":"event"},{"anonymous":false,"inputs":[{"indexed":true,"internalType":"bytes32","name":"battleId","type":"bytes32"},{"indexed":true,"internalType":"address","name":"guest","type":"address"},{"indexed":false,"internalType":"uint256","name":"creatureId","type":"uint256"}],"name":"BattleMatched","type":"event"},{"anonymous":false,"inputs":[{"indexed":true,"internalType":"bytes32","name":"battleId","type":"bytes32"},{"indexed":true,"internalType":"address","name":"winner","type":"address"},{"indexed":true,"internalType":"address","name":"loser","type":"address"}],"name":"BattleResolved","type":"event"},{"anonymous":false,"inputs":[{"indexed":true,"internalType":"address","name":"oldContract","type":"address"},{"indexed":true,"internalType":"address","name":"newContract","type":"address"}],"name":"CreatureContractChanged","type":"event"},{"anonymous":false,"inputs":[{"indexed":true,"internalType":"address","name":"previousOwner","type":"address"},{"indexed":true,"internalType":"address","name":"newOwner","type":"address"}],"name":"OwnershipTransferred","type":"event"},{"anonymous":false,"inputs":[{"indexed":false,"internalType":"address","name":"account","type":"address"}],"name":"Paused","type":"event"},{"anonymous":false,"inputs":[{"indexed":false,"internalType":"uint256","name":"newMin","type":"uint256"},{"indexed":false,"internalType":"uint256","name":"newMax","type":"uint256"}],"name":"StakeLimitsChanged","type":"event"},{"anonymous":false,"inputs":[{"indexed":true,"internalType":"address","name":"oldTreasury","type":"address"},{"indexed":true,"internalType":"address","name":"newTreasury","type":"address"}],"name":"TreasuryChanged","type":"event"},{"anonymous":false,"inputs":[{"indexed":false,"internalType":"address","name":"account","type":"address"}],"name":"Unpaused","type":"event"},{"anonymous":false,"inputs":[{"indexed":true,"internalType":"bytes32","name":"battleId","type":"bytes32"},{"indexed":true,"internalType":"address","name":"winner","type":"address"},{"indexed":false,"internalType":"uint256","name":"amount","type":"uint256"}],"name":"WinningsClaimed","type":"event"},{"anonymous":false,"inputs":[{"indexed":true,"internalType":"uint256","name":"creatureId","type":"uint256"},{"indexed":false,"internalType":"uint256","name":"amount","type":"uint256"}],"name":"XPFailed","type":"event"},{"inputs":[],"name":"BPS_DENOMINATOR","outputs":[{"internalType":"uint256","name":"","type":"uint256"}],"stateMutability":"view","type":"function"},{"inputs":[],"name":"CANCEL_FEE_BPS","outputs":[{"internalType":"uint256","name":"","type":"uint256"}],"stateMutability":"view","type":"function"},{"inputs":[],"name":"CANCEL_LOCKOUT","outputs":[{"internalType":"uint256","name":"","type":"uint256"}],"stateMutability":"view","type":"function"},{"inputs":[],"name":"CLAIM_TIMEOUT","outputs":[{"internalType":"uint256","name":"","type":"uint256"}],"stateMutability":"view","type":"function"},{"inputs":[],"name":"HOST_TIMEOUT","outputs":[{"internalType":"uint256","name":"","type":"uint256"}],"stateMutability":"view","type":"function"},{"inputs":[],"name":"PLATFORM_FEE_BPS","outputs":[{"internalType":"uint256","name":"","type":"uint256"}],"stateMutability":"view","type":"function"},{"inputs":[],"name":"TIMELOCK_DURATION","outputs":[{"internalType":"uint256","name":"","type":"uint256"}],"stateMutability":"view","type":"function"},{"inputs":[],"name":"airdropVault","outputs":[{"internalType":"contract IAirdropVault","name":"","type":"address"}],"stateMutability":"view","type":"function"},{"inputs":[],"name":"battleNonce","outputs":[{"internalType":"uint256","name":"","type":"uint256"}],"stateMutability":"view","type":"function"},{"inputs":[{"internalType":"bytes32","name":"","type":"bytes32"}],"name":"battles","outputs":[{"internalType":"address","name":"host","type":"address"},{"internalType":"address","name":"guest","type":"address"},{"internalType":"uint256","name":"hostCreatureId","type":"uint256"},{"internalType":"uint256","name":"guestCreatureId","type":"uint256"},{"internalType":"uint256","name":"stakeAmount","type":"uint256"},{"internalType":"uint256","name":"createdAt","type":"uint256"},{"internalType":"uint256","name":"matchedAt","type":"uint256"},{"internalType":"uint256","name":"resolvedAt","type":"uint256"},{"internalType":"enum BattleGateV2.BattleState","name":"state","type":"uint8"},{"internalType":"address","name":"winner","type":"address"}],"stateMutability":"view","type":"function"},{"inputs":[],"name":"cancelBackendChange","outputs":[],"stateMutability":"nonpayable","type":"function"},{"inputs":[{"internalType":"bytes32","name":"battleId","type":"bytes32"}],"name":"cancelBattle","outputs":[],"stateMutability":"nonpayable","type":"function"},{"inputs":[{"internalType":"bytes32","name":"battleId","type":"bytes32"}],"name":"claimHostTimeout","outputs":[],"stateMutability":"nonpayable","type":"function"},{"inputs":[{"internalType":"bytes32","name":"battleId","type":"bytes32"}],"name":"claimWinnings","outputs":[],"stateMutability":"nonpayable","type":"function"},{"inputs":[{"internalType":"uint256","name":"creatureId","type":"uint256"},{"internalType":"uint256","name":"stakeAmount","type":"uint256"}],"name":"createBattle","outputs":[{"internalType":"bytes32","name":"battleId","type":"bytes32"}],"stateMutability":"nonpayable","type":"function"},{"inputs":[],"name":"creatureContract","outputs":[{"internalType":"address","name":"","type":"address"}],"stateMutability":"view","type":"function"},{"inputs":[{"internalType":"uint256","name":"","type":"uint256"}],"name":"creatureInBattle","outputs":[{"internalType":"bytes32","name":"","type":"bytes32"}],"stateMutability":"view","type":"function"},{"inputs":[{"internalType":"bytes32","name":"battleId","type":"bytes32"}],"name":"emergencyRefund","outputs":[],"stateMutability":"nonpayable","type":"function"},{"inputs":[],"name":"executeBackendChange","outputs":[],"stateMutability":"nonpayable","type":"function"},{"inputs":[{"internalType":"bytes32","name":"battleId","type":"bytes32"}],"name":"getBattle","outputs":[{"components":[{"internalType":"address","name":"host","type":"address"},{"internalType":"address","name":"guest","type":"address"},{"internalType":"uint256","name":"hostCreatureId","type":"uint256"},{"internalType":"uint256","name":"guestCreatureId","type":"uint256"},{"internalType":"uint256","name":"stakeAmount","type":"uint256"},{"internalType":"uint256","name":"createdAt","type":"uint256"},{"internalType":"uint256","name":"matchedAt","type":"uint256"},{"internalType":"uint256","name":"resolvedAt","type":"uint256"},{"internalType":"enum BattleGateV2.BattleState","name":"state","type":"uint8"},{"internalType":"address","name":"winner","type":"address"}],"internalType":"struct BattleGateV2.Battle","name":"","type":"tuple"}],"stateMutability":"view","type":"function"},{"inputs":[{"internalType":"address","name":"wallet","type":"address"}],"name":"getPlayerBattle","outputs":[{"internalType":"bytes32","name":"","type":"bytes32"}],"stateMutability":"view","type":"function"},{"inputs":[{"internalType":"bytes32","name":"","type":"bytes32"}],"name":"guestLockedStake","outputs":[{"internalType":"uint256","name":"","type":"uint256"}],"stateMutability":"view","type":"function"},{"inputs":[{"internalType":"bytes32","name":"","type":"bytes32"}],"name":"hostLockedStake","outputs":[{"internalType":"uint256","name":"","type":"uint256"}],"stateMutability":"view","type":"function"},{"inputs":[{"internalType":"address","name":"wallet","type":"address"}],"name":"isInBattle","outputs":[{"internalType":"bool","name":"","type":"bool"}],"stateMutability":"view","type":"function"},{"inputs":[{"internalType":"bytes32","name":"battleId","type":"bytes32"},{"internalType":"uint256","name":"creatureId","type":"uint256"}],"name":"joinBattle","outputs":[],"stateMutability":"nonpayable","type":"function"},{"inputs":[],"name":"maxStake","outputs":[{"internalType":"uint256","name":"","type":"uint256"}],"stateMutability":"view","type":"function"},{"inputs":[],"name":"minStake","outputs":[{"internalType":"uint256","name":"","type":"uint256"}],"stateMutability":"view","type":"function"},{"inputs":[],"name":"owner","outputs":[{"internalType":"address","name":"","type":"address"}],"stateMutability":"view","type":"function"},{"inputs":[],"name":"pause","outputs":[],"stateMutability":"nonpayable","type":"function"},{"inputs":[],"name":"paused","outputs":[{"internalType":"bool","name":"","type":"bool"}],"stateMutability":"view","type":"function"},{"inputs":[],"name":"pendingBackend","outputs":[{"internalType":"address","name":"","type":"address"}],"stateMutability":"view","type":"function"},{"inputs":[],"name":"pendingBackendTime","outputs":[{"internalType":"uint256","name":"","type":"uint256"}],"stateMutability":"view","type":"function"},{"inputs":[{"internalType":"address","name":"_backend","type":"address"}],"name":"proposeBackend","outputs":[],"stateMutability":"nonpayable","type":"function"},{"inputs":[],"name":"renounceOwnership","outputs":[],"stateMutability":"nonpayable","type":"function"},{"inputs":[{"internalType":"bytes32","name":"battleId","type":"bytes32"},{"internalType":"address","name":"winner","type":"address"},{"internalType":"uint256","name":"timestamp","type":"uint256"},{"internalType":"bytes","name":"signature","type":"bytes"}],"name":"resolveBattle","outputs":[],"stateMutability":"nonpayable","type":"function"},{"inputs":[{"internalType":"address","name":"_airdropVault","type":"address"}],"name":"setAirdropVault","outputs":[],"stateMutability":"nonpayable","type":"function"},{"inputs":[{"internalType":"address","name":"_creature","type":"address"}],"name":"setCreatureContract","outputs":[],"stateMutability":"nonpayable","type":"function"},{"inputs":[{"internalType":"uint256","name":"_min","type":"uint256"},{"internalType":"uint256","name":"_max","type":"uint256"}],"name":"setStakeLimits","outputs":[],"stateMutability":"nonpayable","type":"function"},{"inputs":[{"internalType":"address","name":"_treasury","type":"address"}],"name":"setTreasury","outputs":[],"stateMutability":"nonpayable","type":"function"},{"inputs":[],"name":"stakeToken","outputs":[{"internalType":"contract IERC20","name":"","type":"address"}],"stateMutability":"view","type":"function"},{"inputs":[{"internalType":"address","name":"newOwner","type":"address"}],"name":"transferOwnership","outputs":[],"stateMutability":"nonpayable","type":"function"},{"inputs":[],"name":"treasury","outputs":[{"internalType":"address","name":"","type":"address"}],"stateMutability":"view","type":"function"},{"inputs":[],"name":"trustedBackend","outputs":[{"internalType":"address","name":"","type":"address"}],"stateMutability":"view","type":"function"},{"inputs":[],"name":"unpause","outputs":[],"stateMutability":"nonpayable","type":"function"},{"inputs":[{"internalType":"bytes32","name":"","type":"bytes32"}],"name":"usedSignatures","outputs":[{"internalType":"bool","name":"","type":"bool"}],"stateMutability":"view","type":"function"},{"inputs":[{"internalType":"address","name":"","type":"address"}],"name":"walletInBattle","outputs":[{"internalType":"bytes32","name":"","type":"bytes32"}],"stateMutability":"view","type":"function"}],"evm":{"bytecode":{"linkReferences":{},"object":"6080346200019857601f6200298538819003918201601f191683019291906001600160401b038411838510176200019c57816080928492604096875283398101031262000198576200005181620001b0565b6200005f60208301620001b0565b916200007b606062000073868401620001b0565b9201620001b0565b90331562000181575f549360018060a01b03908160018060a01b03199533878916175f55885197823391167f8be0079c531659141344cd1fd0a4f28419497f9722a3daafe3b4186f6b6457e05f80a360018055678ac7230489e80000600755683635c9adc5dea00000600855169586156200017257508116918215620001615781169283156200015057169384156200013f578360025416176002558260035416176003558160045416176004556005541617600555516127bf9081620001c68239f35b855163d967a6f360e01b8152600490fd5b8651634033e4e360e01b8152600490fd5b8651638baa579f60e01b8152600490fd5b630103be3b60e21b8152600490fd5b8451631e4fbdf760e01b81525f6004820152602490fd5b5f80fd5b634e487b7160e01b5f52604160045260245ffd5b51906001600160a01b0382168203620001985756fe6080806040526004361015610012575f80fd5b5f905f3560e01c908163041365461461240b57508063043c4f39146123ef5780631596c6cd146123c5578063190f771e14611fc957806324c0705814611fac57806332c9009914611f84578063375b3c0a14611f675780633f4ba83a14611ef857806343cc221314611d795780634623c81e14611d5c578063516f9cf314611ab657806351ed6a3014611a8e578063539aa77f14611a7257806357a4f25114611a385780635a25408514611a1d5780635c975abb146119f957806361d027b3146119d15780636cbc16ef146119a95780636f5d938a1461197f578063715018a61461193b578063719a5c991461191357806378547e6c146118715780637ffade1714611660578063803da9c314611394578063824ac88a146113765780638456cb5914611315578063846e537614610fc057806386ac85b4146111fc5780638c9bd1b51461115d5780638da5cb5b146111365780638db16d7d1461110c57806391507bdb146110a157806395afd65614610ff9578063b8912c1714610fc0578063d92e0af214610c5e578063df73c49f1461082c578063e1a452181461080f578063e49b606c146104c8578063e4beb87f1461049f578063ea1b28e014610481578063ee4b290714610450578063f0f44260146103a8578063f25947bc146102d9578063f2fde38b14610267578063f5f5dd41146102495763f978fd6114610218575f80fd5b346102465760203660031901126102465760ff60406020926004358152600d84522054166040519015158152f35b80fd5b5034610246578060031936011261024657602060405162093a808152f35b503461024657602036600319011261024657610281612424565b6102896125bd565b6001600160a01b039081169081156102c0575f548260018060a01b03198216175f55165f8051602061274a8339815191525f80a380f35b604051631e4fbdf760e01b815260048101849052602490fd5b5034610246576020366003190112610246576102f3612424565b6102fb6125bd565b6001600160a01b0316801561037157601080546001600160a01b031916821790554260118190556202a300810190811061035d5760207f25d14971bf5abb0c607decd31964bbff2ed5cc2f9e4e1168ede3784d4f7a36b391604051908152a280f35b634e487b7160e01b83526011600452602483fd5b60405162461bcd60e51b815260206004820152600f60248201526e125b9d985b1a5908189858dad95b99608a1b6044820152606490fd5b5034610246576020366003190112610246576103c2612424565b6103ca6125bd565b6001600160a01b0390811690811561041857600480546001600160a01b031981168417909155167f8c3aa5f43a388513435861bf27dfad7829cd248696fed367c62d441f629544968380a380f35b60405162461bcd60e51b815260206004820152601060248201526f496e76616c696420747265617375727960801b6044820152606490fd5b50346102465780600319360112610246576104696125bd565b601080546001600160a01b0319169055601181905580f35b50346102465780600319360112610246576020600854604051908152f35b50346102465780600319360112610246576003546040516001600160a01b039091168152602090f35b50346102465760208060031936011261080b576004356104e661259a565b808352600a825260408320916008830180549360ff851660068110156107f7576003036107e5576001600160a01b039033600887901c8316036107d3576004810154928360011b93808504600214901517156107bf576101f48085029085820414851517156107ab57906004610562612710869404809761245d565b9860ff19161780915560081c16908281541682145f146107a15760020154905b8752600b84528660408120558652600c8352856040812055806006541680610701575b508060025416604051848163a9059cbb60e01b93848252818b816105cd8d3360048401612545565b03925af19081156106f65788916106d9575b50156106c757821515806106ba575b610628575b5050507fac1dfcff29900d7010c04a6028e48814b8a49daf045127abd10a4636d1d49115906040519384523393a36001805580f35b9181610650938886946002541692600454169160405196879586948593845260048401612545565b03925af19081156106af578591610682575b5015610670575f80806105f3565b604051634033e4e360e01b8152600490fd5b6106a29150823d84116106a8575b61069a8183612499565b810190612560565b5f610662565b503d610690565b6040513d87823e3d90fd5b50816004541615156105ee565b60405163880a149160e01b8152600490fd5b6106f09150853d87116106a85761069a8183612499565b5f6105df565b6040513d8a823e3d90fd5b848752600e8452604087205490600f85526040882054820180921161078d5781889261072f575b50506105a5565b813b156107895782916024839260405194859384926317d3843560e31b845260048401525af1801561077e57610766575b80610728565b61076f90612486565b61077a57855f610760565b8580fd5b6040513d84823e3d90fd5b8280fd5b634e487b7160e01b5f52601160045260245ffd5b6003015490610582565b634e487b7160e01b89526011600452602489fd5b634e487b7160e01b88526011600452602488fd5b60405163542cf5bf60e11b8152600490fd5b60405163691f654760e01b8152600490fd5b634e487b7160e01b87526021600452602487fd5b5080fd5b503461024657806003193601126102465760206040516127108152f35b50346102465761083b36612447565b906108446125e8565b61084c61259a565b60075482108015610c53575b610c4157338352600b6020526040832054610c2f57808352600c6020526040832054610c1d576005546040516331a9108f60e11b81526004810183905290602090829060249082906001600160a01b03165afa908115610c12578491610be3575b50336001600160a01b0390911603610bd1576009545f198114610bbd5760010191826009556040519260208401903360601b8252426034860152605485015260548452608084019084821060018060401b03831117610ba957816040528451902093859160018060a01b036006541680610b32575b5050508461093c828461245d565b80610aa4575b50506040516109508161246a565b33815284610100600860208401898152848a604082018a81526060830182815260808401908b825260a0850192428452604060c087019580875260018b60e08a0199838b5201526101208d019b818d528152600a602052209660018060a01b038c511660018060a01b031990818a5416178955600189019160018060a01b0390511690825416179055516002870155516003860155516004850155516005840155516006830155516007820155019201516006811015610a905792610a3360409360209993899660ff8019845416911617825560018060a01b0390511690612501565b838252600e885282822055338152600b87528282822055848152600c8752205560405191825283820152817f09797ded04afd2c3ee4acc48528d0e1302ed90d1be904d21e0a9c6724a02514460403393a360018055604051908152f35b634e487b7160e01b88526021600452602488fd5b6002546040516323b872dd60e01b81529260209284926001600160a01b03169183918290610ad790303360048501612578565b03925af1908115610b27578691610b08575b5015610af657845f610942565b604051631231ec2f60e21b8152600490fd5b610b21915060203d6020116106a85761069a8183612499565b5f610ae9565b6040513d88823e3d90fd5b6324bf68e160e21b82529192509060209082908189607f1987610b598a3360848401612545565b0301925af1918215610b27578692610b76575b50505f808061092e565b6020809293503d8311610ba2575b610b8e8185612499565b81010312610b9e57515f80610b6c565b5f80fd5b503d610b84565b634e487b7160e01b5f52604160045260245ffd5b634e487b7160e01b84526011600452602484fd5b60405163d967a6f360e01b8152600490fd5b610c05915060203d602011610c0b575b610bfd8183612499565b810190612526565b5f6108b9565b503d610bf3565b6040513d86823e3d90fd5b60405163f41ff0c960e01b8152600490fd5b604051631844f0a560e11b8152600490fd5b604051630103be3b60e21b8152600490fd5b506008548211610858565b50346102465760208060031936011261080b5760043590610c7d6125bd565b610c8561259a565b818352600a8152604083206008810180549160ff831660068110156107f75760018114159081610fb4575b50610fa3578560018060a01b0391828154169086846001830154169560028301549360046003850154940154948b8752600e8452604087205490610cf4828861245d565b938d8952600f86526005610d0d60408b2054809a61245d565b9c60ff1916179055828852600b85528760408120558752600c84528660408120558815159485610f84575b5080151580610f77575b610f09575b5081610e96575b505050610d9f575b50855f8051602061272a8339815191526060876019604051918083528201527822b6b2b933b2b731bc903932b33ab73210313c9030b236b4b760391b6040820152a26001805580f35b80151580610e89575b610e34575b505082610dbc575b8581610d56565b918391610de59360025416908760405180968195829463a9059cbb60e01b845260048401612545565b03925af1908115610c12578491610e17575b5015610e05575f8080610db5565b604051633c31275160e21b8152600490fd5b610e2e9150823d84116106a85761069a8183612499565b5f610df7565b8260065416803b156107895760405163bd09001b60e01b81529183918391829084908290610e66908b60048401612545565b03925af1801561077e5715610dad57610e7e90612486565b61077a57855f610dad565b5082600654161515610da8565b610ebf9395508660025416908c60405180968195829463a9059cbb60e01b845260048401612545565b03925af1908115610efe578991610ee1575b5015610e05578791865f80610d4e565b610ef89150873d89116106a85761069a8183612499565b5f610ed1565b6040513d8b823e3d90fd5b92508660065416803b15610f735760405163bd09001b60e01b81529387918591829084908290610f3d908860048401612545565b03925af18015610b27578a938791610f56575b50610d47565b610f6291929450612486565b610f6f578891855f610f50565b8480fd5b8680fd5b5087600654161515610d42565b898852600b85528760408120558752600c84528660408120555f610d38565b6040516202d94960ed1b8152600490fd5b6002915014155f610cb0565b5034610246576020366003190112610246576020906040906001600160a01b03610fe8612424565b168152600b83522054604051908152f35b503461024657602036600319011261024657611013612424565b61101b6125bd565b6001600160a01b0390811690811561106957600580546001600160a01b031981168417909155167f90b19857ca5857522922f4d0bc3da0f54168bcf797640f23d6b82e61a56a1f088380a380f35b60405162461bcd60e51b815260206004820152601060248201526f496e76616c696420637265617475726560801b6044820152606490fd5b5034610246576020366003190112610246576110bb612424565b6110c36125bd565b600680546001600160a01b039283166001600160a01b0319821681179092559091167f81aa94d4892023eb47e9b92f72a673e7ad967f9b141925f604e650b76a8700a58380a380f35b50346102465760203660031901126102465760406020916004358152600e83522054604051908152f35b5034610246578060031936011261024657546040516001600160a01b039091168152602090f35b50346102465761116c36612447565b6111746125bd565b811515806111f3575b156111bd57816040917f2f6f9641c9c28674435527345c5b76ef1d9b57240e94d33d3f222ae58d6caff7936007558060085582519182526020820152a180f35b60405162461bcd60e51b815260206004820152600e60248201526d496e76616c6964206c696d69747360901b6044820152606490fd5b5080821061117d565b50346102465780600319360112610246576112156125bd565b6010546001600160a01b0380821680156112db576011546202a30081018091116112c757421061128b57600380546001600160a01b03198082168417909255931660105560118490558383161791167fea8ca364cc9c0e44ae5ceab245cececcc710724873a9ecfc89a0559983e447398380a380f35b60405162461bcd60e51b8152602060048201526014602482015273151a5b595b1bd8dac81b9bdd08195e1c1a5c995960621b6044820152606490fd5b634e487b7160e01b85526011600452602485fd5b60405162461bcd60e51b8152602060048201526012602482015271139bc81c195b991a5b99c8189858dad95b9960721b6044820152606490fd5b503461024657806003193601126102465761132e6125bd565b6113366125e8565b805460ff60a01b1916600160a01b1781556040513381527f62e78cea01bee320cd4e420270b5ea74000d11b0c9f74754ebdbfc544b05a25890602090a180f35b50346102465780600319360112610246576020601154604051908152f35b50346102465760208060031936011261080b57600435906113b361259a565b818352600a81526040832060088101805460ff811660068110156107f75760010361164e5782546001600160a01b03929083169133830361163c576005850154601e81018091116107ab57421061162a5760059060ff19161790558552600b835284604081205560028201548552600c8352846040812055838552600e83526040852054918561144784600484015461245d565b938015158061161d575b6115c1575b50508215801561148f575b8633877fcb9efe3dee7d10a1ce7248d3bb4e58134ae02576d3439448ed856cc3373e17a38380a36001805580f35b606484029084820460641417156115ad576114b0612710869204809561245d565b80611546575b50505081151580611539575b6114ce575b8080611461565b6114fb918184926002541690600454168760405180968195829463a9059cbb60e01b845260048401612545565b03925af1918215610c1257849261151c575b505015610670575f80806114c7565b6115329250803d106106a85761069a8183612499565b5f8061150d565b50806004541615156114c2565b611570928480600254169154168960405180968195829463a9059cbb60e01b845260048401612545565b03925af1908115610b27578691611590575b5015610e05575f83816114b6565b6115a79150843d86116106a85761069a8183612499565b5f611582565b634e487b7160e01b87526011600452602487fd5b8360065416908484541690823b15611619576115f69284928360405180968195829463bd09001b60e01b845260048401612545565b03925af1801561077e57156114565761160e90612486565b61077a57855f611456565b8380fd5b5083600654161515611451565b604051630484233560e21b8152600490fd5b604051638ff4f0c960e01b8152600490fd5b604051631f7806af60e31b8152600490fd5b5034610b9e57602080600319360112610b9e576004359061167f61259a565b815f52600a815260405f206008810190815460ff8116600681101561185d57600103610fa35781546001600160a01b03939084169133830361163c576005840154610258810180911161078d5742111561184b5760059060ff19161790555f52600b83525f604081205560028101545f52600c83525f6040812055835f52600e835260405f20549161171583600484015461245d565b928015158061183e575b6117dc575b5082611773575b50505060605f8051602061272a8339815191529160176040519180835282015276121bdcdd081d1a5b595bdd5d080b481b9bc819dd595cdd604a1b6040820152a26001805580f35b9183918361179f94600254169154168760405180968195829463a9059cbb60e01b845260048401612545565b03925af1908115610c125784916117bf575b5015610e05575f808061172b565b6117d69150823d84116106a85761069a8183612499565b5f6117b1565b8160065416908284541690823b15610b9e57611811925f928360405180968195829463bd09001b60e01b845260048401612545565b03925af1801561183357156117245761182b919650612486565b5f945f611724565b6040513d5f823e3d90fd5b508160065416151561171f565b6040516326c015ab60e21b8152600490fd5b634e487b7160e01b5f52602160045260245ffd5b34610b9e576020366003190112610b9e576004355f52600a60205261014060405f2060018060a01b03808254169181600182015416906002810154600382015460048301546005840154916006850154936008600787015496015496604051998a5260208a015260408901526060880152608087015260a086015260c085015260e0840152611907610100840160ff831661243a565b60081c16610120820152f35b34610b9e575f366003190112610b9e576010546040516001600160a01b039091168152602090f35b34610b9e575f366003190112610b9e576119536125bd565b5f80546001600160a01b0319811682556001600160a01b03165f8051602061274a8339815191528280a3005b34610b9e576020366003190112610b9e576004355f52600c602052602060405f2054604051908152f35b34610b9e575f366003190112610b9e576005546040516001600160a01b039091168152602090f35b34610b9e575f366003190112610b9e576004546040516001600160a01b039091168152602090f35b34610b9e575f366003190112610b9e57602060ff5f5460a01c166040519015158152f35b34610b9e575f366003190112610b9e576020604051601e8152f35b34610b9e576020366003190112610b9e576001600160a01b03611a59612424565b165f52600b602052602060405f20541515604051908152f35b34610b9e575f366003190112610b9e5760206040516101f48152f35b34610b9e575f366003190112610b9e576002546040516001600160a01b039091168152602090f35b34610b9e576040366003190112610b9e57602435600435611ad56125e8565b611add61259a565b805f526020600a815260405f20906008820160ff815416600681101561185d57600103611d4a5782546001600160a01b03919082163314611d3857335f52600b835260405f2054610c2f57855f52600c835260405f2054610c1d576005840154610258810180911161078d57421015611d26576024838360055416604051928380926331a9108f60e11b82528b60048301525afa908115611833575f91611d09575b508233911603610bd1575f9183816006541680611c97575b5050611ba783600487015461245d565b9081611c31575b50508360017f4480fdf0275ff0748200ab3cdcc450685e845d860fdc94461fea4e0dc036217795013360018060a01b0319825416179055866003820155600642910155600260ff19825416179055835f52600f825260405f2055335f52600b81528260405f2055835f52600c81528260405f20556040519384523393a360018055005b611c5b5f92869260025416906040519485809481936323b872dd60e01b8352303360048501612578565b03925af1908115611833575f91611c7a575b5015610af6578680611bae565b611c919150843d86116106a85761069a8183612499565b87611c6d565b5f929450611cc19060048801546040519485809481936324bf68e160e21b83523360048401612545565b03925af1908115611833575f91611cdc575b50918388611b97565b90508381813d8311611d02575b611cf38183612499565b81010312610b9e575187611cd3565b503d611ce9565b611d209150843d8611610c0b57610bfd8183612499565b87611b7f565b604051637382e32160e01b8152600490fd5b60405163050c8fd560e01b8152600490fd5b604051637100718960e01b8152600490fd5b34610b9e575f366003190112610b9e5760206040516202a3008152f35b34610b9e576020366003190112610b9e575f610120604051611d9a8161246a565b8281528260208201528260408201528260608201528260808201528260a08201528260c08201528260e08201528261010082015201526004355f52600a60205260405f20600860405191611ded8361246a565b80546001600160a01b0390811684526001820154166020840152600281015460408401526003810154606084015260048101546080840152600581015460a084015260068082015460c0850152600782015460e085015291015460ff8116929183101561185d576101409261010083015260018060a01b039060081c166101208201526040519060018060a01b03815116825260018060a01b03602082015116602083015260408101516040830152606081015160608301526080810151608083015260a081015160a083015260c081015160c083015260e081015160e0830152611ee261010082015161010084019061243a565b610120908101516001600160a01b031690820152f35b34610b9e575f366003190112610b9e57611f106125bd565b5f5460ff8160a01c1615611f555760ff60a01b19165f556040513381527f5db9ee0a495bf2e6ff9c91a7834c1ba4fdd244a5e8aa4e537bd38aeae4b073aa90602090a1005b604051638dfc202b60e01b8152600490fd5b34610b9e575f366003190112610b9e576020600754604051908152f35b34610b9e575f366003190112610b9e576006546040516001600160a01b039091168152602090f35b34610b9e575f366003190112610b9e576020600954604051908152f35b34610b9e576080366003190112610b9e5760246001600160a01b0381358181169160043591838103610b9e576001600160401b039160443590606435848111610b9e5736602382011215610b9e57806004013593858511610b9e578882019189863692010111610b9e5761203b61259a565b865f52602094600a865260405f2094600886019760ff89541660068110156123b2576002036123a057858754168b141580612390575b61237e5761012b19420142811161236b57821115612359576120943684876124bc565b8881519101205f52600d885260ff60405f2054166123475760405190888201928b845260018060601b03198660601b16604084015260548301524660748301526074825260a082019082821090821117612334576040525190207b0ca2ba3432b932bab69029b4b3b732b21026b2b9b9b0b3b29d05199960211b5f52601c5261213761212e603c5f206121283685886124bc565b90612608565b90929192612642565b848060035416911603612322576003926121529136916124bc565b8581519101205f52600d855261217960405f209160ff199260018482541617905587612501565b855416178455426007830155815481168681149790881561231c575081600184015416975b15612311576002830154945b826005541695863b15610b9e576040515f81604481836328a3750760e11b9c8d835287600484015260648a8401525af19081612302575b506122fc575f8051602061276a8339815191528660405160648152a25b835498831698831689036122f25760028401545b8360055416803b15610b9e575f85946044600c9a83601e95604051968795869485528960048601528401525af190816122e3575b506122dd575f8051602061276a83398151915286604051601e8152a25b5460081c16918181541680931492835f146122d7575081600182015416925b156122cd5760030154915b165f52600b82525f60408120555f52525f60408120557f3b3b5126e644ea297563595413600ab9dcd3d089cbfb03e7faedecda6ccf3c765f80a460018055005b600201549161228d565b92612282565b50612263565b6122ec90612486565b8b612246565b6003840154612212565b506121fe565b61230b90612486565b8b6121e1565b6003830154946121aa565b9761219e565b604051638baa579f60e01b8152600490fd5b8c634e487b7160e01b5f5260416004525ffd5b60405163900bb2c960e01b8152600490fd5b604051630819bdcd60e01b8152600490fd5b8c634e487b7160e01b5f5260116004525ffd5b6040516393a5f3c760e01b8152600490fd5b50856001880154168b1415612071565b60405163b78ea15760e01b8152600490fd5b8c634e487b7160e01b5f5260216004525ffd5b34610b9e576020366003190112610b9e576004355f52600f602052602060405f2054604051908152f35b34610b9e575f366003190112610b9e5760206040516102588152f35b34610b9e575f366003190112610b9e5780606460209252f35b600435906001600160a01b0382168203610b9e57565b90600682101561185d5752565b6040906003190112610b9e576004359060243590565b9190820391821161078d57565b61014081019081106001600160401b03821117610ba957604052565b6001600160401b038111610ba957604052565b601f909101601f19168101906001600160401b03821190821017610ba957604052565b9192916001600160401b038211610ba957604051916124e5601f8201601f191660200184612499565b829481845281830111610b9e578281602093845f960137010152565b8054610100600160a81b03191660089290921b610100600160a81b0316919091179055565b90816020910312610b9e57516001600160a01b0381168103610b9e5790565b6001600160a01b039091168152602081019190915260400190565b90816020910312610b9e57518015158103610b9e5790565b6001600160a01b03918216815291166020820152604081019190915260600190565b6002600154146125ab576002600155565b604051633ee5aeb560e01b8152600490fd5b5f546001600160a01b031633036125d057565b60405163118cdaa760e01b8152336004820152602490fd5b60ff5f5460a01c166125f657565b60405163d93c066560e01b8152600490fd5b8151919060418303612638576126319250602082015190606060408401519301515f1a906126b1565b9192909190565b50505f9160029190565b600481101561185d5780612654575050565b6001810361266e5760405163f645eedf60e01b8152600490fd5b6002810361268f5760405163fce698f760e01b815260048101839052602490fd5b6003146126995750565b602490604051906335e2f38360e21b82526004820152fd5b91906fa2a8918ca85bafe22016d0b997e4df60600160ff1b03841161271e579160209360809260ff5f9560405194855216868401526040830152606082015282805260015afa15611833575f516001600160a01b0381161561271457905f905f90565b505f906001905f90565b5050505f916003919056fe949807b46c014a57084ed9f902241d002578f83ae660011d39ecb18242e78d098be0079c531659141344cd1fd0a4f28419497f9722a3daafe3b4186f6b6457e017fe5efa39289e1d4e3beb20a5412e13015b7170122c1d7bb4cfbe171af7f30ca2646970667358221220c31d5e24e1f9731a3250eecfa7fbe110aedb814606d2df88b9cbd3f14af6117164736f6c63430008180033","opcodes":"PUSH1 0x80 CALLVALUE PUSH3 0x198 JUMPI PUSH1 0x1F PUSH3 0x2985 CODESIZE DUP2 SWAP1 SUB SWAP2 DUP3 ADD PUSH1 0x1F NOT AND DUP4 ADD SWAP3 SWAP2 SWAP1 PUSH1 0x1 PUSH1 0x1 PUSH1 0x40 SHL SUB DUP5 GT DUP4 DUP6 LT OR PUSH3 0x19C JUMPI DUP2 PUSH1 0x80 SWAP3 DUP5 SWAP3 PUSH1 0x40 SWAP7 DUP8 MSTORE DUP4 CODECOPY DUP2 ADD SUB SLT PUSH3 0x198 JUMPI PUSH3 0x51 DUP2 PUSH3 0x1B0 JUMP JUMPDEST PUSH3 0x5F PUSH1 0x20 DUP4 ADD PUSH3 0x1B0 JUMP JUMPDEST SWAP2 PUSH3 0x7B PUSH1 0x60 PUSH3 0x73 DUP7 DUP5 ADD PUSH3 0x1B0 JUMP JUMPDEST SWAP3 ADD PUSH3 0x1B0 JUMP JUMPDEST SWAP1 CALLER ISZERO PUSH3 0x181 JUMPI PUSH0 SLOAD SWAP4 PUSH1 0x1 DUP1 PUSH1 0xA0 SHL SUB SWAP1 DUP2 PUSH1 0x1 DUP1 PUSH1 0xA0 SHL SUB NOT SWAP6 CALLER DUP8 DUP10 AND OR PUSH0 SSTORE DUP9 MLOAD SWAP8 DUP3 CALLER SWAP2 AND PUSH32 0x8BE0079C531659141344CD1FD0A4F28419497F9722A3DAAFE3B4186F6B6457E0 PUSH0 DUP1 LOG3 PUSH1 0x1 DUP1 SSTORE PUSH8 0x8AC7230489E80000 PUSH1 0x7 SSTORE PUSH9 0x3635C9ADC5DEA00000 PUSH1 0x8 SSTORE AND SWAP6 DUP7 ISZERO PUSH3 0x172 JUMPI POP DUP2 AND SWAP2 DUP3 ISZERO PUSH3 0x161 JUMPI DUP2 AND SWAP3 DUP4 ISZERO PUSH3 0x150 JUMPI AND SWAP4 DUP5 ISZERO PUSH3 0x13F JUMPI DUP4 PUSH1 0x2 SLOAD AND OR PUSH1 0x2 SSTORE DUP3 PUSH1 0x3 SLOAD AND OR PUSH1 0x3 SSTORE DUP2 PUSH1 0x4 SLOAD AND OR PUSH1 0x4 SSTORE PUSH1 0x5 SLOAD AND OR PUSH1 0x5 SSTORE MLOAD PUSH2 0x27BF SWAP1 DUP2 PUSH3 0x1C6 DUP3 CODECOPY RETURN JUMPDEST DUP6 MLOAD PUSH4 0xD967A6F3 PUSH1 0xE0 SHL DUP2 MSTORE PUSH1 0x4 SWAP1 REVERT JUMPDEST DUP7 MLOAD PUSH4 0x4033E4E3 PUSH1 0xE0 SHL DUP2 MSTORE PUSH1 0x4 SWAP1 REVERT JUMPDEST DUP7 MLOAD PUSH4 0x8BAA579F PUSH1 0xE0 SHL DUP2 MSTORE PUSH1 0x4 SWAP1 REVERT JUMPDEST PUSH4 0x103BE3B PUSH1 0xE2 SHL DUP2 MSTORE PUSH1 0x4 SWAP1 REVERT JUMPDEST DUP5 MLOAD PUSH4 0x1E4FBDF7 PUSH1 0xE0 SHL DUP2 MSTORE PUSH0 PUSH1 0x4 DUP3 ADD MSTORE PUSH1 0x24 SWAP1 REVERT JUMPDEST PUSH0 DUP1 REVERT JUMPDEST PUSH4 0x4E487B71 PUSH1 0xE0 SHL PUSH0 MSTORE PUSH1 0x41 PUSH1 0x4 MSTORE PUSH1 0x24 PUSH0 REVERT JUMPDEST MLOAD SWAP1 PUSH1 0x1 PUSH1 0x1 PUSH1 0xA0 SHL SUB DUP3 AND DUP3 SUB PUSH3 0x198 JUMPI JUMP INVALID PUSH1 0x80 DUP1 PUSH1 0x40 MSTORE PUSH1 0x4 CALLDATASIZE LT ISZERO PUSH2 0x12 JUMPI PUSH0 DUP1 REVERT JUMPDEST PUSH0 SWAP1 PUSH0 CALLDATALOAD PUSH1 0xE0 SHR SWAP1 DUP2 PUSH4 0x4136546 EQ PUSH2 0x240B JUMPI POP DUP1 PUSH4 0x43C4F39 EQ PUSH2 0x23EF JUMPI DUP1 PUSH4 0x1596C6CD EQ PUSH2 0x23C5 JUMPI DUP1 PUSH4 0x190F771E EQ PUSH2 0x1FC9 JUMPI DUP1 PUSH4 0x24C07058 EQ PUSH2 0x1FAC JUMPI DUP1 PUSH4 0x32C90099 EQ PUSH2 0x1F84 JUMPI DUP1 PUSH4 0x375B3C0A EQ PUSH2 0x1F67 JUMPI DUP1 PUSH4 0x3F4BA83A EQ PUSH2 0x1EF8 JUMPI DUP1 PUSH4 0x43CC2213 EQ PUSH2 0x1D79 JUMPI DUP1 PUSH4 0x4623C81E EQ PUSH2 0x1D5C JUMPI DUP1 PUSH4 0x516F9CF3 EQ PUSH2 0x1AB6 JUMPI DUP1 PUSH4 0x51ED6A30 EQ PUSH2 0x1A8E JUMPI DUP1 PUSH4 0x539AA77F EQ PUSH2 0x1A72 JUMPI DUP1 PUSH4 0x57A4F251 EQ PUSH2 0x1A38 JUMPI DUP1 PUSH4 0x5A254085 EQ PUSH2 0x1A1D JUMPI DUP1 PUSH4 0x5C975ABB EQ PUSH2 0x19F9 JUMPI DUP1 PUSH4 0x61D027B3 EQ PUSH2 0x19D1 JUMPI DUP1 PUSH4 0x6CBC16EF EQ PUSH2 0x19A9 JUMPI DUP1 PUSH4 0x6F5D938A EQ PUSH2 0x197F JUMPI DUP1 PUSH4 0x715018A6 EQ PUSH2 0x193B JUMPI DUP1 PUSH4 0x719A5C99 EQ PUSH2 0x1913 JUMPI DUP1 PUSH4 0x78547E6C EQ PUSH2 0x1871 JUMPI DUP1 PUSH4 0x7FFADE17 EQ PUSH2 0x1660 JUMPI DUP1 PUSH4 0x803DA9C3 EQ PUSH2 0x1394 JUMPI DUP1 PUSH4 0x824AC88A EQ PUSH2 0x1376 JUMPI DUP1 PUSH4 0x8456CB59 EQ PUSH2 0x1315 JUMPI DUP1 PUSH4 0x846E5376 EQ PUSH2 0xFC0 JUMPI DUP1 PUSH4 0x86AC85B4 EQ PUSH2 0x11FC JUMPI DUP1 PUSH4 0x8C9BD1B5 EQ PUSH2 0x115D JUMPI DUP1 PUSH4 0x8DA5CB5B EQ PUSH2 0x1136 JUMPI DUP1 PUSH4 0x8DB16D7D EQ PUSH2 0x110C JUMPI DUP1 PUSH4 0x91507BDB EQ PUSH2 0x10A1 JUMPI DUP1 PUSH4 0x95AFD656 EQ PUSH2 0xFF9 JUMPI DUP1 PUSH4 0xB8912C17 EQ PUSH2 0xFC0 JUMPI DUP1 PUSH4 0xD92E0AF2 EQ PUSH2 0xC5E JUMPI DUP1 PUSH4 0xDF73C49F EQ PUSH2 0x82C JUMPI DUP1 PUSH4 0xE1A45218 EQ PUSH2 0x80F JUMPI DUP1 PUSH4 0xE49B606C EQ PUSH2 0x4C8 JUMPI DUP1 PUSH4 0xE4BEB87F EQ PUSH2 0x49F JUMPI DUP1 PUSH4 0xEA1B28E0 EQ PUSH2 0x481 JUMPI DUP1 PUSH4 0xEE4B2907 EQ PUSH2 0x450 JUMPI DUP1 PUSH4 0xF0F44260 EQ PUSH2 0x3A8 JUMPI DUP1 PUSH4 0xF25947BC EQ PUSH2 0x2D9 JUMPI DUP1 PUSH4 0xF2FDE38B EQ PUSH2 0x267 JUMPI DUP1 PUSH4 0xF5F5DD41 EQ PUSH2 0x249 JUMPI PUSH4 0xF978FD61 EQ PUSH2 0x218 JUMPI PUSH0 DUP1 REVERT JUMPDEST CALLVALUE PUSH2 0x246 JUMPI PUSH1 0x20 CALLDATASIZE PUSH1 0x3 NOT ADD SLT PUSH2 0x246 JUMPI PUSH1 0xFF PUSH1 0x40 PUSH1 0x20 SWAP3 PUSH1 0x4 CALLDATALOAD DUP2 MSTORE PUSH1 0xD DUP5 MSTORE KECCAK256 SLOAD AND PUSH1 0x40 MLOAD SWAP1 ISZERO ISZERO DUP2 MSTORE RETURN JUMPDEST DUP1 REVERT JUMPDEST POP CALLVALUE PUSH2 0x246 JUMPI DUP1 PUSH1 0x3 NOT CALLDATASIZE ADD SLT PUSH2 0x246 JUMPI PUSH1 0x20 PUSH1 0x40 MLOAD PUSH3 0x93A80 DUP2 MSTORE RETURN JUMPDEST POP CALLVALUE PUSH2 0x246 JUMPI PUSH1 0x20 CALLDATASIZE PUSH1 0x3 NOT ADD SLT PUSH2 0x246 JUMPI PUSH2 0x281 PUSH2 0x2424 JUMP JUMPDEST PUSH2 0x289 PUSH2 0x25BD JUMP JUMPDEST PUSH1 0x1 PUSH1 0x1 PUSH1 0xA0 SHL SUB SWAP1 DUP2 AND SWAP1 DUP2 ISZERO PUSH2 0x2C0 JUMPI PUSH0 SLOAD DUP3 PUSH1 0x1 DUP1 PUSH1 0xA0 SHL SUB NOT DUP3 AND OR PUSH0 SSTORE AND PUSH0 DUP1 MLOAD PUSH1 0x20 PUSH2 0x274A DUP4 CODECOPY DUP2 MLOAD SWAP2 MSTORE PUSH0 DUP1 LOG3 DUP1 RETURN JUMPDEST PUSH1 0x40 MLOAD PUSH4 0x1E4FBDF7 PUSH1 0xE0 SHL DUP2 MSTORE PUSH1 0x4 DUP2 ADD DUP5 SWAP1 MSTORE PUSH1 0x24 SWAP1 REVERT JUMPDEST POP CALLVALUE PUSH2 0x246 JUMPI PUSH1 0x20 CALLDATASIZE PUSH1 0x3 NOT ADD SLT PUSH2 0x246 JUMPI PUSH2 0x2F3 PUSH2 0x2424 JUMP JUMPDEST PUSH2 0x2FB PUSH2 0x25BD JUMP JUMPDEST PUSH1 0x1 PUSH1 0x1 PUSH1 0xA0 SHL SUB AND DUP1 ISZERO PUSH2 0x371 JUMPI PUSH1 0x10 DUP1 SLOAD PUSH1 0x1 PUSH1 0x1 PUSH1 0xA0 SHL SUB NOT AND DUP3 OR SWAP1 SSTORE TIMESTAMP PUSH1 0x11 DUP2 SWAP1 SSTORE PUSH3 0x2A300 DUP2 ADD SWAP1 DUP2 LT PUSH2 0x35D JUMPI PUSH1 0x20 PUSH32 0x25D14971BF5ABB0C607DECD31964BBFF2ED5CC2F9E4E1168EDE3784D4F7A36B3 SWAP2 PUSH1 0x40 MLOAD SWAP1 DUP2 MSTORE LOG2 DUP1 RETURN JUMPDEST PUSH4 0x4E487B71 PUSH1 0xE0 SHL DUP4 MSTORE PUSH1 0x11 PUSH1 0x4 MSTORE PUSH1 0x24 DUP4 REVERT JUMPDEST PUSH1 0x40 MLOAD PUSH3 0x461BCD PUSH1 0xE5 SHL DUP2 MSTORE PUSH1 0x20 PUSH1 0x4 DUP3 ADD MSTORE PUSH1 0xF PUSH1 0x24 DUP3 ADD MSTORE PUSH15 0x125B9D985B1A5908189858DAD95B99 PUSH1 0x8A SHL PUSH1 0x44 DUP3 ADD MSTORE PUSH1 0x64 SWAP1 REVERT JUMPDEST POP CALLVALUE PUSH2 0x246 JUMPI PUSH1 0x20 CALLDATASIZE PUSH1 0x3 NOT ADD SLT PUSH2 0x246 JUMPI PUSH2 0x3C2 PUSH2 0x2424 JUMP JUMPDEST PUSH2 0x3CA PUSH2 0x25BD JUMP JUMPDEST PUSH1 0x1 PUSH1 0x1 PUSH1 0xA0 SHL SUB SWAP1 DUP2 AND SWAP1 DUP2 ISZERO PUSH2 0x418 JUMPI PUSH1 0x4 DUP1 SLOAD PUSH1 0x1 PUSH1 0x1 PUSH1 0xA0 SHL SUB NOT DUP2 AND DUP5 OR SWAP1 SWAP2 SSTORE AND PUSH32 0x8C3AA5F43A388513435861BF27DFAD7829CD248696FED367C62D441F62954496 DUP4 DUP1 LOG3 DUP1 RETURN JUMPDEST PUSH1 0x40 MLOAD PUSH3 0x461BCD PUSH1 0xE5 SHL DUP2 MSTORE PUSH1 0x20 PUSH1 0x4 DUP3 ADD MSTORE PUSH1 0x10 PUSH1 0x24 DUP3 ADD MSTORE PUSH16 0x496E76616C6964207472656173757279 PUSH1 0x80 SHL PUSH1 0x44 DUP3 ADD MSTORE PUSH1 0x64 SWAP1 REVERT JUMPDEST POP CALLVALUE PUSH2 0x246 JUMPI DUP1 PUSH1 0x3 NOT CALLDATASIZE ADD SLT PUSH2 0x246 JUMPI PUSH2 0x469 PUSH2 0x25BD JUMP JUMPDEST PUSH1 0x10 DUP1 SLOAD PUSH1 0x1 PUSH1 0x1 PUSH1 0xA0 SHL SUB NOT AND SWAP1 SSTORE PUSH1 0x11 DUP2 SWAP1 SSTORE DUP1 RETURN JUMPDEST POP CALLVALUE PUSH2 0x246 JUMPI DUP1 PUSH1 0x3 NOT CALLDATASIZE ADD SLT PUSH2 0x246 JUMPI PUSH1 0x20 PUSH1 0x8 SLOAD PUSH1 0x40 MLOAD SWAP1 DUP2 MSTORE RETURN JUMPDEST POP CALLVALUE PUSH2 0x246 JUMPI DUP1 PUSH1 0x3 NOT CALLDATASIZE ADD SLT PUSH2 0x246 JUMPI PUSH1 0x3 SLOAD PUSH1 0x40 MLOAD PUSH1 0x1 PUSH1 0x1 PUSH1 0xA0 SHL SUB SWAP1 SWAP2 AND DUP2 MSTORE PUSH1 0x20 SWAP1 RETURN JUMPDEST POP CALLVALUE PUSH2 0x246 JUMPI PUSH1 0x20 DUP1 PUSH1 0x3 NOT CALLDATASIZE ADD SLT PUSH2 0x80B JUMPI PUSH1 0x4 CALLDATALOAD PUSH2 0x4E6 PUSH2 0x259A JUMP JUMPDEST DUP1 DUP4 MSTORE PUSH1 0xA DUP3 MSTORE PUSH1 0x40 DUP4 KECCAK256 SWAP2 PUSH1 0x8 DUP4 ADD DUP1 SLOAD SWAP4 PUSH1 0xFF DUP6 AND PUSH1 0x6 DUP2 LT ISZERO PUSH2 0x7F7 JUMPI PUSH1 0x3 SUB PUSH2 0x7E5 JUMPI PUSH1 0x1 PUSH1 0x1 PUSH1 0xA0 SHL SUB SWAP1 CALLER PUSH1 0x8 DUP8 SWAP1 SHR DUP4 AND SUB PUSH2 0x7D3 JUMPI PUSH1 0x4 DUP2 ADD SLOAD SWAP3 DUP4 PUSH1 0x1 SHL SWAP4 DUP1 DUP6 DIV PUSH1 0x2 EQ SWAP1 ISZERO OR ISZERO PUSH2 0x7BF JUMPI PUSH2 0x1F4 DUP1 DUP6 MUL SWAP1 DUP6 DUP3 DIV EQ DUP6 ISZERO OR ISZERO PUSH2 0x7AB JUMPI SWAP1 PUSH1 0x4 PUSH2 0x562 PUSH2 0x2710 DUP7 SWAP5 DIV DUP1 SWAP8 PUSH2 0x245D JUMP JUMPDEST SWAP9 PUSH1 0xFF NOT AND OR DUP1 SWAP2 SSTORE PUSH1 0x8 SHR AND SWAP1 DUP3 DUP2 SLOAD AND DUP3 EQ PUSH0 EQ PUSH2 0x7A1 JUMPI PUSH1 0x2 ADD SLOAD SWAP1 JUMPDEST DUP8 MSTORE PUSH1 0xB DUP5 MSTORE DUP7 PUSH1 0x40 DUP2 KECCAK256 SSTORE DUP7 MSTORE PUSH1 0xC DUP4 MSTORE DUP6 PUSH1 0x40 DUP2 KECCAK256 SSTORE DUP1 PUSH1 0x6 SLOAD AND DUP1 PUSH2 0x701 JUMPI JUMPDEST POP DUP1 PUSH1 0x2 SLOAD AND PUSH1 0x40 MLOAD DUP5 DUP2 PUSH4 0xA9059CBB PUSH1 0xE0 SHL SWAP4 DUP5 DUP3 MSTORE DUP2 DUP12 DUP2 PUSH2 0x5CD DUP14 CALLER PUSH1 0x4 DUP5 ADD PUSH2 0x2545 JUMP JUMPDEST SUB SWAP3 GAS CALL SWAP1 DUP2 ISZERO PUSH2 0x6F6 JUMPI DUP9 SWAP2 PUSH2 0x6D9 JUMPI JUMPDEST POP ISZERO PUSH2 0x6C7 JUMPI DUP3 ISZERO ISZERO DUP1 PUSH2 0x6BA JUMPI JUMPDEST PUSH2 0x628 JUMPI JUMPDEST POP POP POP PUSH32 0xAC1DFCFF29900D7010C04A6028E48814B8A49DAF045127ABD10A4636D1D49115 SWAP1 PUSH1 0x40 MLOAD SWAP4 DUP5 MSTORE CALLER SWAP4 LOG3 PUSH1 0x1 DUP1 SSTORE DUP1 RETURN JUMPDEST SWAP2 DUP2 PUSH2 0x650 SWAP4 DUP9 DUP7 SWAP5 PUSH1 0x2 SLOAD AND SWAP3 PUSH1 0x4 SLOAD AND SWAP2 PUSH1 0x40 MLOAD SWAP7 DUP8 SWAP6 DUP7 SWAP5 DUP6 SWAP4 DUP5 MSTORE PUSH1 0x4 DUP5 ADD PUSH2 0x2545 JUMP JUMPDEST SUB SWAP3 GAS CALL SWAP1 DUP2 ISZERO PUSH2 0x6AF JUMPI DUP6 SWAP2 PUSH2 0x682 JUMPI JUMPDEST POP ISZERO PUSH2 0x670 JUMPI PUSH0 DUP1 DUP1 PUSH2 0x5F3 JUMP JUMPDEST PUSH1 0x40 MLOAD PUSH4 0x4033E4E3 PUSH1 0xE0 SHL DUP2 MSTORE PUSH1 0x4 SWAP1 REVERT JUMPDEST PUSH2 0x6A2 SWAP2 POP DUP3 RETURNDATASIZE DUP5 GT PUSH2 0x6A8 JUMPI JUMPDEST PUSH2 0x69A DUP2 DUP4 PUSH2 0x2499 JUMP JUMPDEST DUP2 ADD SWAP1 PUSH2 0x2560 JUMP JUMPDEST PUSH0 PUSH2 0x662 JUMP JUMPDEST POP RETURNDATASIZE PUSH2 0x690 JUMP JUMPDEST PUSH1 0x40 MLOAD RETURNDATASIZE DUP8 DUP3 RETURNDATACOPY RETURNDATASIZE SWAP1 REVERT JUMPDEST POP DUP2 PUSH1 0x4 SLOAD AND ISZERO ISZERO PUSH2 0x5EE JUMP JUMPDEST PUSH1 0x40 MLOAD PUSH4 0x880A1491 PUSH1 0xE0 SHL DUP2 MSTORE PUSH1 0x4 SWAP1 REVERT JUMPDEST PUSH2 0x6F0 SWAP2 POP DUP6 RETURNDATASIZE DUP8 GT PUSH2 0x6A8 JUMPI PUSH2 0x69A DUP2 DUP4 PUSH2 0x2499 JUMP JUMPDEST PUSH0 PUSH2 0x5DF JUMP JUMPDEST PUSH1 0x40 MLOAD RETURNDATASIZE DUP11 DUP3 RETURNDATACOPY RETURNDATASIZE SWAP1 REVERT JUMPDEST DUP5 DUP8 MSTORE PUSH1 0xE DUP5 MSTORE PUSH1 0x40 DUP8 KECCAK256 SLOAD SWAP1 PUSH1 0xF DUP6 MSTORE PUSH1 0x40 DUP9 KECCAK256 SLOAD DUP3 ADD DUP1 SWAP3 GT PUSH2 0x78D JUMPI DUP2 DUP9 SWAP3 PUSH2 0x72F JUMPI JUMPDEST POP POP PUSH2 0x5A5 JUMP JUMPDEST DUP2 EXTCODESIZE ISZERO PUSH2 0x789 JUMPI DUP3 SWAP2 PUSH1 0x24 DUP4 SWAP3 PUSH1 0x40 MLOAD SWAP5 DUP6 SWAP4 DUP5 SWAP3 PUSH4 0x17D38435 PUSH1 0xE3 SHL DUP5 MSTORE PUSH1 0x4 DUP5 ADD MSTORE GAS CALL DUP1 ISZERO PUSH2 0x77E JUMPI PUSH2 0x766 JUMPI JUMPDEST DUP1 PUSH2 0x728 JUMP JUMPDEST PUSH2 0x76F SWAP1 PUSH2 0x2486 JUMP JUMPDEST PUSH2 0x77A JUMPI DUP6 PUSH0 PUSH2 0x760 JUMP JUMPDEST DUP6 DUP1 REVERT JUMPDEST PUSH1 0x40 MLOAD RETURNDATASIZE DUP5 DUP3 RETURNDATACOPY RETURNDATASIZE SWAP1 REVERT JUMPDEST DUP3 DUP1 REVERT JUMPDEST PUSH4 0x4E487B71 PUSH1 0xE0 SHL PUSH0 MSTORE PUSH1 0x11 PUSH1 0x4 MSTORE PUSH1 0x24 PUSH0 REVERT JUMPDEST PUSH1 0x3 ADD SLOAD SWAP1 PUSH2 0x582 JUMP JUMPDEST PUSH4 0x4E487B71 PUSH1 0xE0 SHL DUP10 MSTORE PUSH1 0x11 PUSH1 0x4 MSTORE PUSH1 0x24 DUP10 REVERT JUMPDEST PUSH4 0x4E487B71 PUSH1 0xE0 SHL DUP9 MSTORE PUSH1 0x11 PUSH1 0x4 MSTORE PUSH1 0x24 DUP9 REVERT JUMPDEST PUSH1 0x40 MLOAD PUSH4 0x542CF5BF PUSH1 0xE1 SHL DUP2 MSTORE PUSH1 0x4 SWAP1 REVERT JUMPDEST PUSH1 0x40 MLOAD PUSH4 0x691F6547 PUSH1 0xE0 SHL DUP2 MSTORE PUSH1 0x4 SWAP1 REVERT JUMPDEST PUSH4 0x4E487B71 PUSH1 0xE0 SHL DUP8 MSTORE PUSH1 0x21 PUSH1 0x4 MSTORE PUSH1 0x24 DUP8 REVERT JUMPDEST POP DUP1 REVERT JUMPDEST POP CALLVALUE PUSH2 0x246 JUMPI DUP1 PUSH1 0x3 NOT CALLDATASIZE ADD SLT PUSH2 0x246 JUMPI PUSH1 0x20 PUSH1 0x40 MLOAD PUSH2 0x2710 DUP2 MSTORE RETURN JUMPDEST POP CALLVALUE PUSH2 0x246 JUMPI PUSH2 0x83B CALLDATASIZE PUSH2 0x2447 JUMP JUMPDEST SWAP1 PUSH2 0x844 PUSH2 0x25E8 JUMP JUMPDEST PUSH2 0x84C PUSH2 0x259A JUMP JUMPDEST PUSH1 0x7 SLOAD DUP3 LT DUP1 ISZERO PUSH2 0xC53 JUMPI JUMPDEST PUSH2 0xC41 JUMPI CALLER DUP4 MSTORE PUSH1 0xB PUSH1 0x20 MSTORE PUSH1 0x40 DUP4 KECCAK256 SLOAD PUSH2 0xC2F JUMPI DUP1 DUP4 MSTORE PUSH1 0xC PUSH1 0x20 MSTORE PUSH1 0x40 DUP4 KECCAK256 SLOAD PUSH2 0xC1D JUMPI PUSH1 0x5 SLOAD PUSH1 0x40 MLOAD PUSH4 0x31A9108F PUSH1 0xE1 SHL DUP2 MSTORE PUSH1 0x4 DUP2 ADD DUP4 SWAP1 MSTORE SWAP1 PUSH1 0x20 SWAP1 DUP3 SWAP1 PUSH1 0x24 SWAP1 DUP3 SWAP1 PUSH1 0x1 PUSH1 0x1 PUSH1 0xA0 SHL SUB AND GAS STATICCALL SWAP1 DUP2 ISZERO PUSH2 0xC12 JUMPI DUP5 SWAP2 PUSH2 0xBE3 JUMPI JUMPDEST POP CALLER PUSH1 0x1 PUSH1 0x1 PUSH1 0xA0 SHL SUB SWAP1 SWAP2 AND SUB PUSH2 0xBD1 JUMPI PUSH1 0x9 SLOAD PUSH0 NOT DUP2 EQ PUSH2 0xBBD JUMPI PUSH1 0x1 ADD SWAP2 DUP3 PUSH1 0x9 SSTORE PUSH1 0x40 MLOAD SWAP3 PUSH1 0x20 DUP5 ADD SWAP1 CALLER PUSH1 0x60 SHL DUP3 MSTORE TIMESTAMP PUSH1 0x34 DUP7 ADD MSTORE PUSH1 0x54 DUP6 ADD MSTORE PUSH1 0x54 DUP5 MSTORE PUSH1 0x80 DUP5 ADD SWAP1 DUP5 DUP3 LT PUSH1 0x1 DUP1 PUSH1 0x40 SHL SUB DUP4 GT OR PUSH2 0xBA9 JUMPI DUP2 PUSH1 0x40 MSTORE DUP5 MLOAD SWAP1 KECCAK256 SWAP4 DUP6 SWAP2 PUSH1 0x1 DUP1 PUSH1 0xA0 SHL SUB PUSH1 0x6 SLOAD AND DUP1 PUSH2 0xB32 JUMPI JUMPDEST POP POP POP DUP5 PUSH2 0x93C DUP3 DUP5 PUSH2 0x245D JUMP JUMPDEST DUP1 PUSH2 0xAA4 JUMPI JUMPDEST POP POP PUSH1 0x40 MLOAD PUSH2 0x950 DUP2 PUSH2 0x246A JUMP JUMPDEST CALLER DUP2 MSTORE DUP5 PUSH2 0x100 PUSH1 0x8 PUSH1 0x20 DUP5 ADD DUP10 DUP2 MSTORE DUP5 DUP11 PUSH1 0x40 DUP3 ADD DUP11 DUP2 MSTORE PUSH1 0x60 DUP4 ADD DUP3 DUP2 MSTORE PUSH1 0x80 DUP5 ADD SWAP1 DUP12 DUP3 MSTORE PUSH1 0xA0 DUP6 ADD SWAP3 TIMESTAMP DUP5 MSTORE PUSH1 0x40 PUSH1 0xC0 DUP8 ADD SWAP6 DUP1 DUP8 MSTORE PUSH1 0x1 DUP12 PUSH1 0xE0 DUP11 ADD SWAP10 DUP4 DUP12 MSTORE ADD MSTORE PUSH2 0x120 DUP14 ADD SWAP12 DUP2 DUP14 MSTORE DUP2 MSTORE PUSH1 0xA PUSH1 0x20 MSTORE KECCAK256 SWAP7 PUSH1 0x1 DUP1 PUSH1 0xA0 SHL SUB DUP13 MLOAD AND PUSH1 0x1 DUP1 PUSH1 0xA0 SHL SUB NOT SWAP1 DUP2 DUP11 SLOAD AND OR DUP10 SSTORE PUSH1 0x1 DUP10 ADD SWAP2 PUSH1 0x1 DUP1 PUSH1 0xA0 SHL SUB SWAP1 MLOAD AND SWAP1 DUP3 SLOAD AND OR SWAP1 SSTORE MLOAD PUSH1 0x2 DUP8 ADD SSTORE MLOAD PUSH1 0x3 DUP7 ADD SSTORE MLOAD PUSH1 0x4 DUP6 ADD SSTORE MLOAD PUSH1 0x5 DUP5 ADD SSTORE MLOAD PUSH1 0x6 DUP4 ADD SSTORE MLOAD PUSH1 0x7 DUP3 ADD SSTORE ADD SWAP3 ADD MLOAD PUSH1 0x6 DUP2 LT ISZERO PUSH2 0xA90 JUMPI SWAP3 PUSH2 0xA33 PUSH1 0x40 SWAP4 PUSH1 0x20 SWAP10 SWAP4 DUP10 SWAP7 PUSH1 0xFF DUP1 NOT DUP5 SLOAD AND SWAP2 AND OR DUP3 SSTORE PUSH1 0x1 DUP1 PUSH1 0xA0 SHL SUB SWAP1 MLOAD AND SWAP1 PUSH2 0x2501 JUMP JUMPDEST DUP4 DUP3 MSTORE PUSH1 0xE DUP9 MSTORE DUP3 DUP3 KECCAK256 SSTORE CALLER DUP2 MSTORE PUSH1 0xB DUP8 MSTORE DUP3 DUP3 DUP3 KECCAK256 SSTORE DUP5 DUP2 MSTORE PUSH1 0xC DUP8 MSTORE KECCAK256 SSTORE PUSH1 0x40 MLOAD SWAP2 DUP3 MSTORE DUP4 DUP3 ADD MSTORE DUP2 PUSH32 0x9797DED04AFD2C3EE4ACC48528D0E1302ED90D1BE904D21E0A9C6724A025144 PUSH1 0x40 CALLER SWAP4 LOG3 PUSH1 0x1 DUP1 SSTORE PUSH1 0x40 MLOAD SWAP1 DUP2 MSTORE RETURN JUMPDEST PUSH4 0x4E487B71 PUSH1 0xE0 SHL DUP9 MSTORE PUSH1 0x21 PUSH1 0x4 MSTORE PUSH1 0x24 DUP9 REVERT JUMPDEST PUSH1 0x2 SLOAD PUSH1 0x40 MLOAD PUSH4 0x23B872DD PUSH1 0xE0 SHL DUP2 MSTORE SWAP3 PUSH1 0x20 SWAP3 DUP5 SWAP3 PUSH1 0x1 PUSH1 0x1 PUSH1 0xA0 SHL SUB AND SWAP2 DUP4 SWAP2 DUP3 SWAP1 PUSH2 0xAD7 SWAP1 ADDRESS CALLER PUSH1 0x4 DUP6 ADD PUSH2 0x2578 JUMP JUMPDEST SUB SWAP3 GAS CALL SWAP1 DUP2 ISZERO PUSH2 0xB27 JUMPI DUP7 SWAP2 PUSH2 0xB08 JUMPI JUMPDEST POP ISZERO PUSH2 0xAF6 JUMPI DUP5 PUSH0 PUSH2 0x942 JUMP JUMPDEST PUSH1 0x40 MLOAD PUSH4 0x1231EC2F PUSH1 0xE2 SHL DUP2 MSTORE PUSH1 0x4 SWAP1 REVERT JUMPDEST PUSH2 0xB21 SWAP2 POP PUSH1 0x20 RETURNDATASIZE PUSH1 0x20 GT PUSH2 0x6A8 JUMPI PUSH2 0x69A DUP2 DUP4 PUSH2 0x2499 JUMP JUMPDEST PUSH0 PUSH2 0xAE9 JUMP JUMPDEST PUSH1 0x40 MLOAD RETURNDATASIZE DUP9 DUP3 RETURNDATACOPY RETURNDATASIZE SWAP1 REVERT JUMPDEST PUSH4 0x24BF68E1 PUSH1 0xE2 SHL DUP3 MSTORE SWAP2 SWAP3 POP SWAP1 PUSH1 0x20 SWAP1 DUP3 SWAP1 DUP2 DUP10 PUSH1 0x7F NOT DUP8 PUSH2 0xB59 DUP11 CALLER PUSH1 0x84 DUP5 ADD PUSH2 0x2545 JUMP JUMPDEST SUB ADD SWAP3 GAS CALL SWAP2 DUP3 ISZERO PUSH2 0xB27 JUMPI DUP7 SWAP3 PUSH2 0xB76 JUMPI JUMPDEST POP POP PUSH0 DUP1 DUP1 PUSH2 0x92E JUMP JUMPDEST PUSH1 0x20 DUP1 SWAP3 SWAP4 POP RETURNDATASIZE DUP4 GT PUSH2 0xBA2 JUMPI JUMPDEST PUSH2 0xB8E DUP2 DUP6 PUSH2 0x2499 JUMP JUMPDEST DUP2 ADD SUB SLT PUSH2 0xB9E JUMPI MLOAD PUSH0 DUP1 PUSH2 0xB6C JUMP JUMPDEST PUSH0 DUP1 REVERT JUMPDEST POP RETURNDATASIZE PUSH2 0xB84 JUMP JUMPDEST PUSH4 0x4E487B71 PUSH1 0xE0 SHL PUSH0 MSTORE PUSH1 0x41 PUSH1 0x4 MSTORE PUSH1 0x24 PUSH0 REVERT JUMPDEST PUSH4 0x4E487B71 PUSH1 0xE0 SHL DUP5 MSTORE PUSH1 0x11 PUSH1 0x4 MSTORE PUSH1 0x24 DUP5 REVERT JUMPDEST PUSH1 0x40 MLOAD PUSH4 0xD967A6F3 PUSH1 0xE0 SHL DUP2 MSTORE PUSH1 0x4 SWAP1 REVERT JUMPDEST PUSH2 0xC05 SWAP2 POP PUSH1 0x20 RETURNDATASIZE PUSH1 0x20 GT PUSH2 0xC0B JUMPI JUMPDEST PUSH2 0xBFD DUP2 DUP4 PUSH2 0x2499 JUMP JUMPDEST DUP2 ADD SWAP1 PUSH2 0x2526 JUMP JUMPDEST PUSH0 PUSH2 0x8B9 JUMP JUMPDEST POP RETURNDATASIZE PUSH2 0xBF3 JUMP JUMPDEST PUSH1 0x40 MLOAD RETURNDATASIZE DUP7 DUP3 RETURNDATACOPY RETURNDATASIZE SWAP1 REVERT JUMPDEST PUSH1 0x40 MLOAD PUSH4 0xF41FF0C9 PUSH1 0xE0 SHL DUP2 MSTORE PUSH1 0x4 SWAP1 REVERT JUMPDEST PUSH1 0x40 MLOAD PUSH4 0x1844F0A5 PUSH1 0xE1 SHL DUP2 MSTORE PUSH1 0x4 SWAP1 REVERT JUMPDEST PUSH1 0x40 MLOAD PUSH4 0x103BE3B PUSH1 0xE2 SHL DUP2 MSTORE PUSH1 0x4 SWAP1 REVERT JUMPDEST POP PUSH1 0x8 SLOAD DUP3 GT PUSH2 0x858 JUMP JUMPDEST POP CALLVALUE PUSH2 0x246 JUMPI PUSH1 0x20 DUP1 PUSH1 0x3 NOT CALLDATASIZE ADD SLT PUSH2 0x80B JUMPI PUSH1 0x4 CALLDATALOAD SWAP1 PUSH2 0xC7D PUSH2 0x25BD JUMP JUMPDEST PUSH2 0xC85 PUSH2 0x259A JUMP JUMPDEST DUP2 DUP4 MSTORE PUSH1 0xA DUP2 MSTORE PUSH1 0x40 DUP4 KECCAK256 PUSH1 0x8 DUP2 ADD DUP1 SLOAD SWAP2 PUSH1 0xFF DUP4 AND PUSH1 0x6 DUP2 LT ISZERO PUSH2 0x7F7 JUMPI PUSH1 0x1 DUP2 EQ ISZERO SWAP1 DUP2 PUSH2 0xFB4 JUMPI JUMPDEST POP PUSH2 0xFA3 JUMPI DUP6 PUSH1 0x1 DUP1 PUSH1 0xA0 SHL SUB SWAP2 DUP3 DUP2 SLOAD AND SWAP1 DUP7 DUP5 PUSH1 0x1 DUP4 ADD SLOAD AND SWAP6 PUSH1 0x2 DUP4 ADD SLOAD SWAP4 PUSH1 0x4 PUSH1 0x3 DUP6 ADD SLOAD SWAP5 ADD SLOAD SWAP5 DUP12 DUP8 MSTORE PUSH1 0xE DUP5 MSTORE PUSH1 0x40 DUP8 KECCAK256 SLOAD SWAP1 PUSH2 0xCF4 DUP3 DUP9 PUSH2 0x245D JUMP JUMPDEST SWAP4 DUP14 DUP10 MSTORE PUSH1 0xF DUP7 MSTORE PUSH1 0x5 PUSH2 0xD0D PUSH1 0x40 DUP12 KECCAK256 SLOAD DUP1 SWAP11 PUSH2 0x245D JUMP JUMPDEST SWAP13 PUSH1 0xFF NOT AND OR SWAP1 SSTORE DUP3 DUP9 MSTORE PUSH1 0xB DUP6 MSTORE DUP8 PUSH1 0x40 DUP2 KECCAK256 SSTORE DUP8 MSTORE PUSH1 0xC DUP5 MSTORE DUP7 PUSH1 0x40 DUP2 KECCAK256 SSTORE DUP9 ISZERO ISZERO SWAP5 DUP6 PUSH2 0xF84 JUMPI JUMPDEST POP DUP1 ISZERO ISZERO DUP1 PUSH2 0xF77 JUMPI JUMPDEST PUSH2 0xF09 JUMPI JUMPDEST POP DUP2 PUSH2 0xE96 JUMPI JUMPDEST POP POP POP PUSH2 0xD9F JUMPI JUMPDEST POP DUP6 PUSH0 DUP1 MLOAD PUSH1 0x20 PUSH2 0x272A DUP4 CODECOPY DUP2 MLOAD SWAP2 MSTORE PUSH1 0x60 DUP8 PUSH1 0x19 PUSH1 0x40 MLOAD SWAP2 DUP1 DUP4 MSTORE DUP3 ADD MSTORE PUSH25 0x22B6B2B933B2B731BC903932B33AB73210313C9030B236B4B7 PUSH1 0x39 SHL PUSH1 0x40 DUP3 ADD MSTORE LOG2 PUSH1 0x1 DUP1 SSTORE DUP1 RETURN JUMPDEST DUP1 ISZERO ISZERO DUP1 PUSH2 0xE89 JUMPI JUMPDEST PUSH2 0xE34 JUMPI JUMPDEST POP POP DUP3 PUSH2 0xDBC JUMPI JUMPDEST DUP6 DUP2 PUSH2 0xD56 JUMP JUMPDEST SWAP2 DUP4 SWAP2 PUSH2 0xDE5 SWAP4 PUSH1 0x2 SLOAD AND SWAP1 DUP8 PUSH1 0x40 MLOAD DUP1 SWAP7 DUP2 SWAP6 DUP3 SWAP5 PUSH4 0xA9059CBB PUSH1 0xE0 SHL DUP5 MSTORE PUSH1 0x4 DUP5 ADD PUSH2 0x2545 JUMP JUMPDEST SUB SWAP3 GAS CALL SWAP1 DUP2 ISZERO PUSH2 0xC12 JUMPI DUP5 SWAP2 PUSH2 0xE17 JUMPI JUMPDEST POP ISZERO PUSH2 0xE05 JUMPI PUSH0 DUP1 DUP1 PUSH2 0xDB5 JUMP JUMPDEST PUSH1 0x40 MLOAD PUSH4 0x3C312751 PUSH1 0xE2 SHL DUP2 MSTORE PUSH1 0x4 SWAP1 REVERT JUMPDEST PUSH2 0xE2E SWAP2 POP DUP3 RETURNDATASIZE DUP5 GT PUSH2 0x6A8 JUMPI PUSH2 0x69A DUP2 DUP4 PUSH2 0x2499 JUMP JUMPDEST PUSH0 PUSH2 0xDF7 JUMP JUMPDEST DUP3 PUSH1 0x6 SLOAD AND DUP1 EXTCODESIZE ISZERO PUSH2 0x789 JUMPI PUSH1 0x40 MLOAD PUSH4 0xBD09001B PUSH1 0xE0 SHL DUP2 MSTORE SWAP2 DUP4 SWAP2 DUP4 SWAP2 DUP3 SWAP1 DUP5 SWAP1 DUP3 SWAP1 PUSH2 0xE66 SWAP1 DUP12 PUSH1 0x4 DUP5 ADD PUSH2 0x2545 JUMP JUMPDEST SUB SWAP3 GAS CALL DUP1 ISZERO PUSH2 0x77E JUMPI ISZERO PUSH2 0xDAD JUMPI PUSH2 0xE7E SWAP1 PUSH2 0x2486 JUMP JUMPDEST PUSH2 0x77A JUMPI DUP6 PUSH0 PUSH2 0xDAD JUMP JUMPDEST POP DUP3 PUSH1 0x6 SLOAD AND ISZERO ISZERO PUSH2 0xDA8 JUMP JUMPDEST PUSH2 0xEBF SWAP4 SWAP6 POP DUP7 PUSH1 0x2 SLOAD AND SWAP1 DUP13 PUSH1 0x40 MLOAD DUP1 SWAP7 DUP2 SWAP6 DUP3 SWAP5 PUSH4 0xA9059CBB PUSH1 0xE0 SHL DUP5 MSTORE PUSH1 0x4 DUP5 ADD PUSH2 0x2545 JUMP JUMPDEST SUB SWAP3 GAS CALL SWAP1 DUP2 ISZERO PUSH2 0xEFE JUMPI DUP10 SWAP2 PUSH2 0xEE1 JUMPI JUMPDEST POP ISZERO PUSH2 0xE05 JUMPI DUP8 SWAP2 DUP7 PUSH0 DUP1 PUSH2 0xD4E JUMP JUMPDEST PUSH2 0xEF8 SWAP2 POP DUP8 RETURNDATASIZE DUP10 GT PUSH2 0x6A8 JUMPI PUSH2 0x69A DUP2 DUP4 PUSH2 0x2499 JUMP JUMPDEST PUSH0 PUSH2 0xED1 JUMP JUMPDEST PUSH1 0x40 MLOAD RETURNDATASIZE DUP12 DUP3 RETURNDATACOPY RETURNDATASIZE SWAP1 REVERT JUMPDEST SWAP3 POP DUP7 PUSH1 0x6 SLOAD AND DUP1 EXTCODESIZE ISZERO PUSH2 0xF73 JUMPI PUSH1 0x40 MLOAD PUSH4 0xBD09001B PUSH1 0xE0 SHL DUP2 MSTORE SWAP4 DUP8 SWAP2 DUP6 SWAP2 DUP3 SWAP1 DUP5 SWAP1 DUP3 SWAP1 PUSH2 0xF3D SWAP1 DUP9 PUSH1 0x4 DUP5 ADD PUSH2 0x2545 JUMP JUMPDEST SUB SWAP3 GAS CALL DUP1 ISZERO PUSH2 0xB27 JUMPI DUP11 SWAP4 DUP8 SWAP2 PUSH2 0xF56 JUMPI JUMPDEST POP PUSH2 0xD47 JUMP JUMPDEST PUSH2 0xF62 SWAP2 SWAP3 SWAP5 POP PUSH2 0x2486 JUMP JUMPDEST PUSH2 0xF6F JUMPI DUP9 SWAP2 DUP6 PUSH0 PUSH2 0xF50 JUMP JUMPDEST DUP5 DUP1 REVERT JUMPDEST DUP7 DUP1 REVERT JUMPDEST POP DUP8 PUSH1 0x6 SLOAD AND ISZERO ISZERO PUSH2 0xD42 JUMP JUMPDEST DUP10 DUP9 MSTORE PUSH1 0xB DUP6 MSTORE DUP8 PUSH1 0x40 DUP2 KECCAK256 SSTORE DUP8 MSTORE PUSH1 0xC DUP5 MSTORE DUP7 PUSH1 0x40 DUP2 KECCAK256 SSTORE PUSH0 PUSH2 0xD38 JUMP JUMPDEST PUSH1 0x40 MLOAD PUSH3 0x2D949 PUSH1 0xED SHL DUP2 MSTORE PUSH1 0x4 SWAP1 REVERT JUMPDEST PUSH1 0x2 SWAP2 POP EQ ISZERO PUSH0 PUSH2 0xCB0 JUMP JUMPDEST POP CALLVALUE PUSH2 0x246 JUMPI PUSH1 0x20 CALLDATASIZE PUSH1 0x3 NOT ADD SLT PUSH2 0x246 JUMPI PUSH1 0x20 SWAP1 PUSH1 0x40 SWAP1 PUSH1 0x1 PUSH1 0x1 PUSH1 0xA0 SHL SUB PUSH2 0xFE8 PUSH2 0x2424 JUMP JUMPDEST AND DUP2 MSTORE PUSH1 0xB DUP4 MSTORE KECCAK256 SLOAD PUSH1 0x40 MLOAD SWAP1 DUP2 MSTORE RETURN JUMPDEST POP CALLVALUE PUSH2 0x246 JUMPI PUSH1 0x20 CALLDATASIZE PUSH1 0x3 NOT ADD SLT PUSH2 0x246 JUMPI PUSH2 0x1013 PUSH2 0x2424 JUMP JUMPDEST PUSH2 0x101B PUSH2 0x25BD JUMP JUMPDEST PUSH1 0x1 PUSH1 0x1 PUSH1 0xA0 SHL SUB SWAP1 DUP2 AND SWAP1 DUP2 ISZERO PUSH2 0x1069 JUMPI PUSH1 0x5 DUP1 SLOAD PUSH1 0x1 PUSH1 0x1 PUSH1 0xA0 SHL SUB NOT DUP2 AND DUP5 OR SWAP1 SWAP2 SSTORE AND PUSH32 0x90B19857CA5857522922F4D0BC3DA0F54168BCF797640F23D6B82E61A56A1F08 DUP4 DUP1 LOG3 DUP1 RETURN JUMPDEST PUSH1 0x40 MLOAD PUSH3 0x461BCD PUSH1 0xE5 SHL DUP2 MSTORE PUSH1 0x20 PUSH1 0x4 DUP3 ADD MSTORE PUSH1 0x10 PUSH1 0x24 DUP3 ADD MSTORE PUSH16 0x496E76616C6964206372656174757265 PUSH1 0x80 SHL PUSH1 0x44 DUP3 ADD MSTORE PUSH1 0x64 SWAP1 REVERT JUMPDEST POP CALLVALUE PUSH2 0x246 JUMPI PUSH1 0x20 CALLDATASIZE PUSH1 0x3 NOT ADD SLT PUSH2 0x246 JUMPI PUSH2 0x10BB PUSH2 0x2424 JUMP JUMPDEST PUSH2 0x10C3 PUSH2 0x25BD JUMP JUMPDEST PUSH1 0x6 DUP1 SLOAD PUSH1 0x1 PUSH1 0x1 PUSH1 0xA0 SHL SUB SWAP3 DUP4 AND PUSH1 0x1 PUSH1 0x1 PUSH1 0xA0 SHL SUB NOT DUP3 AND DUP2 OR SWAP1 SWAP3 SSTORE SWAP1 SWAP2 AND PUSH32 0x81AA94D4892023EB47E9B92F72A673E7AD967F9B141925F604E650B76A8700A5 DUP4 DUP1 LOG3 DUP1 RETURN JUMPDEST POP CALLVALUE PUSH2 0x246 JUMPI PUSH1 0x20 CALLDATASIZE PUSH1 0x3 NOT ADD SLT PUSH2 0x246 JUMPI PUSH1 0x40 PUSH1 0x20 SWAP2 PUSH1 0x4 CALLDATALOAD DUP2 MSTORE PUSH1 0xE DUP4 MSTORE KECCAK256 SLOAD PUSH1 0x40 MLOAD SWAP1 DUP2 MSTORE RETURN JUMPDEST POP CALLVALUE PUSH2 0x246 JUMPI DUP1 PUSH1 0x3 NOT CALLDATASIZE ADD SLT PUSH2 0x246 JUMPI SLOAD PUSH1 0x40 MLOAD PUSH1 0x1 PUSH1 0x1 PUSH1 0xA0 SHL SUB SWAP1 SWAP2 AND DUP2 MSTORE PUSH1 0x20 SWAP1 RETURN JUMPDEST POP CALLVALUE PUSH2 0x246 JUMPI PUSH2 0x116C CALLDATASIZE PUSH2 0x2447 JUMP JUMPDEST PUSH2 0x1174 PUSH2 0x25BD JUMP JUMPDEST DUP2 ISZERO ISZERO DUP1 PUSH2 0x11F3 JUMPI JUMPDEST ISZERO PUSH2 0x11BD JUMPI DUP2 PUSH1 0x40 SWAP2 PUSH32 0x2F6F9641C9C28674435527345C5B76EF1D9B57240E94D33D3F222AE58D6CAFF7 SWAP4 PUSH1 0x7 SSTORE DUP1 PUSH1 0x8 SSTORE DUP3 MLOAD SWAP2 DUP3 MSTORE PUSH1 0x20 DUP3 ADD MSTORE LOG1 DUP1 RETURN JUMPDEST PUSH1 0x40 MLOAD PUSH3 0x461BCD PUSH1 0xE5 SHL DUP2 MSTORE PUSH1 0x20 PUSH1 0x4 DUP3 ADD MSTORE PUSH1 0xE PUSH1 0x24 DUP3 ADD MSTORE PUSH14 0x496E76616C6964206C696D697473 PUSH1 0x90 SHL PUSH1 0x44 DUP3 ADD MSTORE PUSH1 0x64 SWAP1 REVERT JUMPDEST POP DUP1 DUP3 LT PUSH2 0x117D JUMP JUMPDEST POP CALLVALUE PUSH2 0x246 JUMPI DUP1 PUSH1 0x3 NOT CALLDATASIZE ADD SLT PUSH2 0x246 JUMPI PUSH2 0x1215 PUSH2 0x25BD JUMP JUMPDEST PUSH1 0x10 SLOAD PUSH1 0x1 PUSH1 0x1 PUSH1 0xA0 SHL SUB DUP1 DUP3 AND DUP1 ISZERO PUSH2 0x12DB JUMPI PUSH1 0x11 SLOAD PUSH3 0x2A300 DUP2 ADD DUP1 SWAP2 GT PUSH2 0x12C7 JUMPI TIMESTAMP LT PUSH2 0x128B JUMPI PUSH1 0x3 DUP1 SLOAD PUSH1 0x1 PUSH1 0x1 PUSH1 0xA0 SHL SUB NOT DUP1 DUP3 AND DUP5 OR SWAP1 SWAP3 SSTORE SWAP4 AND PUSH1 0x10 SSTORE PUSH1 0x11 DUP5 SWAP1 SSTORE DUP4 DUP4 AND OR SWAP2 AND PUSH32 0xEA8CA364CC9C0E44AE5CEAB245CECECCC710724873A9ECFC89A0559983E44739 DUP4 DUP1 LOG3 DUP1 RETURN JUMPDEST PUSH1 0x40 MLOAD PUSH3 0x461BCD PUSH1 0xE5 SHL DUP2 MSTORE PUSH1 0x20 PUSH1 0x4 DUP3 ADD MSTORE PUSH1 0x14 PUSH1 0x24 DUP3 ADD MSTORE PUSH20 0x151A5B595B1BD8DAC81B9BDD08195E1C1A5C9959 PUSH1 0x62 SHL PUSH1 0x44 DUP3 ADD MSTORE PUSH1 0x64 SWAP1 REVERT JUMPDEST PUSH4 0x4E487B71 PUSH1 0xE0 SHL DUP6 MSTORE PUSH1 0x11 PUSH1 0x4 MSTORE PUSH1 0x24 DUP6 REVERT JUMPDEST PUSH1 0x40 MLOAD PUSH3 0x461BCD PUSH1 0xE5 SHL DUP2 MSTORE PUSH1 0x20 PUSH1 0x4 DUP3 ADD MSTORE PUSH1 0x12 PUSH1 0x24 DUP3 ADD MSTORE PUSH18 0x139BC81C195B991A5B99C8189858DAD95B99 PUSH1 0x72 SHL PUSH1 0x44 DUP3 ADD MSTORE PUSH1 0x64 SWAP1 REVERT JUMPDEST POP CALLVALUE PUSH2 0x246 JUMPI DUP1 PUSH1 0x3 NOT CALLDATASIZE ADD SLT PUSH2 0x246 JUMPI PUSH2 0x132E PUSH2 0x25BD JUMP JUMPDEST PUSH2 0x1336 PUSH2 0x25E8 JUMP JUMPDEST DUP1 SLOAD PUSH1 0xFF PUSH1 0xA0 SHL NOT AND PUSH1 0x1 PUSH1 0xA0 SHL OR DUP2 SSTORE PUSH1 0x40 MLOAD CALLER DUP2 MSTORE PUSH32 0x62E78CEA01BEE320CD4E420270B5EA74000D11B0C9F74754EBDBFC544B05A258 SWAP1 PUSH1 0x20 SWAP1 LOG1 DUP1 RETURN JUMPDEST POP CALLVALUE PUSH2 0x246 JUMPI DUP1 PUSH1 0x3 NOT CALLDATASIZE ADD SLT PUSH2 0x246 JUMPI PUSH1 0x20 PUSH1 0x11 SLOAD PUSH1 0x40 MLOAD SWAP1 DUP2 MSTORE RETURN JUMPDEST POP CALLVALUE PUSH2 0x246 JUMPI PUSH1 0x20 DUP1 PUSH1 0x3 NOT CALLDATASIZE ADD SLT PUSH2 0x80B JUMPI PUSH1 0x4 CALLDATALOAD SWAP1 PUSH2 0x13B3 PUSH2 0x259A JUMP JUMPDEST DUP2 DUP4 MSTORE PUSH1 0xA DUP2 MSTORE PUSH1 0x40 DUP4 KECCAK256 PUSH1 0x8 DUP2 ADD DUP1 SLOAD PUSH1 0xFF DUP2 AND PUSH1 0x6 DUP2 LT ISZERO PUSH2 0x7F7 JUMPI PUSH1 0x1 SUB PUSH2 0x164E JUMPI DUP3 SLOAD PUSH1 0x1 PUSH1 0x1 PUSH1 0xA0 SHL SUB SWAP3 SWAP1 DUP4 AND SWAP2 CALLER DUP4 SUB PUSH2 0x163C JUMPI PUSH1 0x5 DUP6 ADD SLOAD PUSH1 0x1E DUP2 ADD DUP1 SWAP2 GT PUSH2 0x7AB JUMPI TIMESTAMP LT PUSH2 0x162A JUMPI PUSH1 0x5 SWAP1 PUSH1 0xFF NOT AND OR SWAP1 SSTORE DUP6 MSTORE PUSH1 0xB DUP4 MSTORE DUP5 PUSH1 0x40 DUP2 KECCAK256 SSTORE PUSH1 0x2 DUP3 ADD SLOAD DUP6 MSTORE PUSH1 0xC DUP4 MSTORE DUP5 PUSH1 0x40 DUP2 KECCAK256 SSTORE DUP4 DUP6 MSTORE PUSH1 0xE DUP4 MSTORE PUSH1 0x40 DUP6 KECCAK256 SLOAD SWAP2 DUP6 PUSH2 0x1447 DUP5 PUSH1 0x4 DUP5 ADD SLOAD PUSH2 0x245D JUMP JUMPDEST SWAP4 DUP1 ISZERO ISZERO DUP1 PUSH2 0x161D JUMPI JUMPDEST PUSH2 0x15C1 JUMPI JUMPDEST POP POP DUP3 ISZERO DUP1 ISZERO PUSH2 0x148F JUMPI JUMPDEST DUP7 CALLER DUP8 PUSH32 0xCB9EFE3DEE7D10A1CE7248D3BB4E58134AE02576D3439448ED856CC3373E17A3 DUP4 DUP1 LOG3 PUSH1 0x1 DUP1 SSTORE DUP1 RETURN JUMPDEST PUSH1 0x64 DUP5 MUL SWAP1 DUP5 DUP3 DIV PUSH1 0x64 EQ OR ISZERO PUSH2 0x15AD JUMPI PUSH2 0x14B0 PUSH2 0x2710 DUP7 SWAP3 DIV DUP1 SWAP6 PUSH2 0x245D JUMP JUMPDEST DUP1 PUSH2 0x1546 JUMPI JUMPDEST POP POP POP DUP2 ISZERO ISZERO DUP1 PUSH2 0x1539 JUMPI JUMPDEST PUSH2 0x14CE JUMPI JUMPDEST DUP1 DUP1 PUSH2 0x1461 JUMP JUMPDEST PUSH2 0x14FB SWAP2 DUP2 DUP5 SWAP3 PUSH1 0x2 SLOAD AND SWAP1 PUSH1 0x4 SLOAD AND DUP8 PUSH1 0x40 MLOAD DUP1 SWAP7 DUP2 SWAP6 DUP3 SWAP5 PUSH4 0xA9059CBB PUSH1 0xE0 SHL DUP5 MSTORE PUSH1 0x4 DUP5 ADD PUSH2 0x2545 JUMP JUMPDEST SUB SWAP3 GAS CALL SWAP2 DUP3 ISZERO PUSH2 0xC12 JUMPI DUP5 SWAP3 PUSH2 0x151C JUMPI JUMPDEST POP POP ISZERO PUSH2 0x670 JUMPI PUSH0 DUP1 DUP1 PUSH2 0x14C7 JUMP JUMPDEST PUSH2 0x1532 SWAP3 POP DUP1 RETURNDATASIZE LT PUSH2 0x6A8 JUMPI PUSH2 0x69A DUP2 DUP4 PUSH2 0x2499 JUMP JUMPDEST PUSH0 DUP1 PUSH2 0x150D JUMP JUMPDEST POP DUP1 PUSH1 0x4 SLOAD AND ISZERO ISZERO PUSH2 0x14C2 JUMP JUMPDEST PUSH2 0x1570 SWAP3 DUP5 DUP1 PUSH1 0x2 SLOAD AND SWAP2 SLOAD AND DUP10 PUSH1 0x40 MLOAD DUP1 SWAP7 DUP2 SWAP6 DUP3 SWAP5 PUSH4 0xA9059CBB PUSH1 0xE0 SHL DUP5 MSTORE PUSH1 0x4 DUP5 ADD PUSH2 0x2545 JUMP JUMPDEST SUB SWAP3 GAS CALL SWAP1 DUP2 ISZERO PUSH2 0xB27 JUMPI DUP7 SWAP2 PUSH2 0x1590 JUMPI JUMPDEST POP ISZERO PUSH2 0xE05 JUMPI PUSH0 DUP4 DUP2 PUSH2 0x14B6 JUMP JUMPDEST PUSH2 0x15A7 SWAP2 POP DUP5 RETURNDATASIZE DUP7 GT PUSH2 0x6A8 JUMPI PUSH2 0x69A DUP2 DUP4 PUSH2 0x2499 JUMP JUMPDEST PUSH0 PUSH2 0x1582 JUMP JUMPDEST PUSH4 0x4E487B71 PUSH1 0xE0 SHL DUP8 MSTORE PUSH1 0x11 PUSH1 0x4 MSTORE PUSH1 0x24 DUP8 REVERT JUMPDEST DUP4 PUSH1 0x6 SLOAD AND SWAP1 DUP5 DUP5 SLOAD AND SWAP1 DUP3 EXTCODESIZE ISZERO PUSH2 0x1619 JUMPI PUSH2 0x15F6 SWAP3 DUP5 SWAP3 DUP4 PUSH1 0x40 MLOAD DUP1 SWAP7 DUP2 SWAP6 DUP3 SWAP5 PUSH4 0xBD09001B PUSH1 0xE0 SHL DUP5 MSTORE PUSH1 0x4 DUP5 ADD PUSH2 0x2545 JUMP JUMPDEST SUB SWAP3 GAS CALL DUP1 ISZERO PUSH2 0x77E JUMPI ISZERO PUSH2 0x1456 JUMPI PUSH2 0x160E SWAP1 PUSH2 0x2486 JUMP JUMPDEST PUSH2 0x77A JUMPI DUP6 PUSH0 PUSH2 0x1456 JUMP JUMPDEST DUP4 DUP1 REVERT JUMPDEST POP DUP4 PUSH1 0x6 SLOAD AND ISZERO ISZERO PUSH2 0x1451 JUMP JUMPDEST PUSH1 0x40 MLOAD PUSH4 0x4842335 PUSH1 0xE2 SHL DUP2 MSTORE PUSH1 0x4 SWAP1 REVERT JUMPDEST PUSH1 0x40 MLOAD PUSH4 0x8FF4F0C9 PUSH1 0xE0 SHL DUP2 MSTORE PUSH1 0x4 SWAP1 REVERT JUMPDEST PUSH1 0x40 MLOAD PUSH4 0x1F7806AF PUSH1 0xE3 SHL DUP2 MSTORE PUSH1 0x4 SWAP1 REVERT JUMPDEST POP CALLVALUE PUSH2 0xB9E JUMPI PUSH1 0x20 DUP1 PUSH1 0x3 NOT CALLDATASIZE ADD SLT PUSH2 0xB9E JUMPI PUSH1 0x4 CALLDATALOAD SWAP1 PUSH2 0x167F PUSH2 0x259A JUMP JUMPDEST DUP2 PUSH0 MSTORE PUSH1 0xA DUP2 MSTORE PUSH1 0x40 PUSH0 KECCAK256 PUSH1 0x8 DUP2 ADD SWAP1 DUP2 SLOAD PUSH1 0xFF DUP2 AND PUSH1 0x6 DUP2 LT ISZERO PUSH2 0x185D JUMPI PUSH1 0x1 SUB PUSH2 0xFA3 JUMPI DUP2 SLOAD PUSH1 0x1 PUSH1 0x1 PUSH1 0xA0 SHL SUB SWAP4 SWAP1 DUP5 AND SWAP2 CALLER DUP4 SUB PUSH2 0x163C JUMPI PUSH1 0x5 DUP5 ADD SLOAD PUSH2 0x258 DUP2 ADD DUP1 SWAP2 GT PUSH2 0x78D JUMPI TIMESTAMP GT ISZERO PUSH2 0x184B JUMPI PUSH1 0x5 SWAP1 PUSH1 0xFF NOT AND OR SWAP1 SSTORE PUSH0 MSTORE PUSH1 0xB DUP4 MSTORE PUSH0 PUSH1 0x40 DUP2 KECCAK256 SSTORE PUSH1 0x2 DUP2 ADD SLOAD PUSH0 MSTORE PUSH1 0xC DUP4 MSTORE PUSH0 PUSH1 0x40 DUP2 KECCAK256 SSTORE DUP4 PUSH0 MSTORE PUSH1 0xE DUP4 MSTORE PUSH1 0x40 PUSH0 KECCAK256 SLOAD SWAP2 PUSH2 0x1715 DUP4 PUSH1 0x4 DUP5 ADD SLOAD PUSH2 0x245D JUMP JUMPDEST SWAP3 DUP1 ISZERO ISZERO DUP1 PUSH2 0x183E JUMPI JUMPDEST PUSH2 0x17DC JUMPI JUMPDEST POP DUP3 PUSH2 0x1773 JUMPI JUMPDEST POP POP POP PUSH1 0x60 PUSH0 DUP1 MLOAD PUSH1 0x20 PUSH2 0x272A DUP4 CODECOPY DUP2 MLOAD SWAP2 MSTORE SWAP2 PUSH1 0x17 PUSH1 0x40 MLOAD SWAP2 DUP1 DUP4 MSTORE DUP3 ADD MSTORE PUSH23 0x121BDCDD081D1A5B595BDD5D080B481B9BC819DD595CDD PUSH1 0x4A SHL PUSH1 0x40 DUP3 ADD MSTORE LOG2 PUSH1 0x1 DUP1 SSTORE DUP1 RETURN JUMPDEST SWAP2 DUP4 SWAP2 DUP4 PUSH2 0x179F SWAP5 PUSH1 0x2 SLOAD AND SWAP2 SLOAD AND DUP8 PUSH1 0x40 MLOAD DUP1 SWAP7 DUP2 SWAP6 DUP3 SWAP5 PUSH4 0xA9059CBB PUSH1 0xE0 SHL DUP5 MSTORE PUSH1 0x4 DUP5 ADD PUSH2 0x2545 JUMP JUMPDEST SUB SWAP3 GAS CALL SWAP1 DUP2 ISZERO PUSH2 0xC12 JUMPI DUP5 SWAP2 PUSH2 0x17BF JUMPI JUMPDEST POP ISZERO PUSH2 0xE05 JUMPI PUSH0 DUP1 DUP1 PUSH2 0x172B JUMP JUMPDEST PUSH2 0x17D6 SWAP2 POP DUP3 RETURNDATASIZE DUP5 GT PUSH2 0x6A8 JUMPI PUSH2 0x69A DUP2 DUP4 PUSH2 0x2499 JUMP JUMPDEST PUSH0 PUSH2 0x17B1 JUMP JUMPDEST DUP2 PUSH1 0x6 SLOAD AND SWAP1 DUP3 DUP5 SLOAD AND SWAP1 DUP3 EXTCODESIZE ISZERO PUSH2 0xB9E JUMPI PUSH2 0x1811 SWAP3 PUSH0 SWAP3 DUP4 PUSH1 0x40 MLOAD DUP1 SWAP7 DUP2 SWAP6 DUP3 SWAP5 PUSH4 0xBD09001B PUSH1 0xE0 SHL DUP5 MSTORE PUSH1 0x4 DUP5 ADD PUSH2 0x2545 JUMP JUMPDEST SUB SWAP3 GAS CALL DUP1 ISZERO PUSH2 0x1833 JUMPI ISZERO PUSH2 0x1724 JUMPI PUSH2 0x182B SWAP2 SWAP7 POP PUSH2 0x2486 JUMP JUMPDEST PUSH0 SWAP5 PUSH0 PUSH2 0x1724 JUMP JUMPDEST PUSH1 0x40 MLOAD RETURNDATASIZE PUSH0 DUP3 RETURNDATACOPY RETURNDATASIZE SWAP1 REVERT JUMPDEST POP DUP2 PUSH1 0x6 SLOAD AND ISZERO ISZERO PUSH2 0x171F JUMP JUMPDEST PUSH1 0x40 MLOAD PUSH4 0x26C015AB PUSH1 0xE2 SHL DUP2 MSTORE PUSH1 0x4 SWAP1 REVERT JUMPDEST PUSH4 0x4E487B71 PUSH1 0xE0 SHL PUSH0 MSTORE PUSH1 0x21 PUSH1 0x4 MSTORE PUSH1 0x24 PUSH0 REVERT JUMPDEST CALLVALUE PUSH2 0xB9E JUMPI PUSH1 0x20 CALLDATASIZE PUSH1 0x3 NOT ADD SLT PUSH2 0xB9E JUMPI PUSH1 0x4 CALLDATALOAD PUSH0 MSTORE PUSH1 0xA PUSH1 0x20 MSTORE PUSH2 0x140 PUSH1 0x40 PUSH0 KECCAK256 PUSH1 0x1 DUP1 PUSH1 0xA0 SHL SUB DUP1 DUP3 SLOAD AND SWAP2 DUP2 PUSH1 0x1 DUP3 ADD SLOAD AND SWAP1 PUSH1 0x2 DUP2 ADD SLOAD PUSH1 0x3 DUP3 ADD SLOAD PUSH1 0x4 DUP4 ADD SLOAD PUSH1 0x5 DUP5 ADD SLOAD SWAP2 PUSH1 0x6 DUP6 ADD SLOAD SWAP4 PUSH1 0x8 PUSH1 0x7 DUP8 ADD SLOAD SWAP7 ADD SLOAD SWAP7 PUSH1 0x40 MLOAD SWAP10 DUP11 MSTORE PUSH1 0x20 DUP11 ADD MSTORE PUSH1 0x40 DUP10 ADD MSTORE PUSH1 0x60 DUP9 ADD MSTORE PUSH1 0x80 DUP8 ADD MSTORE PUSH1 0xA0 DUP7 ADD MSTORE PUSH1 0xC0 DUP6 ADD MSTORE PUSH1 0xE0 DUP5 ADD MSTORE PUSH2 0x1907 PUSH2 0x100 DUP5 ADD PUSH1 0xFF DUP4 AND PUSH2 0x243A JUMP JUMPDEST PUSH1 0x8 SHR AND PUSH2 0x120 DUP3 ADD MSTORE RETURN JUMPDEST CALLVALUE PUSH2 0xB9E JUMPI PUSH0 CALLDATASIZE PUSH1 0x3 NOT ADD SLT PUSH2 0xB9E JUMPI PUSH1 0x10 SLOAD PUSH1 0x40 MLOAD PUSH1 0x1 PUSH1 0x1 PUSH1 0xA0 SHL SUB SWAP1 SWAP2 AND DUP2 MSTORE PUSH1 0x20 SWAP1 RETURN JUMPDEST CALLVALUE PUSH2 0xB9E JUMPI PUSH0 CALLDATASIZE PUSH1 0x3 NOT ADD SLT PUSH2 0xB9E JUMPI PUSH2 0x1953 PUSH2 0x25BD JUMP JUMPDEST PUSH0 DUP1 SLOAD PUSH1 0x1 PUSH1 0x1 PUSH1 0xA0 SHL SUB NOT DUP2 AND DUP3 SSTORE PUSH1 0x1 PUSH1 0x1 PUSH1 0xA0 SHL SUB AND PUSH0 DUP1 MLOAD PUSH1 0x20 PUSH2 0x274A DUP4 CODECOPY DUP2 MLOAD SWAP2 MSTORE DUP3 DUP1 LOG3 STOP JUMPDEST CALLVALUE PUSH2 0xB9E JUMPI PUSH1 0x20 CALLDATASIZE PUSH1 0x3 NOT ADD SLT PUSH2 0xB9E JUMPI PUSH1 0x4 CALLDATALOAD PUSH0 MSTORE PUSH1 0xC PUSH1 0x20 MSTORE PUSH1 0x20 PUSH1 0x40 PUSH0 KECCAK256 SLOAD PUSH1 0x40 MLOAD SWAP1 DUP2 MSTORE RETURN JUMPDEST CALLVALUE PUSH2 0xB9E JUMPI PUSH0 CALLDATASIZE PUSH1 0x3 NOT ADD SLT PUSH2 0xB9E JUMPI PUSH1 0x5 SLOAD PUSH1 0x40 MLOAD PUSH1 0x1 PUSH1 0x1 PUSH1 0xA0 SHL SUB SWAP1 SWAP2 AND DUP2 MSTORE PUSH1 0x20 SWAP1 RETURN JUMPDEST CALLVALUE PUSH2 0xB9E JUMPI PUSH0 CALLDATASIZE PUSH1 0x3 NOT ADD SLT PUSH2 0xB9E JUMPI PUSH1 0x4 SLOAD PUSH1 0x40 MLOAD PUSH1 0x1 PUSH1 0x1 PUSH1 0xA0 SHL SUB SWAP1 SWAP2 AND DUP2 MSTORE PUSH1 0x20 SWAP1 RETURN JUMPDEST CALLVALUE PUSH2 0xB9E JUMPI PUSH0 CALLDATASIZE PUSH1 0x3 NOT ADD SLT PUSH2 0xB9E JUMPI PUSH1 0x20 PUSH1 0xFF PUSH0 SLOAD PUSH1 0xA0 SHR AND PUSH1 0x40 MLOAD SWAP1 ISZERO ISZERO DUP2 MSTORE RETURN JUMPDEST CALLVALUE PUSH2 0xB9E JUMPI PUSH0 CALLDATASIZE PUSH1 0x3 NOT ADD SLT PUSH2 0xB9E JUMPI PUSH1 0x20 PUSH1 0x40 MLOAD PUSH1 0x1E DUP2 MSTORE RETURN JUMPDEST CALLVALUE PUSH2 0xB9E JUMPI PUSH1 0x20 CALLDATASIZE PUSH1 0x3 NOT ADD SLT PUSH2 0xB9E JUMPI PUSH1 0x1 PUSH1 0x1 PUSH1 0xA0 SHL SUB PUSH2 0x1A59 PUSH2 0x2424 JUMP JUMPDEST AND PUSH0 MSTORE PUSH1 0xB PUSH1 0x20 MSTORE PUSH1 0x20 PUSH1 0x40 PUSH0 KECCAK256 SLOAD ISZERO ISZERO PUSH1 0x40 MLOAD SWAP1 DUP2 MSTORE RETURN JUMPDEST CALLVALUE PUSH2 0xB9E JUMPI PUSH0 CALLDATASIZE PUSH1 0x3 NOT ADD SLT PUSH2 0xB9E JUMPI PUSH1 0x20 PUSH1 0x40 MLOAD PUSH2 0x1F4 DUP2 MSTORE RETURN JUMPDEST CALLVALUE PUSH2 0xB9E JUMPI PUSH0 CALLDATASIZE PUSH1 0x3 NOT ADD SLT PUSH2 0xB9E JUMPI PUSH1 0x2 SLOAD PUSH1 0x40 MLOAD PUSH1 0x1 PUSH1 0x1 PUSH1 0xA0 SHL SUB SWAP1 SWAP2 AND DUP2 MSTORE PUSH1 0x20 SWAP1 RETURN JUMPDEST CALLVALUE PUSH2 0xB9E JUMPI PUSH1 0x40 CALLDATASIZE PUSH1 0x3 NOT ADD SLT PUSH2 0xB9E JUMPI PUSH1 0x24 CALLDATALOAD PUSH1 0x4 CALLDATALOAD PUSH2 0x1AD5 PUSH2 0x25E8 JUMP JUMPDEST PUSH2 0x1ADD PUSH2 0x259A JUMP JUMPDEST DUP1 PUSH0 MSTORE PUSH1 0x20 PUSH1 0xA DUP2 MSTORE PUSH1 0x40 PUSH0 KECCAK256 SWAP1 PUSH1 0x8 DUP3 ADD PUSH1 0xFF DUP2 SLOAD AND PUSH1 0x6 DUP2 LT ISZERO PUSH2 0x185D JUMPI PUSH1 0x1 SUB PUSH2 0x1D4A JUMPI DUP3 SLOAD PUSH1 0x1 PUSH1 0x1 PUSH1 0xA0 SHL SUB SWAP2 SWAP1 DUP3 AND CALLER EQ PUSH2 0x1D38 JUMPI CALLER PUSH0 MSTORE PUSH1 0xB DUP4 MSTORE PUSH1 0x40 PUSH0 KECCAK256 SLOAD PUSH2 0xC2F JUMPI DUP6 PUSH0 MSTORE PUSH1 0xC DUP4 MSTORE PUSH1 0x40 PUSH0 KECCAK256 SLOAD PUSH2 0xC1D JUMPI PUSH1 0x5 DUP5 ADD SLOAD PUSH2 0x258 DUP2 ADD DUP1 SWAP2 GT PUSH2 0x78D JUMPI TIMESTAMP LT ISZERO PUSH2 0x1D26 JUMPI PUSH1 0x24 DUP4 DUP4 PUSH1 0x5 SLOAD AND PUSH1 0x40 MLOAD SWAP3 DUP4 DUP1 SWAP3 PUSH4 0x31A9108F PUSH1 0xE1 SHL DUP3 MSTORE DUP12 PUSH1 0x4 DUP4 ADD MSTORE GAS STATICCALL SWAP1 DUP2 ISZERO PUSH2 0x1833 JUMPI PUSH0 SWAP2 PUSH2 0x1D09 JUMPI JUMPDEST POP DUP3 CALLER SWAP2 AND SUB PUSH2 0xBD1 JUMPI PUSH0 SWAP2 DUP4 DUP2 PUSH1 0x6 SLOAD AND DUP1 PUSH2 0x1C97 JUMPI JUMPDEST POP POP PUSH2 0x1BA7 DUP4 PUSH1 0x4 DUP8 ADD SLOAD PUSH2 0x245D JUMP JUMPDEST SWAP1 DUP2 PUSH2 0x1C31 JUMPI JUMPDEST POP POP DUP4 PUSH1 0x1 PUSH32 0x4480FDF0275FF0748200AB3CDCC450685E845D860FDC94461FEA4E0DC0362177 SWAP6 ADD CALLER PUSH1 0x1 DUP1 PUSH1 0xA0 SHL SUB NOT DUP3 SLOAD AND OR SWAP1 SSTORE DUP7 PUSH1 0x3 DUP3 ADD SSTORE PUSH1 0x6 TIMESTAMP SWAP2 ADD SSTORE PUSH1 0x2 PUSH1 0xFF NOT DUP3 SLOAD AND OR SWAP1 SSTORE DUP4 PUSH0 MSTORE PUSH1 0xF DUP3 MSTORE PUSH1 0x40 PUSH0 KECCAK256 SSTORE CALLER PUSH0 MSTORE PUSH1 0xB DUP2 MSTORE DUP3 PUSH1 0x40 PUSH0 KECCAK256 SSTORE DUP4 PUSH0 MSTORE PUSH1 0xC DUP2 MSTORE DUP3 PUSH1 0x40 PUSH0 KECCAK256 SSTORE PUSH1 0x40 MLOAD SWAP4 DUP5 MSTORE CALLER SWAP4 LOG3 PUSH1 0x1 DUP1 SSTORE STOP JUMPDEST PUSH2 0x1C5B PUSH0 SWAP3 DUP7 SWAP3 PUSH1 0x2 SLOAD AND SWAP1 PUSH1 0x40 MLOAD SWAP5 DUP6 DUP1 SWAP5 DUP2 SWAP4 PUSH4 0x23B872DD PUSH1 0xE0 SHL DUP4 MSTORE ADDRESS CALLER PUSH1 0x4 DUP6 ADD PUSH2 0x2578 JUMP JUMPDEST SUB SWAP3 GAS CALL SWAP1 DUP2 ISZERO PUSH2 0x1833 JUMPI PUSH0 SWAP2 PUSH2 0x1C7A JUMPI JUMPDEST POP ISZERO PUSH2 0xAF6 JUMPI DUP7 DUP1 PUSH2 0x1BAE JUMP JUMPDEST PUSH2 0x1C91 SWAP2 POP DUP5 RETURNDATASIZE DUP7 GT PUSH2 0x6A8 JUMPI PUSH2 0x69A DUP2 DUP4 PUSH2 0x2499 JUMP JUMPDEST DUP8 PUSH2 0x1C6D JUMP JUMPDEST PUSH0 SWAP3 SWAP5 POP PUSH2 0x1CC1 SWAP1 PUSH1 0x4 DUP9 ADD SLOAD PUSH1 0x40 MLOAD SWAP5 DUP6 DUP1 SWAP5 DUP2 SWAP4 PUSH4 0x24BF68E1 PUSH1 0xE2 SHL DUP4 MSTORE CALLER PUSH1 0x4 DUP5 ADD PUSH2 0x2545 JUMP JUMPDEST SUB SWAP3 GAS CALL SWAP1 DUP2 ISZERO PUSH2 0x1833 JUMPI PUSH0 SWAP2 PUSH2 0x1CDC JUMPI JUMPDEST POP SWAP2 DUP4 DUP9 PUSH2 0x1B97 JUMP JUMPDEST SWAP1 POP DUP4 DUP2 DUP2 RETURNDATASIZE DUP4 GT PUSH2 0x1D02 JUMPI JUMPDEST PUSH2 0x1CF3 DUP2 DUP4 PUSH2 0x2499 JUMP JUMPDEST DUP2 ADD SUB SLT PUSH2 0xB9E JUMPI MLOAD DUP8 PUSH2 0x1CD3 JUMP JUMPDEST POP RETURNDATASIZE PUSH2 0x1CE9 JUMP JUMPDEST PUSH2 0x1D20 SWAP2 POP DUP5 RETURNDATASIZE DUP7 GT PUSH2 0xC0B JUMPI PUSH2 0xBFD DUP2 DUP4 PUSH2 0x2499 JUMP JUMPDEST DUP8 PUSH2 0x1B7F JUMP JUMPDEST PUSH1 0x40 MLOAD PUSH4 0x7382E321 PUSH1 0xE0 SHL DUP2 MSTORE PUSH1 0x4 SWAP1 REVERT JUMPDEST PUSH1 0x40 MLOAD PUSH4 0x50C8FD5 PUSH1 0xE0 SHL DUP2 MSTORE PUSH1 0x4 SWAP1 REVERT JUMPDEST PUSH1 0x40 MLOAD PUSH4 0x71007189 PUSH1 0xE0 SHL DUP2 MSTORE PUSH1 0x4 SWAP1 REVERT JUMPDEST CALLVALUE PUSH2 0xB9E JUMPI PUSH0 CALLDATASIZE PUSH1 0x3 NOT ADD SLT PUSH2 0xB9E JUMPI PUSH1 0x20 PUSH1 0x40 MLOAD PUSH3 0x2A300 DUP2 MSTORE RETURN JUMPDEST CALLVALUE PUSH2 0xB9E JUMPI PUSH1 0x20 CALLDATASIZE PUSH1 0x3 NOT ADD SLT PUSH2 0xB9E JUMPI PUSH0 PUSH2 0x120 PUSH1 0x40 MLOAD PUSH2 0x1D9A DUP2 PUSH2 0x246A JUMP JUMPDEST DUP3 DUP2 MSTORE DUP3 PUSH1 0x20 DUP3 ADD MSTORE DUP3 PUSH1 0x40 DUP3 ADD MSTORE DUP3 PUSH1 0x60 DUP3 ADD MSTORE DUP3 PUSH1 0x80 DUP3 ADD MSTORE DUP3 PUSH1 0xA0 DUP3 ADD MSTORE DUP3 PUSH1 0xC0 DUP3 ADD MSTORE DUP3 PUSH1 0xE0 DUP3 ADD MSTORE DUP3 PUSH2 0x100 DUP3 ADD MSTORE ADD MSTORE PUSH1 0x4 CALLDATALOAD PUSH0 MSTORE PUSH1 0xA PUSH1 0x20 MSTORE PUSH1 0x40 PUSH0 KECCAK256 PUSH1 0x8 PUSH1 0x40 MLOAD SWAP2 PUSH2 0x1DED DUP4 PUSH2 0x246A JUMP JUMPDEST DUP1 SLOAD PUSH1 0x1 PUSH1 0x1 PUSH1 0xA0 SHL SUB SWAP1 DUP2 AND DUP5 MSTORE PUSH1 0x1 DUP3 ADD SLOAD AND PUSH1 0x20 DUP5 ADD MSTORE PUSH1 0x2 DUP2 ADD SLOAD PUSH1 0x40 DUP5 ADD MSTORE PUSH1 0x3 DUP2 ADD SLOAD PUSH1 0x60 DUP5 ADD MSTORE PUSH1 0x4 DUP2 ADD SLOAD PUSH1 0x80 DUP5 ADD MSTORE PUSH1 0x5 DUP2 ADD SLOAD PUSH1 0xA0 DUP5 ADD MSTORE PUSH1 0x6 DUP1 DUP3 ADD SLOAD PUSH1 0xC0 DUP6 ADD MSTORE PUSH1 0x7 DUP3 ADD SLOAD PUSH1 0xE0 DUP6 ADD MSTORE SWAP2 ADD SLOAD PUSH1 0xFF DUP2 AND SWAP3 SWAP2 DUP4 LT ISZERO PUSH2 0x185D JUMPI PUSH2 0x140 SWAP3 PUSH2 0x100 DUP4 ADD MSTORE PUSH1 0x1 DUP1 PUSH1 0xA0 SHL SUB SWAP1 PUSH1 0x8 SHR AND PUSH2 0x120 DUP3 ADD MSTORE PUSH1 0x40 MLOAD SWAP1 PUSH1 0x1 DUP1 PUSH1 0xA0 SHL SUB DUP2 MLOAD AND DUP3 MSTORE PUSH1 0x1 DUP1 PUSH1 0xA0 SHL SUB PUSH1 0x20 DUP3 ADD MLOAD AND PUSH1 0x20 DUP4 ADD MSTORE PUSH1 0x40 DUP2 ADD MLOAD PUSH1 0x40 DUP4 ADD MSTORE PUSH1 0x60 DUP2 ADD MLOAD PUSH1 0x60 DUP4 ADD MSTORE PUSH1 0x80 DUP2 ADD MLOAD PUSH1 0x80 DUP4 ADD MSTORE PUSH1 0xA0 DUP2 ADD MLOAD PUSH1 0xA0 DUP4 ADD MSTORE PUSH1 0xC0 DUP2 ADD MLOAD PUSH1 0xC0 DUP4 ADD MSTORE PUSH1 0xE0 DUP2 ADD MLOAD PUSH1 0xE0 DUP4 ADD MSTORE PUSH2 0x1EE2 PUSH2 0x100 DUP3 ADD MLOAD PUSH2 0x100 DUP5 ADD SWAP1 PUSH2 0x243A JUMP JUMPDEST PUSH2 0x120 SWAP1 DUP2 ADD MLOAD PUSH1 0x1 PUSH1 0x1 PUSH1 0xA0 SHL SUB AND SWAP1 DUP3 ADD MSTORE RETURN JUMPDEST CALLVALUE PUSH2 0xB9E JUMPI PUSH0 CALLDATASIZE PUSH1 0x3 NOT ADD SLT PUSH2 0xB9E JUMPI PUSH2 0x1F10 PUSH2 0x25BD JUMP JUMPDEST PUSH0 SLOAD PUSH1 0xFF DUP2 PUSH1 0xA0 SHR AND ISZERO PUSH2 0x1F55 JUMPI PUSH1 0xFF PUSH1 0xA0 SHL NOT AND PUSH0 SSTORE PUSH1 0x40 MLOAD CALLER DUP2 MSTORE PUSH32 0x5DB9EE0A495BF2E6FF9C91A7834C1BA4FDD244A5E8AA4E537BD38AEAE4B073AA SWAP1 PUSH1 0x20 SWAP1 LOG1 STOP JUMPDEST PUSH1 0x40 MLOAD PUSH4 0x8DFC202B PUSH1 0xE0 SHL DUP2 MSTORE PUSH1 0x4 SWAP1 REVERT JUMPDEST CALLVALUE PUSH2 0xB9E JUMPI PUSH0 CALLDATASIZE PUSH1 0x3 NOT ADD SLT PUSH2 0xB9E JUMPI PUSH1 0x20 PUSH1 0x7 SLOAD PUSH1 0x40 MLOAD SWAP1 DUP2 MSTORE RETURN JUMPDEST CALLVALUE PUSH2 0xB9E JUMPI PUSH0 CALLDATASIZE PUSH1 0x3 NOT ADD SLT PUSH2 0xB9E JUMPI PUSH1 0x6 SLOAD PUSH1 0x40 MLOAD PUSH1 0x1 PUSH1 0x1 PUSH1 0xA0 SHL SUB SWAP1 SWAP2 AND DUP2 MSTORE PUSH1 0x20 SWAP1 RETURN JUMPDEST CALLVALUE PUSH2 0xB9E JUMPI PUSH0 CALLDATASIZE PUSH1 0x3 NOT ADD SLT PUSH2 0xB9E JUMPI PUSH1 0x20 PUSH1 0x9 SLOAD PUSH1 0x40 MLOAD SWAP1 DUP2 MSTORE RETURN JUMPDEST CALLVALUE PUSH2 0xB9E JUMPI PUSH1 0x80 CALLDATASIZE PUSH1 0x3 NOT ADD SLT PUSH2 0xB9E JUMPI PUSH1 0x24 PUSH1 0x1 PUSH1 0x1 PUSH1 0xA0 SHL SUB DUP2 CALLDATALOAD DUP2 DUP2 AND SWAP2 PUSH1 0x4 CALLDATALOAD SWAP2 DUP4 DUP2 SUB PUSH2 0xB9E JUMPI PUSH1 0x1 PUSH1 0x1 PUSH1 0x40 SHL SUB SWAP2 PUSH1 0x44 CALLDATALOAD SWAP1 PUSH1 0x64 CALLDATALOAD DUP5 DUP2 GT PUSH2 0xB9E JUMPI CALLDATASIZE PUSH1 0x23 DUP3 ADD SLT ISZERO PUSH2 0xB9E JUMPI DUP1 PUSH1 0x4 ADD CALLDATALOAD SWAP4 DUP6 DUP6 GT PUSH2 0xB9E JUMPI DUP9 DUP3 ADD SWAP2 DUP10 DUP7 CALLDATASIZE SWAP3 ADD ADD GT PUSH2 0xB9E JUMPI PUSH2 0x203B PUSH2 0x259A JUMP JUMPDEST DUP7 PUSH0 MSTORE PUSH1 0x20 SWAP5 PUSH1 0xA DUP7 MSTORE PUSH1 0x40 PUSH0 KECCAK256 SWAP5 PUSH1 0x8 DUP7 ADD SWAP8 PUSH1 0xFF DUP10 SLOAD AND PUSH1 0x6 DUP2 LT ISZERO PUSH2 0x23B2 JUMPI PUSH1 0x2 SUB PUSH2 0x23A0 JUMPI DUP6 DUP8 SLOAD AND DUP12 EQ ISZERO DUP1 PUSH2 0x2390 JUMPI JUMPDEST PUSH2 0x237E JUMPI PUSH2 0x12B NOT TIMESTAMP ADD TIMESTAMP DUP2 GT PUSH2 0x236B JUMPI DUP3 GT ISZERO PUSH2 0x2359 JUMPI PUSH2 0x2094 CALLDATASIZE DUP5 DUP8 PUSH2 0x24BC JUMP JUMPDEST DUP9 DUP2 MLOAD SWAP2 ADD KECCAK256 PUSH0 MSTORE PUSH1 0xD DUP9 MSTORE PUSH1 0xFF PUSH1 0x40 PUSH0 KECCAK256 SLOAD AND PUSH2 0x2347 JUMPI PUSH1 0x40 MLOAD SWAP1 DUP9 DUP3 ADD SWAP3 DUP12 DUP5 MSTORE PUSH1 0x1 DUP1 PUSH1 0x60 SHL SUB NOT DUP7 PUSH1 0x60 SHL AND PUSH1 0x40 DUP5 ADD MSTORE PUSH1 0x54 DUP4 ADD MSTORE CHAINID PUSH1 0x74 DUP4 ADD MSTORE PUSH1 0x74 DUP3 MSTORE PUSH1 0xA0 DUP3 ADD SWAP1 DUP3 DUP3 LT SWAP1 DUP3 GT OR PUSH2 0x2334 JUMPI PUSH1 0x40 MSTORE MLOAD SWAP1 KECCAK256 PUSH28 0xCA2BA3432B932BAB69029B4B3B732B21026B2B9B9B0B3B29D051999 PUSH1 0x21 SHL PUSH0 MSTORE PUSH1 0x1C MSTORE PUSH2 0x2137 PUSH2 0x212E PUSH1 0x3C PUSH0 KECCAK256 PUSH2 0x2128 CALLDATASIZE DUP6 DUP9 PUSH2 0x24BC JUMP JUMPDEST SWAP1 PUSH2 0x2608 JUMP JUMPDEST SWAP1 SWAP3 SWAP2 SWAP3 PUSH2 0x2642 JUMP JUMPDEST DUP5 DUP1 PUSH1 0x3 SLOAD AND SWAP2 AND SUB PUSH2 0x2322 JUMPI PUSH1 0x3 SWAP3 PUSH2 0x2152 SWAP2 CALLDATASIZE SWAP2 PUSH2 0x24BC JUMP JUMPDEST DUP6 DUP2 MLOAD SWAP2 ADD KECCAK256 PUSH0 MSTORE PUSH1 0xD DUP6 MSTORE PUSH2 0x2179 PUSH1 0x40 PUSH0 KECCAK256 SWAP2 PUSH1 0xFF NOT SWAP3 PUSH1 0x1 DUP5 DUP3 SLOAD AND OR SWAP1 SSTORE DUP8 PUSH2 0x2501 JUMP JUMPDEST DUP6 SLOAD AND OR DUP5 SSTORE TIMESTAMP PUSH1 0x7 DUP4 ADD SSTORE DUP2 SLOAD DUP2 AND DUP7 DUP2 EQ SWAP8 SWAP1 DUP9 ISZERO PUSH2 0x231C JUMPI POP DUP2 PUSH1 0x1 DUP5 ADD SLOAD AND SWAP8 JUMPDEST ISZERO PUSH2 0x2311 JUMPI PUSH1 0x2 DUP4 ADD SLOAD SWAP5 JUMPDEST DUP3 PUSH1 0x5 SLOAD AND SWAP6 DUP7 EXTCODESIZE ISZERO PUSH2 0xB9E JUMPI PUSH1 0x40 MLOAD PUSH0 DUP2 PUSH1 0x44 DUP2 DUP4 PUSH4 0x28A37507 PUSH1 0xE1 SHL SWAP13 DUP14 DUP4 MSTORE DUP8 PUSH1 0x4 DUP5 ADD MSTORE PUSH1 0x64 DUP11 DUP5 ADD MSTORE GAS CALL SWAP1 DUP2 PUSH2 0x2302 JUMPI JUMPDEST POP PUSH2 0x22FC JUMPI PUSH0 DUP1 MLOAD PUSH1 0x20 PUSH2 0x276A DUP4 CODECOPY DUP2 MLOAD SWAP2 MSTORE DUP7 PUSH1 0x40 MLOAD PUSH1 0x64 DUP2 MSTORE LOG2 JUMPDEST DUP4 SLOAD SWAP9 DUP4 AND SWAP9 DUP4 AND DUP10 SUB PUSH2 0x22F2 JUMPI PUSH1 0x2 DUP5 ADD SLOAD JUMPDEST DUP4 PUSH1 0x5 SLOAD AND DUP1 EXTCODESIZE ISZERO PUSH2 0xB9E JUMPI PUSH0 DUP6 SWAP5 PUSH1 0x44 PUSH1 0xC SWAP11 DUP4 PUSH1 0x1E SWAP6 PUSH1 0x40 MLOAD SWAP7 DUP8 SWAP6 DUP7 SWAP5 DUP6 MSTORE DUP10 PUSH1 0x4 DUP7 ADD MSTORE DUP5 ADD MSTORE GAS CALL SWAP1 DUP2 PUSH2 0x22E3 JUMPI JUMPDEST POP PUSH2 0x22DD JUMPI PUSH0 DUP1 MLOAD PUSH1 0x20 PUSH2 0x276A DUP4 CODECOPY DUP2 MLOAD SWAP2 MSTORE DUP7 PUSH1 0x40 MLOAD PUSH1 0x1E DUP2 MSTORE LOG2 JUMPDEST SLOAD PUSH1 0x8 SHR AND SWAP2 DUP2 DUP2 SLOAD AND DUP1 SWAP4 EQ SWAP3 DUP4 PUSH0 EQ PUSH2 0x22D7 JUMPI POP DUP2 PUSH1 0x1 DUP3 ADD SLOAD AND SWAP3 JUMPDEST ISZERO PUSH2 0x22CD JUMPI PUSH1 0x3 ADD SLOAD SWAP2 JUMPDEST AND PUSH0 MSTORE PUSH1 0xB DUP3 MSTORE PUSH0 PUSH1 0x40 DUP2 KECCAK256 SSTORE PUSH0 MSTORE MSTORE PUSH0 PUSH1 0x40 DUP2 KECCAK256 SSTORE PUSH32 0x3B3B5126E644EA297563595413600AB9DCD3D089CBFB03E7FAEDECDA6CCF3C76 PUSH0 DUP1 LOG4 PUSH1 0x1 DUP1 SSTORE STOP JUMPDEST PUSH1 0x2 ADD SLOAD SWAP2 PUSH2 0x228D JUMP JUMPDEST SWAP3 PUSH2 0x2282 JUMP JUMPDEST POP PUSH2 0x2263 JUMP JUMPDEST PUSH2 0x22EC SWAP1 PUSH2 0x2486 JUMP JUMPDEST DUP12 PUSH2 0x2246 JUMP JUMPDEST PUSH1 0x3 DUP5 ADD SLOAD PUSH2 0x2212 JUMP JUMPDEST POP PUSH2 0x21FE JUMP JUMPDEST PUSH2 0x230B SWAP1 PUSH2 0x2486 JUMP JUMPDEST DUP12 PUSH2 0x21E1 JUMP JUMPDEST PUSH1 0x3 DUP4 ADD SLOAD SWAP5 PUSH2 0x21AA JUMP JUMPDEST SWAP8 PUSH2 0x219E JUMP JUMPDEST PUSH1 0x40 MLOAD PUSH4 0x8BAA579F PUSH1 0xE0 SHL DUP2 MSTORE PUSH1 0x4 SWAP1 REVERT JUMPDEST DUP13 PUSH4 0x4E487B71 PUSH1 0xE0 SHL PUSH0 MSTORE PUSH1 0x41 PUSH1 0x4 MSTORE PUSH0 REVERT JUMPDEST PUSH1 0x40 MLOAD PUSH4 0x900BB2C9 PUSH1 0xE0 SHL DUP2 MSTORE PUSH1 0x4 SWAP1 REVERT JUMPDEST PUSH1 0x40 MLOAD PUSH4 0x819BDCD PUSH1 0xE0 SHL DUP2 MSTORE PUSH1 0x4 SWAP1 REVERT JUMPDEST DUP13 PUSH4 0x4E487B71 PUSH1 0xE0 SHL PUSH0 MSTORE PUSH1 0x11 PUSH1 0x4 MSTORE PUSH0 REVERT JUMPDEST PUSH1 0x40 MLOAD PUSH4 0x93A5F3C7 PUSH1 0xE0 SHL DUP2 MSTORE PUSH1 0x4 SWAP1 REVERT JUMPDEST POP DUP6 PUSH1 0x1 DUP9 ADD SLOAD AND DUP12 EQ ISZERO PUSH2 0x2071 JUMP JUMPDEST PUSH1 0x40 MLOAD PUSH4 0xB78EA157 PUSH1 0xE0 SHL DUP2 MSTORE PUSH1 0x4 SWAP1 REVERT JUMPDEST DUP13 PUSH4 0x4E487B71 PUSH1 0xE0 SHL PUSH0 MSTORE PUSH1 0x21 PUSH1 0x4 MSTORE PUSH0 REVERT JUMPDEST CALLVALUE PUSH2 0xB9E JUMPI PUSH1 0x20 CALLDATASIZE PUSH1 0x3 NOT ADD SLT PUSH2 0xB9E JUMPI PUSH1 0x4 CALLDATALOAD PUSH0 MSTORE PUSH1 0xF PUSH1 0x20 MSTORE PUSH1 0x20 PUSH1 0x40 PUSH0 KECCAK256 SLOAD PUSH1 0x40 MLOAD SWAP1 DUP2 MSTORE RETURN JUMPDEST CALLVALUE PUSH2 0xB9E JUMPI PUSH0 CALLDATASIZE PUSH1 0x3 NOT ADD SLT PUSH2 0xB9E JUMPI PUSH1 0x20 PUSH1 0x40 MLOAD PUSH2 0x258 DUP2 MSTORE RETURN JUMPDEST CALLVALUE PUSH2 0xB9E JUMPI PUSH0 CALLDATASIZE PUSH1 0x3 NOT ADD SLT PUSH2 0xB9E JUMPI DUP1 PUSH1 0x64 PUSH1 0x20 SWAP3 MSTORE RETURN JUMPDEST PUSH1 0x4 CALLDATALOAD SWAP1 PUSH1 0x1 PUSH1 0x1 PUSH1 0xA0 SHL SUB DUP3 AND DUP3 SUB PUSH2 0xB9E JUMPI JUMP JUMPDEST SWAP1 PUSH1 0x6 DUP3 LT ISZERO PUSH2 0x185D JUMPI MSTORE JUMP JUMPDEST PUSH1 0x40 SWAP1 PUSH1 0x3 NOT ADD SLT PUSH2 0xB9E JUMPI PUSH1 0x4 CALLDATALOAD SWAP1 PUSH1 0x24 CALLDATALOAD SWAP1 JUMP JUMPDEST SWAP2 SWAP1 DUP3 SUB SWAP2 DUP3 GT PUSH2 0x78D JUMPI JUMP JUMPDEST PUSH2 0x140 DUP2 ADD SWAP1 DUP2 LT PUSH1 0x1 PUSH1 0x1 PUSH1 0x40 SHL SUB DUP3 GT OR PUSH2 0xBA9 JUMPI PUSH1 0x40 MSTORE JUMP JUMPDEST PUSH1 0x1 PUSH1 0x1 PUSH1 0x40 SHL SUB DUP2 GT PUSH2 0xBA9 JUMPI PUSH1 0x40 MSTORE JUMP JUMPDEST PUSH1 0x1F SWAP1 SWAP2 ADD PUSH1 0x1F NOT AND DUP2 ADD SWAP1 PUSH1 0x1 PUSH1 0x1 PUSH1 0x40 SHL SUB DUP3 GT SWAP1 DUP3 LT OR PUSH2 0xBA9 JUMPI PUSH1 0x40 MSTORE JUMP JUMPDEST SWAP2 SWAP3 SWAP2 PUSH1 0x1 PUSH1 0x1 PUSH1 0x40 SHL SUB DUP3 GT PUSH2 0xBA9 JUMPI PUSH1 0x40 MLOAD SWAP2 PUSH2 0x24E5 PUSH1 0x1F DUP3 ADD PUSH1 0x1F NOT AND PUSH1 0x20 ADD DUP5 PUSH2 0x2499 JUMP JUMPDEST DUP3 SWAP5 DUP2 DUP5 MSTORE DUP2 DUP4 ADD GT PUSH2 0xB9E JUMPI DUP3 DUP2 PUSH1 0x20 SWAP4 DUP5 PUSH0 SWAP7 ADD CALLDATACOPY ADD ADD MSTORE JUMP JUMPDEST DUP1 SLOAD PUSH2 0x100 PUSH1 0x1 PUSH1 0xA8 SHL SUB NOT AND PUSH1 0x8 SWAP3 SWAP1 SWAP3 SHL PUSH2 0x100 PUSH1 0x1 PUSH1 0xA8 SHL SUB AND SWAP2 SWAP1 SWAP2 OR SWAP1 SSTORE JUMP JUMPDEST SWAP1 DUP2 PUSH1 0x20 SWAP2 SUB SLT PUSH2 0xB9E JUMPI MLOAD PUSH1 0x1 PUSH1 0x1 PUSH1 0xA0 SHL SUB DUP2 AND DUP2 SUB PUSH2 0xB9E JUMPI SWAP1 JUMP JUMPDEST PUSH1 0x1 PUSH1 0x1 PUSH1 0xA0 SHL SUB SWAP1 SWAP2 AND DUP2 MSTORE PUSH1 0x20 DUP2 ADD SWAP2 SWAP1 SWAP2 MSTORE PUSH1 0x40 ADD SWAP1 JUMP JUMPDEST SWAP1 DUP2 PUSH1 0x20 SWAP2 SUB SLT PUSH2 0xB9E JUMPI MLOAD DUP1 ISZERO ISZERO DUP2 SUB PUSH2 0xB9E JUMPI SWAP1 JUMP JUMPDEST PUSH1 0x1 PUSH1 0x1 PUSH1 0xA0 SHL SUB SWAP2 DUP3 AND DUP2 MSTORE SWAP2 AND PUSH1 0x20 DUP3 ADD MSTORE PUSH1 0x40 DUP2 ADD SWAP2 SWAP1 SWAP2 MSTORE PUSH1 0x60 ADD SWAP1 JUMP JUMPDEST PUSH1 0x2 PUSH1 0x1 SLOAD EQ PUSH2 0x25AB JUMPI PUSH1 0x2 PUSH1 0x1 SSTORE JUMP JUMPDEST PUSH1 0x40 MLOAD PUSH4 0x3EE5AEB5 PUSH1 0xE0 SHL DUP2 MSTORE PUSH1 0x4 SWAP1 REVERT JUMPDEST PUSH0 SLOAD PUSH1 0x1 PUSH1 0x1 PUSH1 0xA0 SHL SUB AND CALLER SUB PUSH2 0x25D0 JUMPI JUMP JUMPDEST PUSH1 0x40 MLOAD PUSH4 0x118CDAA7 PUSH1 0xE0 SHL DUP2 MSTORE CALLER PUSH1 0x4 DUP3 ADD MSTORE PUSH1 0x24 SWAP1 REVERT JUMPDEST PUSH1 0xFF PUSH0 SLOAD PUSH1 0xA0 SHR AND PUSH2 0x25F6 JUMPI JUMP JUMPDEST PUSH1 0x40 MLOAD PUSH4 0xD93C0665 PUSH1 0xE0 SHL DUP2 MSTORE PUSH1 0x4 SWAP1 REVERT JUMPDEST DUP2 MLOAD SWAP2 SWAP1 PUSH1 0x41 DUP4 SUB PUSH2 0x2638 JUMPI PUSH2 0x2631 SWAP3 POP PUSH1 0x20 DUP3 ADD MLOAD SWAP1 PUSH1 0x60 PUSH1 0x40 DUP5 ADD MLOAD SWAP4 ADD MLOAD PUSH0 BYTE SWAP1 PUSH2 0x26B1 JUMP JUMPDEST SWAP2 SWAP3 SWAP1 SWAP2 SWAP1 JUMP JUMPDEST POP POP PUSH0 SWAP2 PUSH1 0x2 SWAP2 SWAP1 JUMP JUMPDEST PUSH1 0x4 DUP2 LT ISZERO PUSH2 0x185D JUMPI DUP1 PUSH2 0x2654 JUMPI POP POP JUMP JUMPDEST PUSH1 0x1 DUP2 SUB PUSH2 0x266E JUMPI PUSH1 0x40 MLOAD PUSH4 0xF645EEDF PUSH1 0xE0 SHL DUP2 MSTORE PUSH1 0x4 SWAP1 REVERT JUMPDEST PUSH1 0x2 DUP2 SUB PUSH2 0x268F JUMPI PUSH1 0x40 MLOAD PUSH4 0xFCE698F7 PUSH1 0xE0 SHL DUP2 MSTORE PUSH1 0x4 DUP2 ADD DUP4 SWAP1 MSTORE PUSH1 0x24 SWAP1 REVERT JUMPDEST PUSH1 0x3 EQ PUSH2 0x2699 JUMPI POP JUMP JUMPDEST PUSH1 0x24 SWAP1 PUSH1 0x40 MLOAD SWAP1 PUSH4 0x35E2F383 PUSH1 0xE2 SHL DUP3 MSTORE PUSH1 0x4 DUP3 ADD MSTORE REVERT JUMPDEST SWAP2 SWAP1 PUSH16 0xA2A8918CA85BAFE22016D0B997E4DF60 PUSH1 0x1 PUSH1 0xFF SHL SUB DUP5 GT PUSH2 0x271E JUMPI SWAP2 PUSH1 0x20 SWAP4 PUSH1 0x80 SWAP3 PUSH1 0xFF PUSH0 SWAP6 PUSH1 0x40 MLOAD SWAP5 DUP6 MSTORE AND DUP7 DUP5 ADD MSTORE PUSH1 0x40 DUP4 ADD MSTORE PUSH1 0x60 DUP3 ADD MSTORE DUP3 DUP1 MSTORE PUSH1 0x1 GAS STATICCALL ISZERO PUSH2 0x1833 JUMPI PUSH0 MLOAD PUSH1 0x1 PUSH1 0x1 PUSH1 0xA0 SHL SUB DUP2 AND ISZERO PUSH2 0x2714 JUMPI SWAP1 PUSH0 SWAP1 PUSH0 SWAP1 JUMP JUMPDEST POP PUSH0 SWAP1 PUSH1 0x1 SWAP1 PUSH0 SWAP1 JUMP JUMPDEST POP POP POP PUSH0 SWAP2 PUSH1 0x3 SWAP2 SWAP1 JUMP INVALID SWAP5 SWAP9 SMOD 0xB4 PUSH13 0x14A57084ED9F902241D002578 0xF8 GASPRICE 0xE6 PUSH1 0x1 SAR CODECOPY 0xEC 0xB1 DUP3 TIMESTAMP 0xE7 DUP14 MULMOD DUP12 0xE0 SMOD SWAP13 MSTORE8 AND MSIZE EQ SGT PREVRANDAO 0xCD 0x1F 0xD0 LOG4 CALLCODE DUP5 NOT BLOBHASH PUSH32 0x9722A3DAAFE3B4186F6B6457E017FE5EFA39289E1D4E3BEB20A5412E13015B71 PUSH17 0x122C1D7BB4CFBE171AF7F30CA264697066 PUSH20 0x58221220C31D5E24E1F9731A3250EECFA7FBE110 0xAE 0xDB DUP2 CHAINID MOD 0xD2 0xDF DUP9 0xB9 0xCB 0xD3 CALL BLOBBASEFEE 0xF6 GT PUSH18 0x64736F6C6343000818003300000000000000 "},"methodIdentifiers":{"BPS_DENOMINATOR()":"e1a45218","CANCEL_FEE_BPS()":"04136546","CANCEL_LOCKOUT()":"5a254085","CLAIM_TIMEOUT()":"f5f5dd41","HOST_TIMEOUT()":"043c4f39","PLATFORM_FEE_BPS()":"539aa77f","TIMELOCK_DURATION()":"4623c81e","airdropVault()":"32c90099","battleNonce()":"24c07058","battles(bytes32)":"78547e6c","cancelBackendChange()":"ee4b2907","cancelBattle(bytes32)":"803da9c3","claimHostTimeout(bytes32)":"7ffade17","claimWinnings(bytes32)":"e49b606c","createBattle(uint256,uint256)":"df73c49f","creatureContract()":"6cbc16ef","creatureInBattle(uint256)":"6f5d938a","emergencyRefund(bytes32)":"d92e0af2","executeBackendChange()":"86ac85b4","getBattle(bytes32)":"43cc2213","getPlayerBattle(address)":"846e5376","guestLockedStake(bytes32)":"1596c6cd","hostLockedStake(bytes32)":"8db16d7d","isInBattle(address)":"57a4f251","joinBattle(bytes32,uint256)":"516f9cf3","maxStake()":"ea1b28e0","minStake()":"375b3c0a","owner()":"8da5cb5b","pause()":"8456cb59","paused()":"5c975abb","pendingBackend()":"719a5c99","pendingBackendTime()":"824ac88a","proposeBackend(address)":"f25947bc","renounceOwnership()":"715018a6","resolveBattle(bytes32,address,uint256,bytes)":"190f771e","setAirdropVault(address)":"91507bdb","setCreatureContract(address)":"95afd656","setStakeLimits(uint256,uint256)":"8c9bd1b5","setTreasury(address)":"f0f44260","stakeToken()":"51ed6a30","transferOwnership(address)":"f2fde38b","treasury()":"61d027b3","trustedBackend()":"e4beb87f","unpause()":"3f4ba83a","usedSignatures(bytes32)":"f978fd61","walletInBattle(address)":"b8912c17"}}}}}