{"project/src/BattleGateV2.sol":{"BattleGateV2":{"abi":[{"inputs":[{"internalType":"address","name":"_stakeToken","type":"address"},{"internalType":"address","name":"_trustedBackend","type":"address"},{"internalType":"address","name":"_treasury","type":"address"},{"internalType":"address","name":"_creatureContract","type":"address"}],"stateMutability":"nonpayable","type":"constructor"},{"inputs":[],"name":"AlreadyInBattle","type":"error"},{"inputs":[],"name":"BattleExpiredError","type":"error"},{"inputs":[],"name":"BattleNotInProgress","type":"error"},{"inputs":[],"name":"BattleNotOpen","type":"error"},{"inputs":[],"name":"BattleNotResolved","type":"error"},{"inputs":[],"name":"CannotCancel","type":"error"},{"inputs":[],"name":"CannotJoinOwnBattle","type":"error"},{"inputs":[],"name":"CannotRefund","type":"error"},{"inputs":[],"name":"CreatureInBattle","type":"error"},{"inputs":[],"name":"ECDSAInvalidSignature","type":"error"},{"inputs":[{"internalType":"uint256","name":"length","type":"uint256"}],"name":"ECDSAInvalidSignatureLength","type":"error"},{"inputs":[{"internalType":"bytes32","name":"s","type":"bytes32"}],"name":"ECDSAInvalidSignatureS","type":"error"},{"inputs":[],"name":"EnforcedPause","type":"error"},{"inputs":[],"name":"ExpectedPause","type":"error"},{"inputs":[],"name":"FeeTransferFailed","type":"error"},{"inputs":[],"name":"InvalidSignature","type":"error"},{"inputs":[],"name":"InvalidStakeAmount","type":"error"},{"inputs":[],"name":"InvalidWinner","type":"error"},{"inputs":[],"name":"NotCreatureOwner","type":"error"},{"inputs":[],"name":"NotHost","type":"error"},{"inputs":[],"name":"NotTheWinner","type":"error"},{"inputs":[{"internalType":"address","name":"owner","type":"address"}],"name":"OwnableInvalidOwner","type":"error"},{"inputs":[{"internalType":"address","name":"account","type":"address"}],"name":"OwnableUnauthorizedAccount","type":"error"},{"inputs":[],"name":"PrizeTransferFailed","type":"error"},{"inputs":[],"name":"ReentrancyGuardReentrantCall","type":"error"},{"inputs":[],"name":"RefundFailed","type":"error"},{"inputs":[],"name":"SignatureAlreadyUsed","type":"error"},{"inputs":[],"name":"SignatureExpired","type":"error"},{"inputs":[],"name":"StakeTransferFailed","type":"error"},{"inputs":[],"name":"TimeoutNotReached","type":"error"},{"anonymous":false,"inputs":[{"indexed":true,"internalType":"bytes32","name":"battleId","type":"bytes32"},{"indexed":true,"internalType":"address","name":"host","type":"address"}],"name":"BattleCancelled","type":"event"},{"anonymous":false,"inputs":[{"indexed":true,"internalType":"bytes32","name":"battleId","type":"bytes32"},{"indexed":true,"internalType":"address","name":"host","type":"address"},{"indexed":false,"internalType":"uint256","name":"creatureId","type":"uint256"},{"indexed":false,"internalType":"uint256","name":"stakeAmount","type":"uint256"}],"name":"BattleCreated","type":"event"},{"anonymous":false,"inputs":[{"indexed":true,"internalType":"bytes32","name":"battleId","type":"bytes32"},{"indexed":false,"internalType":"string","name":"reason","type":"string"}],"name":"BattleExpired","type":"event"},{"anonymous":false,"inputs":[{"indexed":true,"internalType":"bytes32","name":"battleId","type":"bytes32"},{"indexed":true,"internalType":"address","name":"guest","type":"address"},{"indexed":false,"internalType":"uint256","name":"creatureId","type":"uint256"}],"name":"BattleMatched","type":"event"},{"anonymous":false,"inputs":[{"indexed":true,"internalType":"bytes32","name":"battleId","type":"bytes32"},{"indexed":true,"internalType":"address","name":"winner","type":"address"},{"indexed":true,"internalType":"address","name":"loser","type":"address"}],"name":"BattleResolved","type":"event"},{"anonymous":false,"inputs":[{"indexed":true,"internalType":"address","name":"previousOwner","type":"address"},{"indexed":true,"internalType":"address","name":"newOwner","type":"address"}],"name":"OwnershipTransferred","type":"event"},{"anonymous":false,"inputs":[{"indexed":false,"internalType":"address","name":"account","type":"address"}],"name":"Paused","type":"event"},{"anonymous":false,"inputs":[{"indexed":false,"internalType":"address","name":"account","type":"address"}],"name":"Unpaused","type":"event"},{"anonymous":false,"inputs":[{"indexed":true,"internalType":"bytes32","name":"battleId","type":"bytes32"},{"indexed":true,"internalType":"address","name":"winner","type":"address"},{"indexed":false,"internalType":"uint256","name":"amount","type":"uint256"}],"name":"WinningsClaimed","type":"event"},{"anonymous":false,"inputs":[{"indexed":true,"internalType":"uint256","name":"creatureId","type":"uint256"},{"indexed":false,"internalType":"uint256","name":"amount","type":"uint256"}],"name":"XPFailed","type":"event"},{"inputs":[],"name":"BPS_DENOMINATOR","outputs":[{"internalType":"uint256","name":"","type":"uint256"}],"stateMutability":"view","type":"function"},{"inputs":[],"name":"CLAIM_TIMEOUT","outputs":[{"internalType":"uint256","name":"","type":"uint256"}],"stateMutability":"view","type":"function"},{"inputs":[],"name":"HOST_TIMEOUT","outputs":[{"internalType":"uint256","name":"","type":"uint256"}],"stateMutability":"view","type":"function"},{"inputs":[],"name":"PLATFORM_FEE_BPS","outputs":[{"internalType":"uint256","name":"","type":"uint256"}],"stateMutability":"view","type":"function"},{"inputs":[],"name":"battleNonce","outputs":[{"internalType":"uint256","name":"","type":"uint256"}],"stateMutability":"view","type":"function"},{"inputs":[{"internalType":"bytes32","name":"","type":"bytes32"}],"name":"battles","outputs":[{"internalType":"address","name":"host","type":"address"},{"internalType":"address","name":"guest","type":"address"},{"internalType":"uint256","name":"hostCreatureId","type":"uint256"},{"internalType":"uint256","name":"guestCreatureId","type":"uint256"},{"internalType":"uint256","name":"stakeAmount","type":"uint256"},{"internalType":"uint256","name":"createdAt","type":"uint256"},{"internalType":"uint256","name":"matchedAt","type":"uint256"},{"internalType":"uint256","name":"resolvedAt","type":"uint256"},{"internalType":"enum BattleGateV2.BattleState","name":"state","type":"uint8"},{"internalType":"address","name":"winner","type":"address"}],"stateMutability":"view","type":"function"},{"inputs":[{"internalType":"bytes32","name":"battleId","type":"bytes32"}],"name":"cancelBattle","outputs":[],"stateMutability":"nonpayable","type":"function"},{"inputs":[{"internalType":"bytes32","name":"battleId","type":"bytes32"}],"name":"claimHostTimeout","outputs":[],"stateMutability":"nonpayable","type":"function"},{"inputs":[{"internalType":"bytes32","name":"battleId","type":"bytes32"}],"name":"claimWinnings","outputs":[],"stateMutability":"nonpayable","type":"function"},{"inputs":[{"internalType":"uint256","name":"creatureId","type":"uint256"},{"internalType":"uint256","name":"stakeAmount","type":"uint256"}],"name":"createBattle","outputs":[{"internalType":"bytes32","name":"battleId","type":"bytes32"}],"stateMutability":"nonpayable","type":"function"},{"inputs":[],"name":"creatureContract","outputs":[{"internalType":"address","name":"","type":"address"}],"stateMutability":"view","type":"function"},{"inputs":[{"internalType":"uint256","name":"","type":"uint256"}],"name":"creatureInBattle","outputs":[{"internalType":"bytes32","name":"","type":"bytes32"}],"stateMutability":"view","type":"function"},{"inputs":[{"internalType":"bytes32","name":"battleId","type":"bytes32"}],"name":"emergencyRefund","outputs":[],"stateMutability":"nonpayable","type":"function"},{"inputs":[{"internalType":"bytes32","name":"battleId","type":"bytes32"}],"name":"getBattle","outputs":[{"components":[{"internalType":"address","name":"host","type":"address"},{"internalType":"address","name":"guest","type":"address"},{"internalType":"uint256","name":"hostCreatureId","type":"uint256"},{"internalType":"uint256","name":"guestCreatureId","type":"uint256"},{"internalType":"uint256","name":"stakeAmount","type":"uint256"},{"internalType":"uint256","name":"createdAt","type":"uint256"},{"internalType":"uint256","name":"matchedAt","type":"uint256"},{"internalType":"uint256","name":"resolvedAt","type":"uint256"},{"internalType":"enum BattleGateV2.BattleState","name":"state","type":"uint8"},{"internalType":"address","name":"winner","type":"address"}],"internalType":"struct BattleGateV2.Battle","name":"","type":"tuple"}],"stateMutability":"view","type":"function"},{"inputs":[{"internalType":"address","name":"wallet","type":"address"}],"name":"getPlayerBattle","outputs":[{"internalType":"bytes32","name":"","type":"bytes32"}],"stateMutability":"view","type":"function"},{"inputs":[{"internalType":"address","name":"wallet","type":"address"}],"name":"isInBattle","outputs":[{"internalType":"bool","name":"","type":"bool"}],"stateMutability":"view","type":"function"},{"inputs":[{"internalType":"bytes32","name":"battleId","type":"bytes32"},{"internalType":"uint256","name":"creatureId","type":"uint256"}],"name":"joinBattle","outputs":[],"stateMutability":"nonpayable","type":"function"},{"inputs":[],"name":"maxStake","outputs":[{"internalType":"uint256","name":"","type":"uint256"}],"stateMutability":"view","type":"function"},{"inputs":[],"name":"minStake","outputs":[{"internalType":"uint256","name":"","type":"uint256"}],"stateMutability":"view","type":"function"},{"inputs":[],"name":"owner","outputs":[{"internalType":"address","name":"","type":"address"}],"stateMutability":"view","type":"function"},{"inputs":[],"name":"pause","outputs":[],"stateMutability":"nonpayable","type":"function"},{"inputs":[],"name":"paused","outputs":[{"internalType":"bool","name":"","type":"bool"}],"stateMutability":"view","type":"function"},{"inputs":[],"name":"renounceOwnership","outputs":[],"stateMutability":"nonpayable","type":"function"},{"inputs":[{"internalType":"bytes32","name":"battleId","type":"bytes32"},{"internalType":"address","name":"winner","type":"address"},{"internalType":"uint256","name":"timestamp","type":"uint256"},{"internalType":"bytes","name":"signature","type":"bytes"}],"name":"resolveBattle","outputs":[],"stateMutability":"nonpayable","type":"function"},{"inputs":[{"internalType":"address","name":"_creature","type":"address"}],"name":"setCreatureContract","outputs":[],"stateMutability":"nonpayable","type":"function"},{"inputs":[{"internalType":"uint256","name":"_min","type":"uint256"},{"internalType":"uint256","name":"_max","type":"uint256"}],"name":"setStakeLimits","outputs":[],"stateMutability":"nonpayable","type":"function"},{"inputs":[{"internalType":"address","name":"_treasury","type":"address"}],"name":"setTreasury","outputs":[],"stateMutability":"nonpayable","type":"function"},{"inputs":[{"internalType":"address","name":"_backend","type":"address"}],"name":"setTrustedBackend","outputs":[],"stateMutability":"nonpayable","type":"function"},{"inputs":[],"name":"stakeToken","outputs":[{"internalType":"contract IERC20","name":"","type":"address"}],"stateMutability":"view","type":"function"},{"inputs":[{"internalType":"address","name":"newOwner","type":"address"}],"name":"transferOwnership","outputs":[],"stateMutability":"nonpayable","type":"function"},{"inputs":[],"name":"treasury","outputs":[{"internalType":"address","name":"","type":"address"}],"stateMutability":"view","type":"function"},{"inputs":[],"name":"trustedBackend","outputs":[{"internalType":"address","name":"","type":"address"}],"stateMutability":"view","type":"function"},{"inputs":[],"name":"unpause","outputs":[],"stateMutability":"nonpayable","type":"function"},{"inputs":[{"internalType":"bytes32","name":"","type":"bytes32"}],"name":"usedSignatures","outputs":[{"internalType":"bool","name":"","type":"bool"}],"stateMutability":"view","type":"function"},{"inputs":[{"internalType":"address","name":"","type":"address"}],"name":"walletInBattle","outputs":[{"internalType":"bytes32","name":"","type":"bytes32"}],"stateMutability":"view","type":"function"}],"evm":{"bytecode":{"linkReferences":{},"object":"6080346200024957601f620020cf38819003918201601f191683019291906001600160401b038411838510176200024d5781608092849260409687528339810103126200024957620000518162000261565b6200005f6020830162000261565b916200007b60606200007386840162000261565b920162000261565b90331562000232575f549360018060a01b03908160018060a01b03199533878916175f55885197823391167f8be0079c531659141344cd1fd0a4f28419497f9722a3daafe3b4186f6b6457e05f80a360018055678ac7230489e80000600655683635c9adc5dea0000060075516958615620001f057508116918215620001ba5781169283156200018357169384156200013f57836002541617600255826003541617600355816004541617600455600554161760055551611e589081620002778239f35b855162461bcd60e51b815260206004820152601960248201527f496e76616c696420637265617475726520636f6e7472616374000000000000006044820152606490fd5b865162461bcd60e51b815260206004820152601060248201526f496e76616c696420747265617375727960801b6044820152606490fd5b865162461bcd60e51b815260206004820152600f60248201526e125b9d985b1a5908189858dad95b99608a1b6044820152606490fd5b62461bcd60e51b815260206004820152601360248201527f496e76616c6964207374616b6520746f6b656e000000000000000000000000006044820152606490fd5b8451631e4fbdf760e01b81525f6004820152602490fd5b5f80fd5b634e487b7160e01b5f52604160045260245ffd5b51906001600160a01b0382168203620002495756fe60808060405260049081361015610014575f80fd5b5f3560e01c908163043c4f3914611a7457508063190f771e1461163957806324c070581461161c578063375b3c0a146115ff5780633f4ba83a1461159057806343cc221314611411578063516f9cf3146111ac57806351ed6a3014611184578063539aa77f1461116857806357a4f2511461112e5780635c975abb1461110a57806361d027b3146110e35780636cbc16ef146110bb5780636f5d938a14611092578063715018a61461104e57806378547e6c14610fa95780637ffade1714610e30578063803da9c314610ce55780638456cb5914610c85578063846e537614610b485780638c9bd1b514610c275780638da5cb5b14610c0057806395afd65614610b80578063b8912c1714610b48578063d17f5f3f14610ac9578063d92e0af2146108ad578063df73c49f146105b5578063e1a4521814610599578063e49b606c1461031b578063e4beb87f146102f3578063ea1b28e0146102d6578063f0f442601461025d578063f2fde38b146101ed578063f5f5dd41146101d05763f978fd611461019f575f80fd5b346101cc5760203660031901126101cc57355f52600c602052602060ff60405f2054166040519015158152f35b5f80fd5b346101cc575f3660031901126101cc57602060405162093a808152f35b50346101cc5760203660031901126101cc57610207611a8e565b61020f611c56565b6001600160a01b0390811691821561024657505f548260018060a01b03198216175f55165f80516020611de38339815191525f80a3005b6024905f60405191631e4fbdf760e01b8352820152fd5b50346101cc5760203660031901126101cc57610277611a8e565b61027f611c56565b6001600160a01b0316801561029f5781546001600160a01b031916179055005b60405162461bcd60e51b8152602081840152601060248201526f496e76616c696420747265617375727960801b6044820152606490fd5b346101cc575f3660031901126101cc576020600754604051908152f35b346101cc575f3660031901126101cc576003546040516001600160a01b039091168152602090f35b50346101cc576020806003193601126101cc57813590610339611c33565b815f526009815260405f2092600884019384549060ff8216600681101561058657600303610575576001600160a01b039033600884901c8316036105645783810154968760011b9780890460021490151715610551576101f480890290898204148915171561053e5761271090049384890398891161053e579085849260ff19161780915560081c16908281541682145f146105345760020154905b5f52600a85525f60408120555f52600b84525f6040812055858160025416856040518092815f8161041463a9059cbb60e01b98898352338d8401611c18565b03925af19081156104ef575f91610517575b501561050657821515806104fa575b61046d575b86867fac1dfcff29900d7010c04a6028e48814b8a49daf045127abd10a4636d1d49115876040519384523393a360018055005b9181610493935f87946002541692875416916040519687958694859384528a8401611c18565b03925af19081156104ef575f916104c2575b50156104b35780808061043a565b604051634033e4e360e01b8152fd5b6104e29150833d85116104e8575b6104da8183611b26565b810190611bde565b5f6104a5565b503d6104d0565b6040513d5f823e3d90fd5b50818454161515610435565b60405163880a149160e01b81528490fd5b61052e9150863d88116104e8576104da8183611b26565b5f610426565b60030154906103d5565b601186634e487b7160e01b5f525260245ffd5b601185634e487b7160e01b5f525260245ffd5b60405163542cf5bf60e11b81528490fd5b60405163691f654760e01b81528390fd5b602184634e487b7160e01b5f525260245ffd5b346101cc575f3660031901126101cc5760206040516127108152f35b50346101cc576105c436611ac5565b91906105ce611c81565b6105d6611c33565b600654831080156108a2575b61089257335f52602092600a845260405f205461088157815f52600b845260405f2054610870576005546040516331a9108f60e11b81528481018490526001600160a01b039186908290602490829086165afa9081156104ef575f91610843575b508133911603610832576008545f1981146105515760010180600855604051868101913360601b835242603483015260548201526054815261068481611b0b565b5190209381600254168660405180926323b872dd60e01b8252815f816106ae8a30338b8501611bf6565b03925af19081156104ef575f91610815575b501561080657908486926040516106d681611adb565b3381528481015f815260408201888152606083015f81526080840189815260a085019142835260c08601935f855260e08701955f875261010088019b60018d5261012089019a5f8c525f52600990528a60405f20985116600160a01b600190031990818a54161789558b60018a0192511690825416179055516002870155516003860155518585015551600584015551600683015551600782015560080193519060068210156107f357509061079c93929160ff80198554169116178355511690611b9a565b335f52600a84528260405f2055815f52600b84528260405f205560405191825283820152817f09797ded04afd2c3ee4acc48528d0e1302ed90d1be904d21e0a9c6724a02514460403393a360018055604051908152f35b602190634e487b7160e01b5f525260245ffd5b604051631231ec2f60e21b8152fd5b61082c9150873d89116104e8576104da8183611b26565b5f6106c0565b60405163d967a6f360e01b81528490fd5b6108639150863d8811610869575b61085b8183611b26565b810190611bbf565b5f610643565b503d610851565b60405163f41ff0c960e01b81528390fd5b604051631844f0a560e11b81528390fd5b50604051630103be3b60e21b8152fd5b5060075483116105e2565b50346101cc576020806003193601126101cc578135916108cb611c56565b6108d3611c33565b825f526009825260405f2060088101805460ff81166006811015610ab65760018114159081610aaa575b50610a9a5790600584939260ff191617905560018060a01b03808254165f52600a85525f604081205560028201545f52600b85525f60408120558060025416906109698682855416868601948554915f60405180968195829463a9059cbb60e01b9d8e85528401611c18565b03925af19081156104ef575f91610a7d575b5015610a6c57600183019281845416806109d7575b885f80516020611dc383398151915260608a6019604051918083528201527822b6b2b933b2b731bc903932b33ab73210313c9030b236b4b760391b6040820152a260018055005b8794926003610a1d9795935f938452600a885283604081205501548252600b865281604081205580600254169354169154936040519687958694859384528a8401611c18565b03925af19081156104ef575f91610a4f575b5015610a4057808080808080610990565b604051633c31275160e21b8152fd5b610a669150833d85116104e8576104da8183611b26565b5f610a2f565b604051633c31275160e21b81528590fd5b610a949150873d89116104e8576104da8183611b26565b5f61097b565b6040516202d94960ed1b81528490fd5b6002915014155f6108fd565b602185634e487b7160e01b5f525260245ffd5b50346101cc5760203660031901126101cc57610ae3611a8e565b610aeb611c56565b6001600160a01b0316908115610b125750600380546001600160a01b031916919091179055005b60649060206040519162461bcd60e51b8352820152600f60248201526e125b9d985b1a5908189858dad95b99608a1b6044820152fd5b346101cc5760203660031901126101cc576001600160a01b03610b69611a8e565b165f52600a602052602060405f2054604051908152f35b50346101cc5760203660031901126101cc57610b9a611a8e565b610ba2611c56565b6001600160a01b0316908115610bc95750600580546001600160a01b031916919091179055005b60649060206040519162461bcd60e51b8352820152601060248201526f496e76616c696420637265617475726560801b6044820152fd5b346101cc575f3660031901126101cc575f546040516001600160a01b039091168152602090f35b50346101cc57610c3636611ac5565b91610c3f611c56565b82821015610c505750600655600755005b60649060206040519162461bcd60e51b8352820152600e60248201526d496e76616c6964206c696d69747360901b6044820152fd5b346101cc575f3660031901126101cc57610c9d611c56565b610ca5611c81565b5f805460ff60a01b1916600160a01b1790556040513381527f62e78cea01bee320cd4e420270b5ea74000d11b0c9f74754ebdbfc544b05a25890602090a1005b50346101cc57602090816003193601126101cc57803591610d04611c33565b825f526009815260405f2060088101805460ff81166006811015610e1d57600103610e0c5782546001600160a01b039290831691338303610dfb57918593916005610d98969460ff19161790555f52600a83525f604081205560028201545f52600b83525f604081205585816002541691835416920154915f60405180968195829463a9059cbb60e01b84528b8401611c18565b03925af19182156104ef575f92610dde575b505015610a40575033907fcb9efe3dee7d10a1ce7248d3bb4e58134ae02576d3439448ed856cc3373e17a35f80a360018055005b610df49250803d106104e8576104da8183611b26565b5f80610daa565b604051638ff4f0c960e01b81528790fd5b604051631f7806af60e31b81528590fd5b602186634e487b7160e01b5f525260245ffd5b50346101cc576020806003193601126101cc57813591610e4e611c33565b825f526009825260405f2060088101805460ff81166006811015610ab657600103610a9a5782546001600160a01b039290831691338303610f985760058501546102588101809111610f8557421115610f7457918693916005610efa969460ff19161790555f52600a83525f604081205560028201545f52600b83525f604081205584816002541691835416920154915f60405180968195829463a9059cbb60e01b84528a8401611c18565b03925af19081156104ef575f91610f57575b5015610a40575060605f80516020611dc38339815191529160176040519180835282015276121bdcdd081d1a5b595bdd5d080b481b9bc819dd595cdd604a1b6040820152a260018055005b610f6e9150833d85116104e8576104da8183611b26565b5f610f0c565b6040516326c015ab60e21b81528690fd5b601187634e487b7160e01b5f525260245ffd5b604051638ff4f0c960e01b81528690fd5b50346101cc5760203660031901126101cc578061014091355f52600960205260405f209060018060a01b0390818354169282600182015416916002820154906003830154908301546005840154916006850154936008600787015496015496604051998a5260208a015260408901526060880152608087015260a086015260c085015260e0840152611042610100840160ff8316611aa4565b60081c16610120820152f35b346101cc575f3660031901126101cc57611066611c56565b5f80546001600160a01b0319811682556001600160a01b03165f80516020611de38339815191528280a3005b50346101cc5760203660031901126101cc57355f52600b602052602060405f2054604051908152f35b346101cc575f3660031901126101cc576005546040516001600160a01b039091168152602090f35b50346101cc575f3660031901126101cc57546040516001600160a01b039091168152602090f35b346101cc575f3660031901126101cc57602060ff5f5460a01c166040519015158152f35b346101cc5760203660031901126101cc576001600160a01b0361114f611a8e565b165f52600a602052602060405f20541515604051908152f35b346101cc575f3660031901126101cc5760206040516101f48152f35b346101cc575f3660031901126101cc576002546040516001600160a01b039091168152602090f35b50346101cc5760403660031901126101cc5760243581356111cb611c81565b6111d3611c33565b805f5260206009815260405f20600881019060ff82541660068110156113fe576001036113ed5780546001600160a01b0390811633146113dc57335f52600a845260405f20546113cb57855f52600b845260405f20546113ba57600582015461025881018091116113a757421015611396576024848260055416604051928380926331a9108f60e11b82528b8d8301525afa9081156104ef575f91611379575b50813391160361136857836112ab91600254168884015490895f6040518096819582946323b872dd60e01b8452309033908501611bf6565b03925af19081156104ef575f9161134b575b501561133a57908160017f4480fdf0275ff0748200ab3cdcc450685e845d860fdc94461fea4e0dc03621779493013360018060a01b0319825416179055856003820155600642910155600260ff19825416179055335f52600a81528260405f2055835f52600b81528260405f20556040519384523393a360018055005b604051631231ec2f60e21b81528690fd5b6113629150843d86116104e8576104da8183611b26565b5f6112bd565b60405163d967a6f360e01b81528790fd5b6113909150853d87116108695761085b8183611b26565b5f611273565b604051637382e32160e01b81528790fd5b601188634e487b7160e01b5f525260245ffd5b60405163f41ff0c960e01b81528790fd5b604051631844f0a560e11b81528790fd5b60405163050c8fd560e01b81528790fd5b604051637100718960e01b81528690fd5b602187634e487b7160e01b5f525260245ffd5b50346101cc5760203660031901126101cc575f61012060405161143381611adb565b8281528260208201528260408201528260608201528260808201528260a08201528260c08201528260e082015282610100820152015280355f52600960205260405f2060086040519161148583611adb565b80546001600160a01b03908116845260018201541660208401526002810154604084015260038101546060840152838101546080840152600581015460a084015260068082015460c0850152600782015460e08501529101549060ff82169081101561058657610140935061010083015260018060a01b039060081c166101208201526040519060018060a01b03815116825260018060a01b03602082015116602083015260408101516040830152606081015160608301526080810151608083015260a081015160a083015260c081015160c083015260e081015160e083015261157a610100820151610100840190611aa4565b610120908101516001600160a01b031690820152f35b50346101cc575f3660031901126101cc576115a9611c56565b5f549060ff8260a01c16156115f0575060ff60a01b19165f556040513381527f5db9ee0a495bf2e6ff9c91a7834c1ba4fdd244a5e8aa4e537bd38aeae4b073aa90602090a1005b604051638dfc202b60e01b8152fd5b346101cc575f3660031901126101cc576020600654604051908152f35b346101cc575f3660031901126101cc576020600854604051908152f35b50346101cc5760803660031901126101cc5760248035916001600160a01b03808416918035918386036101cc576001600160401b039560443591906064358881116101cc57366023820112156101cc57808501358981116101cc5788820191898236920101116101cc576116ab611c33565b865f526020956009875260405f2095600887019b60ff8d54166006811015611a6257600203611a5157868854168b141580611a41575b611a305761012b194201428111611a1e57821115611a0d57611704368587611b64565b8981519101205f52600c895260ff60405f2054166119fc5760405190898201928b845260018060601b03198860601b16604084015260548301524660748301526074825260a0820190828210908211176119ea576040525190207b0ca2ba3432b932bab69029b4b3b732b21026b2b9b9b0b3b29d05199960211b5f52601c526117a761179e603c5f20611798368688611b64565b90611ca1565b90929192611cdb565b8580600354169116036119db575083926117cb600b98999a9b936003933691611b64565b8781519101205f52600c87526117f260405f209160ff199260018482541617905584611b9a565b8254161781554260078501558354821688811499908a156119d5575082600186015416995b156119c8575f806002870154925b8560055416938280604051968c8801826328a3750760e11b998a83528688820152606460448201526044815261185a81611b0b565b51925af13d84146119c3573d61186f81611b49565b9061187d6040519283611b26565b8152848c3d92013e5b156119a6575b5085808954169d169c8d14821461199b576002880154935b8287600554169286604051918d8301948552820152601e6044820152604481526118cd81611b0b565b51925af13d15611996573d6118e181611b49565b906118ef6040519283611b26565b81525f883d92013e5b15611979575b505460081c16918181541680931492835f14611973575081600182015416925b156119695760030154915b165f52600a82525f60408120555f52525f60408120557f3b3b5126e644ea297563595413600ab9dcd3d089cbfb03e7faedecda6ccf3c765f80a460018055005b6002015491611929565b9261191e565b5f80516020611e0383398151915286604051601e8152a25f6118fe565b6118f8565b6003880154936118a4565b5f80516020611e038339815191528a60405160648152a25f61188c565b611886565b5f80600387015492611825565b99611817565b604051638baa579f60e01b8152fd5b8c604185634e487b7160e01b5f52525ffd5b60405163900bb2c960e01b81528390fd5b604051630819bdcd60e01b81528390fd5b8c601185634e487b7160e01b5f52525ffd5b6040516393a5f3c760e01b81528390fd5b50866001890154168b14156116e1565b60405163b78ea15760e01b81528390fd5b8c602185634e487b7160e01b5f52525ffd5b346101cc575f3660031901126101cc578061025860209252f35b600435906001600160a01b03821682036101cc57565b906006821015611ab15752565b634e487b7160e01b5f52602160045260245ffd5b60409060031901126101cc576004359060243590565b61014081019081106001600160401b03821117611af757604052565b634e487b7160e01b5f52604160045260245ffd5b608081019081106001600160401b03821117611af757604052565b601f909101601f19168101906001600160401b03821190821017611af757604052565b6001600160401b038111611af757601f01601f191660200190565b929192611b7082611b49565b91611b7e6040519384611b26565b8294818452818301116101cc578281602093845f960137010152565b8054610100600160a81b03191660089290921b610100600160a81b0316919091179055565b908160209103126101cc57516001600160a01b03811681036101cc5790565b908160209103126101cc575180151581036101cc5790565b6001600160a01b03918216815291166020820152604081019190915260600190565b6001600160a01b039091168152602081019190915260400190565b600260015414611c44576002600155565b604051633ee5aeb560e01b8152600490fd5b5f546001600160a01b03163303611c6957565b60405163118cdaa760e01b8152336004820152602490fd5b60ff5f5460a01c16611c8f57565b60405163d93c066560e01b8152600490fd5b8151919060418303611cd157611cca9250602082015190606060408401519301515f1a90611d4a565b9192909190565b50505f9160029190565b6004811015611ab15780611ced575050565b60018103611d075760405163f645eedf60e01b8152600490fd5b60028103611d285760405163fce698f760e01b815260048101839052602490fd5b600314611d325750565b602490604051906335e2f38360e21b82526004820152fd5b91906fa2a8918ca85bafe22016d0b997e4df60600160ff1b038411611db7579160209360809260ff5f9560405194855216868401526040830152606082015282805260015afa156104ef575f516001600160a01b03811615611dad57905f905f90565b505f906001905f90565b5050505f916003919056fe949807b46c014a57084ed9f902241d002578f83ae660011d39ecb18242e78d098be0079c531659141344cd1fd0a4f28419497f9722a3daafe3b4186f6b6457e017fe5efa39289e1d4e3beb20a5412e13015b7170122c1d7bb4cfbe171af7f30ca26469706673582212205dfca2411b98c0af80e5b507da247cc1bbb6794911f9e0dfd5f2d7c648822db264736f6c63430008180033","opcodes":"PUSH1 0x80 CALLVALUE PUSH3 0x249 JUMPI PUSH1 0x1F PUSH3 0x20CF CODESIZE DUP2 SWAP1 SUB SWAP2 DUP3 ADD PUSH1 0x1F NOT AND DUP4 ADD SWAP3 SWAP2 SWAP1 PUSH1 0x1 PUSH1 0x1 PUSH1 0x40 SHL SUB DUP5 GT DUP4 DUP6 LT OR PUSH3 0x24D JUMPI DUP2 PUSH1 0x80 SWAP3 DUP5 SWAP3 PUSH1 0x40 SWAP7 DUP8 MSTORE DUP4 CODECOPY DUP2 ADD SUB SLT PUSH3 0x249 JUMPI PUSH3 0x51 DUP2 PUSH3 0x261 JUMP JUMPDEST PUSH3 0x5F PUSH1 0x20 DUP4 ADD PUSH3 0x261 JUMP JUMPDEST SWAP2 PUSH3 0x7B PUSH1 0x60 PUSH3 0x73 DUP7 DUP5 ADD PUSH3 0x261 JUMP JUMPDEST SWAP3 ADD PUSH3 0x261 JUMP JUMPDEST SWAP1 CALLER ISZERO PUSH3 0x232 JUMPI PUSH0 SLOAD SWAP4 PUSH1 0x1 DUP1 PUSH1 0xA0 SHL SUB SWAP1 DUP2 PUSH1 0x1 DUP1 PUSH1 0xA0 SHL SUB NOT SWAP6 CALLER DUP8 DUP10 AND OR PUSH0 SSTORE DUP9 MLOAD SWAP8 DUP3 CALLER SWAP2 AND PUSH32 0x8BE0079C531659141344CD1FD0A4F28419497F9722A3DAAFE3B4186F6B6457E0 PUSH0 DUP1 LOG3 PUSH1 0x1 DUP1 SSTORE PUSH8 0x8AC7230489E80000 PUSH1 0x6 SSTORE PUSH9 0x3635C9ADC5DEA00000 PUSH1 0x7 SSTORE AND SWAP6 DUP7 ISZERO PUSH3 0x1F0 JUMPI POP DUP2 AND SWAP2 DUP3 ISZERO PUSH3 0x1BA JUMPI DUP2 AND SWAP3 DUP4 ISZERO PUSH3 0x183 JUMPI AND SWAP4 DUP5 ISZERO PUSH3 0x13F JUMPI DUP4 PUSH1 0x2 SLOAD AND OR PUSH1 0x2 SSTORE DUP3 PUSH1 0x3 SLOAD AND OR PUSH1 0x3 SSTORE DUP2 PUSH1 0x4 SLOAD AND OR PUSH1 0x4 SSTORE PUSH1 0x5 SLOAD AND OR PUSH1 0x5 SSTORE MLOAD PUSH2 0x1E58 SWAP1 DUP2 PUSH3 0x277 DUP3 CODECOPY RETURN JUMPDEST DUP6 MLOAD PUSH3 0x461BCD PUSH1 0xE5 SHL DUP2 MSTORE PUSH1 0x20 PUSH1 0x4 DUP3 ADD MSTORE PUSH1 0x19 PUSH1 0x24 DUP3 ADD MSTORE PUSH32 0x496E76616C696420637265617475726520636F6E747261637400000000000000 PUSH1 0x44 DUP3 ADD MSTORE PUSH1 0x64 SWAP1 REVERT JUMPDEST DUP7 MLOAD PUSH3 0x461BCD PUSH1 0xE5 SHL DUP2 MSTORE PUSH1 0x20 PUSH1 0x4 DUP3 ADD MSTORE PUSH1 0x10 PUSH1 0x24 DUP3 ADD MSTORE PUSH16 0x496E76616C6964207472656173757279 PUSH1 0x80 SHL PUSH1 0x44 DUP3 ADD MSTORE PUSH1 0x64 SWAP1 REVERT JUMPDEST DUP7 MLOAD PUSH3 0x461BCD PUSH1 0xE5 SHL DUP2 MSTORE PUSH1 0x20 PUSH1 0x4 DUP3 ADD MSTORE PUSH1 0xF PUSH1 0x24 DUP3 ADD MSTORE PUSH15 0x125B9D985B1A5908189858DAD95B99 PUSH1 0x8A SHL PUSH1 0x44 DUP3 ADD MSTORE PUSH1 0x64 SWAP1 REVERT JUMPDEST PUSH3 0x461BCD PUSH1 0xE5 SHL DUP2 MSTORE PUSH1 0x20 PUSH1 0x4 DUP3 ADD MSTORE PUSH1 0x13 PUSH1 0x24 DUP3 ADD MSTORE PUSH32 0x496E76616C6964207374616B6520746F6B656E00000000000000000000000000 PUSH1 0x44 DUP3 ADD MSTORE PUSH1 0x64 SWAP1 REVERT JUMPDEST DUP5 MLOAD PUSH4 0x1E4FBDF7 PUSH1 0xE0 SHL DUP2 MSTORE PUSH0 PUSH1 0x4 DUP3 ADD MSTORE PUSH1 0x24 SWAP1 REVERT JUMPDEST PUSH0 DUP1 REVERT JUMPDEST PUSH4 0x4E487B71 PUSH1 0xE0 SHL PUSH0 MSTORE PUSH1 0x41 PUSH1 0x4 MSTORE PUSH1 0x24 PUSH0 REVERT JUMPDEST MLOAD SWAP1 PUSH1 0x1 PUSH1 0x1 PUSH1 0xA0 SHL SUB DUP3 AND DUP3 SUB PUSH3 0x249 JUMPI JUMP INVALID PUSH1 0x80 DUP1 PUSH1 0x40 MSTORE PUSH1 0x4 SWAP1 DUP2 CALLDATASIZE LT ISZERO PUSH2 0x14 JUMPI PUSH0 DUP1 REVERT JUMPDEST PUSH0 CALLDATALOAD PUSH1 0xE0 SHR SWAP1 DUP2 PUSH4 0x43C4F39 EQ PUSH2 0x1A74 JUMPI POP DUP1 PUSH4 0x190F771E EQ PUSH2 0x1639 JUMPI DUP1 PUSH4 0x24C07058 EQ PUSH2 0x161C JUMPI DUP1 PUSH4 0x375B3C0A EQ PUSH2 0x15FF JUMPI DUP1 PUSH4 0x3F4BA83A EQ PUSH2 0x1590 JUMPI DUP1 PUSH4 0x43CC2213 EQ PUSH2 0x1411 JUMPI DUP1 PUSH4 0x516F9CF3 EQ PUSH2 0x11AC JUMPI DUP1 PUSH4 0x51ED6A30 EQ PUSH2 0x1184 JUMPI DUP1 PUSH4 0x539AA77F EQ PUSH2 0x1168 JUMPI DUP1 PUSH4 0x57A4F251 EQ PUSH2 0x112E JUMPI DUP1 PUSH4 0x5C975ABB EQ PUSH2 0x110A JUMPI DUP1 PUSH4 0x61D027B3 EQ PUSH2 0x10E3 JUMPI DUP1 PUSH4 0x6CBC16EF EQ PUSH2 0x10BB JUMPI DUP1 PUSH4 0x6F5D938A EQ PUSH2 0x1092 JUMPI DUP1 PUSH4 0x715018A6 EQ PUSH2 0x104E JUMPI DUP1 PUSH4 0x78547E6C EQ PUSH2 0xFA9 JUMPI DUP1 PUSH4 0x7FFADE17 EQ PUSH2 0xE30 JUMPI DUP1 PUSH4 0x803DA9C3 EQ PUSH2 0xCE5 JUMPI DUP1 PUSH4 0x8456CB59 EQ PUSH2 0xC85 JUMPI DUP1 PUSH4 0x846E5376 EQ PUSH2 0xB48 JUMPI DUP1 PUSH4 0x8C9BD1B5 EQ PUSH2 0xC27 JUMPI DUP1 PUSH4 0x8DA5CB5B EQ PUSH2 0xC00 JUMPI DUP1 PUSH4 0x95AFD656 EQ PUSH2 0xB80 JUMPI DUP1 PUSH4 0xB8912C17 EQ PUSH2 0xB48 JUMPI DUP1 PUSH4 0xD17F5F3F EQ PUSH2 0xAC9 JUMPI DUP1 PUSH4 0xD92E0AF2 EQ PUSH2 0x8AD JUMPI DUP1 PUSH4 0xDF73C49F EQ PUSH2 0x5B5 JUMPI DUP1 PUSH4 0xE1A45218 EQ PUSH2 0x599 JUMPI DUP1 PUSH4 0xE49B606C EQ PUSH2 0x31B JUMPI DUP1 PUSH4 0xE4BEB87F EQ PUSH2 0x2F3 JUMPI DUP1 PUSH4 0xEA1B28E0 EQ PUSH2 0x2D6 JUMPI DUP1 PUSH4 0xF0F44260 EQ PUSH2 0x25D JUMPI DUP1 PUSH4 0xF2FDE38B EQ PUSH2 0x1ED JUMPI DUP1 PUSH4 0xF5F5DD41 EQ PUSH2 0x1D0 JUMPI PUSH4 0xF978FD61 EQ PUSH2 0x19F JUMPI PUSH0 DUP1 REVERT JUMPDEST CALLVALUE PUSH2 0x1CC JUMPI PUSH1 0x20 CALLDATASIZE PUSH1 0x3 NOT ADD SLT PUSH2 0x1CC JUMPI CALLDATALOAD PUSH0 MSTORE PUSH1 0xC PUSH1 0x20 MSTORE PUSH1 0x20 PUSH1 0xFF PUSH1 0x40 PUSH0 KECCAK256 SLOAD AND PUSH1 0x40 MLOAD SWAP1 ISZERO ISZERO DUP2 MSTORE RETURN JUMPDEST PUSH0 DUP1 REVERT JUMPDEST CALLVALUE PUSH2 0x1CC JUMPI PUSH0 CALLDATASIZE PUSH1 0x3 NOT ADD SLT PUSH2 0x1CC JUMPI PUSH1 0x20 PUSH1 0x40 MLOAD PUSH3 0x93A80 DUP2 MSTORE RETURN JUMPDEST POP CALLVALUE PUSH2 0x1CC JUMPI PUSH1 0x20 CALLDATASIZE PUSH1 0x3 NOT ADD SLT PUSH2 0x1CC JUMPI PUSH2 0x207 PUSH2 0x1A8E JUMP JUMPDEST PUSH2 0x20F PUSH2 0x1C56 JUMP JUMPDEST PUSH1 0x1 PUSH1 0x1 PUSH1 0xA0 SHL SUB SWAP1 DUP2 AND SWAP2 DUP3 ISZERO PUSH2 0x246 JUMPI POP PUSH0 SLOAD DUP3 PUSH1 0x1 DUP1 PUSH1 0xA0 SHL SUB NOT DUP3 AND OR PUSH0 SSTORE AND PUSH0 DUP1 MLOAD PUSH1 0x20 PUSH2 0x1DE3 DUP4 CODECOPY DUP2 MLOAD SWAP2 MSTORE PUSH0 DUP1 LOG3 STOP JUMPDEST PUSH1 0x24 SWAP1 PUSH0 PUSH1 0x40 MLOAD SWAP2 PUSH4 0x1E4FBDF7 PUSH1 0xE0 SHL DUP4 MSTORE DUP3 ADD MSTORE REVERT JUMPDEST POP CALLVALUE PUSH2 0x1CC JUMPI PUSH1 0x20 CALLDATASIZE PUSH1 0x3 NOT ADD SLT PUSH2 0x1CC JUMPI PUSH2 0x277 PUSH2 0x1A8E JUMP JUMPDEST PUSH2 0x27F PUSH2 0x1C56 JUMP JUMPDEST PUSH1 0x1 PUSH1 0x1 PUSH1 0xA0 SHL SUB AND DUP1 ISZERO PUSH2 0x29F JUMPI DUP2 SLOAD PUSH1 0x1 PUSH1 0x1 PUSH1 0xA0 SHL SUB NOT AND OR SWAP1 SSTORE STOP JUMPDEST PUSH1 0x40 MLOAD PUSH3 0x461BCD PUSH1 0xE5 SHL DUP2 MSTORE PUSH1 0x20 DUP2 DUP5 ADD MSTORE PUSH1 0x10 PUSH1 0x24 DUP3 ADD MSTORE PUSH16 0x496E76616C6964207472656173757279 PUSH1 0x80 SHL PUSH1 0x44 DUP3 ADD MSTORE PUSH1 0x64 SWAP1 REVERT JUMPDEST CALLVALUE PUSH2 0x1CC JUMPI PUSH0 CALLDATASIZE PUSH1 0x3 NOT ADD SLT PUSH2 0x1CC JUMPI PUSH1 0x20 PUSH1 0x7 SLOAD PUSH1 0x40 MLOAD SWAP1 DUP2 MSTORE RETURN JUMPDEST CALLVALUE PUSH2 0x1CC JUMPI PUSH0 CALLDATASIZE PUSH1 0x3 NOT ADD SLT PUSH2 0x1CC JUMPI PUSH1 0x3 SLOAD PUSH1 0x40 MLOAD PUSH1 0x1 PUSH1 0x1 PUSH1 0xA0 SHL SUB SWAP1 SWAP2 AND DUP2 MSTORE PUSH1 0x20 SWAP1 RETURN JUMPDEST POP CALLVALUE PUSH2 0x1CC JUMPI PUSH1 0x20 DUP1 PUSH1 0x3 NOT CALLDATASIZE ADD SLT PUSH2 0x1CC JUMPI DUP2 CALLDATALOAD SWAP1 PUSH2 0x339 PUSH2 0x1C33 JUMP JUMPDEST DUP2 PUSH0 MSTORE PUSH1 0x9 DUP2 MSTORE PUSH1 0x40 PUSH0 KECCAK256 SWAP3 PUSH1 0x8 DUP5 ADD SWAP4 DUP5 SLOAD SWAP1 PUSH1 0xFF DUP3 AND PUSH1 0x6 DUP2 LT ISZERO PUSH2 0x586 JUMPI PUSH1 0x3 SUB PUSH2 0x575 JUMPI PUSH1 0x1 PUSH1 0x1 PUSH1 0xA0 SHL SUB SWAP1 CALLER PUSH1 0x8 DUP5 SWAP1 SHR DUP4 AND SUB PUSH2 0x564 JUMPI DUP4 DUP2 ADD SLOAD SWAP7 DUP8 PUSH1 0x1 SHL SWAP8 DUP1 DUP10 DIV PUSH1 0x2 EQ SWAP1 ISZERO OR ISZERO PUSH2 0x551 JUMPI PUSH2 0x1F4 DUP1 DUP10 MUL SWAP1 DUP10 DUP3 DIV EQ DUP10 ISZERO OR ISZERO PUSH2 0x53E JUMPI PUSH2 0x2710 SWAP1 DIV SWAP4 DUP5 DUP10 SUB SWAP9 DUP10 GT PUSH2 0x53E JUMPI SWAP1 DUP6 DUP5 SWAP3 PUSH1 0xFF NOT AND OR DUP1 SWAP2 SSTORE PUSH1 0x8 SHR AND SWAP1 DUP3 DUP2 SLOAD AND DUP3 EQ PUSH0 EQ PUSH2 0x534 JUMPI PUSH1 0x2 ADD SLOAD SWAP1 JUMPDEST PUSH0 MSTORE PUSH1 0xA DUP6 MSTORE PUSH0 PUSH1 0x40 DUP2 KECCAK256 SSTORE PUSH0 MSTORE PUSH1 0xB DUP5 MSTORE PUSH0 PUSH1 0x40 DUP2 KECCAK256 SSTORE DUP6 DUP2 PUSH1 0x2 SLOAD AND DUP6 PUSH1 0x40 MLOAD DUP1 SWAP3 DUP2 PUSH0 DUP2 PUSH2 0x414 PUSH4 0xA9059CBB PUSH1 0xE0 SHL SWAP9 DUP10 DUP4 MSTORE CALLER DUP14 DUP5 ADD PUSH2 0x1C18 JUMP JUMPDEST SUB SWAP3 GAS CALL SWAP1 DUP2 ISZERO PUSH2 0x4EF JUMPI PUSH0 SWAP2 PUSH2 0x517 JUMPI JUMPDEST POP ISZERO PUSH2 0x506 JUMPI DUP3 ISZERO ISZERO DUP1 PUSH2 0x4FA JUMPI JUMPDEST PUSH2 0x46D JUMPI JUMPDEST DUP7 DUP7 PUSH32 0xAC1DFCFF29900D7010C04A6028E48814B8A49DAF045127ABD10A4636D1D49115 DUP8 PUSH1 0x40 MLOAD SWAP4 DUP5 MSTORE CALLER SWAP4 LOG3 PUSH1 0x1 DUP1 SSTORE STOP JUMPDEST SWAP2 DUP2 PUSH2 0x493 SWAP4 PUSH0 DUP8 SWAP5 PUSH1 0x2 SLOAD AND SWAP3 DUP8 SLOAD AND SWAP2 PUSH1 0x40 MLOAD SWAP7 DUP8 SWAP6 DUP7 SWAP5 DUP6 SWAP4 DUP5 MSTORE DUP11 DUP5 ADD PUSH2 0x1C18 JUMP JUMPDEST SUB SWAP3 GAS CALL SWAP1 DUP2 ISZERO PUSH2 0x4EF JUMPI PUSH0 SWAP2 PUSH2 0x4C2 JUMPI JUMPDEST POP ISZERO PUSH2 0x4B3 JUMPI DUP1 DUP1 DUP1 PUSH2 0x43A JUMP JUMPDEST PUSH1 0x40 MLOAD PUSH4 0x4033E4E3 PUSH1 0xE0 SHL DUP2 MSTORE REVERT JUMPDEST PUSH2 0x4E2 SWAP2 POP DUP4 RETURNDATASIZE DUP6 GT PUSH2 0x4E8 JUMPI JUMPDEST PUSH2 0x4DA DUP2 DUP4 PUSH2 0x1B26 JUMP JUMPDEST DUP2 ADD SWAP1 PUSH2 0x1BDE JUMP JUMPDEST PUSH0 PUSH2 0x4A5 JUMP JUMPDEST POP RETURNDATASIZE PUSH2 0x4D0 JUMP JUMPDEST PUSH1 0x40 MLOAD RETURNDATASIZE PUSH0 DUP3 RETURNDATACOPY RETURNDATASIZE SWAP1 REVERT JUMPDEST POP DUP2 DUP5 SLOAD AND ISZERO ISZERO PUSH2 0x435 JUMP JUMPDEST PUSH1 0x40 MLOAD PUSH4 0x880A1491 PUSH1 0xE0 SHL DUP2 MSTORE DUP5 SWAP1 REVERT JUMPDEST PUSH2 0x52E SWAP2 POP DUP7 RETURNDATASIZE DUP9 GT PUSH2 0x4E8 JUMPI PUSH2 0x4DA DUP2 DUP4 PUSH2 0x1B26 JUMP JUMPDEST PUSH0 PUSH2 0x426 JUMP JUMPDEST PUSH1 0x3 ADD SLOAD SWAP1 PUSH2 0x3D5 JUMP JUMPDEST PUSH1 0x11 DUP7 PUSH4 0x4E487B71 PUSH1 0xE0 SHL PUSH0 MSTORE MSTORE PUSH1 0x24 PUSH0 REVERT JUMPDEST PUSH1 0x11 DUP6 PUSH4 0x4E487B71 PUSH1 0xE0 SHL PUSH0 MSTORE MSTORE PUSH1 0x24 PUSH0 REVERT JUMPDEST PUSH1 0x40 MLOAD PUSH4 0x542CF5BF PUSH1 0xE1 SHL DUP2 MSTORE DUP5 SWAP1 REVERT JUMPDEST PUSH1 0x40 MLOAD PUSH4 0x691F6547 PUSH1 0xE0 SHL DUP2 MSTORE DUP4 SWAP1 REVERT JUMPDEST PUSH1 0x21 DUP5 PUSH4 0x4E487B71 PUSH1 0xE0 SHL PUSH0 MSTORE MSTORE PUSH1 0x24 PUSH0 REVERT JUMPDEST CALLVALUE PUSH2 0x1CC JUMPI PUSH0 CALLDATASIZE PUSH1 0x3 NOT ADD SLT PUSH2 0x1CC JUMPI PUSH1 0x20 PUSH1 0x40 MLOAD PUSH2 0x2710 DUP2 MSTORE RETURN JUMPDEST POP CALLVALUE PUSH2 0x1CC JUMPI PUSH2 0x5C4 CALLDATASIZE PUSH2 0x1AC5 JUMP JUMPDEST SWAP2 SWAP1 PUSH2 0x5CE PUSH2 0x1C81 JUMP JUMPDEST PUSH2 0x5D6 PUSH2 0x1C33 JUMP JUMPDEST PUSH1 0x6 SLOAD DUP4 LT DUP1 ISZERO PUSH2 0x8A2 JUMPI JUMPDEST PUSH2 0x892 JUMPI CALLER PUSH0 MSTORE PUSH1 0x20 SWAP3 PUSH1 0xA DUP5 MSTORE PUSH1 0x40 PUSH0 KECCAK256 SLOAD PUSH2 0x881 JUMPI DUP2 PUSH0 MSTORE PUSH1 0xB DUP5 MSTORE PUSH1 0x40 PUSH0 KECCAK256 SLOAD PUSH2 0x870 JUMPI PUSH1 0x5 SLOAD PUSH1 0x40 MLOAD PUSH4 0x31A9108F PUSH1 0xE1 SHL DUP2 MSTORE DUP5 DUP2 ADD DUP5 SWAP1 MSTORE PUSH1 0x1 PUSH1 0x1 PUSH1 0xA0 SHL SUB SWAP2 DUP7 SWAP1 DUP3 SWAP1 PUSH1 0x24 SWAP1 DUP3 SWAP1 DUP7 AND GAS STATICCALL SWAP1 DUP2 ISZERO PUSH2 0x4EF JUMPI PUSH0 SWAP2 PUSH2 0x843 JUMPI JUMPDEST POP DUP2 CALLER SWAP2 AND SUB PUSH2 0x832 JUMPI PUSH1 0x8 SLOAD PUSH0 NOT DUP2 EQ PUSH2 0x551 JUMPI PUSH1 0x1 ADD DUP1 PUSH1 0x8 SSTORE PUSH1 0x40 MLOAD DUP7 DUP2 ADD SWAP2 CALLER PUSH1 0x60 SHL DUP4 MSTORE TIMESTAMP PUSH1 0x34 DUP4 ADD MSTORE PUSH1 0x54 DUP3 ADD MSTORE PUSH1 0x54 DUP2 MSTORE PUSH2 0x684 DUP2 PUSH2 0x1B0B JUMP JUMPDEST MLOAD SWAP1 KECCAK256 SWAP4 DUP2 PUSH1 0x2 SLOAD AND DUP7 PUSH1 0x40 MLOAD DUP1 SWAP3 PUSH4 0x23B872DD PUSH1 0xE0 SHL DUP3 MSTORE DUP2 PUSH0 DUP2 PUSH2 0x6AE DUP11 ADDRESS CALLER DUP12 DUP6 ADD PUSH2 0x1BF6 JUMP JUMPDEST SUB SWAP3 GAS CALL SWAP1 DUP2 ISZERO PUSH2 0x4EF JUMPI PUSH0 SWAP2 PUSH2 0x815 JUMPI JUMPDEST POP ISZERO PUSH2 0x806 JUMPI SWAP1 DUP5 DUP7 SWAP3 PUSH1 0x40 MLOAD PUSH2 0x6D6 DUP2 PUSH2 0x1ADB JUMP JUMPDEST CALLER DUP2 MSTORE DUP5 DUP2 ADD PUSH0 DUP2 MSTORE PUSH1 0x40 DUP3 ADD DUP9 DUP2 MSTORE PUSH1 0x60 DUP4 ADD PUSH0 DUP2 MSTORE PUSH1 0x80 DUP5 ADD DUP10 DUP2 MSTORE PUSH1 0xA0 DUP6 ADD SWAP2 TIMESTAMP DUP4 MSTORE PUSH1 0xC0 DUP7 ADD SWAP4 PUSH0 DUP6 MSTORE PUSH1 0xE0 DUP8 ADD SWAP6 PUSH0 DUP8 MSTORE PUSH2 0x100 DUP9 ADD SWAP12 PUSH1 0x1 DUP14 MSTORE PUSH2 0x120 DUP10 ADD SWAP11 PUSH0 DUP13 MSTORE PUSH0 MSTORE PUSH1 0x9 SWAP1 MSTORE DUP11 PUSH1 0x40 PUSH0 KECCAK256 SWAP9 MLOAD AND PUSH1 0x1 PUSH1 0xA0 SHL PUSH1 0x1 SWAP1 SUB NOT SWAP1 DUP2 DUP11 SLOAD AND OR DUP10 SSTORE DUP12 PUSH1 0x1 DUP11 ADD SWAP3 MLOAD AND SWAP1 DUP3 SLOAD AND OR SWAP1 SSTORE MLOAD PUSH1 0x2 DUP8 ADD SSTORE MLOAD PUSH1 0x3 DUP7 ADD SSTORE MLOAD DUP6 DUP6 ADD SSTORE MLOAD PUSH1 0x5 DUP5 ADD SSTORE MLOAD PUSH1 0x6 DUP4 ADD SSTORE MLOAD PUSH1 0x7 DUP3 ADD SSTORE PUSH1 0x8 ADD SWAP4 MLOAD SWAP1 PUSH1 0x6 DUP3 LT ISZERO PUSH2 0x7F3 JUMPI POP SWAP1 PUSH2 0x79C SWAP4 SWAP3 SWAP2 PUSH1 0xFF DUP1 NOT DUP6 SLOAD AND SWAP2 AND OR DUP4 SSTORE MLOAD AND SWAP1 PUSH2 0x1B9A JUMP JUMPDEST CALLER PUSH0 MSTORE PUSH1 0xA DUP5 MSTORE DUP3 PUSH1 0x40 PUSH0 KECCAK256 SSTORE DUP2 PUSH0 MSTORE PUSH1 0xB DUP5 MSTORE DUP3 PUSH1 0x40 PUSH0 KECCAK256 SSTORE PUSH1 0x40 MLOAD SWAP2 DUP3 MSTORE DUP4 DUP3 ADD MSTORE DUP2 PUSH32 0x9797DED04AFD2C3EE4ACC48528D0E1302ED90D1BE904D21E0A9C6724A025144 PUSH1 0x40 CALLER SWAP4 LOG3 PUSH1 0x1 DUP1 SSTORE PUSH1 0x40 MLOAD SWAP1 DUP2 MSTORE RETURN JUMPDEST PUSH1 0x21 SWAP1 PUSH4 0x4E487B71 PUSH1 0xE0 SHL PUSH0 MSTORE MSTORE PUSH1 0x24 PUSH0 REVERT JUMPDEST PUSH1 0x40 MLOAD PUSH4 0x1231EC2F PUSH1 0xE2 SHL DUP2 MSTORE REVERT JUMPDEST PUSH2 0x82C SWAP2 POP DUP8 RETURNDATASIZE DUP10 GT PUSH2 0x4E8 JUMPI PUSH2 0x4DA DUP2 DUP4 PUSH2 0x1B26 JUMP JUMPDEST PUSH0 PUSH2 0x6C0 JUMP JUMPDEST PUSH1 0x40 MLOAD PUSH4 0xD967A6F3 PUSH1 0xE0 SHL DUP2 MSTORE DUP5 SWAP1 REVERT JUMPDEST PUSH2 0x863 SWAP2 POP DUP7 RETURNDATASIZE DUP9 GT PUSH2 0x869 JUMPI JUMPDEST PUSH2 0x85B DUP2 DUP4 PUSH2 0x1B26 JUMP JUMPDEST DUP2 ADD SWAP1 PUSH2 0x1BBF JUMP JUMPDEST PUSH0 PUSH2 0x643 JUMP JUMPDEST POP RETURNDATASIZE PUSH2 0x851 JUMP JUMPDEST PUSH1 0x40 MLOAD PUSH4 0xF41FF0C9 PUSH1 0xE0 SHL DUP2 MSTORE DUP4 SWAP1 REVERT JUMPDEST PUSH1 0x40 MLOAD PUSH4 0x1844F0A5 PUSH1 0xE1 SHL DUP2 MSTORE DUP4 SWAP1 REVERT JUMPDEST POP PUSH1 0x40 MLOAD PUSH4 0x103BE3B PUSH1 0xE2 SHL DUP2 MSTORE REVERT JUMPDEST POP PUSH1 0x7 SLOAD DUP4 GT PUSH2 0x5E2 JUMP JUMPDEST POP CALLVALUE PUSH2 0x1CC JUMPI PUSH1 0x20 DUP1 PUSH1 0x3 NOT CALLDATASIZE ADD SLT PUSH2 0x1CC JUMPI DUP2 CALLDATALOAD SWAP2 PUSH2 0x8CB PUSH2 0x1C56 JUMP JUMPDEST PUSH2 0x8D3 PUSH2 0x1C33 JUMP JUMPDEST DUP3 PUSH0 MSTORE PUSH1 0x9 DUP3 MSTORE PUSH1 0x40 PUSH0 KECCAK256 PUSH1 0x8 DUP2 ADD DUP1 SLOAD PUSH1 0xFF DUP2 AND PUSH1 0x6 DUP2 LT ISZERO PUSH2 0xAB6 JUMPI PUSH1 0x1 DUP2 EQ ISZERO SWAP1 DUP2 PUSH2 0xAAA JUMPI JUMPDEST POP PUSH2 0xA9A JUMPI SWAP1 PUSH1 0x5 DUP5 SWAP4 SWAP3 PUSH1 0xFF NOT AND OR SWAP1 SSTORE PUSH1 0x1 DUP1 PUSH1 0xA0 SHL SUB DUP1 DUP3 SLOAD AND PUSH0 MSTORE PUSH1 0xA DUP6 MSTORE PUSH0 PUSH1 0x40 DUP2 KECCAK256 SSTORE PUSH1 0x2 DUP3 ADD SLOAD PUSH0 MSTORE PUSH1 0xB DUP6 MSTORE PUSH0 PUSH1 0x40 DUP2 KECCAK256 SSTORE DUP1 PUSH1 0x2 SLOAD AND SWAP1 PUSH2 0x969 DUP7 DUP3 DUP6 SLOAD AND DUP7 DUP7 ADD SWAP5 DUP6 SLOAD SWAP2 PUSH0 PUSH1 0x40 MLOAD DUP1 SWAP7 DUP2 SWAP6 DUP3 SWAP5 PUSH4 0xA9059CBB PUSH1 0xE0 SHL SWAP14 DUP15 DUP6 MSTORE DUP5 ADD PUSH2 0x1C18 JUMP JUMPDEST SUB SWAP3 GAS CALL SWAP1 DUP2 ISZERO PUSH2 0x4EF JUMPI PUSH0 SWAP2 PUSH2 0xA7D JUMPI JUMPDEST POP ISZERO PUSH2 0xA6C JUMPI PUSH1 0x1 DUP4 ADD SWAP3 DUP2 DUP5 SLOAD AND DUP1 PUSH2 0x9D7 JUMPI JUMPDEST DUP9 PUSH0 DUP1 MLOAD PUSH1 0x20 PUSH2 0x1DC3 DUP4 CODECOPY DUP2 MLOAD SWAP2 MSTORE PUSH1 0x60 DUP11 PUSH1 0x19 PUSH1 0x40 MLOAD SWAP2 DUP1 DUP4 MSTORE DUP3 ADD MSTORE PUSH25 0x22B6B2B933B2B731BC903932B33AB73210313C9030B236B4B7 PUSH1 0x39 SHL PUSH1 0x40 DUP3 ADD MSTORE LOG2 PUSH1 0x1 DUP1 SSTORE STOP JUMPDEST DUP8 SWAP5 SWAP3 PUSH1 0x3 PUSH2 0xA1D SWAP8 SWAP6 SWAP4 PUSH0 SWAP4 DUP5 MSTORE PUSH1 0xA DUP9 MSTORE DUP4 PUSH1 0x40 DUP2 KECCAK256 SSTORE ADD SLOAD DUP3 MSTORE PUSH1 0xB DUP7 MSTORE DUP2 PUSH1 0x40 DUP2 KECCAK256 SSTORE DUP1 PUSH1 0x2 SLOAD AND SWAP4 SLOAD AND SWAP2 SLOAD SWAP4 PUSH1 0x40 MLOAD SWAP7 DUP8 SWAP6 DUP7 SWAP5 DUP6 SWAP4 DUP5 MSTORE DUP11 DUP5 ADD PUSH2 0x1C18 JUMP JUMPDEST SUB SWAP3 GAS CALL SWAP1 DUP2 ISZERO PUSH2 0x4EF JUMPI PUSH0 SWAP2 PUSH2 0xA4F JUMPI JUMPDEST POP ISZERO PUSH2 0xA40 JUMPI DUP1 DUP1 DUP1 DUP1 DUP1 DUP1 PUSH2 0x990 JUMP JUMPDEST PUSH1 0x40 MLOAD PUSH4 0x3C312751 PUSH1 0xE2 SHL DUP2 MSTORE REVERT JUMPDEST PUSH2 0xA66 SWAP2 POP DUP4 RETURNDATASIZE DUP6 GT PUSH2 0x4E8 JUMPI PUSH2 0x4DA DUP2 DUP4 PUSH2 0x1B26 JUMP JUMPDEST PUSH0 PUSH2 0xA2F JUMP JUMPDEST PUSH1 0x40 MLOAD PUSH4 0x3C312751 PUSH1 0xE2 SHL DUP2 MSTORE DUP6 SWAP1 REVERT JUMPDEST PUSH2 0xA94 SWAP2 POP DUP8 RETURNDATASIZE DUP10 GT PUSH2 0x4E8 JUMPI PUSH2 0x4DA DUP2 DUP4 PUSH2 0x1B26 JUMP JUMPDEST PUSH0 PUSH2 0x97B JUMP JUMPDEST PUSH1 0x40 MLOAD PUSH3 0x2D949 PUSH1 0xED SHL DUP2 MSTORE DUP5 SWAP1 REVERT JUMPDEST PUSH1 0x2 SWAP2 POP EQ ISZERO PUSH0 PUSH2 0x8FD JUMP JUMPDEST PUSH1 0x21 DUP6 PUSH4 0x4E487B71 PUSH1 0xE0 SHL PUSH0 MSTORE MSTORE PUSH1 0x24 PUSH0 REVERT JUMPDEST POP CALLVALUE PUSH2 0x1CC JUMPI PUSH1 0x20 CALLDATASIZE PUSH1 0x3 NOT ADD SLT PUSH2 0x1CC JUMPI PUSH2 0xAE3 PUSH2 0x1A8E JUMP JUMPDEST PUSH2 0xAEB PUSH2 0x1C56 JUMP JUMPDEST PUSH1 0x1 PUSH1 0x1 PUSH1 0xA0 SHL SUB AND SWAP1 DUP2 ISZERO PUSH2 0xB12 JUMPI POP PUSH1 0x3 DUP1 SLOAD PUSH1 0x1 PUSH1 0x1 PUSH1 0xA0 SHL SUB NOT AND SWAP2 SWAP1 SWAP2 OR SWAP1 SSTORE STOP JUMPDEST PUSH1 0x64 SWAP1 PUSH1 0x20 PUSH1 0x40 MLOAD SWAP2 PUSH3 0x461BCD PUSH1 0xE5 SHL DUP4 MSTORE DUP3 ADD MSTORE PUSH1 0xF PUSH1 0x24 DUP3 ADD MSTORE PUSH15 0x125B9D985B1A5908189858DAD95B99 PUSH1 0x8A SHL PUSH1 0x44 DUP3 ADD MSTORE REVERT JUMPDEST CALLVALUE PUSH2 0x1CC JUMPI PUSH1 0x20 CALLDATASIZE PUSH1 0x3 NOT ADD SLT PUSH2 0x1CC JUMPI PUSH1 0x1 PUSH1 0x1 PUSH1 0xA0 SHL SUB PUSH2 0xB69 PUSH2 0x1A8E JUMP JUMPDEST AND PUSH0 MSTORE PUSH1 0xA PUSH1 0x20 MSTORE PUSH1 0x20 PUSH1 0x40 PUSH0 KECCAK256 SLOAD PUSH1 0x40 MLOAD SWAP1 DUP2 MSTORE RETURN JUMPDEST POP CALLVALUE PUSH2 0x1CC JUMPI PUSH1 0x20 CALLDATASIZE PUSH1 0x3 NOT ADD SLT PUSH2 0x1CC JUMPI PUSH2 0xB9A PUSH2 0x1A8E JUMP JUMPDEST PUSH2 0xBA2 PUSH2 0x1C56 JUMP JUMPDEST PUSH1 0x1 PUSH1 0x1 PUSH1 0xA0 SHL SUB AND SWAP1 DUP2 ISZERO PUSH2 0xBC9 JUMPI POP PUSH1 0x5 DUP1 SLOAD PUSH1 0x1 PUSH1 0x1 PUSH1 0xA0 SHL SUB NOT AND SWAP2 SWAP1 SWAP2 OR SWAP1 SSTORE STOP JUMPDEST PUSH1 0x64 SWAP1 PUSH1 0x20 PUSH1 0x40 MLOAD SWAP2 PUSH3 0x461BCD PUSH1 0xE5 SHL DUP4 MSTORE DUP3 ADD MSTORE PUSH1 0x10 PUSH1 0x24 DUP3 ADD MSTORE PUSH16 0x496E76616C6964206372656174757265 PUSH1 0x80 SHL PUSH1 0x44 DUP3 ADD MSTORE REVERT JUMPDEST CALLVALUE PUSH2 0x1CC JUMPI PUSH0 CALLDATASIZE PUSH1 0x3 NOT ADD SLT PUSH2 0x1CC JUMPI PUSH0 SLOAD PUSH1 0x40 MLOAD PUSH1 0x1 PUSH1 0x1 PUSH1 0xA0 SHL SUB SWAP1 SWAP2 AND DUP2 MSTORE PUSH1 0x20 SWAP1 RETURN JUMPDEST POP CALLVALUE PUSH2 0x1CC JUMPI PUSH2 0xC36 CALLDATASIZE PUSH2 0x1AC5 JUMP JUMPDEST SWAP2 PUSH2 0xC3F PUSH2 0x1C56 JUMP JUMPDEST DUP3 DUP3 LT ISZERO PUSH2 0xC50 JUMPI POP PUSH1 0x6 SSTORE PUSH1 0x7 SSTORE STOP JUMPDEST PUSH1 0x64 SWAP1 PUSH1 0x20 PUSH1 0x40 MLOAD SWAP2 PUSH3 0x461BCD PUSH1 0xE5 SHL DUP4 MSTORE DUP3 ADD MSTORE PUSH1 0xE PUSH1 0x24 DUP3 ADD MSTORE PUSH14 0x496E76616C6964206C696D697473 PUSH1 0x90 SHL PUSH1 0x44 DUP3 ADD MSTORE REVERT JUMPDEST CALLVALUE PUSH2 0x1CC JUMPI PUSH0 CALLDATASIZE PUSH1 0x3 NOT ADD SLT PUSH2 0x1CC JUMPI PUSH2 0xC9D PUSH2 0x1C56 JUMP JUMPDEST PUSH2 0xCA5 PUSH2 0x1C81 JUMP JUMPDEST PUSH0 DUP1 SLOAD PUSH1 0xFF PUSH1 0xA0 SHL NOT AND PUSH1 0x1 PUSH1 0xA0 SHL OR SWAP1 SSTORE PUSH1 0x40 MLOAD CALLER DUP2 MSTORE PUSH32 0x62E78CEA01BEE320CD4E420270B5EA74000D11B0C9F74754EBDBFC544B05A258 SWAP1 PUSH1 0x20 SWAP1 LOG1 STOP JUMPDEST POP CALLVALUE PUSH2 0x1CC JUMPI PUSH1 0x20 SWAP1 DUP2 PUSH1 0x3 NOT CALLDATASIZE ADD SLT PUSH2 0x1CC JUMPI DUP1 CALLDATALOAD SWAP2 PUSH2 0xD04 PUSH2 0x1C33 JUMP JUMPDEST DUP3 PUSH0 MSTORE PUSH1 0x9 DUP2 MSTORE PUSH1 0x40 PUSH0 KECCAK256 PUSH1 0x8 DUP2 ADD DUP1 SLOAD PUSH1 0xFF DUP2 AND PUSH1 0x6 DUP2 LT ISZERO PUSH2 0xE1D JUMPI PUSH1 0x1 SUB PUSH2 0xE0C JUMPI DUP3 SLOAD PUSH1 0x1 PUSH1 0x1 PUSH1 0xA0 SHL SUB SWAP3 SWAP1 DUP4 AND SWAP2 CALLER DUP4 SUB PUSH2 0xDFB JUMPI SWAP2 DUP6 SWAP4 SWAP2 PUSH1 0x5 PUSH2 0xD98 SWAP7 SWAP5 PUSH1 0xFF NOT AND OR SWAP1 SSTORE PUSH0 MSTORE PUSH1 0xA DUP4 MSTORE PUSH0 PUSH1 0x40 DUP2 KECCAK256 SSTORE PUSH1 0x2 DUP3 ADD SLOAD PUSH0 MSTORE PUSH1 0xB DUP4 MSTORE PUSH0 PUSH1 0x40 DUP2 KECCAK256 SSTORE DUP6 DUP2 PUSH1 0x2 SLOAD AND SWAP2 DUP4 SLOAD AND SWAP3 ADD SLOAD SWAP2 PUSH0 PUSH1 0x40 MLOAD DUP1 SWAP7 DUP2 SWAP6 DUP3 SWAP5 PUSH4 0xA9059CBB PUSH1 0xE0 SHL DUP5 MSTORE DUP12 DUP5 ADD PUSH2 0x1C18 JUMP JUMPDEST SUB SWAP3 GAS CALL SWAP2 DUP3 ISZERO PUSH2 0x4EF JUMPI PUSH0 SWAP3 PUSH2 0xDDE JUMPI JUMPDEST POP POP ISZERO PUSH2 0xA40 JUMPI POP CALLER SWAP1 PUSH32 0xCB9EFE3DEE7D10A1CE7248D3BB4E58134AE02576D3439448ED856CC3373E17A3 PUSH0 DUP1 LOG3 PUSH1 0x1 DUP1 SSTORE STOP JUMPDEST PUSH2 0xDF4 SWAP3 POP DUP1 RETURNDATASIZE LT PUSH2 0x4E8 JUMPI PUSH2 0x4DA DUP2 DUP4 PUSH2 0x1B26 JUMP JUMPDEST PUSH0 DUP1 PUSH2 0xDAA JUMP JUMPDEST PUSH1 0x40 MLOAD PUSH4 0x8FF4F0C9 PUSH1 0xE0 SHL DUP2 MSTORE DUP8 SWAP1 REVERT JUMPDEST PUSH1 0x40 MLOAD PUSH4 0x1F7806AF PUSH1 0xE3 SHL DUP2 MSTORE DUP6 SWAP1 REVERT JUMPDEST PUSH1 0x21 DUP7 PUSH4 0x4E487B71 PUSH1 0xE0 SHL PUSH0 MSTORE MSTORE PUSH1 0x24 PUSH0 REVERT JUMPDEST POP CALLVALUE PUSH2 0x1CC JUMPI PUSH1 0x20 DUP1 PUSH1 0x3 NOT CALLDATASIZE ADD SLT PUSH2 0x1CC JUMPI DUP2 CALLDATALOAD SWAP2 PUSH2 0xE4E PUSH2 0x1C33 JUMP JUMPDEST DUP3 PUSH0 MSTORE PUSH1 0x9 DUP3 MSTORE PUSH1 0x40 PUSH0 KECCAK256 PUSH1 0x8 DUP2 ADD DUP1 SLOAD PUSH1 0xFF DUP2 AND PUSH1 0x6 DUP2 LT ISZERO PUSH2 0xAB6 JUMPI PUSH1 0x1 SUB PUSH2 0xA9A JUMPI DUP3 SLOAD PUSH1 0x1 PUSH1 0x1 PUSH1 0xA0 SHL SUB SWAP3 SWAP1 DUP4 AND SWAP2 CALLER DUP4 SUB PUSH2 0xF98 JUMPI PUSH1 0x5 DUP6 ADD SLOAD PUSH2 0x258 DUP2 ADD DUP1 SWAP2 GT PUSH2 0xF85 JUMPI TIMESTAMP GT ISZERO PUSH2 0xF74 JUMPI SWAP2 DUP7 SWAP4 SWAP2 PUSH1 0x5 PUSH2 0xEFA SWAP7 SWAP5 PUSH1 0xFF NOT AND OR SWAP1 SSTORE PUSH0 MSTORE PUSH1 0xA DUP4 MSTORE PUSH0 PUSH1 0x40 DUP2 KECCAK256 SSTORE PUSH1 0x2 DUP3 ADD SLOAD PUSH0 MSTORE PUSH1 0xB DUP4 MSTORE PUSH0 PUSH1 0x40 DUP2 KECCAK256 SSTORE DUP5 DUP2 PUSH1 0x2 SLOAD AND SWAP2 DUP4 SLOAD AND SWAP3 ADD SLOAD SWAP2 PUSH0 PUSH1 0x40 MLOAD DUP1 SWAP7 DUP2 SWAP6 DUP3 SWAP5 PUSH4 0xA9059CBB PUSH1 0xE0 SHL DUP5 MSTORE DUP11 DUP5 ADD PUSH2 0x1C18 JUMP JUMPDEST SUB SWAP3 GAS CALL SWAP1 DUP2 ISZERO PUSH2 0x4EF JUMPI PUSH0 SWAP2 PUSH2 0xF57 JUMPI JUMPDEST POP ISZERO PUSH2 0xA40 JUMPI POP PUSH1 0x60 PUSH0 DUP1 MLOAD PUSH1 0x20 PUSH2 0x1DC3 DUP4 CODECOPY DUP2 MLOAD SWAP2 MSTORE SWAP2 PUSH1 0x17 PUSH1 0x40 MLOAD SWAP2 DUP1 DUP4 MSTORE DUP3 ADD MSTORE PUSH23 0x121BDCDD081D1A5B595BDD5D080B481B9BC819DD595CDD PUSH1 0x4A SHL PUSH1 0x40 DUP3 ADD MSTORE LOG2 PUSH1 0x1 DUP1 SSTORE STOP JUMPDEST PUSH2 0xF6E SWAP2 POP DUP4 RETURNDATASIZE DUP6 GT PUSH2 0x4E8 JUMPI PUSH2 0x4DA DUP2 DUP4 PUSH2 0x1B26 JUMP JUMPDEST PUSH0 PUSH2 0xF0C JUMP JUMPDEST PUSH1 0x40 MLOAD PUSH4 0x26C015AB PUSH1 0xE2 SHL DUP2 MSTORE DUP7 SWAP1 REVERT JUMPDEST PUSH1 0x11 DUP8 PUSH4 0x4E487B71 PUSH1 0xE0 SHL PUSH0 MSTORE MSTORE PUSH1 0x24 PUSH0 REVERT JUMPDEST PUSH1 0x40 MLOAD PUSH4 0x8FF4F0C9 PUSH1 0xE0 SHL DUP2 MSTORE DUP7 SWAP1 REVERT JUMPDEST POP CALLVALUE PUSH2 0x1CC JUMPI PUSH1 0x20 CALLDATASIZE PUSH1 0x3 NOT ADD SLT PUSH2 0x1CC JUMPI DUP1 PUSH2 0x140 SWAP2 CALLDATALOAD PUSH0 MSTORE PUSH1 0x9 PUSH1 0x20 MSTORE PUSH1 0x40 PUSH0 KECCAK256 SWAP1 PUSH1 0x1 DUP1 PUSH1 0xA0 SHL SUB SWAP1 DUP2 DUP4 SLOAD AND SWAP3 DUP3 PUSH1 0x1 DUP3 ADD SLOAD AND SWAP2 PUSH1 0x2 DUP3 ADD SLOAD SWAP1 PUSH1 0x3 DUP4 ADD SLOAD SWAP1 DUP4 ADD SLOAD PUSH1 0x5 DUP5 ADD SLOAD SWAP2 PUSH1 0x6 DUP6 ADD SLOAD SWAP4 PUSH1 0x8 PUSH1 0x7 DUP8 ADD SLOAD SWAP7 ADD SLOAD SWAP7 PUSH1 0x40 MLOAD SWAP10 DUP11 MSTORE PUSH1 0x20 DUP11 ADD MSTORE PUSH1 0x40 DUP10 ADD MSTORE PUSH1 0x60 DUP9 ADD MSTORE PUSH1 0x80 DUP8 ADD MSTORE PUSH1 0xA0 DUP7 ADD MSTORE PUSH1 0xC0 DUP6 ADD MSTORE PUSH1 0xE0 DUP5 ADD MSTORE PUSH2 0x1042 PUSH2 0x100 DUP5 ADD PUSH1 0xFF DUP4 AND PUSH2 0x1AA4 JUMP JUMPDEST PUSH1 0x8 SHR AND PUSH2 0x120 DUP3 ADD MSTORE RETURN JUMPDEST CALLVALUE PUSH2 0x1CC JUMPI PUSH0 CALLDATASIZE PUSH1 0x3 NOT ADD SLT PUSH2 0x1CC JUMPI PUSH2 0x1066 PUSH2 0x1C56 JUMP JUMPDEST PUSH0 DUP1 SLOAD PUSH1 0x1 PUSH1 0x1 PUSH1 0xA0 SHL SUB NOT DUP2 AND DUP3 SSTORE PUSH1 0x1 PUSH1 0x1 PUSH1 0xA0 SHL SUB AND PUSH0 DUP1 MLOAD PUSH1 0x20 PUSH2 0x1DE3 DUP4 CODECOPY DUP2 MLOAD SWAP2 MSTORE DUP3 DUP1 LOG3 STOP JUMPDEST POP CALLVALUE PUSH2 0x1CC JUMPI PUSH1 0x20 CALLDATASIZE PUSH1 0x3 NOT ADD SLT PUSH2 0x1CC JUMPI CALLDATALOAD PUSH0 MSTORE PUSH1 0xB PUSH1 0x20 MSTORE PUSH1 0x20 PUSH1 0x40 PUSH0 KECCAK256 SLOAD PUSH1 0x40 MLOAD SWAP1 DUP2 MSTORE RETURN JUMPDEST CALLVALUE PUSH2 0x1CC JUMPI PUSH0 CALLDATASIZE PUSH1 0x3 NOT ADD SLT PUSH2 0x1CC JUMPI PUSH1 0x5 SLOAD PUSH1 0x40 MLOAD PUSH1 0x1 PUSH1 0x1 PUSH1 0xA0 SHL SUB SWAP1 SWAP2 AND DUP2 MSTORE PUSH1 0x20 SWAP1 RETURN JUMPDEST POP CALLVALUE PUSH2 0x1CC JUMPI PUSH0 CALLDATASIZE PUSH1 0x3 NOT ADD SLT PUSH2 0x1CC JUMPI SLOAD PUSH1 0x40 MLOAD PUSH1 0x1 PUSH1 0x1 PUSH1 0xA0 SHL SUB SWAP1 SWAP2 AND DUP2 MSTORE PUSH1 0x20 SWAP1 RETURN JUMPDEST CALLVALUE PUSH2 0x1CC JUMPI PUSH0 CALLDATASIZE PUSH1 0x3 NOT ADD SLT PUSH2 0x1CC JUMPI PUSH1 0x20 PUSH1 0xFF PUSH0 SLOAD PUSH1 0xA0 SHR AND PUSH1 0x40 MLOAD SWAP1 ISZERO ISZERO DUP2 MSTORE RETURN JUMPDEST CALLVALUE PUSH2 0x1CC JUMPI PUSH1 0x20 CALLDATASIZE PUSH1 0x3 NOT ADD SLT PUSH2 0x1CC JUMPI PUSH1 0x1 PUSH1 0x1 PUSH1 0xA0 SHL SUB PUSH2 0x114F PUSH2 0x1A8E JUMP JUMPDEST AND PUSH0 MSTORE PUSH1 0xA PUSH1 0x20 MSTORE PUSH1 0x20 PUSH1 0x40 PUSH0 KECCAK256 SLOAD ISZERO ISZERO PUSH1 0x40 MLOAD SWAP1 DUP2 MSTORE RETURN JUMPDEST CALLVALUE PUSH2 0x1CC JUMPI PUSH0 CALLDATASIZE PUSH1 0x3 NOT ADD SLT PUSH2 0x1CC JUMPI PUSH1 0x20 PUSH1 0x40 MLOAD PUSH2 0x1F4 DUP2 MSTORE RETURN JUMPDEST CALLVALUE PUSH2 0x1CC JUMPI PUSH0 CALLDATASIZE PUSH1 0x3 NOT ADD SLT PUSH2 0x1CC JUMPI PUSH1 0x2 SLOAD PUSH1 0x40 MLOAD PUSH1 0x1 PUSH1 0x1 PUSH1 0xA0 SHL SUB SWAP1 SWAP2 AND DUP2 MSTORE PUSH1 0x20 SWAP1 RETURN JUMPDEST POP CALLVALUE PUSH2 0x1CC JUMPI PUSH1 0x40 CALLDATASIZE PUSH1 0x3 NOT ADD SLT PUSH2 0x1CC JUMPI PUSH1 0x24 CALLDATALOAD DUP2 CALLDATALOAD PUSH2 0x11CB PUSH2 0x1C81 JUMP JUMPDEST PUSH2 0x11D3 PUSH2 0x1C33 JUMP JUMPDEST DUP1 PUSH0 MSTORE PUSH1 0x20 PUSH1 0x9 DUP2 MSTORE PUSH1 0x40 PUSH0 KECCAK256 PUSH1 0x8 DUP2 ADD SWAP1 PUSH1 0xFF DUP3 SLOAD AND PUSH1 0x6 DUP2 LT ISZERO PUSH2 0x13FE JUMPI PUSH1 0x1 SUB PUSH2 0x13ED JUMPI DUP1 SLOAD PUSH1 0x1 PUSH1 0x1 PUSH1 0xA0 SHL SUB SWAP1 DUP2 AND CALLER EQ PUSH2 0x13DC JUMPI CALLER PUSH0 MSTORE PUSH1 0xA DUP5 MSTORE PUSH1 0x40 PUSH0 KECCAK256 SLOAD PUSH2 0x13CB JUMPI DUP6 PUSH0 MSTORE PUSH1 0xB DUP5 MSTORE PUSH1 0x40 PUSH0 KECCAK256 SLOAD PUSH2 0x13BA JUMPI PUSH1 0x5 DUP3 ADD SLOAD PUSH2 0x258 DUP2 ADD DUP1 SWAP2 GT PUSH2 0x13A7 JUMPI TIMESTAMP LT ISZERO PUSH2 0x1396 JUMPI PUSH1 0x24 DUP5 DUP3 PUSH1 0x5 SLOAD AND PUSH1 0x40 MLOAD SWAP3 DUP4 DUP1 SWAP3 PUSH4 0x31A9108F PUSH1 0xE1 SHL DUP3 MSTORE DUP12 DUP14 DUP4 ADD MSTORE GAS STATICCALL SWAP1 DUP2 ISZERO PUSH2 0x4EF JUMPI PUSH0 SWAP2 PUSH2 0x1379 JUMPI JUMPDEST POP DUP2 CALLER SWAP2 AND SUB PUSH2 0x1368 JUMPI DUP4 PUSH2 0x12AB SWAP2 PUSH1 0x2 SLOAD AND DUP9 DUP5 ADD SLOAD SWAP1 DUP10 PUSH0 PUSH1 0x40 MLOAD DUP1 SWAP7 DUP2 SWAP6 DUP3 SWAP5 PUSH4 0x23B872DD PUSH1 0xE0 SHL DUP5 MSTORE ADDRESS SWAP1 CALLER SWAP1 DUP6 ADD PUSH2 0x1BF6 JUMP JUMPDEST SUB SWAP3 GAS CALL SWAP1 DUP2 ISZERO PUSH2 0x4EF JUMPI PUSH0 SWAP2 PUSH2 0x134B JUMPI JUMPDEST POP ISZERO PUSH2 0x133A JUMPI SWAP1 DUP2 PUSH1 0x1 PUSH32 0x4480FDF0275FF0748200AB3CDCC450685E845D860FDC94461FEA4E0DC0362177 SWAP5 SWAP4 ADD CALLER PUSH1 0x1 DUP1 PUSH1 0xA0 SHL SUB NOT DUP3 SLOAD AND OR SWAP1 SSTORE DUP6 PUSH1 0x3 DUP3 ADD SSTORE PUSH1 0x6 TIMESTAMP SWAP2 ADD SSTORE PUSH1 0x2 PUSH1 0xFF NOT DUP3 SLOAD AND OR SWAP1 SSTORE CALLER PUSH0 MSTORE PUSH1 0xA DUP2 MSTORE DUP3 PUSH1 0x40 PUSH0 KECCAK256 SSTORE DUP4 PUSH0 MSTORE PUSH1 0xB DUP2 MSTORE DUP3 PUSH1 0x40 PUSH0 KECCAK256 SSTORE PUSH1 0x40 MLOAD SWAP4 DUP5 MSTORE CALLER SWAP4 LOG3 PUSH1 0x1 DUP1 SSTORE STOP JUMPDEST PUSH1 0x40 MLOAD PUSH4 0x1231EC2F PUSH1 0xE2 SHL DUP2 MSTORE DUP7 SWAP1 REVERT JUMPDEST PUSH2 0x1362 SWAP2 POP DUP5 RETURNDATASIZE DUP7 GT PUSH2 0x4E8 JUMPI PUSH2 0x4DA DUP2 DUP4 PUSH2 0x1B26 JUMP JUMPDEST PUSH0 PUSH2 0x12BD JUMP JUMPDEST PUSH1 0x40 MLOAD PUSH4 0xD967A6F3 PUSH1 0xE0 SHL DUP2 MSTORE DUP8 SWAP1 REVERT JUMPDEST PUSH2 0x1390 SWAP2 POP DUP6 RETURNDATASIZE DUP8 GT PUSH2 0x869 JUMPI PUSH2 0x85B DUP2 DUP4 PUSH2 0x1B26 JUMP JUMPDEST PUSH0 PUSH2 0x1273 JUMP JUMPDEST PUSH1 0x40 MLOAD PUSH4 0x7382E321 PUSH1 0xE0 SHL DUP2 MSTORE DUP8 SWAP1 REVERT JUMPDEST PUSH1 0x11 DUP9 PUSH4 0x4E487B71 PUSH1 0xE0 SHL PUSH0 MSTORE MSTORE PUSH1 0x24 PUSH0 REVERT JUMPDEST PUSH1 0x40 MLOAD PUSH4 0xF41FF0C9 PUSH1 0xE0 SHL DUP2 MSTORE DUP8 SWAP1 REVERT JUMPDEST PUSH1 0x40 MLOAD PUSH4 0x1844F0A5 PUSH1 0xE1 SHL DUP2 MSTORE DUP8 SWAP1 REVERT JUMPDEST PUSH1 0x40 MLOAD PUSH4 0x50C8FD5 PUSH1 0xE0 SHL DUP2 MSTORE DUP8 SWAP1 REVERT JUMPDEST PUSH1 0x40 MLOAD PUSH4 0x71007189 PUSH1 0xE0 SHL DUP2 MSTORE DUP7 SWAP1 REVERT JUMPDEST PUSH1 0x21 DUP8 PUSH4 0x4E487B71 PUSH1 0xE0 SHL PUSH0 MSTORE MSTORE PUSH1 0x24 PUSH0 REVERT JUMPDEST POP CALLVALUE PUSH2 0x1CC JUMPI PUSH1 0x20 CALLDATASIZE PUSH1 0x3 NOT ADD SLT PUSH2 0x1CC JUMPI PUSH0 PUSH2 0x120 PUSH1 0x40 MLOAD PUSH2 0x1433 DUP2 PUSH2 0x1ADB JUMP JUMPDEST DUP3 DUP2 MSTORE DUP3 PUSH1 0x20 DUP3 ADD MSTORE DUP3 PUSH1 0x40 DUP3 ADD MSTORE DUP3 PUSH1 0x60 DUP3 ADD MSTORE DUP3 PUSH1 0x80 DUP3 ADD MSTORE DUP3 PUSH1 0xA0 DUP3 ADD MSTORE DUP3 PUSH1 0xC0 DUP3 ADD MSTORE DUP3 PUSH1 0xE0 DUP3 ADD MSTORE DUP3 PUSH2 0x100 DUP3 ADD MSTORE ADD MSTORE DUP1 CALLDATALOAD PUSH0 MSTORE PUSH1 0x9 PUSH1 0x20 MSTORE PUSH1 0x40 PUSH0 KECCAK256 PUSH1 0x8 PUSH1 0x40 MLOAD SWAP2 PUSH2 0x1485 DUP4 PUSH2 0x1ADB JUMP JUMPDEST DUP1 SLOAD PUSH1 0x1 PUSH1 0x1 PUSH1 0xA0 SHL SUB SWAP1 DUP2 AND DUP5 MSTORE PUSH1 0x1 DUP3 ADD SLOAD AND PUSH1 0x20 DUP5 ADD MSTORE PUSH1 0x2 DUP2 ADD SLOAD PUSH1 0x40 DUP5 ADD MSTORE PUSH1 0x3 DUP2 ADD SLOAD PUSH1 0x60 DUP5 ADD MSTORE DUP4 DUP2 ADD SLOAD PUSH1 0x80 DUP5 ADD MSTORE PUSH1 0x5 DUP2 ADD SLOAD PUSH1 0xA0 DUP5 ADD MSTORE PUSH1 0x6 DUP1 DUP3 ADD SLOAD PUSH1 0xC0 DUP6 ADD MSTORE PUSH1 0x7 DUP3 ADD SLOAD PUSH1 0xE0 DUP6 ADD MSTORE SWAP2 ADD SLOAD SWAP1 PUSH1 0xFF DUP3 AND SWAP1 DUP2 LT ISZERO PUSH2 0x586 JUMPI PUSH2 0x140 SWAP4 POP PUSH2 0x100 DUP4 ADD MSTORE PUSH1 0x1 DUP1 PUSH1 0xA0 SHL SUB SWAP1 PUSH1 0x8 SHR AND PUSH2 0x120 DUP3 ADD MSTORE PUSH1 0x40 MLOAD SWAP1 PUSH1 0x1 DUP1 PUSH1 0xA0 SHL SUB DUP2 MLOAD AND DUP3 MSTORE PUSH1 0x1 DUP1 PUSH1 0xA0 SHL SUB PUSH1 0x20 DUP3 ADD MLOAD AND PUSH1 0x20 DUP4 ADD MSTORE PUSH1 0x40 DUP2 ADD MLOAD PUSH1 0x40 DUP4 ADD MSTORE PUSH1 0x60 DUP2 ADD MLOAD PUSH1 0x60 DUP4 ADD MSTORE PUSH1 0x80 DUP2 ADD MLOAD PUSH1 0x80 DUP4 ADD MSTORE PUSH1 0xA0 DUP2 ADD MLOAD PUSH1 0xA0 DUP4 ADD MSTORE PUSH1 0xC0 DUP2 ADD MLOAD PUSH1 0xC0 DUP4 ADD MSTORE PUSH1 0xE0 DUP2 ADD MLOAD PUSH1 0xE0 DUP4 ADD MSTORE PUSH2 0x157A PUSH2 0x100 DUP3 ADD MLOAD PUSH2 0x100 DUP5 ADD SWAP1 PUSH2 0x1AA4 JUMP JUMPDEST PUSH2 0x120 SWAP1 DUP2 ADD MLOAD PUSH1 0x1 PUSH1 0x1 PUSH1 0xA0 SHL SUB AND SWAP1 DUP3 ADD MSTORE RETURN JUMPDEST POP CALLVALUE PUSH2 0x1CC JUMPI PUSH0 CALLDATASIZE PUSH1 0x3 NOT ADD SLT PUSH2 0x1CC JUMPI PUSH2 0x15A9 PUSH2 0x1C56 JUMP JUMPDEST PUSH0 SLOAD SWAP1 PUSH1 0xFF DUP3 PUSH1 0xA0 SHR AND ISZERO PUSH2 0x15F0 JUMPI POP PUSH1 0xFF PUSH1 0xA0 SHL NOT AND PUSH0 SSTORE PUSH1 0x40 MLOAD CALLER DUP2 MSTORE PUSH32 0x5DB9EE0A495BF2E6FF9C91A7834C1BA4FDD244A5E8AA4E537BD38AEAE4B073AA SWAP1 PUSH1 0x20 SWAP1 LOG1 STOP JUMPDEST PUSH1 0x40 MLOAD PUSH4 0x8DFC202B PUSH1 0xE0 SHL DUP2 MSTORE REVERT JUMPDEST CALLVALUE PUSH2 0x1CC JUMPI PUSH0 CALLDATASIZE PUSH1 0x3 NOT ADD SLT PUSH2 0x1CC JUMPI PUSH1 0x20 PUSH1 0x6 SLOAD PUSH1 0x40 MLOAD SWAP1 DUP2 MSTORE RETURN JUMPDEST CALLVALUE PUSH2 0x1CC JUMPI PUSH0 CALLDATASIZE PUSH1 0x3 NOT ADD SLT PUSH2 0x1CC JUMPI PUSH1 0x20 PUSH1 0x8 SLOAD PUSH1 0x40 MLOAD SWAP1 DUP2 MSTORE RETURN JUMPDEST POP CALLVALUE PUSH2 0x1CC JUMPI PUSH1 0x80 CALLDATASIZE PUSH1 0x3 NOT ADD SLT PUSH2 0x1CC JUMPI PUSH1 0x24 DUP1 CALLDATALOAD SWAP2 PUSH1 0x1 PUSH1 0x1 PUSH1 0xA0 SHL SUB DUP1 DUP5 AND SWAP2 DUP1 CALLDATALOAD SWAP2 DUP4 DUP7 SUB PUSH2 0x1CC JUMPI PUSH1 0x1 PUSH1 0x1 PUSH1 0x40 SHL SUB SWAP6 PUSH1 0x44 CALLDATALOAD SWAP2 SWAP1 PUSH1 0x64 CALLDATALOAD DUP9 DUP2 GT PUSH2 0x1CC JUMPI CALLDATASIZE PUSH1 0x23 DUP3 ADD SLT ISZERO PUSH2 0x1CC JUMPI DUP1 DUP6 ADD CALLDATALOAD DUP10 DUP2 GT PUSH2 0x1CC JUMPI DUP9 DUP3 ADD SWAP2 DUP10 DUP3 CALLDATASIZE SWAP3 ADD ADD GT PUSH2 0x1CC JUMPI PUSH2 0x16AB PUSH2 0x1C33 JUMP JUMPDEST DUP7 PUSH0 MSTORE PUSH1 0x20 SWAP6 PUSH1 0x9 DUP8 MSTORE PUSH1 0x40 PUSH0 KECCAK256 SWAP6 PUSH1 0x8 DUP8 ADD SWAP12 PUSH1 0xFF DUP14 SLOAD AND PUSH1 0x6 DUP2 LT ISZERO PUSH2 0x1A62 JUMPI PUSH1 0x2 SUB PUSH2 0x1A51 JUMPI DUP7 DUP9 SLOAD AND DUP12 EQ ISZERO DUP1 PUSH2 0x1A41 JUMPI JUMPDEST PUSH2 0x1A30 JUMPI PUSH2 0x12B NOT TIMESTAMP ADD TIMESTAMP DUP2 GT PUSH2 0x1A1E JUMPI DUP3 GT ISZERO PUSH2 0x1A0D JUMPI PUSH2 0x1704 CALLDATASIZE DUP6 DUP8 PUSH2 0x1B64 JUMP JUMPDEST DUP10 DUP2 MLOAD SWAP2 ADD KECCAK256 PUSH0 MSTORE PUSH1 0xC DUP10 MSTORE PUSH1 0xFF PUSH1 0x40 PUSH0 KECCAK256 SLOAD AND PUSH2 0x19FC JUMPI PUSH1 0x40 MLOAD SWAP1 DUP10 DUP3 ADD SWAP3 DUP12 DUP5 MSTORE PUSH1 0x1 DUP1 PUSH1 0x60 SHL SUB NOT DUP9 PUSH1 0x60 SHL AND PUSH1 0x40 DUP5 ADD MSTORE PUSH1 0x54 DUP4 ADD MSTORE CHAINID PUSH1 0x74 DUP4 ADD MSTORE PUSH1 0x74 DUP3 MSTORE PUSH1 0xA0 DUP3 ADD SWAP1 DUP3 DUP3 LT SWAP1 DUP3 GT OR PUSH2 0x19EA JUMPI PUSH1 0x40 MSTORE MLOAD SWAP1 KECCAK256 PUSH28 0xCA2BA3432B932BAB69029B4B3B732B21026B2B9B9B0B3B29D051999 PUSH1 0x21 SHL PUSH0 MSTORE PUSH1 0x1C MSTORE PUSH2 0x17A7 PUSH2 0x179E PUSH1 0x3C PUSH0 KECCAK256 PUSH2 0x1798 CALLDATASIZE DUP7 DUP9 PUSH2 0x1B64 JUMP JUMPDEST SWAP1 PUSH2 0x1CA1 JUMP JUMPDEST SWAP1 SWAP3 SWAP2 SWAP3 PUSH2 0x1CDB JUMP JUMPDEST DUP6 DUP1 PUSH1 0x3 SLOAD AND SWAP2 AND SUB PUSH2 0x19DB JUMPI POP DUP4 SWAP3 PUSH2 0x17CB PUSH1 0xB SWAP9 SWAP10 SWAP11 SWAP12 SWAP4 PUSH1 0x3 SWAP4 CALLDATASIZE SWAP2 PUSH2 0x1B64 JUMP JUMPDEST DUP8 DUP2 MLOAD SWAP2 ADD KECCAK256 PUSH0 MSTORE PUSH1 0xC DUP8 MSTORE PUSH2 0x17F2 PUSH1 0x40 PUSH0 KECCAK256 SWAP2 PUSH1 0xFF NOT SWAP3 PUSH1 0x1 DUP5 DUP3 SLOAD AND OR SWAP1 SSTORE DUP5 PUSH2 0x1B9A JUMP JUMPDEST DUP3 SLOAD AND OR DUP2 SSTORE TIMESTAMP PUSH1 0x7 DUP6 ADD SSTORE DUP4 SLOAD DUP3 AND DUP9 DUP2 EQ SWAP10 SWAP1 DUP11 ISZERO PUSH2 0x19D5 JUMPI POP DUP3 PUSH1 0x1 DUP7 ADD SLOAD AND SWAP10 JUMPDEST ISZERO PUSH2 0x19C8 JUMPI PUSH0 DUP1 PUSH1 0x2 DUP8 ADD SLOAD SWAP3 JUMPDEST DUP6 PUSH1 0x5 SLOAD AND SWAP4 DUP3 DUP1 PUSH1 0x40 MLOAD SWAP7 DUP13 DUP9 ADD DUP3 PUSH4 0x28A37507 PUSH1 0xE1 SHL SWAP10 DUP11 DUP4 MSTORE DUP7 DUP9 DUP3 ADD MSTORE PUSH1 0x64 PUSH1 0x44 DUP3 ADD MSTORE PUSH1 0x44 DUP2 MSTORE PUSH2 0x185A DUP2 PUSH2 0x1B0B JUMP JUMPDEST MLOAD SWAP3 GAS CALL RETURNDATASIZE DUP5 EQ PUSH2 0x19C3 JUMPI RETURNDATASIZE PUSH2 0x186F DUP2 PUSH2 0x1B49 JUMP JUMPDEST SWAP1 PUSH2 0x187D PUSH1 0x40 MLOAD SWAP3 DUP4 PUSH2 0x1B26 JUMP JUMPDEST DUP2 MSTORE DUP5 DUP13 RETURNDATASIZE SWAP3 ADD RETURNDATACOPY JUMPDEST ISZERO PUSH2 0x19A6 JUMPI JUMPDEST POP DUP6 DUP1 DUP10 SLOAD AND SWAP14 AND SWAP13 DUP14 EQ DUP3 EQ PUSH2 0x199B JUMPI PUSH1 0x2 DUP9 ADD SLOAD SWAP4 JUMPDEST DUP3 DUP8 PUSH1 0x5 SLOAD AND SWAP3 DUP7 PUSH1 0x40 MLOAD SWAP2 DUP14 DUP4 ADD SWAP5 DUP6 MSTORE DUP3 ADD MSTORE PUSH1 0x1E PUSH1 0x44 DUP3 ADD MSTORE PUSH1 0x44 DUP2 MSTORE PUSH2 0x18CD DUP2 PUSH2 0x1B0B JUMP JUMPDEST MLOAD SWAP3 GAS CALL RETURNDATASIZE ISZERO PUSH2 0x1996 JUMPI RETURNDATASIZE PUSH2 0x18E1 DUP2 PUSH2 0x1B49 JUMP JUMPDEST SWAP1 PUSH2 0x18EF PUSH1 0x40 MLOAD SWAP3 DUP4 PUSH2 0x1B26 JUMP JUMPDEST DUP2 MSTORE PUSH0 DUP9 RETURNDATASIZE SWAP3 ADD RETURNDATACOPY JUMPDEST ISZERO PUSH2 0x1979 JUMPI JUMPDEST POP SLOAD PUSH1 0x8 SHR AND SWAP2 DUP2 DUP2 SLOAD AND DUP1 SWAP4 EQ SWAP3 DUP4 PUSH0 EQ PUSH2 0x1973 JUMPI POP DUP2 PUSH1 0x1 DUP3 ADD SLOAD AND SWAP3 JUMPDEST ISZERO PUSH2 0x1969 JUMPI PUSH1 0x3 ADD SLOAD SWAP2 JUMPDEST AND PUSH0 MSTORE PUSH1 0xA DUP3 MSTORE PUSH0 PUSH1 0x40 DUP2 KECCAK256 SSTORE PUSH0 MSTORE MSTORE PUSH0 PUSH1 0x40 DUP2 KECCAK256 SSTORE PUSH32 0x3B3B5126E644EA297563595413600AB9DCD3D089CBFB03E7FAEDECDA6CCF3C76 PUSH0 DUP1 LOG4 PUSH1 0x1 DUP1 SSTORE STOP JUMPDEST PUSH1 0x2 ADD SLOAD SWAP2 PUSH2 0x1929 JUMP JUMPDEST SWAP3 PUSH2 0x191E JUMP JUMPDEST PUSH0 DUP1 MLOAD PUSH1 0x20 PUSH2 0x1E03 DUP4 CODECOPY DUP2 MLOAD SWAP2 MSTORE DUP7 PUSH1 0x40 MLOAD PUSH1 0x1E DUP2 MSTORE LOG2 PUSH0 PUSH2 0x18FE JUMP JUMPDEST PUSH2 0x18F8 JUMP JUMPDEST PUSH1 0x3 DUP9 ADD SLOAD SWAP4 PUSH2 0x18A4 JUMP JUMPDEST PUSH0 DUP1 MLOAD PUSH1 0x20 PUSH2 0x1E03 DUP4 CODECOPY DUP2 MLOAD SWAP2 MSTORE DUP11 PUSH1 0x40 MLOAD PUSH1 0x64 DUP2 MSTORE LOG2 PUSH0 PUSH2 0x188C JUMP JUMPDEST PUSH2 0x1886 JUMP JUMPDEST PUSH0 DUP1 PUSH1 0x3 DUP8 ADD SLOAD SWAP3 PUSH2 0x1825 JUMP JUMPDEST SWAP10 PUSH2 0x1817 JUMP JUMPDEST PUSH1 0x40 MLOAD PUSH4 0x8BAA579F PUSH1 0xE0 SHL DUP2 MSTORE REVERT JUMPDEST DUP13 PUSH1 0x41 DUP6 PUSH4 0x4E487B71 PUSH1 0xE0 SHL PUSH0 MSTORE MSTORE PUSH0 REVERT JUMPDEST PUSH1 0x40 MLOAD PUSH4 0x900BB2C9 PUSH1 0xE0 SHL DUP2 MSTORE DUP4 SWAP1 REVERT JUMPDEST PUSH1 0x40 MLOAD PUSH4 0x819BDCD PUSH1 0xE0 SHL DUP2 MSTORE DUP4 SWAP1 REVERT JUMPDEST DUP13 PUSH1 0x11 DUP6 PUSH4 0x4E487B71 PUSH1 0xE0 SHL PUSH0 MSTORE MSTORE PUSH0 REVERT JUMPDEST PUSH1 0x40 MLOAD PUSH4 0x93A5F3C7 PUSH1 0xE0 SHL DUP2 MSTORE DUP4 SWAP1 REVERT JUMPDEST POP DUP7 PUSH1 0x1 DUP10 ADD SLOAD AND DUP12 EQ ISZERO PUSH2 0x16E1 JUMP JUMPDEST PUSH1 0x40 MLOAD PUSH4 0xB78EA157 PUSH1 0xE0 SHL DUP2 MSTORE DUP4 SWAP1 REVERT JUMPDEST DUP13 PUSH1 0x21 DUP6 PUSH4 0x4E487B71 PUSH1 0xE0 SHL PUSH0 MSTORE MSTORE PUSH0 REVERT JUMPDEST CALLVALUE PUSH2 0x1CC JUMPI PUSH0 CALLDATASIZE PUSH1 0x3 NOT ADD SLT PUSH2 0x1CC JUMPI DUP1 PUSH2 0x258 PUSH1 0x20 SWAP3 MSTORE RETURN JUMPDEST PUSH1 0x4 CALLDATALOAD SWAP1 PUSH1 0x1 PUSH1 0x1 PUSH1 0xA0 SHL SUB DUP3 AND DUP3 SUB PUSH2 0x1CC JUMPI JUMP JUMPDEST SWAP1 PUSH1 0x6 DUP3 LT ISZERO PUSH2 0x1AB1 JUMPI MSTORE JUMP JUMPDEST PUSH4 0x4E487B71 PUSH1 0xE0 SHL PUSH0 MSTORE PUSH1 0x21 PUSH1 0x4 MSTORE PUSH1 0x24 PUSH0 REVERT JUMPDEST PUSH1 0x40 SWAP1 PUSH1 0x3 NOT ADD SLT PUSH2 0x1CC JUMPI PUSH1 0x4 CALLDATALOAD SWAP1 PUSH1 0x24 CALLDATALOAD SWAP1 JUMP JUMPDEST PUSH2 0x140 DUP2 ADD SWAP1 DUP2 LT PUSH1 0x1 PUSH1 0x1 PUSH1 0x40 SHL SUB DUP3 GT OR PUSH2 0x1AF7 JUMPI PUSH1 0x40 MSTORE JUMP JUMPDEST PUSH4 0x4E487B71 PUSH1 0xE0 SHL PUSH0 MSTORE PUSH1 0x41 PUSH1 0x4 MSTORE PUSH1 0x24 PUSH0 REVERT JUMPDEST PUSH1 0x80 DUP2 ADD SWAP1 DUP2 LT PUSH1 0x1 PUSH1 0x1 PUSH1 0x40 SHL SUB DUP3 GT OR PUSH2 0x1AF7 JUMPI PUSH1 0x40 MSTORE JUMP JUMPDEST PUSH1 0x1F SWAP1 SWAP2 ADD PUSH1 0x1F NOT AND DUP2 ADD SWAP1 PUSH1 0x1 PUSH1 0x1 PUSH1 0x40 SHL SUB DUP3 GT SWAP1 DUP3 LT OR PUSH2 0x1AF7 JUMPI PUSH1 0x40 MSTORE JUMP JUMPDEST PUSH1 0x1 PUSH1 0x1 PUSH1 0x40 SHL SUB DUP2 GT PUSH2 0x1AF7 JUMPI PUSH1 0x1F ADD PUSH1 0x1F NOT AND PUSH1 0x20 ADD SWAP1 JUMP JUMPDEST SWAP3 SWAP2 SWAP3 PUSH2 0x1B70 DUP3 PUSH2 0x1B49 JUMP JUMPDEST SWAP2 PUSH2 0x1B7E PUSH1 0x40 MLOAD SWAP4 DUP5 PUSH2 0x1B26 JUMP JUMPDEST DUP3 SWAP5 DUP2 DUP5 MSTORE DUP2 DUP4 ADD GT PUSH2 0x1CC JUMPI DUP3 DUP2 PUSH1 0x20 SWAP4 DUP5 PUSH0 SWAP7 ADD CALLDATACOPY ADD ADD MSTORE JUMP JUMPDEST DUP1 SLOAD PUSH2 0x100 PUSH1 0x1 PUSH1 0xA8 SHL SUB NOT AND PUSH1 0x8 SWAP3 SWAP1 SWAP3 SHL PUSH2 0x100 PUSH1 0x1 PUSH1 0xA8 SHL SUB AND SWAP2 SWAP1 SWAP2 OR SWAP1 SSTORE JUMP JUMPDEST SWAP1 DUP2 PUSH1 0x20 SWAP2 SUB SLT PUSH2 0x1CC JUMPI MLOAD PUSH1 0x1 PUSH1 0x1 PUSH1 0xA0 SHL SUB DUP2 AND DUP2 SUB PUSH2 0x1CC JUMPI SWAP1 JUMP JUMPDEST SWAP1 DUP2 PUSH1 0x20 SWAP2 SUB SLT PUSH2 0x1CC JUMPI MLOAD DUP1 ISZERO ISZERO DUP2 SUB PUSH2 0x1CC JUMPI SWAP1 JUMP JUMPDEST PUSH1 0x1 PUSH1 0x1 PUSH1 0xA0 SHL SUB SWAP2 DUP3 AND DUP2 MSTORE SWAP2 AND PUSH1 0x20 DUP3 ADD MSTORE PUSH1 0x40 DUP2 ADD SWAP2 SWAP1 SWAP2 MSTORE PUSH1 0x60 ADD SWAP1 JUMP JUMPDEST PUSH1 0x1 PUSH1 0x1 PUSH1 0xA0 SHL SUB SWAP1 SWAP2 AND DUP2 MSTORE PUSH1 0x20 DUP2 ADD SWAP2 SWAP1 SWAP2 MSTORE PUSH1 0x40 ADD SWAP1 JUMP JUMPDEST PUSH1 0x2 PUSH1 0x1 SLOAD EQ PUSH2 0x1C44 JUMPI PUSH1 0x2 PUSH1 0x1 SSTORE JUMP JUMPDEST PUSH1 0x40 MLOAD PUSH4 0x3EE5AEB5 PUSH1 0xE0 SHL DUP2 MSTORE PUSH1 0x4 SWAP1 REVERT JUMPDEST PUSH0 SLOAD PUSH1 0x1 PUSH1 0x1 PUSH1 0xA0 SHL SUB AND CALLER SUB PUSH2 0x1C69 JUMPI JUMP JUMPDEST PUSH1 0x40 MLOAD PUSH4 0x118CDAA7 PUSH1 0xE0 SHL DUP2 MSTORE CALLER PUSH1 0x4 DUP3 ADD MSTORE PUSH1 0x24 SWAP1 REVERT JUMPDEST PUSH1 0xFF PUSH0 SLOAD PUSH1 0xA0 SHR AND PUSH2 0x1C8F JUMPI JUMP JUMPDEST PUSH1 0x40 MLOAD PUSH4 0xD93C0665 PUSH1 0xE0 SHL DUP2 MSTORE PUSH1 0x4 SWAP1 REVERT JUMPDEST DUP2 MLOAD SWAP2 SWAP1 PUSH1 0x41 DUP4 SUB PUSH2 0x1CD1 JUMPI PUSH2 0x1CCA SWAP3 POP PUSH1 0x20 DUP3 ADD MLOAD SWAP1 PUSH1 0x60 PUSH1 0x40 DUP5 ADD MLOAD SWAP4 ADD MLOAD PUSH0 BYTE SWAP1 PUSH2 0x1D4A JUMP JUMPDEST SWAP2 SWAP3 SWAP1 SWAP2 SWAP1 JUMP JUMPDEST POP POP PUSH0 SWAP2 PUSH1 0x2 SWAP2 SWAP1 JUMP JUMPDEST PUSH1 0x4 DUP2 LT ISZERO PUSH2 0x1AB1 JUMPI DUP1 PUSH2 0x1CED JUMPI POP POP JUMP JUMPDEST PUSH1 0x1 DUP2 SUB PUSH2 0x1D07 JUMPI PUSH1 0x40 MLOAD PUSH4 0xF645EEDF PUSH1 0xE0 SHL DUP2 MSTORE PUSH1 0x4 SWAP1 REVERT JUMPDEST PUSH1 0x2 DUP2 SUB PUSH2 0x1D28 JUMPI PUSH1 0x40 MLOAD PUSH4 0xFCE698F7 PUSH1 0xE0 SHL DUP2 MSTORE PUSH1 0x4 DUP2 ADD DUP4 SWAP1 MSTORE PUSH1 0x24 SWAP1 REVERT JUMPDEST PUSH1 0x3 EQ PUSH2 0x1D32 JUMPI POP JUMP JUMPDEST PUSH1 0x24 SWAP1 PUSH1 0x40 MLOAD SWAP1 PUSH4 0x35E2F383 PUSH1 0xE2 SHL DUP3 MSTORE PUSH1 0x4 DUP3 ADD MSTORE REVERT JUMPDEST SWAP2 SWAP1 PUSH16 0xA2A8918CA85BAFE22016D0B997E4DF60 PUSH1 0x1 PUSH1 0xFF SHL SUB DUP5 GT PUSH2 0x1DB7 JUMPI SWAP2 PUSH1 0x20 SWAP4 PUSH1 0x80 SWAP3 PUSH1 0xFF PUSH0 SWAP6 PUSH1 0x40 MLOAD SWAP5 DUP6 MSTORE AND DUP7 DUP5 ADD MSTORE PUSH1 0x40 DUP4 ADD MSTORE PUSH1 0x60 DUP3 ADD MSTORE DUP3 DUP1 MSTORE PUSH1 0x1 GAS STATICCALL ISZERO PUSH2 0x4EF JUMPI PUSH0 MLOAD PUSH1 0x1 PUSH1 0x1 PUSH1 0xA0 SHL SUB DUP2 AND ISZERO PUSH2 0x1DAD JUMPI SWAP1 PUSH0 SWAP1 PUSH0 SWAP1 JUMP JUMPDEST POP PUSH0 SWAP1 PUSH1 0x1 SWAP1 PUSH0 SWAP1 JUMP JUMPDEST POP POP POP PUSH0 SWAP2 PUSH1 0x3 SWAP2 SWAP1 JUMP INVALID SWAP5 SWAP9 SMOD 0xB4 PUSH13 0x14A57084ED9F902241D002578 0xF8 GASPRICE 0xE6 PUSH1 0x1 SAR CODECOPY 0xEC 0xB1 DUP3 TIMESTAMP 0xE7 DUP14 MULMOD DUP12 0xE0 SMOD SWAP13 MSTORE8 AND MSIZE EQ SGT PREVRANDAO 0xCD 0x1F 0xD0 LOG4 CALLCODE DUP5 NOT BLOBHASH PUSH32 0x9722A3DAAFE3B4186F6B6457E017FE5EFA39289E1D4E3BEB20A5412E13015B71 PUSH17 0x122C1D7BB4CFBE171AF7F30CA264697066 PUSH20 0x582212205DFCA2411B98C0AF80E5B507DA247CC1 0xBB 0xB6 PUSH26 0x4911F9E0DFD5F2D7C648822DB264736F6C634300081800330000 "},"methodIdentifiers":{"BPS_DENOMINATOR()":"e1a45218","CLAIM_TIMEOUT()":"f5f5dd41","HOST_TIMEOUT()":"043c4f39","PLATFORM_FEE_BPS()":"539aa77f","battleNonce()":"24c07058","battles(bytes32)":"78547e6c","cancelBattle(bytes32)":"803da9c3","claimHostTimeout(bytes32)":"7ffade17","claimWinnings(bytes32)":"e49b606c","createBattle(uint256,uint256)":"df73c49f","creatureContract()":"6cbc16ef","creatureInBattle(uint256)":"6f5d938a","emergencyRefund(bytes32)":"d92e0af2","getBattle(bytes32)":"43cc2213","getPlayerBattle(address)":"846e5376","isInBattle(address)":"57a4f251","joinBattle(bytes32,uint256)":"516f9cf3","maxStake()":"ea1b28e0","minStake()":"375b3c0a","owner()":"8da5cb5b","pause()":"8456cb59","paused()":"5c975abb","renounceOwnership()":"715018a6","resolveBattle(bytes32,address,uint256,bytes)":"190f771e","setCreatureContract(address)":"95afd656","setStakeLimits(uint256,uint256)":"8c9bd1b5","setTreasury(address)":"f0f44260","setTrustedBackend(address)":"d17f5f3f","stakeToken()":"51ed6a30","transferOwnership(address)":"f2fde38b","treasury()":"61d027b3","trustedBackend()":"e4beb87f","unpause()":"3f4ba83a","usedSignatures(bytes32)":"f978fd61","walletInBattle(address)":"b8912c17"}}}}}