{"project/src/AirdropVault.sol":{"AirdropVault":{"abi":[{"inputs":[{"internalType":"address","name":"_dgneToken","type":"address"},{"internalType":"address","name":"_winBoostWallet","type":"address"}],"stateMutability":"nonpayable","type":"constructor"},{"inputs":[],"name":"AlreadyClaimed","type":"error"},{"inputs":[],"name":"EnforcedPause","type":"error"},{"inputs":[],"name":"ExpectedPause","type":"error"},{"inputs":[],"name":"InsufficientPoolBalance","type":"error"},{"inputs":[],"name":"InvalidAddress","type":"error"},{"inputs":[],"name":"InvalidAmount","type":"error"},{"inputs":[],"name":"NotAuthorizedSpender","type":"error"},{"inputs":[{"internalType":"address","name":"owner","type":"address"}],"name":"OwnableInvalidOwner","type":"error"},{"inputs":[{"internalType":"address","name":"account","type":"address"}],"name":"OwnableUnauthorizedAccount","type":"error"},{"inputs":[],"name":"ReentrancyGuardReentrantCall","type":"error"},{"inputs":[{"internalType":"address","name":"token","type":"address"}],"name":"SafeERC20FailedOperation","type":"error"},{"anonymous":false,"inputs":[{"indexed":true,"internalType":"address","name":"spender","type":"address"},{"indexed":false,"internalType":"bool","name":"authorized","type":"bool"}],"name":"AuthorizedSpenderSet","type":"event"},{"anonymous":false,"inputs":[{"indexed":true,"internalType":"address","name":"user","type":"address"},{"indexed":false,"internalType":"uint256","name":"amount","type":"uint256"}],"name":"Claimed","type":"event"},{"anonymous":false,"inputs":[{"indexed":false,"internalType":"uint256","name":"amount","type":"uint256"},{"indexed":false,"internalType":"uint256","name":"recycled","type":"uint256"},{"indexed":false,"internalType":"uint256","name":"toWinBoost","type":"uint256"}],"name":"LockedBalanceFinalized","type":"event"},{"anonymous":false,"inputs":[{"indexed":true,"internalType":"address","name":"user","type":"address"},{"indexed":false,"internalType":"uint256","name":"amount","type":"uint256"}],"name":"LockedBalanceRestored","type":"event"},{"anonymous":false,"inputs":[{"indexed":true,"internalType":"address","name":"user","type":"address"},{"indexed":false,"internalType":"uint256","name":"amount","type":"uint256"},{"indexed":false,"internalType":"uint256","name":"recycled","type":"uint256"},{"indexed":false,"internalType":"uint256","name":"toWinBoost","type":"uint256"}],"name":"LockedBalanceSpent","type":"event"},{"anonymous":false,"inputs":[{"indexed":true,"internalType":"address","name":"previousOwner","type":"address"},{"indexed":true,"internalType":"address","name":"newOwner","type":"address"}],"name":"OwnershipTransferred","type":"event"},{"anonymous":false,"inputs":[{"indexed":false,"internalType":"address","name":"account","type":"address"}],"name":"Paused","type":"event"},{"anonymous":false,"inputs":[{"indexed":true,"internalType":"address","name":"funder","type":"address"},{"indexed":false,"internalType":"uint256","name":"amount","type":"uint256"}],"name":"PoolFunded","type":"event"},{"anonymous":false,"inputs":[{"indexed":false,"internalType":"address","name":"account","type":"address"}],"name":"Unpaused","type":"event"},{"anonymous":false,"inputs":[{"indexed":true,"internalType":"address","name":"oldWallet","type":"address"},{"indexed":true,"internalType":"address","name":"newWallet","type":"address"}],"name":"WinBoostWalletUpdated","type":"event"},{"inputs":[],"name":"CLAIM_AMOUNT","outputs":[{"internalType":"uint256","name":"","type":"uint256"}],"stateMutability":"view","type":"function"},{"inputs":[],"name":"RATIO_DENOMINATOR","outputs":[{"internalType":"uint256","name":"","type":"uint256"}],"stateMutability":"view","type":"function"},{"inputs":[],"name":"RECYCLE_NUMERATOR","outputs":[{"internalType":"uint256","name":"","type":"uint256"}],"stateMutability":"view","type":"function"},{"inputs":[],"name":"WINBOOST_NUMERATOR","outputs":[{"internalType":"uint256","name":"","type":"uint256"}],"stateMutability":"view","type":"function"},{"inputs":[{"internalType":"address","name":"","type":"address"}],"name":"authorizedSpenders","outputs":[{"internalType":"bool","name":"","type":"bool"}],"stateMutability":"view","type":"function"},{"inputs":[],"name":"claim","outputs":[],"stateMutability":"nonpayable","type":"function"},{"inputs":[],"name":"claimerCount","outputs":[{"internalType":"uint256","name":"","type":"uint256"}],"stateMutability":"view","type":"function"},{"inputs":[],"name":"dgneToken","outputs":[{"internalType":"contract IERC20","name":"","type":"address"}],"stateMutability":"view","type":"function"},{"inputs":[{"internalType":"address","name":"to","type":"address"},{"internalType":"uint256","name":"amount","type":"uint256"}],"name":"emergencyWithdraw","outputs":[],"stateMutability":"nonpayable","type":"function"},{"inputs":[{"internalType":"uint256","name":"amount","type":"uint256"}],"name":"finalizeLockedSpend","outputs":[],"stateMutability":"nonpayable","type":"function"},{"inputs":[{"internalType":"uint256","name":"amount","type":"uint256"}],"name":"fundPool","outputs":[],"stateMutability":"nonpayable","type":"function"},{"inputs":[{"internalType":"address","name":"user","type":"address"}],"name":"getLockedBalance","outputs":[{"internalType":"uint256","name":"balance","type":"uint256"}],"stateMutability":"view","type":"function"},{"inputs":[],"name":"getPoolBalance","outputs":[{"internalType":"uint256","name":"available","type":"uint256"}],"stateMutability":"view","type":"function"},{"inputs":[],"name":"getStats","outputs":[{"internalType":"uint256","name":"distributed","type":"uint256"},{"internalType":"uint256","name":"recycled","type":"uint256"},{"internalType":"uint256","name":"sentToWinBoost","type":"uint256"},{"internalType":"uint256","name":"claimers","type":"uint256"},{"internalType":"uint256","name":"poolBalance","type":"uint256"}],"stateMutability":"view","type":"function"},{"inputs":[{"internalType":"address","name":"","type":"address"}],"name":"hasClaimed","outputs":[{"internalType":"bool","name":"","type":"bool"}],"stateMutability":"view","type":"function"},{"inputs":[{"internalType":"address","name":"user","type":"address"}],"name":"hasUserClaimed","outputs":[{"internalType":"bool","name":"claimed","type":"bool"}],"stateMutability":"view","type":"function"},{"inputs":[{"internalType":"address","name":"","type":"address"}],"name":"lockedBalance","outputs":[{"internalType":"uint256","name":"","type":"uint256"}],"stateMutability":"view","type":"function"},{"inputs":[],"name":"owner","outputs":[{"internalType":"address","name":"","type":"address"}],"stateMutability":"view","type":"function"},{"inputs":[],"name":"pause","outputs":[],"stateMutability":"nonpayable","type":"function"},{"inputs":[],"name":"paused","outputs":[{"internalType":"bool","name":"","type":"bool"}],"stateMutability":"view","type":"function"},{"inputs":[],"name":"renounceOwnership","outputs":[],"stateMutability":"nonpayable","type":"function"},{"inputs":[{"internalType":"address","name":"user","type":"address"},{"internalType":"uint256","name":"amount","type":"uint256"}],"name":"restoreLockedBalance","outputs":[],"stateMutability":"nonpayable","type":"function"},{"inputs":[{"internalType":"address","name":"spender","type":"address"},{"internalType":"bool","name":"authorized","type":"bool"}],"name":"setAuthorizedSpender","outputs":[],"stateMutability":"nonpayable","type":"function"},{"inputs":[{"internalType":"address","name":"_winBoostWallet","type":"address"}],"name":"setWinBoostWallet","outputs":[],"stateMutability":"nonpayable","type":"function"},{"inputs":[{"internalType":"address","name":"user","type":"address"},{"internalType":"uint256","name":"amount","type":"uint256"}],"name":"spendLockedBalance","outputs":[{"internalType":"uint256","name":"spent","type":"uint256"}],"stateMutability":"nonpayable","type":"function"},{"inputs":[],"name":"totalDistributed","outputs":[{"internalType":"uint256","name":"","type":"uint256"}],"stateMutability":"view","type":"function"},{"inputs":[],"name":"totalRecycled","outputs":[{"internalType":"uint256","name":"","type":"uint256"}],"stateMutability":"view","type":"function"},{"inputs":[],"name":"totalToWinBoost","outputs":[{"internalType":"uint256","name":"","type":"uint256"}],"stateMutability":"view","type":"function"},{"inputs":[{"internalType":"address","name":"newOwner","type":"address"}],"name":"transferOwnership","outputs":[],"stateMutability":"nonpayable","type":"function"},{"inputs":[],"name":"unpause","outputs":[],"stateMutability":"nonpayable","type":"function"},{"inputs":[],"name":"winBoostWallet","outputs":[{"internalType":"address","name":"","type":"address"}],"stateMutability":"view","type":"function"}],"evm":{"bytecode":{"linkReferences":{},"object":"60a03461013a576110d790601f38839003908101601f19168201906001600160401b0382118383101761013e578083916040958694855283398101031261013a57610055602061004e83610152565b9201610152565b903315610123575f549160018060a01b03908160018060a01b03199333858716175f55865195823391167f8be0079c531659141344cd1fd0a4f28419497f9722a3daafe3b4186f6b6457e05f80a3600180551693841561011457501691821561010357608052600254161760025551610f70908161016782396080518181816102880152818161037801528181610584015281816106be015281816108c901528181610ab10152610d9a0152f35b835163e6c4247b60e01b8152600490fd5b63e6c4247b60e01b8152600490fd5b8251631e4fbdf760e01b81525f6004820152602490fd5b5f80fd5b634e487b7160e01b5f52604160045260245ffd5b51906001600160a01b038216820361013a5756fe604060808152600480361015610013575f80fd5b5f3560e01c8063042f1ba714610b78578063270ef38514610b545780632a8014ed14610b385780633f4ba83a14610ae05780633fbdf9cf14610a9d5780634b4ad96f14610a1e5780634da90fec146109f65780634e71d92d1461087b5780635c975abb146108565780636859c9ea14610838578063715018a6146107f457806373b2e80e1461062257806377ab2580146107d85780638456cb591461077a5780638da5cb5b1461075357806392fda384146106f357806395ccea671461067b5780639a3a2b281461065d5780639ae697bf1461040c578063a195b69c14610622578063a768886914610604578063abd70aa214610556578063bd09001b1461048f578063be9c21a814610443578063c40868931461040c578063c59d484714610339578063d2454e8d146102fd578063da3a5f721461021e578063efca2eed14610200578063f19562b6146101e45763f2fde38b14610170575f80fd5b346101e05760203660031901126101e057610189610bfd565b90610192610dd5565b6001600160a01b039182169283156101ca5750505f548260018060a01b03198216175f55165f80516020610f1b8339815191525f80a3005b905f6024925191631e4fbdf760e01b8352820152fd5b5f80fd5b82346101e0575f3660031901126101e057602090516113ec8152f35b82346101e0575f3660031901126101e0576020906006549051908152f35b5090346101e05760203660031901126101e05781359161023c610e00565b82156102ef5781516323b872dd60e01b6020820152336024820152306044820152606480820185905281529060a08201906001600160401b038211838310176102dc575082526102ac907f0000000000000000000000000000000000000000000000000000000000000000610eb5565b519081527f32173d8e51cec3a6fe484b7a1c3febe760cdf96e03d4cca36a43563a4333e83860203392a260018055005b604190634e487b7160e01b5f525260245ffd5b905163162908e360e11b8152fd5b82346101e05760203660031901126101e0576020906001600160a01b03610322610bfd565b165f526005825260ff815f20541690519015158152f35b5090346101e0575f3660031901126101e05760065460075460085460095484516370a0823160e01b8152309681019690965292939192916020866024817f00000000000000000000000000000000000000000000000000000000000000006001600160a01b03165afa938415610402575f946103cd575b60a096508151958652602086015284015260608301526080820152f35b93506020863d6020116103fa575b816103e860209383610c13565b810103126101e05760a09551936103b0565b3d91506103db565b50513d5f823e3d90fd5b82346101e05760203660031901126101e0576020906001600160a01b03610431610bfd565b165f5260038252805f20549051908152f35b5090346101e05760203660031901126101e05761045e610e00565b335f52600560205260ff815f205416156104825761047c8235610d13565b60018055005b5163410a762960e01b8152fd5b5090346101e057806003193601126101e0576104a9610bfd565b90602435916104b6610e00565b335f52600560205260ff825f20541615610546578215610536576001600160a01b031692831561052857507f30221a0670bb4f41b0859084ebaa942821e0b6f84947dd986ef23b2d34ac133491602091845f5260038352805f2061051b838254610c4a565b905551908152a260018055005b905163e6c4247b60e01b8152fd5b815163162908e360e11b81528490fd5b815163410a762960e01b81528490fd5b5090346101e0575f3660031901126101e05780516370a0823160e01b815230928101929092526020826024817f00000000000000000000000000000000000000000000000000000000000000006001600160a01b03165afa9081156105fb575f916105c6575b6020925051908152f35b90506020823d6020116105f3575b816105e160209383610c13565b810103126101e05760209151906105bc565b3d91506105d4565b513d5f823e3d90fd5b82346101e0575f3660031901126101e0576020906009549051908152f35b5090346101e05760203660031901126101e0576020916001600160a01b03610648610bfd565b165f52825260ff815f20541690519015158152f35b82346101e0575f3660031901126101e0576020906008549051908152f35b5090346101e057806003193601126101e057610695610bfd565b9061069e610dd5565b6106a6610e43565b6001600160a01b038216156106e4576106e2602435837f0000000000000000000000000000000000000000000000000000000000000000610e64565b005b5163e6c4247b60e01b81529050fd5b5090346101e057806003193601126101e05761070d610bfd565b91610716610e00565b335f52600560205260ff825f20541615610745575061073a60209260243590610c78565b906001805551908152f35b905163410a762960e01b8152fd5b82346101e0575f3660031901126101e0575f5490516001600160a01b039091168152602090f35b82346101e0575f3660031901126101e05760207f62e78cea01bee320cd4e420270b5ea74000d11b0c9f74754ebdbfc544b05a258916107b7610dd5565b6107bf610e23565b5f805460ff60a01b1916600160a01b17905551338152a1005b82346101e0575f3660031901126101e057602090516106408152f35b346101e0575f3660031901126101e05761080c610dd5565b5f80546001600160a01b0319811682556001600160a01b03165f80516020610f1b8339815191528280a3005b82346101e0575f3660031901126101e0576020906007549051908152f35b82346101e0575f3660031901126101e05760209060ff5f5460a01c1690519015158152f35b5090346101e0575f3660031901126101e057610895610e00565b61089d610e23565b335f52602082815260ff825f2054166109e85781516370a0823160e01b815230848201529181836024817f00000000000000000000000000000000000000000000000000000000000000006001600160a01b03165afa928315610402575f936109b9575b5069011478b7c30abc3000008093106109aa57335f52838252805f20600160ff198254161790556003825282815f205560065483810180911161099757600655600954935f198514610984575060017fd8138f8a3f377c5259ca548e70e4c2de94f129f5a11036a15b69513cba2b426a939401600955519283523392a260018055005b601190634e487b7160e01b5f525260245ffd5b601185634e487b7160e01b5f525260245ffd5b5163bc6072f160e01b81528390fd5b9092508181813d83116109e1575b6109d18183610c13565b810103126101e05751915f610901565b503d6109c7565b5051630c8d9eab60e31b8152fd5b82346101e0575f3660031901126101e05760025490516001600160a01b039091168152602090f35b50346101e05760203660031901126101e057610a38610bfd565b90610a41610dd5565b6001600160a01b03918216928315610a90575050600280546001600160a01b031981168417909155167f86ebd19795acbfa22bdcbd73b934d72ab7a855e506064e9e69076bf1d687f77a5f80a3005b5163e6c4247b60e01b8152fd5b82346101e0575f3660031901126101e057517f00000000000000000000000000000000000000000000000000000000000000006001600160a01b03168152602090f35b82346101e0575f3660031901126101e05760207f5db9ee0a495bf2e6ff9c91a7834c1ba4fdd244a5e8aa4e537bd38aeae4b073aa91610b1d610dd5565b610b25610e43565b5f805460ff60a01b1916905551338152a1005b82346101e0575f3660031901126101e05760209051610dac8152f35b82346101e0575f3660031901126101e0576020905169011478b7c30abc3000008152f35b5090346101e057806003193601126101e057610b92610bfd565b90602435918215158093036101e057610ba9610dd5565b6001600160a01b031692831561052857507f06609c42e8f5f5a32cf15047370daadb51660d5f068c28ac83d8a28c3bd9f1d091602091845f5260058352805f2060ff1981541660ff841617905551908152a2005b600435906001600160a01b03821682036101e057565b601f909101601f19168101906001600160401b03821190821017610c3657604052565b634e487b7160e01b5f52604160045260245ffd5b91908201809211610c5757565b634e487b7160e01b5f52601160045260245ffd5b91908203918211610c5757565b9190918215610d01576001600160a01b03165f8181526003602052604090208054938415610cf9577f95f4d5966846773aa70647a197244f2ceca39caf98230de365736b7f2c3c2f2c9160609186811115610cf3575085905b610cdc828098610c6b565b90556040519081525f60208201525f6040820152a2565b90610cd1565b505f93505050565b60405163162908e360e11b8152600490fd5b8015610dd257610dac8102610dab1982820401610c57577fd36dbf9112df53a06bfcc1abd477914a245f2aaad20b4f0163e0a887e9e4aa51916113ec60609204610d5d8183610c6b565b9081610d86575b610d7081600754610c4a565b60075560405192835260208301526040820152a1565b600254610dbe9083906001600160a01b03167f0000000000000000000000000000000000000000000000000000000000000000610e64565b610dca82600854610c4a565b600855610d64565b50565b5f546001600160a01b03163303610de857565b60405163118cdaa760e01b8152336004820152602490fd5b600260015414610e11576002600155565b604051633ee5aeb560e01b8152600490fd5b60ff5f5460a01c16610e3157565b60405163d93c066560e01b8152600490fd5b60ff5f5460a01c1615610e5257565b604051638dfc202b60e01b8152600490fd5b60405163a9059cbb60e01b60208201526001600160a01b03909216602483015260448083019390935291815260808101916001600160401b03831182841017610c3657610eb392604052610eb5565b565b905f602091828151910182855af115610f0f575f513d610f0657506001600160a01b0381163b155b610ee45750565b604051635274afe760e01b81526001600160a01b039091166004820152602490fd5b60011415610edd565b6040513d5f823e3d90fdfe8be0079c531659141344cd1fd0a4f28419497f9722a3daafe3b4186f6b6457e0a264697066735822122069a6031a6902ea72d2056062c084f346f8407675dc1e9386143917297b46148c64736f6c63430008180033","opcodes":"PUSH1 0xA0 CALLVALUE PUSH2 0x13A JUMPI PUSH2 0x10D7 SWAP1 PUSH1 0x1F CODESIZE DUP4 SWAP1 SUB SWAP1 DUP2 ADD PUSH1 0x1F NOT AND DUP3 ADD SWAP1 PUSH1 0x1 PUSH1 0x1 PUSH1 0x40 SHL SUB DUP3 GT DUP4 DUP4 LT OR PUSH2 0x13E JUMPI DUP1 DUP4 SWAP2 PUSH1 0x40 SWAP6 DUP7 SWAP5 DUP6 MSTORE DUP4 CODECOPY DUP2 ADD SUB SLT PUSH2 0x13A JUMPI PUSH2 0x55 PUSH1 0x20 PUSH2 0x4E DUP4 PUSH2 0x152 JUMP JUMPDEST SWAP3 ADD PUSH2 0x152 JUMP JUMPDEST SWAP1 CALLER ISZERO PUSH2 0x123 JUMPI PUSH0 SLOAD SWAP2 PUSH1 0x1 DUP1 PUSH1 0xA0 SHL SUB SWAP1 DUP2 PUSH1 0x1 DUP1 PUSH1 0xA0 SHL SUB NOT SWAP4 CALLER DUP6 DUP8 AND OR PUSH0 SSTORE DUP7 MLOAD SWAP6 DUP3 CALLER SWAP2 AND PUSH32 0x8BE0079C531659141344CD1FD0A4F28419497F9722A3DAAFE3B4186F6B6457E0 PUSH0 DUP1 LOG3 PUSH1 0x1 DUP1 SSTORE AND SWAP4 DUP5 ISZERO PUSH2 0x114 JUMPI POP AND SWAP2 DUP3 ISZERO PUSH2 0x103 JUMPI PUSH1 0x80 MSTORE PUSH1 0x2 SLOAD AND OR PUSH1 0x2 SSTORE MLOAD PUSH2 0xF70 SWAP1 DUP2 PUSH2 0x167 DUP3 CODECOPY PUSH1 0x80 MLOAD DUP2 DUP2 DUP2 PUSH2 0x288 ADD MSTORE DUP2 DUP2 PUSH2 0x378 ADD MSTORE DUP2 DUP2 PUSH2 0x584 ADD MSTORE DUP2 DUP2 PUSH2 0x6BE ADD MSTORE DUP2 DUP2 PUSH2 0x8C9 ADD MSTORE DUP2 DUP2 PUSH2 0xAB1 ADD MSTORE PUSH2 0xD9A ADD MSTORE RETURN JUMPDEST DUP4 MLOAD PUSH4 0xE6C4247B PUSH1 0xE0 SHL DUP2 MSTORE PUSH1 0x4 SWAP1 REVERT JUMPDEST PUSH4 0xE6C4247B PUSH1 0xE0 SHL DUP2 MSTORE PUSH1 0x4 SWAP1 REVERT JUMPDEST DUP3 MLOAD PUSH4 0x1E4FBDF7 PUSH1 0xE0 SHL DUP2 MSTORE PUSH0 PUSH1 0x4 DUP3 ADD MSTORE PUSH1 0x24 SWAP1 REVERT JUMPDEST PUSH0 DUP1 REVERT JUMPDEST PUSH4 0x4E487B71 PUSH1 0xE0 SHL PUSH0 MSTORE PUSH1 0x41 PUSH1 0x4 MSTORE PUSH1 0x24 PUSH0 REVERT JUMPDEST MLOAD SWAP1 PUSH1 0x1 PUSH1 0x1 PUSH1 0xA0 SHL SUB DUP3 AND DUP3 SUB PUSH2 0x13A JUMPI JUMP INVALID PUSH1 0x40 PUSH1 0x80 DUP2 MSTORE PUSH1 0x4 DUP1 CALLDATASIZE LT ISZERO PUSH2 0x13 JUMPI PUSH0 DUP1 REVERT JUMPDEST PUSH0 CALLDATALOAD PUSH1 0xE0 SHR DUP1 PUSH4 0x42F1BA7 EQ PUSH2 0xB78 JUMPI DUP1 PUSH4 0x270EF385 EQ PUSH2 0xB54 JUMPI DUP1 PUSH4 0x2A8014ED EQ PUSH2 0xB38 JUMPI DUP1 PUSH4 0x3F4BA83A EQ PUSH2 0xAE0 JUMPI DUP1 PUSH4 0x3FBDF9CF EQ PUSH2 0xA9D JUMPI DUP1 PUSH4 0x4B4AD96F EQ PUSH2 0xA1E JUMPI DUP1 PUSH4 0x4DA90FEC EQ PUSH2 0x9F6 JUMPI DUP1 PUSH4 0x4E71D92D EQ PUSH2 0x87B JUMPI DUP1 PUSH4 0x5C975ABB EQ PUSH2 0x856 JUMPI DUP1 PUSH4 0x6859C9EA EQ PUSH2 0x838 JUMPI DUP1 PUSH4 0x715018A6 EQ PUSH2 0x7F4 JUMPI DUP1 PUSH4 0x73B2E80E EQ PUSH2 0x622 JUMPI DUP1 PUSH4 0x77AB2580 EQ PUSH2 0x7D8 JUMPI DUP1 PUSH4 0x8456CB59 EQ PUSH2 0x77A JUMPI DUP1 PUSH4 0x8DA5CB5B EQ PUSH2 0x753 JUMPI DUP1 PUSH4 0x92FDA384 EQ PUSH2 0x6F3 JUMPI DUP1 PUSH4 0x95CCEA67 EQ PUSH2 0x67B JUMPI DUP1 PUSH4 0x9A3A2B28 EQ PUSH2 0x65D JUMPI DUP1 PUSH4 0x9AE697BF EQ PUSH2 0x40C JUMPI DUP1 PUSH4 0xA195B69C EQ PUSH2 0x622 JUMPI DUP1 PUSH4 0xA7688869 EQ PUSH2 0x604 JUMPI DUP1 PUSH4 0xABD70AA2 EQ PUSH2 0x556 JUMPI DUP1 PUSH4 0xBD09001B EQ PUSH2 0x48F JUMPI DUP1 PUSH4 0xBE9C21A8 EQ PUSH2 0x443 JUMPI DUP1 PUSH4 0xC4086893 EQ PUSH2 0x40C JUMPI DUP1 PUSH4 0xC59D4847 EQ PUSH2 0x339 JUMPI DUP1 PUSH4 0xD2454E8D EQ PUSH2 0x2FD JUMPI DUP1 PUSH4 0xDA3A5F72 EQ PUSH2 0x21E JUMPI DUP1 PUSH4 0xEFCA2EED EQ PUSH2 0x200 JUMPI DUP1 PUSH4 0xF19562B6 EQ PUSH2 0x1E4 JUMPI PUSH4 0xF2FDE38B EQ PUSH2 0x170 JUMPI PUSH0 DUP1 REVERT JUMPDEST CALLVALUE PUSH2 0x1E0 JUMPI PUSH1 0x20 CALLDATASIZE PUSH1 0x3 NOT ADD SLT PUSH2 0x1E0 JUMPI PUSH2 0x189 PUSH2 0xBFD JUMP JUMPDEST SWAP1 PUSH2 0x192 PUSH2 0xDD5 JUMP JUMPDEST PUSH1 0x1 PUSH1 0x1 PUSH1 0xA0 SHL SUB SWAP2 DUP3 AND SWAP3 DUP4 ISZERO PUSH2 0x1CA JUMPI POP POP PUSH0 SLOAD DUP3 PUSH1 0x1 DUP1 PUSH1 0xA0 SHL SUB NOT DUP3 AND OR PUSH0 SSTORE AND PUSH0 DUP1 MLOAD PUSH1 0x20 PUSH2 0xF1B DUP4 CODECOPY DUP2 MLOAD SWAP2 MSTORE PUSH0 DUP1 LOG3 STOP JUMPDEST SWAP1 PUSH0 PUSH1 0x24 SWAP3 MLOAD SWAP2 PUSH4 0x1E4FBDF7 PUSH1 0xE0 SHL DUP4 MSTORE DUP3 ADD MSTORE REVERT JUMPDEST PUSH0 DUP1 REVERT JUMPDEST DUP3 CALLVALUE PUSH2 0x1E0 JUMPI PUSH0 CALLDATASIZE PUSH1 0x3 NOT ADD SLT PUSH2 0x1E0 JUMPI PUSH1 0x20 SWAP1 MLOAD PUSH2 0x13EC DUP2 MSTORE RETURN JUMPDEST DUP3 CALLVALUE PUSH2 0x1E0 JUMPI PUSH0 CALLDATASIZE PUSH1 0x3 NOT ADD SLT PUSH2 0x1E0 JUMPI PUSH1 0x20 SWAP1 PUSH1 0x6 SLOAD SWAP1 MLOAD SWAP1 DUP2 MSTORE RETURN JUMPDEST POP SWAP1 CALLVALUE PUSH2 0x1E0 JUMPI PUSH1 0x20 CALLDATASIZE PUSH1 0x3 NOT ADD SLT PUSH2 0x1E0 JUMPI DUP2 CALLDATALOAD SWAP2 PUSH2 0x23C PUSH2 0xE00 JUMP JUMPDEST DUP3 ISZERO PUSH2 0x2EF JUMPI DUP2 MLOAD PUSH4 0x23B872DD PUSH1 0xE0 SHL PUSH1 0x20 DUP3 ADD MSTORE CALLER PUSH1 0x24 DUP3 ADD MSTORE ADDRESS PUSH1 0x44 DUP3 ADD MSTORE PUSH1 0x64 DUP1 DUP3 ADD DUP6 SWAP1 MSTORE DUP2 MSTORE SWAP1 PUSH1 0xA0 DUP3 ADD SWAP1 PUSH1 0x1 PUSH1 0x1 PUSH1 0x40 SHL SUB DUP3 GT DUP4 DUP4 LT OR PUSH2 0x2DC JUMPI POP DUP3 MSTORE PUSH2 0x2AC SWAP1 PUSH32 0x0 PUSH2 0xEB5 JUMP JUMPDEST MLOAD SWAP1 DUP2 MSTORE PUSH32 0x32173D8E51CEC3A6FE484B7A1C3FEBE760CDF96E03D4CCA36A43563A4333E838 PUSH1 0x20 CALLER SWAP3 LOG2 PUSH1 0x1 DUP1 SSTORE STOP JUMPDEST PUSH1 0x41 SWAP1 PUSH4 0x4E487B71 PUSH1 0xE0 SHL PUSH0 MSTORE MSTORE PUSH1 0x24 PUSH0 REVERT JUMPDEST SWAP1 MLOAD PUSH4 0x162908E3 PUSH1 0xE1 SHL DUP2 MSTORE REVERT JUMPDEST DUP3 CALLVALUE PUSH2 0x1E0 JUMPI PUSH1 0x20 CALLDATASIZE PUSH1 0x3 NOT ADD SLT PUSH2 0x1E0 JUMPI PUSH1 0x20 SWAP1 PUSH1 0x1 PUSH1 0x1 PUSH1 0xA0 SHL SUB PUSH2 0x322 PUSH2 0xBFD JUMP JUMPDEST AND PUSH0 MSTORE PUSH1 0x5 DUP3 MSTORE PUSH1 0xFF DUP2 PUSH0 KECCAK256 SLOAD AND SWAP1 MLOAD SWAP1 ISZERO ISZERO DUP2 MSTORE RETURN JUMPDEST POP SWAP1 CALLVALUE PUSH2 0x1E0 JUMPI PUSH0 CALLDATASIZE PUSH1 0x3 NOT ADD SLT PUSH2 0x1E0 JUMPI PUSH1 0x6 SLOAD PUSH1 0x7 SLOAD PUSH1 0x8 SLOAD PUSH1 0x9 SLOAD DUP5 MLOAD PUSH4 0x70A08231 PUSH1 0xE0 SHL DUP2 MSTORE ADDRESS SWAP7 DUP2 ADD SWAP7 SWAP1 SWAP7 MSTORE SWAP3 SWAP4 SWAP2 SWAP3 SWAP2 PUSH1 0x20 DUP7 PUSH1 0x24 DUP2 PUSH32 0x0 PUSH1 0x1 PUSH1 0x1 PUSH1 0xA0 SHL SUB AND GAS STATICCALL SWAP4 DUP5 ISZERO PUSH2 0x402 JUMPI PUSH0 SWAP5 PUSH2 0x3CD JUMPI JUMPDEST PUSH1 0xA0 SWAP7 POP DUP2 MLOAD SWAP6 DUP7 MSTORE PUSH1 0x20 DUP7 ADD MSTORE DUP5 ADD MSTORE PUSH1 0x60 DUP4 ADD MSTORE PUSH1 0x80 DUP3 ADD MSTORE RETURN JUMPDEST SWAP4 POP PUSH1 0x20 DUP7 RETURNDATASIZE PUSH1 0x20 GT PUSH2 0x3FA JUMPI JUMPDEST DUP2 PUSH2 0x3E8 PUSH1 0x20 SWAP4 DUP4 PUSH2 0xC13 JUMP JUMPDEST DUP2 ADD SUB SLT PUSH2 0x1E0 JUMPI PUSH1 0xA0 SWAP6 MLOAD SWAP4 PUSH2 0x3B0 JUMP JUMPDEST RETURNDATASIZE SWAP2 POP PUSH2 0x3DB JUMP JUMPDEST POP MLOAD RETURNDATASIZE PUSH0 DUP3 RETURNDATACOPY RETURNDATASIZE SWAP1 REVERT JUMPDEST DUP3 CALLVALUE PUSH2 0x1E0 JUMPI PUSH1 0x20 CALLDATASIZE PUSH1 0x3 NOT ADD SLT PUSH2 0x1E0 JUMPI PUSH1 0x20 SWAP1 PUSH1 0x1 PUSH1 0x1 PUSH1 0xA0 SHL SUB PUSH2 0x431 PUSH2 0xBFD JUMP JUMPDEST AND PUSH0 MSTORE PUSH1 0x3 DUP3 MSTORE DUP1 PUSH0 KECCAK256 SLOAD SWAP1 MLOAD SWAP1 DUP2 MSTORE RETURN JUMPDEST POP SWAP1 CALLVALUE PUSH2 0x1E0 JUMPI PUSH1 0x20 CALLDATASIZE PUSH1 0x3 NOT ADD SLT PUSH2 0x1E0 JUMPI PUSH2 0x45E PUSH2 0xE00 JUMP JUMPDEST CALLER PUSH0 MSTORE PUSH1 0x5 PUSH1 0x20 MSTORE PUSH1 0xFF DUP2 PUSH0 KECCAK256 SLOAD AND ISZERO PUSH2 0x482 JUMPI PUSH2 0x47C DUP3 CALLDATALOAD PUSH2 0xD13 JUMP JUMPDEST PUSH1 0x1 DUP1 SSTORE STOP JUMPDEST MLOAD PUSH4 0x410A7629 PUSH1 0xE0 SHL DUP2 MSTORE REVERT JUMPDEST POP SWAP1 CALLVALUE PUSH2 0x1E0 JUMPI DUP1 PUSH1 0x3 NOT CALLDATASIZE ADD SLT PUSH2 0x1E0 JUMPI PUSH2 0x4A9 PUSH2 0xBFD JUMP JUMPDEST SWAP1 PUSH1 0x24 CALLDATALOAD SWAP2 PUSH2 0x4B6 PUSH2 0xE00 JUMP JUMPDEST CALLER PUSH0 MSTORE PUSH1 0x5 PUSH1 0x20 MSTORE PUSH1 0xFF DUP3 PUSH0 KECCAK256 SLOAD AND ISZERO PUSH2 0x546 JUMPI DUP3 ISZERO PUSH2 0x536 JUMPI PUSH1 0x1 PUSH1 0x1 PUSH1 0xA0 SHL SUB AND SWAP3 DUP4 ISZERO PUSH2 0x528 JUMPI POP PUSH32 0x30221A0670BB4F41B0859084EBAA942821E0B6F84947DD986EF23B2D34AC1334 SWAP2 PUSH1 0x20 SWAP2 DUP5 PUSH0 MSTORE PUSH1 0x3 DUP4 MSTORE DUP1 PUSH0 KECCAK256 PUSH2 0x51B DUP4 DUP3 SLOAD PUSH2 0xC4A JUMP JUMPDEST SWAP1 SSTORE MLOAD SWAP1 DUP2 MSTORE LOG2 PUSH1 0x1 DUP1 SSTORE STOP JUMPDEST SWAP1 MLOAD PUSH4 0xE6C4247B PUSH1 0xE0 SHL DUP2 MSTORE REVERT JUMPDEST DUP2 MLOAD PUSH4 0x162908E3 PUSH1 0xE1 SHL DUP2 MSTORE DUP5 SWAP1 REVERT JUMPDEST DUP2 MLOAD PUSH4 0x410A7629 PUSH1 0xE0 SHL DUP2 MSTORE DUP5 SWAP1 REVERT JUMPDEST POP SWAP1 CALLVALUE PUSH2 0x1E0 JUMPI PUSH0 CALLDATASIZE PUSH1 0x3 NOT ADD SLT PUSH2 0x1E0 JUMPI DUP1 MLOAD PUSH4 0x70A08231 PUSH1 0xE0 SHL DUP2 MSTORE ADDRESS SWAP3 DUP2 ADD SWAP3 SWAP1 SWAP3 MSTORE PUSH1 0x20 DUP3 PUSH1 0x24 DUP2 PUSH32 0x0 PUSH1 0x1 PUSH1 0x1 PUSH1 0xA0 SHL SUB AND GAS STATICCALL SWAP1 DUP2 ISZERO PUSH2 0x5FB JUMPI PUSH0 SWAP2 PUSH2 0x5C6 JUMPI JUMPDEST PUSH1 0x20 SWAP3 POP MLOAD SWAP1 DUP2 MSTORE RETURN JUMPDEST SWAP1 POP PUSH1 0x20 DUP3 RETURNDATASIZE PUSH1 0x20 GT PUSH2 0x5F3 JUMPI JUMPDEST DUP2 PUSH2 0x5E1 PUSH1 0x20 SWAP4 DUP4 PUSH2 0xC13 JUMP JUMPDEST DUP2 ADD SUB SLT PUSH2 0x1E0 JUMPI PUSH1 0x20 SWAP2 MLOAD SWAP1 PUSH2 0x5BC JUMP JUMPDEST RETURNDATASIZE SWAP2 POP PUSH2 0x5D4 JUMP JUMPDEST MLOAD RETURNDATASIZE PUSH0 DUP3 RETURNDATACOPY RETURNDATASIZE SWAP1 REVERT JUMPDEST DUP3 CALLVALUE PUSH2 0x1E0 JUMPI PUSH0 CALLDATASIZE PUSH1 0x3 NOT ADD SLT PUSH2 0x1E0 JUMPI PUSH1 0x20 SWAP1 PUSH1 0x9 SLOAD SWAP1 MLOAD SWAP1 DUP2 MSTORE RETURN JUMPDEST POP SWAP1 CALLVALUE PUSH2 0x1E0 JUMPI PUSH1 0x20 CALLDATASIZE PUSH1 0x3 NOT ADD SLT PUSH2 0x1E0 JUMPI PUSH1 0x20 SWAP2 PUSH1 0x1 PUSH1 0x1 PUSH1 0xA0 SHL SUB PUSH2 0x648 PUSH2 0xBFD JUMP JUMPDEST AND PUSH0 MSTORE DUP3 MSTORE PUSH1 0xFF DUP2 PUSH0 KECCAK256 SLOAD AND SWAP1 MLOAD SWAP1 ISZERO ISZERO DUP2 MSTORE RETURN JUMPDEST DUP3 CALLVALUE PUSH2 0x1E0 JUMPI PUSH0 CALLDATASIZE PUSH1 0x3 NOT ADD SLT PUSH2 0x1E0 JUMPI PUSH1 0x20 SWAP1 PUSH1 0x8 SLOAD SWAP1 MLOAD SWAP1 DUP2 MSTORE RETURN JUMPDEST POP SWAP1 CALLVALUE PUSH2 0x1E0 JUMPI DUP1 PUSH1 0x3 NOT CALLDATASIZE ADD SLT PUSH2 0x1E0 JUMPI PUSH2 0x695 PUSH2 0xBFD JUMP JUMPDEST SWAP1 PUSH2 0x69E PUSH2 0xDD5 JUMP JUMPDEST PUSH2 0x6A6 PUSH2 0xE43 JUMP JUMPDEST PUSH1 0x1 PUSH1 0x1 PUSH1 0xA0 SHL SUB DUP3 AND ISZERO PUSH2 0x6E4 JUMPI PUSH2 0x6E2 PUSH1 0x24 CALLDATALOAD DUP4 PUSH32 0x0 PUSH2 0xE64 JUMP JUMPDEST STOP JUMPDEST MLOAD PUSH4 0xE6C4247B PUSH1 0xE0 SHL DUP2 MSTORE SWAP1 POP REVERT JUMPDEST POP SWAP1 CALLVALUE PUSH2 0x1E0 JUMPI DUP1 PUSH1 0x3 NOT CALLDATASIZE ADD SLT PUSH2 0x1E0 JUMPI PUSH2 0x70D PUSH2 0xBFD JUMP JUMPDEST SWAP2 PUSH2 0x716 PUSH2 0xE00 JUMP JUMPDEST CALLER PUSH0 MSTORE PUSH1 0x5 PUSH1 0x20 MSTORE PUSH1 0xFF DUP3 PUSH0 KECCAK256 SLOAD AND ISZERO PUSH2 0x745 JUMPI POP PUSH2 0x73A PUSH1 0x20 SWAP3 PUSH1 0x24 CALLDATALOAD SWAP1 PUSH2 0xC78 JUMP JUMPDEST SWAP1 PUSH1 0x1 DUP1 SSTORE MLOAD SWAP1 DUP2 MSTORE RETURN JUMPDEST SWAP1 MLOAD PUSH4 0x410A7629 PUSH1 0xE0 SHL DUP2 MSTORE REVERT JUMPDEST DUP3 CALLVALUE PUSH2 0x1E0 JUMPI PUSH0 CALLDATASIZE PUSH1 0x3 NOT ADD SLT PUSH2 0x1E0 JUMPI PUSH0 SLOAD SWAP1 MLOAD PUSH1 0x1 PUSH1 0x1 PUSH1 0xA0 SHL SUB SWAP1 SWAP2 AND DUP2 MSTORE PUSH1 0x20 SWAP1 RETURN JUMPDEST DUP3 CALLVALUE PUSH2 0x1E0 JUMPI PUSH0 CALLDATASIZE PUSH1 0x3 NOT ADD SLT PUSH2 0x1E0 JUMPI PUSH1 0x20 PUSH32 0x62E78CEA01BEE320CD4E420270B5EA74000D11B0C9F74754EBDBFC544B05A258 SWAP2 PUSH2 0x7B7 PUSH2 0xDD5 JUMP JUMPDEST PUSH2 0x7BF PUSH2 0xE23 JUMP JUMPDEST PUSH0 DUP1 SLOAD PUSH1 0xFF PUSH1 0xA0 SHL NOT AND PUSH1 0x1 PUSH1 0xA0 SHL OR SWAP1 SSTORE MLOAD CALLER DUP2 MSTORE LOG1 STOP JUMPDEST DUP3 CALLVALUE PUSH2 0x1E0 JUMPI PUSH0 CALLDATASIZE PUSH1 0x3 NOT ADD SLT PUSH2 0x1E0 JUMPI PUSH1 0x20 SWAP1 MLOAD PUSH2 0x640 DUP2 MSTORE RETURN JUMPDEST CALLVALUE PUSH2 0x1E0 JUMPI PUSH0 CALLDATASIZE PUSH1 0x3 NOT ADD SLT PUSH2 0x1E0 JUMPI PUSH2 0x80C PUSH2 0xDD5 JUMP JUMPDEST PUSH0 DUP1 SLOAD PUSH1 0x1 PUSH1 0x1 PUSH1 0xA0 SHL SUB NOT DUP2 AND DUP3 SSTORE PUSH1 0x1 PUSH1 0x1 PUSH1 0xA0 SHL SUB AND PUSH0 DUP1 MLOAD PUSH1 0x20 PUSH2 0xF1B DUP4 CODECOPY DUP2 MLOAD SWAP2 MSTORE DUP3 DUP1 LOG3 STOP JUMPDEST DUP3 CALLVALUE PUSH2 0x1E0 JUMPI PUSH0 CALLDATASIZE PUSH1 0x3 NOT ADD SLT PUSH2 0x1E0 JUMPI PUSH1 0x20 SWAP1 PUSH1 0x7 SLOAD SWAP1 MLOAD SWAP1 DUP2 MSTORE RETURN JUMPDEST DUP3 CALLVALUE PUSH2 0x1E0 JUMPI PUSH0 CALLDATASIZE PUSH1 0x3 NOT ADD SLT PUSH2 0x1E0 JUMPI PUSH1 0x20 SWAP1 PUSH1 0xFF PUSH0 SLOAD PUSH1 0xA0 SHR AND SWAP1 MLOAD SWAP1 ISZERO ISZERO DUP2 MSTORE RETURN JUMPDEST POP SWAP1 CALLVALUE PUSH2 0x1E0 JUMPI PUSH0 CALLDATASIZE PUSH1 0x3 NOT ADD SLT PUSH2 0x1E0 JUMPI PUSH2 0x895 PUSH2 0xE00 JUMP JUMPDEST PUSH2 0x89D PUSH2 0xE23 JUMP JUMPDEST CALLER PUSH0 MSTORE PUSH1 0x20 DUP3 DUP2 MSTORE PUSH1 0xFF DUP3 PUSH0 KECCAK256 SLOAD AND PUSH2 0x9E8 JUMPI DUP2 MLOAD PUSH4 0x70A08231 PUSH1 0xE0 SHL DUP2 MSTORE ADDRESS DUP5 DUP3 ADD MSTORE SWAP2 DUP2 DUP4 PUSH1 0x24 DUP2 PUSH32 0x0 PUSH1 0x1 PUSH1 0x1 PUSH1 0xA0 SHL SUB AND GAS STATICCALL SWAP3 DUP4 ISZERO PUSH2 0x402 JUMPI PUSH0 SWAP4 PUSH2 0x9B9 JUMPI JUMPDEST POP PUSH10 0x11478B7C30ABC300000 DUP1 SWAP4 LT PUSH2 0x9AA JUMPI CALLER PUSH0 MSTORE DUP4 DUP3 MSTORE DUP1 PUSH0 KECCAK256 PUSH1 0x1 PUSH1 0xFF NOT DUP3 SLOAD AND OR SWAP1 SSTORE PUSH1 0x3 DUP3 MSTORE DUP3 DUP2 PUSH0 KECCAK256 SSTORE PUSH1 0x6 SLOAD DUP4 DUP2 ADD DUP1 SWAP2 GT PUSH2 0x997 JUMPI PUSH1 0x6 SSTORE PUSH1 0x9 SLOAD SWAP4 PUSH0 NOT DUP6 EQ PUSH2 0x984 JUMPI POP PUSH1 0x1 PUSH32 0xD8138F8A3F377C5259CA548E70E4C2DE94F129F5A11036A15B69513CBA2B426A SWAP4 SWAP5 ADD PUSH1 0x9 SSTORE MLOAD SWAP3 DUP4 MSTORE CALLER SWAP3 LOG2 PUSH1 0x1 DUP1 SSTORE STOP JUMPDEST PUSH1 0x11 SWAP1 PUSH4 0x4E487B71 PUSH1 0xE0 SHL PUSH0 MSTORE MSTORE PUSH1 0x24 PUSH0 REVERT JUMPDEST PUSH1 0x11 DUP6 PUSH4 0x4E487B71 PUSH1 0xE0 SHL PUSH0 MSTORE MSTORE PUSH1 0x24 PUSH0 REVERT JUMPDEST MLOAD PUSH4 0xBC6072F1 PUSH1 0xE0 SHL DUP2 MSTORE DUP4 SWAP1 REVERT JUMPDEST SWAP1 SWAP3 POP DUP2 DUP2 DUP2 RETURNDATASIZE DUP4 GT PUSH2 0x9E1 JUMPI JUMPDEST PUSH2 0x9D1 DUP2 DUP4 PUSH2 0xC13 JUMP JUMPDEST DUP2 ADD SUB SLT PUSH2 0x1E0 JUMPI MLOAD SWAP2 PUSH0 PUSH2 0x901 JUMP JUMPDEST POP RETURNDATASIZE PUSH2 0x9C7 JUMP JUMPDEST POP MLOAD PUSH4 0xC8D9EAB PUSH1 0xE3 SHL DUP2 MSTORE REVERT JUMPDEST DUP3 CALLVALUE PUSH2 0x1E0 JUMPI PUSH0 CALLDATASIZE PUSH1 0x3 NOT ADD SLT PUSH2 0x1E0 JUMPI PUSH1 0x2 SLOAD SWAP1 MLOAD PUSH1 0x1 PUSH1 0x1 PUSH1 0xA0 SHL SUB SWAP1 SWAP2 AND DUP2 MSTORE PUSH1 0x20 SWAP1 RETURN JUMPDEST POP CALLVALUE PUSH2 0x1E0 JUMPI PUSH1 0x20 CALLDATASIZE PUSH1 0x3 NOT ADD SLT PUSH2 0x1E0 JUMPI PUSH2 0xA38 PUSH2 0xBFD JUMP JUMPDEST SWAP1 PUSH2 0xA41 PUSH2 0xDD5 JUMP JUMPDEST PUSH1 0x1 PUSH1 0x1 PUSH1 0xA0 SHL SUB SWAP2 DUP3 AND SWAP3 DUP4 ISZERO PUSH2 0xA90 JUMPI POP POP PUSH1 0x2 DUP1 SLOAD PUSH1 0x1 PUSH1 0x1 PUSH1 0xA0 SHL SUB NOT DUP2 AND DUP5 OR SWAP1 SWAP2 SSTORE AND PUSH32 0x86EBD19795ACBFA22BDCBD73B934D72AB7A855E506064E9E69076BF1D687F77A PUSH0 DUP1 LOG3 STOP JUMPDEST MLOAD PUSH4 0xE6C4247B PUSH1 0xE0 SHL DUP2 MSTORE REVERT JUMPDEST DUP3 CALLVALUE PUSH2 0x1E0 JUMPI PUSH0 CALLDATASIZE PUSH1 0x3 NOT ADD SLT PUSH2 0x1E0 JUMPI MLOAD PUSH32 0x0 PUSH1 0x1 PUSH1 0x1 PUSH1 0xA0 SHL SUB AND DUP2 MSTORE PUSH1 0x20 SWAP1 RETURN JUMPDEST DUP3 CALLVALUE PUSH2 0x1E0 JUMPI PUSH0 CALLDATASIZE PUSH1 0x3 NOT ADD SLT PUSH2 0x1E0 JUMPI PUSH1 0x20 PUSH32 0x5DB9EE0A495BF2E6FF9C91A7834C1BA4FDD244A5E8AA4E537BD38AEAE4B073AA SWAP2 PUSH2 0xB1D PUSH2 0xDD5 JUMP JUMPDEST PUSH2 0xB25 PUSH2 0xE43 JUMP JUMPDEST PUSH0 DUP1 SLOAD PUSH1 0xFF PUSH1 0xA0 SHL NOT AND SWAP1 SSTORE MLOAD CALLER DUP2 MSTORE LOG1 STOP JUMPDEST DUP3 CALLVALUE PUSH2 0x1E0 JUMPI PUSH0 CALLDATASIZE PUSH1 0x3 NOT ADD SLT PUSH2 0x1E0 JUMPI PUSH1 0x20 SWAP1 MLOAD PUSH2 0xDAC DUP2 MSTORE RETURN JUMPDEST DUP3 CALLVALUE PUSH2 0x1E0 JUMPI PUSH0 CALLDATASIZE PUSH1 0x3 NOT ADD SLT PUSH2 0x1E0 JUMPI PUSH1 0x20 SWAP1 MLOAD PUSH10 0x11478B7C30ABC300000 DUP2 MSTORE RETURN JUMPDEST POP SWAP1 CALLVALUE PUSH2 0x1E0 JUMPI DUP1 PUSH1 0x3 NOT CALLDATASIZE ADD SLT PUSH2 0x1E0 JUMPI PUSH2 0xB92 PUSH2 0xBFD JUMP JUMPDEST SWAP1 PUSH1 0x24 CALLDATALOAD SWAP2 DUP3 ISZERO ISZERO DUP1 SWAP4 SUB PUSH2 0x1E0 JUMPI PUSH2 0xBA9 PUSH2 0xDD5 JUMP JUMPDEST PUSH1 0x1 PUSH1 0x1 PUSH1 0xA0 SHL SUB AND SWAP3 DUP4 ISZERO PUSH2 0x528 JUMPI POP PUSH32 0x6609C42E8F5F5A32CF15047370DAADB51660D5F068C28AC83D8A28C3BD9F1D0 SWAP2 PUSH1 0x20 SWAP2 DUP5 PUSH0 MSTORE PUSH1 0x5 DUP4 MSTORE DUP1 PUSH0 KECCAK256 PUSH1 0xFF NOT DUP2 SLOAD AND PUSH1 0xFF DUP5 AND OR SWAP1 SSTORE MLOAD SWAP1 DUP2 MSTORE LOG2 STOP JUMPDEST PUSH1 0x4 CALLDATALOAD SWAP1 PUSH1 0x1 PUSH1 0x1 PUSH1 0xA0 SHL SUB DUP3 AND DUP3 SUB PUSH2 0x1E0 JUMPI JUMP JUMPDEST PUSH1 0x1F SWAP1 SWAP2 ADD PUSH1 0x1F NOT AND DUP2 ADD SWAP1 PUSH1 0x1 PUSH1 0x1 PUSH1 0x40 SHL SUB DUP3 GT SWAP1 DUP3 LT OR PUSH2 0xC36 JUMPI PUSH1 0x40 MSTORE JUMP JUMPDEST PUSH4 0x4E487B71 PUSH1 0xE0 SHL PUSH0 MSTORE PUSH1 0x41 PUSH1 0x4 MSTORE PUSH1 0x24 PUSH0 REVERT JUMPDEST SWAP2 SWAP1 DUP3 ADD DUP1 SWAP3 GT PUSH2 0xC57 JUMPI JUMP JUMPDEST PUSH4 0x4E487B71 PUSH1 0xE0 SHL PUSH0 MSTORE PUSH1 0x11 PUSH1 0x4 MSTORE PUSH1 0x24 PUSH0 REVERT JUMPDEST SWAP2 SWAP1 DUP3 SUB SWAP2 DUP3 GT PUSH2 0xC57 JUMPI JUMP JUMPDEST SWAP2 SWAP1 SWAP2 DUP3 ISZERO PUSH2 0xD01 JUMPI PUSH1 0x1 PUSH1 0x1 PUSH1 0xA0 SHL SUB AND PUSH0 DUP2 DUP2 MSTORE PUSH1 0x3 PUSH1 0x20 MSTORE PUSH1 0x40 SWAP1 KECCAK256 DUP1 SLOAD SWAP4 DUP5 ISZERO PUSH2 0xCF9 JUMPI PUSH32 0x95F4D5966846773AA70647A197244F2CECA39CAF98230DE365736B7F2C3C2F2C SWAP2 PUSH1 0x60 SWAP2 DUP7 DUP2 GT ISZERO PUSH2 0xCF3 JUMPI POP DUP6 SWAP1 JUMPDEST PUSH2 0xCDC DUP3 DUP1 SWAP9 PUSH2 0xC6B JUMP JUMPDEST SWAP1 SSTORE PUSH1 0x40 MLOAD SWAP1 DUP2 MSTORE PUSH0 PUSH1 0x20 DUP3 ADD MSTORE PUSH0 PUSH1 0x40 DUP3 ADD MSTORE LOG2 JUMP JUMPDEST SWAP1 PUSH2 0xCD1 JUMP JUMPDEST POP PUSH0 SWAP4 POP POP POP JUMP JUMPDEST PUSH1 0x40 MLOAD PUSH4 0x162908E3 PUSH1 0xE1 SHL DUP2 MSTORE PUSH1 0x4 SWAP1 REVERT JUMPDEST DUP1 ISZERO PUSH2 0xDD2 JUMPI PUSH2 0xDAC DUP2 MUL PUSH2 0xDAB NOT DUP3 DUP3 DIV ADD PUSH2 0xC57 JUMPI PUSH32 0xD36DBF9112DF53A06BFCC1ABD477914A245F2AAAD20B4F0163E0A887E9E4AA51 SWAP2 PUSH2 0x13EC PUSH1 0x60 SWAP3 DIV PUSH2 0xD5D DUP2 DUP4 PUSH2 0xC6B JUMP JUMPDEST SWAP1 DUP2 PUSH2 0xD86 JUMPI JUMPDEST PUSH2 0xD70 DUP2 PUSH1 0x7 SLOAD PUSH2 0xC4A JUMP JUMPDEST PUSH1 0x7 SSTORE PUSH1 0x40 MLOAD SWAP3 DUP4 MSTORE PUSH1 0x20 DUP4 ADD MSTORE PUSH1 0x40 DUP3 ADD MSTORE LOG1 JUMP JUMPDEST PUSH1 0x2 SLOAD PUSH2 0xDBE SWAP1 DUP4 SWAP1 PUSH1 0x1 PUSH1 0x1 PUSH1 0xA0 SHL SUB AND PUSH32 0x0 PUSH2 0xE64 JUMP JUMPDEST PUSH2 0xDCA DUP3 PUSH1 0x8 SLOAD PUSH2 0xC4A JUMP JUMPDEST PUSH1 0x8 SSTORE PUSH2 0xD64 JUMP JUMPDEST POP JUMP JUMPDEST PUSH0 SLOAD PUSH1 0x1 PUSH1 0x1 PUSH1 0xA0 SHL SUB AND CALLER SUB PUSH2 0xDE8 JUMPI JUMP JUMPDEST PUSH1 0x40 MLOAD PUSH4 0x118CDAA7 PUSH1 0xE0 SHL DUP2 MSTORE CALLER PUSH1 0x4 DUP3 ADD MSTORE PUSH1 0x24 SWAP1 REVERT JUMPDEST PUSH1 0x2 PUSH1 0x1 SLOAD EQ PUSH2 0xE11 JUMPI PUSH1 0x2 PUSH1 0x1 SSTORE JUMP JUMPDEST PUSH1 0x40 MLOAD PUSH4 0x3EE5AEB5 PUSH1 0xE0 SHL DUP2 MSTORE PUSH1 0x4 SWAP1 REVERT JUMPDEST PUSH1 0xFF PUSH0 SLOAD PUSH1 0xA0 SHR AND PUSH2 0xE31 JUMPI JUMP JUMPDEST PUSH1 0x40 MLOAD PUSH4 0xD93C0665 PUSH1 0xE0 SHL DUP2 MSTORE PUSH1 0x4 SWAP1 REVERT JUMPDEST PUSH1 0xFF PUSH0 SLOAD PUSH1 0xA0 SHR AND ISZERO PUSH2 0xE52 JUMPI JUMP JUMPDEST PUSH1 0x40 MLOAD PUSH4 0x8DFC202B PUSH1 0xE0 SHL DUP2 MSTORE PUSH1 0x4 SWAP1 REVERT JUMPDEST PUSH1 0x40 MLOAD PUSH4 0xA9059CBB PUSH1 0xE0 SHL PUSH1 0x20 DUP3 ADD MSTORE PUSH1 0x1 PUSH1 0x1 PUSH1 0xA0 SHL SUB SWAP1 SWAP3 AND PUSH1 0x24 DUP4 ADD MSTORE PUSH1 0x44 DUP1 DUP4 ADD SWAP4 SWAP1 SWAP4 MSTORE SWAP2 DUP2 MSTORE PUSH1 0x80 DUP2 ADD SWAP2 PUSH1 0x1 PUSH1 0x1 PUSH1 0x40 SHL SUB DUP4 GT DUP3 DUP5 LT OR PUSH2 0xC36 JUMPI PUSH2 0xEB3 SWAP3 PUSH1 0x40 MSTORE PUSH2 0xEB5 JUMP JUMPDEST JUMP JUMPDEST SWAP1 PUSH0 PUSH1 0x20 SWAP2 DUP3 DUP2 MLOAD SWAP2 ADD DUP3 DUP6 GAS CALL ISZERO PUSH2 0xF0F JUMPI PUSH0 MLOAD RETURNDATASIZE PUSH2 0xF06 JUMPI POP PUSH1 0x1 PUSH1 0x1 PUSH1 0xA0 SHL SUB DUP2 AND EXTCODESIZE ISZERO JUMPDEST PUSH2 0xEE4 JUMPI POP JUMP JUMPDEST PUSH1 0x40 MLOAD PUSH4 0x5274AFE7 PUSH1 0xE0 SHL DUP2 MSTORE PUSH1 0x1 PUSH1 0x1 PUSH1 0xA0 SHL SUB SWAP1 SWAP2 AND PUSH1 0x4 DUP3 ADD MSTORE PUSH1 0x24 SWAP1 REVERT JUMPDEST PUSH1 0x1 EQ ISZERO PUSH2 0xEDD JUMP JUMPDEST PUSH1 0x40 MLOAD RETURNDATASIZE PUSH0 DUP3 RETURNDATACOPY RETURNDATASIZE SWAP1 REVERT INVALID DUP12 0xE0 SMOD SWAP13 MSTORE8 AND MSIZE EQ SGT PREVRANDAO 0xCD 0x1F 0xD0 LOG4 CALLCODE DUP5 NOT BLOBHASH PUSH32 0x9722A3DAAFE3B4186F6B6457E0A264697066735822122069A6031A6902EA72D2 SDIV PUSH1 0x62 0xC0 DUP5 RETURN CHAINID 0xF8 BLOCKHASH PUSH23 0x75DC1E9386143917297B46148C64736F6C634300081800 CALLER "},"methodIdentifiers":{"CLAIM_AMOUNT()":"270ef385","RATIO_DENOMINATOR()":"f19562b6","RECYCLE_NUMERATOR()":"2a8014ed","WINBOOST_NUMERATOR()":"77ab2580","authorizedSpenders(address)":"d2454e8d","claim()":"4e71d92d","claimerCount()":"a7688869","dgneToken()":"3fbdf9cf","emergencyWithdraw(address,uint256)":"95ccea67","finalizeLockedSpend(uint256)":"be9c21a8","fundPool(uint256)":"da3a5f72","getLockedBalance(address)":"c4086893","getPoolBalance()":"abd70aa2","getStats()":"c59d4847","hasClaimed(address)":"73b2e80e","hasUserClaimed(address)":"a195b69c","lockedBalance(address)":"9ae697bf","owner()":"8da5cb5b","pause()":"8456cb59","paused()":"5c975abb","renounceOwnership()":"715018a6","restoreLockedBalance(address,uint256)":"bd09001b","setAuthorizedSpender(address,bool)":"042f1ba7","setWinBoostWallet(address)":"4b4ad96f","spendLockedBalance(address,uint256)":"92fda384","totalDistributed()":"efca2eed","totalRecycled()":"6859c9ea","totalToWinBoost()":"9a3a2b28","transferOwnership(address)":"f2fde38b","unpause()":"3f4ba83a","winBoostWallet()":"4da90fec"}}}}}