{"project/src/BattleGateV2.sol":{"BattleGateV2":{"abi":[{"inputs":[{"internalType":"address","name":"_stakeToken","type":"address"},{"internalType":"address","name":"_trustedBackend","type":"address"},{"internalType":"address","name":"_treasury","type":"address"},{"internalType":"address","name":"_creatureContract","type":"address"}],"stateMutability":"nonpayable","type":"constructor"},{"inputs":[],"name":"AlreadyInBattle","type":"error"},{"inputs":[],"name":"BattleExpiredError","type":"error"},{"inputs":[],"name":"BattleNotInProgress","type":"error"},{"inputs":[],"name":"BattleNotOpen","type":"error"},{"inputs":[],"name":"BattleNotResolved","type":"error"},{"inputs":[],"name":"CancelLockoutNotPassed","type":"error"},{"inputs":[],"name":"CannotCancel","type":"error"},{"inputs":[],"name":"CannotJoinOwnBattle","type":"error"},{"inputs":[],"name":"CannotRefund","type":"error"},{"inputs":[],"name":"CreatureInBattle","type":"error"},{"inputs":[],"name":"ECDSAInvalidSignature","type":"error"},{"inputs":[{"internalType":"uint256","name":"length","type":"uint256"}],"name":"ECDSAInvalidSignatureLength","type":"error"},{"inputs":[{"internalType":"bytes32","name":"s","type":"bytes32"}],"name":"ECDSAInvalidSignatureS","type":"error"},{"inputs":[],"name":"EnforcedPause","type":"error"},{"inputs":[],"name":"ExpectedPause","type":"error"},{"inputs":[],"name":"FeeTransferFailed","type":"error"},{"inputs":[],"name":"InvalidSignature","type":"error"},{"inputs":[],"name":"InvalidStakeAmount","type":"error"},{"inputs":[],"name":"InvalidWinner","type":"error"},{"inputs":[],"name":"NotCreatureOwner","type":"error"},{"inputs":[],"name":"NotHost","type":"error"},{"inputs":[],"name":"NotTheWinner","type":"error"},{"inputs":[{"internalType":"address","name":"owner","type":"address"}],"name":"OwnableInvalidOwner","type":"error"},{"inputs":[{"internalType":"address","name":"account","type":"address"}],"name":"OwnableUnauthorizedAccount","type":"error"},{"inputs":[],"name":"PrizeTransferFailed","type":"error"},{"inputs":[],"name":"ReentrancyGuardReentrantCall","type":"error"},{"inputs":[],"name":"RefundFailed","type":"error"},{"inputs":[],"name":"SignatureAlreadyUsed","type":"error"},{"inputs":[],"name":"SignatureExpired","type":"error"},{"inputs":[],"name":"StakeTransferFailed","type":"error"},{"inputs":[],"name":"TimeoutNotReached","type":"error"},{"anonymous":false,"inputs":[{"indexed":true,"internalType":"address","name":"oldVault","type":"address"},{"indexed":true,"internalType":"address","name":"newVault","type":"address"}],"name":"AirdropVaultChanged","type":"event"},{"anonymous":false,"inputs":[{"indexed":true,"internalType":"address","name":"oldBackend","type":"address"},{"indexed":true,"internalType":"address","name":"newBackend","type":"address"}],"name":"BackendChanged","type":"event"},{"anonymous":false,"inputs":[{"indexed":true,"internalType":"address","name":"newBackend","type":"address"},{"indexed":false,"internalType":"uint256","name":"effectiveTime","type":"uint256"}],"name":"BackendProposed","type":"event"},{"anonymous":false,"inputs":[{"indexed":true,"internalType":"bytes32","name":"battleId","type":"bytes32"},{"indexed":true,"internalType":"address","name":"host","type":"address"}],"name":"BattleCancelled","type":"event"},{"anonymous":false,"inputs":[{"indexed":true,"internalType":"bytes32","name":"battleId","type":"bytes32"},{"indexed":true,"internalType":"address","name":"host","type":"address"},{"indexed":false,"internalType":"uint256","name":"creatureId","type":"uint256"},{"indexed":false,"internalType":"uint256","name":"stakeAmount","type":"uint256"}],"name":"BattleCreated","type":"event"},{"anonymous":false,"inputs":[{"indexed":true,"internalType":"bytes32","name":"battleId","type":"bytes32"},{"indexed":false,"internalType":"string","name":"reason","type":"string"}],"name":"BattleExpired","type":"event"},{"anonymous":false,"inputs":[{"indexed":true,"internalType":"bytes32","name":"battleId","type":"bytes32"},{"indexed":true,"internalType":"address","name":"guest","type":"address"},{"indexed":false,"internalType":"uint256","name":"creatureId","type":"uint256"}],"name":"BattleMatched","type":"event"},{"anonymous":false,"inputs":[{"indexed":true,"internalType":"bytes32","name":"battleId","type":"bytes32"},{"indexed":true,"internalType":"address","name":"winner","type":"address"},{"indexed":true,"internalType":"address","name":"loser","type":"address"}],"name":"BattleResolved","type":"event"},{"anonymous":false,"inputs":[{"indexed":true,"internalType":"address","name":"oldContract","type":"address"},{"indexed":true,"internalType":"address","name":"newContract","type":"address"}],"name":"CreatureContractChanged","type":"event"},{"anonymous":false,"inputs":[{"indexed":true,"internalType":"address","name":"previousOwner","type":"address"},{"indexed":true,"internalType":"address","name":"newOwner","type":"address"}],"name":"OwnershipTransferred","type":"event"},{"anonymous":false,"inputs":[{"indexed":false,"internalType":"address","name":"account","type":"address"}],"name":"Paused","type":"event"},{"anonymous":false,"inputs":[{"indexed":false,"internalType":"uint256","name":"newMin","type":"uint256"},{"indexed":false,"internalType":"uint256","name":"newMax","type":"uint256"}],"name":"StakeLimitsChanged","type":"event"},{"anonymous":false,"inputs":[{"indexed":true,"internalType":"address","name":"oldTreasury","type":"address"},{"indexed":true,"internalType":"address","name":"newTreasury","type":"address"}],"name":"TreasuryChanged","type":"event"},{"anonymous":false,"inputs":[{"indexed":false,"internalType":"address","name":"account","type":"address"}],"name":"Unpaused","type":"event"},{"anonymous":false,"inputs":[{"indexed":false,"internalType":"uint256","name":"newBoostBPS","type":"uint256"}],"name":"WinBoostUpdated","type":"event"},{"anonymous":false,"inputs":[{"indexed":false,"internalType":"address","name":"newWallet","type":"address"}],"name":"WinBoostWalletUpdated","type":"event"},{"anonymous":false,"inputs":[{"indexed":true,"internalType":"bytes32","name":"battleId","type":"bytes32"},{"indexed":true,"internalType":"address","name":"winner","type":"address"},{"indexed":false,"internalType":"uint256","name":"baseAmount","type":"uint256"},{"indexed":false,"internalType":"uint256","name":"boostAmount","type":"uint256"}],"name":"WinningsClaimed","type":"event"},{"anonymous":false,"inputs":[{"indexed":true,"internalType":"uint256","name":"creatureId","type":"uint256"},{"indexed":false,"internalType":"uint256","name":"amount","type":"uint256"}],"name":"XPFailed","type":"event"},{"inputs":[],"name":"BPS_DENOMINATOR","outputs":[{"internalType":"uint256","name":"","type":"uint256"}],"stateMutability":"view","type":"function"},{"inputs":[],"name":"CANCEL_FEE_BPS","outputs":[{"internalType":"uint256","name":"","type":"uint256"}],"stateMutability":"view","type":"function"},{"inputs":[],"name":"CANCEL_LOCKOUT","outputs":[{"internalType":"uint256","name":"","type":"uint256"}],"stateMutability":"view","type":"function"},{"inputs":[],"name":"CLAIM_TIMEOUT","outputs":[{"internalType":"uint256","name":"","type":"uint256"}],"stateMutability":"view","type":"function"},{"inputs":[],"name":"HOST_TIMEOUT","outputs":[{"internalType":"uint256","name":"","type":"uint256"}],"stateMutability":"view","type":"function"},{"inputs":[],"name":"PLATFORM_FEE_BPS","outputs":[{"internalType":"uint256","name":"","type":"uint256"}],"stateMutability":"view","type":"function"},{"inputs":[],"name":"TIMELOCK_DURATION","outputs":[{"internalType":"uint256","name":"","type":"uint256"}],"stateMutability":"view","type":"function"},{"inputs":[],"name":"airdropVault","outputs":[{"internalType":"contract IAirdropVault","name":"","type":"address"}],"stateMutability":"view","type":"function"},{"inputs":[],"name":"battleNonce","outputs":[{"internalType":"uint256","name":"","type":"uint256"}],"stateMutability":"view","type":"function"},{"inputs":[{"internalType":"bytes32","name":"","type":"bytes32"}],"name":"battles","outputs":[{"internalType":"address","name":"host","type":"address"},{"internalType":"address","name":"guest","type":"address"},{"internalType":"uint256","name":"hostCreatureId","type":"uint256"},{"internalType":"uint256","name":"guestCreatureId","type":"uint256"},{"internalType":"uint256","name":"stakeAmount","type":"uint256"},{"internalType":"uint256","name":"createdAt","type":"uint256"},{"internalType":"uint256","name":"matchedAt","type":"uint256"},{"internalType":"uint256","name":"resolvedAt","type":"uint256"},{"internalType":"enum BattleGateV2.BattleState","name":"state","type":"uint8"},{"internalType":"address","name":"winner","type":"address"}],"stateMutability":"view","type":"function"},{"inputs":[{"internalType":"uint256","name":"stakeAmount","type":"uint256"}],"name":"calculateWinnings","outputs":[{"internalType":"uint256","name":"baseAmount","type":"uint256"},{"internalType":"uint256","name":"boostAmount","type":"uint256"}],"stateMutability":"view","type":"function"},{"inputs":[],"name":"cancelBackendChange","outputs":[],"stateMutability":"nonpayable","type":"function"},{"inputs":[{"internalType":"bytes32","name":"battleId","type":"bytes32"}],"name":"cancelBattle","outputs":[],"stateMutability":"nonpayable","type":"function"},{"inputs":[{"internalType":"bytes32","name":"battleId","type":"bytes32"}],"name":"claimHostTimeout","outputs":[],"stateMutability":"nonpayable","type":"function"},{"inputs":[{"internalType":"bytes32","name":"battleId","type":"bytes32"}],"name":"claimWinnings","outputs":[],"stateMutability":"nonpayable","type":"function"},{"inputs":[{"internalType":"uint256","name":"creatureId","type":"uint256"},{"internalType":"uint256","name":"stakeAmount","type":"uint256"}],"name":"createBattle","outputs":[{"internalType":"bytes32","name":"battleId","type":"bytes32"}],"stateMutability":"nonpayable","type":"function"},{"inputs":[],"name":"creatureContract","outputs":[{"internalType":"address","name":"","type":"address"}],"stateMutability":"view","type":"function"},{"inputs":[{"internalType":"uint256","name":"","type":"uint256"}],"name":"creatureInBattle","outputs":[{"internalType":"bytes32","name":"","type":"bytes32"}],"stateMutability":"view","type":"function"},{"inputs":[{"internalType":"bytes32","name":"battleId","type":"bytes32"}],"name":"emergencyRefund","outputs":[],"stateMutability":"nonpayable","type":"function"},{"inputs":[],"name":"executeBackendChange","outputs":[],"stateMutability":"nonpayable","type":"function"},{"inputs":[{"internalType":"bytes32","name":"battleId","type":"bytes32"}],"name":"getBattle","outputs":[{"components":[{"internalType":"address","name":"host","type":"address"},{"internalType":"address","name":"guest","type":"address"},{"internalType":"uint256","name":"hostCreatureId","type":"uint256"},{"internalType":"uint256","name":"guestCreatureId","type":"uint256"},{"internalType":"uint256","name":"stakeAmount","type":"uint256"},{"internalType":"uint256","name":"createdAt","type":"uint256"},{"internalType":"uint256","name":"matchedAt","type":"uint256"},{"internalType":"uint256","name":"resolvedAt","type":"uint256"},{"internalType":"enum BattleGateV2.BattleState","name":"state","type":"uint8"},{"internalType":"address","name":"winner","type":"address"}],"internalType":"struct BattleGateV2.Battle","name":"","type":"tuple"}],"stateMutability":"view","type":"function"},{"inputs":[{"internalType":"address","name":"wallet","type":"address"}],"name":"getPlayerBattle","outputs":[{"internalType":"bytes32","name":"","type":"bytes32"}],"stateMutability":"view","type":"function"},{"inputs":[{"internalType":"bytes32","name":"","type":"bytes32"}],"name":"guestLockedStake","outputs":[{"internalType":"uint256","name":"","type":"uint256"}],"stateMutability":"view","type":"function"},{"inputs":[{"internalType":"bytes32","name":"","type":"bytes32"}],"name":"hostLockedStake","outputs":[{"internalType":"uint256","name":"","type":"uint256"}],"stateMutability":"view","type":"function"},{"inputs":[{"internalType":"address","name":"wallet","type":"address"}],"name":"isInBattle","outputs":[{"internalType":"bool","name":"","type":"bool"}],"stateMutability":"view","type":"function"},{"inputs":[{"internalType":"bytes32","name":"battleId","type":"bytes32"},{"internalType":"uint256","name":"creatureId","type":"uint256"}],"name":"joinBattle","outputs":[],"stateMutability":"nonpayable","type":"function"},{"inputs":[],"name":"maxStake","outputs":[{"internalType":"uint256","name":"","type":"uint256"}],"stateMutability":"view","type":"function"},{"inputs":[],"name":"minStake","outputs":[{"internalType":"uint256","name":"","type":"uint256"}],"stateMutability":"view","type":"function"},{"inputs":[],"name":"owner","outputs":[{"internalType":"address","name":"","type":"address"}],"stateMutability":"view","type":"function"},{"inputs":[],"name":"pause","outputs":[],"stateMutability":"nonpayable","type":"function"},{"inputs":[],"name":"paused","outputs":[{"internalType":"bool","name":"","type":"bool"}],"stateMutability":"view","type":"function"},{"inputs":[],"name":"pendingBackend","outputs":[{"internalType":"address","name":"","type":"address"}],"stateMutability":"view","type":"function"},{"inputs":[],"name":"pendingBackendTime","outputs":[{"internalType":"uint256","name":"","type":"uint256"}],"stateMutability":"view","type":"function"},{"inputs":[{"internalType":"address","name":"_backend","type":"address"}],"name":"proposeBackend","outputs":[],"stateMutability":"nonpayable","type":"function"},{"inputs":[],"name":"renounceOwnership","outputs":[],"stateMutability":"nonpayable","type":"function"},{"inputs":[{"internalType":"bytes32","name":"battleId","type":"bytes32"},{"internalType":"address","name":"winner","type":"address"},{"internalType":"uint256","name":"timestamp","type":"uint256"},{"internalType":"bytes","name":"signature","type":"bytes"}],"name":"resolveBattle","outputs":[],"stateMutability":"nonpayable","type":"function"},{"inputs":[{"internalType":"address","name":"_airdropVault","type":"address"}],"name":"setAirdropVault","outputs":[],"stateMutability":"nonpayable","type":"function"},{"inputs":[{"internalType":"address","name":"_creature","type":"address"}],"name":"setCreatureContract","outputs":[],"stateMutability":"nonpayable","type":"function"},{"inputs":[{"internalType":"uint256","name":"_min","type":"uint256"},{"internalType":"uint256","name":"_max","type":"uint256"}],"name":"setStakeLimits","outputs":[],"stateMutability":"nonpayable","type":"function"},{"inputs":[{"internalType":"address","name":"_treasury","type":"address"}],"name":"setTreasury","outputs":[],"stateMutability":"nonpayable","type":"function"},{"inputs":[{"internalType":"uint256","name":"_winBoostBPS","type":"uint256"}],"name":"setWinBoost","outputs":[],"stateMutability":"nonpayable","type":"function"},{"inputs":[{"internalType":"address","name":"_wallet","type":"address"}],"name":"setWinBoostWallet","outputs":[],"stateMutability":"nonpayable","type":"function"},{"inputs":[],"name":"stakeToken","outputs":[{"internalType":"contract IERC20","name":"","type":"address"}],"stateMutability":"view","type":"function"},{"inputs":[{"internalType":"address","name":"newOwner","type":"address"}],"name":"transferOwnership","outputs":[],"stateMutability":"nonpayable","type":"function"},{"inputs":[],"name":"treasury","outputs":[{"internalType":"address","name":"","type":"address"}],"stateMutability":"view","type":"function"},{"inputs":[],"name":"trustedBackend","outputs":[{"internalType":"address","name":"","type":"address"}],"stateMutability":"view","type":"function"},{"inputs":[],"name":"unpause","outputs":[],"stateMutability":"nonpayable","type":"function"},{"inputs":[{"internalType":"bytes32","name":"","type":"bytes32"}],"name":"usedSignatures","outputs":[{"internalType":"bool","name":"","type":"bool"}],"stateMutability":"view","type":"function"},{"inputs":[{"internalType":"address","name":"","type":"address"}],"name":"walletInBattle","outputs":[{"internalType":"bytes32","name":"","type":"bytes32"}],"stateMutability":"view","type":"function"},{"inputs":[],"name":"winBoostBPS","outputs":[{"internalType":"uint256","name":"","type":"uint256"}],"stateMutability":"view","type":"function"},{"inputs":[],"name":"winBoostWallet","outputs":[{"internalType":"address","name":"","type":"address"}],"stateMutability":"view","type":"function"}],"evm":{"bytecode":{"linkReferences":{},"object":"6080346200019c57601f62002c9f38819003918201601f191683019291906001600160401b03841183851017620001a05781608092849260409687528339810103126200019c576200005181620001b4565b6200005f60208301620001b4565b916200007b606062000073868401620001b4565b9201620001b4565b90331562000185575f549360018060a01b03908160018060a01b03199533878916175f55885197823391167f8be0079c531659141344cd1fd0a4f28419497f9722a3daafe3b4186f6b6457e05f80a360018055678ac7230489e80000600755683635c9adc5dea000006008555f601255169586156200017657508116918215620001655781169283156200015457169384156200014357836002541617600255826003541617600355816004541617600455600554161760055551612ad59081620001ca8239f35b855163d967a6f360e01b8152600490fd5b8651634033e4e360e01b8152600490fd5b8651638baa579f60e01b8152600490fd5b630103be3b60e21b8152600490fd5b8451631e4fbdf760e01b81525f6004820152602490fd5b5f80fd5b634e487b7160e01b5f52604160045260245ffd5b51906001600160a01b03821682036200019c5756fe6080806040526004361015610012575f80fd5b5f905f3560e01c908163041365461461270e57508063043c4f39146126f25780631596c6cd146126c8578063190f771e146122cc57806324c07058146122af57806332c9009914612287578063375b3c0a1461226a5780633f4ba83a146121fb57806343cc22131461207c5780634623c81e1461205f5780634b4ad96f14611fb95780634da90fec14611f91578063516f9cf314611ceb57806351ed6a3014611cc3578063539aa77f14611ca757806357a4f25114611c6d5780635a25408514611c525780635c975abb14611c2e57806361d027b314611c065780636cbc16ef14611bde5780636f5d938a14611bb4578063715018a614611b70578063719a5c9914611b4857806378547e6c14611aa65780637ffade1714611895578063803da9c3146115c9578063824ac88a146115ab5780638456cb591461154a578063846e53761461115957806386ac85b4146114315780638c9bd1b5146113925780638da5cb5b1461136b5780638db16d7d1461134157806391507bdb146112d657806395afd6561461122e578063a2e279eb146111b0578063ae48180a14611192578063b8912c1714611159578063ba611917146110cc578063d92e0af214610d52578063df73c49f1461092b578063e1a452181461090e578063e49b606c146104ff578063e4beb87f146104d6578063ea1b28e0146104b8578063ee4b290714610487578063f0f44260146103df578063f25947bc14610310578063f2fde38b1461029e578063f5f5dd41146102805763f978fd611461024f575f80fd5b3461027d57602036600319011261027d5760ff60406020926004358152600d84522054166040519015158152f35b80fd5b503461027d578060031936011261027d57602060405162093a808152f35b503461027d57602036600319011261027d576102b8612727565b6102c06128d3565b6001600160a01b039081169081156102f7575f548260018060a01b03198216175f55165f80516020612a608339815191525f80a380f35b604051631e4fbdf760e01b815260048101849052602490fd5b503461027d57602036600319011261027d5761032a612727565b6103326128d3565b6001600160a01b031680156103a857601080546001600160a01b031916821790554260118190556202a30081019081106103945760207f25d14971bf5abb0c607decd31964bbff2ed5cc2f9e4e1168ede3784d4f7a36b391604051908152a280f35b634e487b7160e01b83526011600452602483fd5b60405162461bcd60e51b815260206004820152600f60248201526e125b9d985b1a5908189858dad95b99608a1b6044820152606490fd5b503461027d57602036600319011261027d576103f9612727565b6104016128d3565b6001600160a01b0390811690811561044f57600480546001600160a01b031981168417909155167f8c3aa5f43a388513435861bf27dfad7829cd248696fed367c62d441f629544968380a380f35b60405162461bcd60e51b815260206004820152601060248201526f496e76616c696420747265617375727960801b6044820152606490fd5b503461027d578060031936011261027d576104a06128d3565b601080546001600160a01b0319169055601181905580f35b503461027d578060031936011261027d576020600854604051908152f35b503461027d578060031936011261027d576003546040516001600160a01b039091168152602090f35b503461027d576020908160031936011261027d5760043561051e6128b0565b808252600a835260408220600881019384549160ff831660068110156108fa576003036108e8576001600160a01b039233600882901c8516036108d6576004820154908160011b91808304600214901517156108c2576101f4928383029383850414831517156108ae57856004989961059d6127108097048096612760565b998a966105ac6012548961289d565b049460ff19161780915560081c16908681541682145f146108a45760020154905b8952600b85528860408120558852600c84528760408120558460065416806107f3575b508460025416846040518092818c8161061863a9059cbb60e01b9a8b83523360048401612848565b03925af19081156107e85789916107cb575b50156107b95783811515806107ac575b156107a25761066d9082876002541688601354168c6040518096819582946323b872dd60e01b845233906004850161287b565b03925af1899181610783575b5061076a575050829087945b8115158061075d575b6106cd575b505050506040519384528301527fb898016fae26c9aae9639d77417697e41b65c4ba0b0163c8494b53aa3b34b40e60403393a36001805580f35b6106f29389826002541692600454169160405196879586948593845260048401612848565b03925af1908115610752578691610725575b5015610713575f818180610693565b604051634033e4e360e01b8152600490fd5b6107459150823d841161074b575b61073d818361279c565b810190612863565b5f610704565b503d610733565b6040513d88823e3d90fd5b508060045416151561068e565b9490941561077b575b908391610685565b879450610773565b61079b919250863d881161074b5761073d818361279c565b905f610679565b9190508794610685565b508560135416151561063a565b60405163880a149160e01b8152600490fd5b6107e29150853d871161074b5761073d818361279c565b5f61062a565b6040513d8b823e3d90fd5b9250858852600e84526040882054600f855260408920548101809111610890578793818a92610824575b50506105f0565b90809295503b1561088c5784916024839260405197889384926317d3843560e31b845260048401525af193841561087f578894610862575b8061081d565b61086e91929450612789565b61087b578591875f61085c565b8680fd5b50604051903d90823e3d90fd5b8480fd5b634e487b7160e01b5f52601160045260245ffd5b60030154906105cd565b634e487b7160e01b88526011600452602488fd5b634e487b7160e01b87526011600452602487fd5b60405163542cf5bf60e11b8152600490fd5b60405163691f654760e01b8152600490fd5b634e487b7160e01b86526021600452602486fd5b503461027d578060031936011261027d5760206040516127108152f35b503461027d5761093a3661274a565b906109436128fe565b61094b6128b0565b60075482108015610d47575b610d3557338352600b6020526040832054610d2357808352600c6020526040832054610d11576005546040516331a9108f60e11b81526004810183905290602090829060249082906001600160a01b03165afa908115610d06578491610cd7575b50336001600160a01b0390911603610cc5576009545f198114610cb15760010191826009556040519260208401903360601b8252426034860152605485015260548452608084019084821060018060401b03831117610c9d57816040528451902093859160018060a01b036006541680610c26575b50505084610a3b8284612760565b80610ba3575b5050604051610a4f8161276d565b33815284610100600860208401898152848a604082018a81526060830182815260808401908b825260a0850192428452604060c087019580875260018b60e08a0199838b5201526101208d019b818d528152600a602052209660018060a01b038c511660018060a01b031990818a5416178955600189019160018060a01b0390511690825416179055516002870155516003860155516004850155516005840155516006830155516007820155019201516006811015610b8f5792610b3260409360209993899660ff8019845416911617825560018060a01b0390511690612804565b838252600e885282822055338152600b87528282822055848152600c8752205560405191825283820152817f09797ded04afd2c3ee4acc48528d0e1302ed90d1be904d21e0a9c6724a02514460403393a360018055604051908152f35b634e487b7160e01b88526021600452602488fd5b6002546040516323b872dd60e01b81529260209284926001600160a01b03169183918290610bd69030336004850161287b565b03925af1908115610752578691610c07575b5015610bf557845f610a41565b604051631231ec2f60e21b8152600490fd5b610c20915060203d60201161074b5761073d818361279c565b5f610be8565b6324bf68e160e21b82529192509060209082908189607f1987610c4d8a3360848401612848565b0301925af1918215610752578692610c6a575b50505f8080610a2d565b6020809293503d8311610c96575b610c82818561279c565b81010312610c9257515f80610c60565b5f80fd5b503d610c78565b634e487b7160e01b5f52604160045260245ffd5b634e487b7160e01b84526011600452602484fd5b60405163d967a6f360e01b8152600490fd5b610cf9915060203d602011610cff575b610cf1818361279c565b810190612829565b5f6109b8565b503d610ce7565b6040513d86823e3d90fd5b60405163f41ff0c960e01b8152600490fd5b604051631844f0a560e11b8152600490fd5b604051630103be3b60e21b8152600490fd5b506008548211610957565b503461027d576020806003193601126110c85760043590610d716128d3565b610d796128b0565b818352600a8152604083206008810180549160ff831660068110156110b457600181141590816110a8575b50611097578560018060a01b0391828154169086846001830154169560028301549360046003850154940154948b8752600e8452604087205490610de88288612760565b938d8952600f86526005610e0160408b2054809a612760565b9c60ff1916179055828852600b85528760408120558752600c84528660408120558815159485611078575b508015158061106b575b611005575b5081610f9d575b505050610e93575b50855f80516020612a408339815191526060876019604051918083528201527822b6b2b933b2b731bc903932b33ab73210313c9030b236b4b760391b6040820152a26001805580f35b80151580610f90575b610f28575b505082610eb0575b8581610e4a565b918391610ed99360025416908760405180968195829463a9059cbb60e01b845260048401612848565b03925af1908115610d06578491610f0b575b5015610ef9575f8080610ea9565b604051633c31275160e21b8152600490fd5b610f229150823d841161074b5761073d818361279c565b5f610eeb565b8260065416803b15610f8c5760405163bd09001b60e01b81529183918391829084908290610f5a908b60048401612848565b03925af18015610f815715610ea157610f7290612789565b610f7d57855f610ea1565b8580fd5b6040513d84823e3d90fd5b8280fd5b5082600654161515610e9c565b610fc69395508660025416908c60405180968195829463a9059cbb60e01b845260048401612848565b03925af19081156107e8578991610fe8575b5015610ef9578791865f80610e42565b610fff9150873d891161074b5761073d818361279c565b5f610fd8565b92508660065416803b1561087b5760405163bd09001b60e01b81529387918591829084908290611039908860048401612848565b03925af18015610752578a938791611052575b50610e3b565b61105e91929450612789565b61088c578891855f61104c565b5087600654161515610e36565b898852600b85528760408120558752600c84528660408120555f610e2c565b6040516202d94960ed1b8152600490fd5b6002915014155f610da4565b634e487b7160e01b87526021600452602487fd5b5080fd5b503461027d57602036600319011261027d576004356110e96128d3565b6113888111611124576020817f6eeb4d53c577fb16e278a66d3a43115a6a50746bcebbe60326f0f6b1e2055a9d92601255604051908152a180f35b60405162461bcd60e51b815260206004820152600d60248201526c13585e080d4c0948189bdbdcdd609a1b6044820152606490fd5b503461027d57602036600319011261027d576020906040906001600160a01b03611181612727565b168152600b83522054604051908152f35b503461027d578060031936011261027d576020601254604051908152f35b503461027d57602036600319011261027d57600435908160011b918083046002149015171561121a576101f49081830291838304148315171561121a575061120060409261271080930490612760565b9061120d6012548361289d565b0482519182526020820152f35b634e487b7160e01b81526011600452602490fd5b503461027d57602036600319011261027d57611248612727565b6112506128d3565b6001600160a01b0390811690811561129e57600580546001600160a01b031981168417909155167f90b19857ca5857522922f4d0bc3da0f54168bcf797640f23d6b82e61a56a1f088380a380f35b60405162461bcd60e51b815260206004820152601060248201526f496e76616c696420637265617475726560801b6044820152606490fd5b503461027d57602036600319011261027d576112f0612727565b6112f86128d3565b600680546001600160a01b039283166001600160a01b0319821681179092559091167f81aa94d4892023eb47e9b92f72a673e7ad967f9b141925f604e650b76a8700a58380a380f35b503461027d57602036600319011261027d5760406020916004358152600e83522054604051908152f35b503461027d578060031936011261027d57546040516001600160a01b039091168152602090f35b503461027d576113a13661274a565b6113a96128d3565b81151580611428575b156113f257816040917f2f6f9641c9c28674435527345c5b76ef1d9b57240e94d33d3f222ae58d6caff7936007558060085582519182526020820152a180f35b60405162461bcd60e51b815260206004820152600e60248201526d496e76616c6964206c696d69747360901b6044820152606490fd5b508082106113b2565b503461027d578060031936011261027d5761144a6128d3565b6010546001600160a01b038082168015611510576011546202a30081018091116114fc5742106114c057600380546001600160a01b03198082168417909255931660105560118490558383161791167fea8ca364cc9c0e44ae5ceab245cececcc710724873a9ecfc89a0559983e447398380a380f35b60405162461bcd60e51b8152602060048201526014602482015273151a5b595b1bd8dac81b9bdd08195e1c1a5c995960621b6044820152606490fd5b634e487b7160e01b85526011600452602485fd5b60405162461bcd60e51b8152602060048201526012602482015271139bc81c195b991a5b99c8189858dad95b9960721b6044820152606490fd5b503461027d578060031936011261027d576115636128d3565b61156b6128fe565b805460ff60a01b1916600160a01b1781556040513381527f62e78cea01bee320cd4e420270b5ea74000d11b0c9f74754ebdbfc544b05a25890602090a180f35b503461027d578060031936011261027d576020601154604051908152f35b503461027d576020806003193601126110c857600435906115e86128b0565b818352600a81526040832060088101805460ff811660068110156110b4576001036118835782546001600160a01b039290831691338303611871576005850154601e810180911161185d57421061184b5760059060ff19161790558552600b835284604081205560028201548552600c8352846040812055838552600e83526040852054918561167c846004840154612760565b938015158061183e575b6117e2575b5050821580156116c4575b8633877fcb9efe3dee7d10a1ce7248d3bb4e58134ae02576d3439448ed856cc3373e17a38380a36001805580f35b606484029084820460641417156108c2576116e56127108692048095612760565b8061177b575b5050508115158061176e575b611703575b8080611696565b611730918184926002541690600454168760405180968195829463a9059cbb60e01b845260048401612848565b03925af1918215610d06578492611751575b505015610713575f80806116fc565b6117679250803d1061074b5761073d818361279c565b5f80611742565b50806004541615156116f7565b6117a5928480600254169154168960405180968195829463a9059cbb60e01b845260048401612848565b03925af19081156107525786916117c5575b5015610ef9575f83816116eb565b6117dc9150843d861161074b5761073d818361279c565b5f6117b7565b8360065416908484541690823b1561183a576118179284928360405180968195829463bd09001b60e01b845260048401612848565b03925af18015610f81571561168b5761182f90612789565b610f7d57855f61168b565b8380fd5b5083600654161515611686565b604051630484233560e21b8152600490fd5b634e487b7160e01b89526011600452602489fd5b604051638ff4f0c960e01b8152600490fd5b604051631f7806af60e31b8152600490fd5b5034610c9257602080600319360112610c9257600435906118b46128b0565b815f52600a815260405f206008810190815460ff81166006811015611a92576001036110975781546001600160a01b039390841691338303611871576005840154610258810180911161089057421115611a805760059060ff19161790555f52600b83525f604081205560028101545f52600c83525f6040812055835f52600e835260405f20549161194a836004840154612760565b9280151580611a73575b611a11575b50826119a8575b50505060605f80516020612a408339815191529160176040519180835282015276121bdcdd081d1a5b595bdd5d080b481b9bc819dd595cdd604a1b6040820152a26001805580f35b918391836119d494600254169154168760405180968195829463a9059cbb60e01b845260048401612848565b03925af1908115610d065784916119f4575b5015610ef9575f8080611960565b611a0b9150823d841161074b5761073d818361279c565b5f6119e6565b8160065416908284541690823b15610c9257611a46925f928360405180968195829463bd09001b60e01b845260048401612848565b03925af18015611a68571561195957611a60919650612789565b5f945f611959565b6040513d5f823e3d90fd5b5081600654161515611954565b6040516326c015ab60e21b8152600490fd5b634e487b7160e01b5f52602160045260245ffd5b34610c92576020366003190112610c92576004355f52600a60205261014060405f2060018060a01b03808254169181600182015416906002810154600382015460048301546005840154916006850154936008600787015496015496604051998a5260208a015260408901526060880152608087015260a086015260c085015260e0840152611b3c610100840160ff831661273d565b60081c16610120820152f35b34610c92575f366003190112610c92576010546040516001600160a01b039091168152602090f35b34610c92575f366003190112610c9257611b886128d3565b5f80546001600160a01b0319811682556001600160a01b03165f80516020612a608339815191528280a3005b34610c92576020366003190112610c92576004355f52600c602052602060405f2054604051908152f35b34610c92575f366003190112610c92576005546040516001600160a01b039091168152602090f35b34610c92575f366003190112610c92576004546040516001600160a01b039091168152602090f35b34610c92575f366003190112610c9257602060ff5f5460a01c166040519015158152f35b34610c92575f366003190112610c92576020604051601e8152f35b34610c92576020366003190112610c92576001600160a01b03611c8e612727565b165f52600b602052602060405f20541515604051908152f35b34610c92575f366003190112610c925760206040516101f48152f35b34610c92575f366003190112610c92576002546040516001600160a01b039091168152602090f35b34610c92576040366003190112610c9257602435600435611d0a6128fe565b611d126128b0565b805f526020600a815260405f20906008820160ff8154166006811015611a9257600103611f7f5782546001600160a01b03919082163314611f6d57335f52600b835260405f2054610d2357855f52600c835260405f2054610d11576005840154610258810180911161089057421015611f5b576024838360055416604051928380926331a9108f60e11b82528b60048301525afa908115611a68575f91611f3e575b508233911603610cc5575f9183816006541680611ecc575b5050611ddc836004870154612760565b9081611e66575b50508360017f4480fdf0275ff0748200ab3cdcc450685e845d860fdc94461fea4e0dc036217795013360018060a01b0319825416179055866003820155600642910155600260ff19825416179055835f52600f825260405f2055335f52600b81528260405f2055835f52600c81528260405f20556040519384523393a360018055005b611e905f92869260025416906040519485809481936323b872dd60e01b835230336004850161287b565b03925af1908115611a68575f91611eaf575b5015610bf5578680611de3565b611ec69150843d861161074b5761073d818361279c565b87611ea2565b5f929450611ef69060048801546040519485809481936324bf68e160e21b83523360048401612848565b03925af1908115611a68575f91611f11575b50918388611dcc565b90508381813d8311611f37575b611f28818361279c565b81010312610c92575187611f08565b503d611f1e565b611f559150843d8611610cff57610cf1818361279c565b87611db4565b604051637382e32160e01b8152600490fd5b60405163050c8fd560e01b8152600490fd5b604051637100718960e01b8152600490fd5b34610c92575f366003190112610c92576013546040516001600160a01b039091168152602090f35b34610c92576020366003190112610c9257611fd2612727565b611fda6128d3565b6001600160a01b0316801561202957601380546001600160a01b031916821790556040519081527f289cb603f5b7b3e891b42aaef6aef54fd5547ff527f4118f238750f37b31286190602090a1005b60405162461bcd60e51b815260206004820152600e60248201526d125b9d985b1a59081dd85b1b195d60921b6044820152606490fd5b34610c92575f366003190112610c925760206040516202a3008152f35b34610c92576020366003190112610c92575f61012060405161209d8161276d565b8281528260208201528260408201528260608201528260808201528260a08201528260c08201528260e08201528261010082015201526004355f52600a60205260405f206008604051916120f08361276d565b80546001600160a01b0390811684526001820154166020840152600281015460408401526003810154606084015260048101546080840152600581015460a084015260068082015460c0850152600782015460e085015291015460ff81169291831015611a92576101409261010083015260018060a01b039060081c166101208201526040519060018060a01b03815116825260018060a01b03602082015116602083015260408101516040830152606081015160608301526080810151608083015260a081015160a083015260c081015160c083015260e081015160e08301526121e561010082015161010084019061273d565b610120908101516001600160a01b031690820152f35b34610c92575f366003190112610c92576122136128d3565b5f5460ff8160a01c16156122585760ff60a01b19165f556040513381527f5db9ee0a495bf2e6ff9c91a7834c1ba4fdd244a5e8aa4e537bd38aeae4b073aa90602090a1005b604051638dfc202b60e01b8152600490fd5b34610c92575f366003190112610c92576020600754604051908152f35b34610c92575f366003190112610c92576006546040516001600160a01b039091168152602090f35b34610c92575f366003190112610c92576020600954604051908152f35b34610c92576080366003190112610c925760246001600160a01b0381358181169160043591838103610c92576001600160401b039160443590606435848111610c925736602382011215610c9257806004013593858511610c92578882019189863692010111610c925761233e6128b0565b865f52602094600a865260405f2094600886019760ff89541660068110156126b5576002036126a357858754168b141580612693575b6126815761012b19420142811161266e5782111561265c576123973684876127bf565b8881519101205f52600d885260ff60405f20541661264a5760405190888201928b845260018060601b03198660601b16604084015260548301524660748301526074825260a082019082821090821117612637576040525190207b0ca2ba3432b932bab69029b4b3b732b21026b2b9b9b0b3b29d05199960211b5f52601c5261243a612431603c5f2061242b3685886127bf565b9061291e565b90929192612958565b848060035416911603612625576003926124559136916127bf565b8581519101205f52600d855261247c60405f209160ff199260018482541617905587612804565b855416178455426007830155815481168681149790881561261f575081600184015416975b15612614576002830154945b826005541695863b15610c92576040515f81604481836328a3750760e11b9c8d835287600484015260648a8401525af19081612605575b506125ff575f80516020612a808339815191528660405160648152a25b835498831698831689036125f55760028401545b8360055416803b15610c92575f85946044600c9a83601e95604051968795869485528960048601528401525af190816125e6575b506125e0575f80516020612a8083398151915286604051601e8152a25b5460081c16918181541680931492835f146125da575081600182015416925b156125d05760030154915b165f52600b82525f60408120555f52525f60408120557f3b3b5126e644ea297563595413600ab9dcd3d089cbfb03e7faedecda6ccf3c765f80a460018055005b6002015491612590565b92612585565b50612566565b6125ef90612789565b8b612549565b6003840154612515565b50612501565b61260e90612789565b8b6124e4565b6003830154946124ad565b976124a1565b604051638baa579f60e01b8152600490fd5b8c634e487b7160e01b5f5260416004525ffd5b60405163900bb2c960e01b8152600490fd5b604051630819bdcd60e01b8152600490fd5b8c634e487b7160e01b5f5260116004525ffd5b6040516393a5f3c760e01b8152600490fd5b50856001880154168b1415612374565b60405163b78ea15760e01b8152600490fd5b8c634e487b7160e01b5f5260216004525ffd5b34610c92576020366003190112610c92576004355f52600f602052602060405f2054604051908152f35b34610c92575f366003190112610c925760206040516102588152f35b34610c92575f366003190112610c925780606460209252f35b600435906001600160a01b0382168203610c9257565b906006821015611a925752565b6040906003190112610c92576004359060243590565b9190820391821161089057565b61014081019081106001600160401b03821117610c9d57604052565b6001600160401b038111610c9d57604052565b601f909101601f19168101906001600160401b03821190821017610c9d57604052565b9192916001600160401b038211610c9d57604051916127e8601f8201601f19166020018461279c565b829481845281830111610c92578281602093845f960137010152565b8054610100600160a81b03191660089290921b610100600160a81b0316919091179055565b90816020910312610c9257516001600160a01b0381168103610c925790565b6001600160a01b039091168152602081019190915260400190565b90816020910312610c9257518015158103610c925790565b6001600160a01b03918216815291166020820152604081019190915260600190565b8181029291811591840414171561089057565b6002600154146128c1576002600155565b604051633ee5aeb560e01b8152600490fd5b5f546001600160a01b031633036128e657565b60405163118cdaa760e01b8152336004820152602490fd5b60ff5f5460a01c1661290c57565b60405163d93c066560e01b8152600490fd5b815191906041830361294e576129479250602082015190606060408401519301515f1a906129c7565b9192909190565b50505f9160029190565b6004811015611a92578061296a575050565b600181036129845760405163f645eedf60e01b8152600490fd5b600281036129a55760405163fce698f760e01b815260048101839052602490fd5b6003146129af5750565b602490604051906335e2f38360e21b82526004820152fd5b91906fa2a8918ca85bafe22016d0b997e4df60600160ff1b038411612a34579160209360809260ff5f9560405194855216868401526040830152606082015282805260015afa15611a68575f516001600160a01b03811615612a2a57905f905f90565b505f906001905f90565b5050505f916003919056fe949807b46c014a57084ed9f902241d002578f83ae660011d39ecb18242e78d098be0079c531659141344cd1fd0a4f28419497f9722a3daafe3b4186f6b6457e017fe5efa39289e1d4e3beb20a5412e13015b7170122c1d7bb4cfbe171af7f30ca2646970667358221220af77f65193b3ffd62e19a3f4dd4344fe81f7af520b4174f772f3f1101374887064736f6c63430008180033","opcodes":"PUSH1 0x80 CALLVALUE PUSH3 0x19C JUMPI PUSH1 0x1F PUSH3 0x2C9F CODESIZE DUP2 SWAP1 SUB SWAP2 DUP3 ADD PUSH1 0x1F NOT AND DUP4 ADD SWAP3 SWAP2 SWAP1 PUSH1 0x1 PUSH1 0x1 PUSH1 0x40 SHL SUB DUP5 GT DUP4 DUP6 LT OR PUSH3 0x1A0 JUMPI DUP2 PUSH1 0x80 SWAP3 DUP5 SWAP3 PUSH1 0x40 SWAP7 DUP8 MSTORE DUP4 CODECOPY DUP2 ADD SUB SLT PUSH3 0x19C JUMPI PUSH3 0x51 DUP2 PUSH3 0x1B4 JUMP JUMPDEST PUSH3 0x5F PUSH1 0x20 DUP4 ADD PUSH3 0x1B4 JUMP JUMPDEST SWAP2 PUSH3 0x7B PUSH1 0x60 PUSH3 0x73 DUP7 DUP5 ADD PUSH3 0x1B4 JUMP JUMPDEST SWAP3 ADD PUSH3 0x1B4 JUMP JUMPDEST SWAP1 CALLER ISZERO PUSH3 0x185 JUMPI PUSH0 SLOAD SWAP4 PUSH1 0x1 DUP1 PUSH1 0xA0 SHL SUB SWAP1 DUP2 PUSH1 0x1 DUP1 PUSH1 0xA0 SHL SUB NOT SWAP6 CALLER DUP8 DUP10 AND OR PUSH0 SSTORE DUP9 MLOAD SWAP8 DUP3 CALLER SWAP2 AND PUSH32 0x8BE0079C531659141344CD1FD0A4F28419497F9722A3DAAFE3B4186F6B6457E0 PUSH0 DUP1 LOG3 PUSH1 0x1 DUP1 SSTORE PUSH8 0x8AC7230489E80000 PUSH1 0x7 SSTORE PUSH9 0x3635C9ADC5DEA00000 PUSH1 0x8 SSTORE PUSH0 PUSH1 0x12 SSTORE AND SWAP6 DUP7 ISZERO PUSH3 0x176 JUMPI POP DUP2 AND SWAP2 DUP3 ISZERO PUSH3 0x165 JUMPI DUP2 AND SWAP3 DUP4 ISZERO PUSH3 0x154 JUMPI AND SWAP4 DUP5 ISZERO PUSH3 0x143 JUMPI DUP4 PUSH1 0x2 SLOAD AND OR PUSH1 0x2 SSTORE DUP3 PUSH1 0x3 SLOAD AND OR PUSH1 0x3 SSTORE DUP2 PUSH1 0x4 SLOAD AND OR PUSH1 0x4 SSTORE PUSH1 0x5 SLOAD AND OR PUSH1 0x5 SSTORE MLOAD PUSH2 0x2AD5 SWAP1 DUP2 PUSH3 0x1CA DUP3 CODECOPY RETURN JUMPDEST DUP6 MLOAD PUSH4 0xD967A6F3 PUSH1 0xE0 SHL DUP2 MSTORE PUSH1 0x4 SWAP1 REVERT JUMPDEST DUP7 MLOAD PUSH4 0x4033E4E3 PUSH1 0xE0 SHL DUP2 MSTORE PUSH1 0x4 SWAP1 REVERT JUMPDEST DUP7 MLOAD PUSH4 0x8BAA579F PUSH1 0xE0 SHL DUP2 MSTORE PUSH1 0x4 SWAP1 REVERT JUMPDEST PUSH4 0x103BE3B PUSH1 0xE2 SHL DUP2 MSTORE PUSH1 0x4 SWAP1 REVERT JUMPDEST DUP5 MLOAD PUSH4 0x1E4FBDF7 PUSH1 0xE0 SHL DUP2 MSTORE PUSH0 PUSH1 0x4 DUP3 ADD MSTORE PUSH1 0x24 SWAP1 REVERT JUMPDEST PUSH0 DUP1 REVERT JUMPDEST PUSH4 0x4E487B71 PUSH1 0xE0 SHL PUSH0 MSTORE PUSH1 0x41 PUSH1 0x4 MSTORE PUSH1 0x24 PUSH0 REVERT JUMPDEST MLOAD SWAP1 PUSH1 0x1 PUSH1 0x1 PUSH1 0xA0 SHL SUB DUP3 AND DUP3 SUB PUSH3 0x19C JUMPI JUMP INVALID PUSH1 0x80 DUP1 PUSH1 0x40 MSTORE PUSH1 0x4 CALLDATASIZE LT ISZERO PUSH2 0x12 JUMPI PUSH0 DUP1 REVERT JUMPDEST PUSH0 SWAP1 PUSH0 CALLDATALOAD PUSH1 0xE0 SHR SWAP1 DUP2 PUSH4 0x4136546 EQ PUSH2 0x270E JUMPI POP DUP1 PUSH4 0x43C4F39 EQ PUSH2 0x26F2 JUMPI DUP1 PUSH4 0x1596C6CD EQ PUSH2 0x26C8 JUMPI DUP1 PUSH4 0x190F771E EQ PUSH2 0x22CC JUMPI DUP1 PUSH4 0x24C07058 EQ PUSH2 0x22AF JUMPI DUP1 PUSH4 0x32C90099 EQ PUSH2 0x2287 JUMPI DUP1 PUSH4 0x375B3C0A EQ PUSH2 0x226A JUMPI DUP1 PUSH4 0x3F4BA83A EQ PUSH2 0x21FB JUMPI DUP1 PUSH4 0x43CC2213 EQ PUSH2 0x207C JUMPI DUP1 PUSH4 0x4623C81E EQ PUSH2 0x205F JUMPI DUP1 PUSH4 0x4B4AD96F EQ PUSH2 0x1FB9 JUMPI DUP1 PUSH4 0x4DA90FEC EQ PUSH2 0x1F91 JUMPI DUP1 PUSH4 0x516F9CF3 EQ PUSH2 0x1CEB JUMPI DUP1 PUSH4 0x51ED6A30 EQ PUSH2 0x1CC3 JUMPI DUP1 PUSH4 0x539AA77F EQ PUSH2 0x1CA7 JUMPI DUP1 PUSH4 0x57A4F251 EQ PUSH2 0x1C6D JUMPI DUP1 PUSH4 0x5A254085 EQ PUSH2 0x1C52 JUMPI DUP1 PUSH4 0x5C975ABB EQ PUSH2 0x1C2E JUMPI DUP1 PUSH4 0x61D027B3 EQ PUSH2 0x1C06 JUMPI DUP1 PUSH4 0x6CBC16EF EQ PUSH2 0x1BDE JUMPI DUP1 PUSH4 0x6F5D938A EQ PUSH2 0x1BB4 JUMPI DUP1 PUSH4 0x715018A6 EQ PUSH2 0x1B70 JUMPI DUP1 PUSH4 0x719A5C99 EQ PUSH2 0x1B48 JUMPI DUP1 PUSH4 0x78547E6C EQ PUSH2 0x1AA6 JUMPI DUP1 PUSH4 0x7FFADE17 EQ PUSH2 0x1895 JUMPI DUP1 PUSH4 0x803DA9C3 EQ PUSH2 0x15C9 JUMPI DUP1 PUSH4 0x824AC88A EQ PUSH2 0x15AB JUMPI DUP1 PUSH4 0x8456CB59 EQ PUSH2 0x154A JUMPI DUP1 PUSH4 0x846E5376 EQ PUSH2 0x1159 JUMPI DUP1 PUSH4 0x86AC85B4 EQ PUSH2 0x1431 JUMPI DUP1 PUSH4 0x8C9BD1B5 EQ PUSH2 0x1392 JUMPI DUP1 PUSH4 0x8DA5CB5B EQ PUSH2 0x136B JUMPI DUP1 PUSH4 0x8DB16D7D EQ PUSH2 0x1341 JUMPI DUP1 PUSH4 0x91507BDB EQ PUSH2 0x12D6 JUMPI DUP1 PUSH4 0x95AFD656 EQ PUSH2 0x122E JUMPI DUP1 PUSH4 0xA2E279EB EQ PUSH2 0x11B0 JUMPI DUP1 PUSH4 0xAE48180A EQ PUSH2 0x1192 JUMPI DUP1 PUSH4 0xB8912C17 EQ PUSH2 0x1159 JUMPI DUP1 PUSH4 0xBA611917 EQ PUSH2 0x10CC JUMPI DUP1 PUSH4 0xD92E0AF2 EQ PUSH2 0xD52 JUMPI DUP1 PUSH4 0xDF73C49F EQ PUSH2 0x92B JUMPI DUP1 PUSH4 0xE1A45218 EQ PUSH2 0x90E JUMPI DUP1 PUSH4 0xE49B606C EQ PUSH2 0x4FF JUMPI DUP1 PUSH4 0xE4BEB87F EQ PUSH2 0x4D6 JUMPI DUP1 PUSH4 0xEA1B28E0 EQ PUSH2 0x4B8 JUMPI DUP1 PUSH4 0xEE4B2907 EQ PUSH2 0x487 JUMPI DUP1 PUSH4 0xF0F44260 EQ PUSH2 0x3DF JUMPI DUP1 PUSH4 0xF25947BC EQ PUSH2 0x310 JUMPI DUP1 PUSH4 0xF2FDE38B EQ PUSH2 0x29E JUMPI DUP1 PUSH4 0xF5F5DD41 EQ PUSH2 0x280 JUMPI PUSH4 0xF978FD61 EQ PUSH2 0x24F JUMPI PUSH0 DUP1 REVERT JUMPDEST CALLVALUE PUSH2 0x27D JUMPI PUSH1 0x20 CALLDATASIZE PUSH1 0x3 NOT ADD SLT PUSH2 0x27D JUMPI PUSH1 0xFF PUSH1 0x40 PUSH1 0x20 SWAP3 PUSH1 0x4 CALLDATALOAD DUP2 MSTORE PUSH1 0xD DUP5 MSTORE KECCAK256 SLOAD AND PUSH1 0x40 MLOAD SWAP1 ISZERO ISZERO DUP2 MSTORE RETURN JUMPDEST DUP1 REVERT JUMPDEST POP CALLVALUE PUSH2 0x27D JUMPI DUP1 PUSH1 0x3 NOT CALLDATASIZE ADD SLT PUSH2 0x27D JUMPI PUSH1 0x20 PUSH1 0x40 MLOAD PUSH3 0x93A80 DUP2 MSTORE RETURN JUMPDEST POP CALLVALUE PUSH2 0x27D JUMPI PUSH1 0x20 CALLDATASIZE PUSH1 0x3 NOT ADD SLT PUSH2 0x27D JUMPI PUSH2 0x2B8 PUSH2 0x2727 JUMP JUMPDEST PUSH2 0x2C0 PUSH2 0x28D3 JUMP JUMPDEST PUSH1 0x1 PUSH1 0x1 PUSH1 0xA0 SHL SUB SWAP1 DUP2 AND SWAP1 DUP2 ISZERO PUSH2 0x2F7 JUMPI PUSH0 SLOAD DUP3 PUSH1 0x1 DUP1 PUSH1 0xA0 SHL SUB NOT DUP3 AND OR PUSH0 SSTORE AND PUSH0 DUP1 MLOAD PUSH1 0x20 PUSH2 0x2A60 DUP4 CODECOPY DUP2 MLOAD SWAP2 MSTORE PUSH0 DUP1 LOG3 DUP1 RETURN JUMPDEST PUSH1 0x40 MLOAD PUSH4 0x1E4FBDF7 PUSH1 0xE0 SHL DUP2 MSTORE PUSH1 0x4 DUP2 ADD DUP5 SWAP1 MSTORE PUSH1 0x24 SWAP1 REVERT JUMPDEST POP CALLVALUE PUSH2 0x27D JUMPI PUSH1 0x20 CALLDATASIZE PUSH1 0x3 NOT ADD SLT PUSH2 0x27D JUMPI PUSH2 0x32A PUSH2 0x2727 JUMP JUMPDEST PUSH2 0x332 PUSH2 0x28D3 JUMP JUMPDEST PUSH1 0x1 PUSH1 0x1 PUSH1 0xA0 SHL SUB AND DUP1 ISZERO PUSH2 0x3A8 JUMPI PUSH1 0x10 DUP1 SLOAD PUSH1 0x1 PUSH1 0x1 PUSH1 0xA0 SHL SUB NOT AND DUP3 OR SWAP1 SSTORE TIMESTAMP PUSH1 0x11 DUP2 SWAP1 SSTORE PUSH3 0x2A300 DUP2 ADD SWAP1 DUP2 LT PUSH2 0x394 JUMPI PUSH1 0x20 PUSH32 0x25D14971BF5ABB0C607DECD31964BBFF2ED5CC2F9E4E1168EDE3784D4F7A36B3 SWAP2 PUSH1 0x40 MLOAD SWAP1 DUP2 MSTORE LOG2 DUP1 RETURN JUMPDEST PUSH4 0x4E487B71 PUSH1 0xE0 SHL DUP4 MSTORE PUSH1 0x11 PUSH1 0x4 MSTORE PUSH1 0x24 DUP4 REVERT JUMPDEST PUSH1 0x40 MLOAD PUSH3 0x461BCD PUSH1 0xE5 SHL DUP2 MSTORE PUSH1 0x20 PUSH1 0x4 DUP3 ADD MSTORE PUSH1 0xF PUSH1 0x24 DUP3 ADD MSTORE PUSH15 0x125B9D985B1A5908189858DAD95B99 PUSH1 0x8A SHL PUSH1 0x44 DUP3 ADD MSTORE PUSH1 0x64 SWAP1 REVERT JUMPDEST POP CALLVALUE PUSH2 0x27D JUMPI PUSH1 0x20 CALLDATASIZE PUSH1 0x3 NOT ADD SLT PUSH2 0x27D JUMPI PUSH2 0x3F9 PUSH2 0x2727 JUMP JUMPDEST PUSH2 0x401 PUSH2 0x28D3 JUMP JUMPDEST PUSH1 0x1 PUSH1 0x1 PUSH1 0xA0 SHL SUB SWAP1 DUP2 AND SWAP1 DUP2 ISZERO PUSH2 0x44F JUMPI PUSH1 0x4 DUP1 SLOAD PUSH1 0x1 PUSH1 0x1 PUSH1 0xA0 SHL SUB NOT DUP2 AND DUP5 OR SWAP1 SWAP2 SSTORE AND PUSH32 0x8C3AA5F43A388513435861BF27DFAD7829CD248696FED367C62D441F62954496 DUP4 DUP1 LOG3 DUP1 RETURN JUMPDEST PUSH1 0x40 MLOAD PUSH3 0x461BCD PUSH1 0xE5 SHL DUP2 MSTORE PUSH1 0x20 PUSH1 0x4 DUP3 ADD MSTORE PUSH1 0x10 PUSH1 0x24 DUP3 ADD MSTORE PUSH16 0x496E76616C6964207472656173757279 PUSH1 0x80 SHL PUSH1 0x44 DUP3 ADD MSTORE PUSH1 0x64 SWAP1 REVERT JUMPDEST POP CALLVALUE PUSH2 0x27D JUMPI DUP1 PUSH1 0x3 NOT CALLDATASIZE ADD SLT PUSH2 0x27D JUMPI PUSH2 0x4A0 PUSH2 0x28D3 JUMP JUMPDEST PUSH1 0x10 DUP1 SLOAD PUSH1 0x1 PUSH1 0x1 PUSH1 0xA0 SHL SUB NOT AND SWAP1 SSTORE PUSH1 0x11 DUP2 SWAP1 SSTORE DUP1 RETURN JUMPDEST POP CALLVALUE PUSH2 0x27D JUMPI DUP1 PUSH1 0x3 NOT CALLDATASIZE ADD SLT PUSH2 0x27D JUMPI PUSH1 0x20 PUSH1 0x8 SLOAD PUSH1 0x40 MLOAD SWAP1 DUP2 MSTORE RETURN JUMPDEST POP CALLVALUE PUSH2 0x27D JUMPI DUP1 PUSH1 0x3 NOT CALLDATASIZE ADD SLT PUSH2 0x27D JUMPI PUSH1 0x3 SLOAD PUSH1 0x40 MLOAD PUSH1 0x1 PUSH1 0x1 PUSH1 0xA0 SHL SUB SWAP1 SWAP2 AND DUP2 MSTORE PUSH1 0x20 SWAP1 RETURN JUMPDEST POP CALLVALUE PUSH2 0x27D JUMPI PUSH1 0x20 SWAP1 DUP2 PUSH1 0x3 NOT CALLDATASIZE ADD SLT PUSH2 0x27D JUMPI PUSH1 0x4 CALLDATALOAD PUSH2 0x51E PUSH2 0x28B0 JUMP JUMPDEST DUP1 DUP3 MSTORE PUSH1 0xA DUP4 MSTORE PUSH1 0x40 DUP3 KECCAK256 PUSH1 0x8 DUP2 ADD SWAP4 DUP5 SLOAD SWAP2 PUSH1 0xFF DUP4 AND PUSH1 0x6 DUP2 LT ISZERO PUSH2 0x8FA JUMPI PUSH1 0x3 SUB PUSH2 0x8E8 JUMPI PUSH1 0x1 PUSH1 0x1 PUSH1 0xA0 SHL SUB SWAP3 CALLER PUSH1 0x8 DUP3 SWAP1 SHR DUP6 AND SUB PUSH2 0x8D6 JUMPI PUSH1 0x4 DUP3 ADD SLOAD SWAP1 DUP2 PUSH1 0x1 SHL SWAP2 DUP1 DUP4 DIV PUSH1 0x2 EQ SWAP1 ISZERO OR ISZERO PUSH2 0x8C2 JUMPI PUSH2 0x1F4 SWAP3 DUP4 DUP4 MUL SWAP4 DUP4 DUP6 DIV EQ DUP4 ISZERO OR ISZERO PUSH2 0x8AE JUMPI DUP6 PUSH1 0x4 SWAP9 SWAP10 PUSH2 0x59D PUSH2 0x2710 DUP1 SWAP8 DIV DUP1 SWAP7 PUSH2 0x2760 JUMP JUMPDEST SWAP10 DUP11 SWAP7 PUSH2 0x5AC PUSH1 0x12 SLOAD DUP10 PUSH2 0x289D JUMP JUMPDEST DIV SWAP5 PUSH1 0xFF NOT AND OR DUP1 SWAP2 SSTORE PUSH1 0x8 SHR AND SWAP1 DUP7 DUP2 SLOAD AND DUP3 EQ PUSH0 EQ PUSH2 0x8A4 JUMPI PUSH1 0x2 ADD SLOAD SWAP1 JUMPDEST DUP10 MSTORE PUSH1 0xB DUP6 MSTORE DUP9 PUSH1 0x40 DUP2 KECCAK256 SSTORE DUP9 MSTORE PUSH1 0xC DUP5 MSTORE DUP8 PUSH1 0x40 DUP2 KECCAK256 SSTORE DUP5 PUSH1 0x6 SLOAD AND DUP1 PUSH2 0x7F3 JUMPI JUMPDEST POP DUP5 PUSH1 0x2 SLOAD AND DUP5 PUSH1 0x40 MLOAD DUP1 SWAP3 DUP2 DUP13 DUP2 PUSH2 0x618 PUSH4 0xA9059CBB PUSH1 0xE0 SHL SWAP11 DUP12 DUP4 MSTORE CALLER PUSH1 0x4 DUP5 ADD PUSH2 0x2848 JUMP JUMPDEST SUB SWAP3 GAS CALL SWAP1 DUP2 ISZERO PUSH2 0x7E8 JUMPI DUP10 SWAP2 PUSH2 0x7CB JUMPI JUMPDEST POP ISZERO PUSH2 0x7B9 JUMPI DUP4 DUP2 ISZERO ISZERO DUP1 PUSH2 0x7AC JUMPI JUMPDEST ISZERO PUSH2 0x7A2 JUMPI PUSH2 0x66D SWAP1 DUP3 DUP8 PUSH1 0x2 SLOAD AND DUP9 PUSH1 0x13 SLOAD AND DUP13 PUSH1 0x40 MLOAD DUP1 SWAP7 DUP2 SWAP6 DUP3 SWAP5 PUSH4 0x23B872DD PUSH1 0xE0 SHL DUP5 MSTORE CALLER SWAP1 PUSH1 0x4 DUP6 ADD PUSH2 0x287B JUMP JUMPDEST SUB SWAP3 GAS CALL DUP10 SWAP2 DUP2 PUSH2 0x783 JUMPI JUMPDEST POP PUSH2 0x76A JUMPI POP POP DUP3 SWAP1 DUP8 SWAP5 JUMPDEST DUP2 ISZERO ISZERO DUP1 PUSH2 0x75D JUMPI JUMPDEST PUSH2 0x6CD JUMPI JUMPDEST POP POP POP POP PUSH1 0x40 MLOAD SWAP4 DUP5 MSTORE DUP4 ADD MSTORE PUSH32 0xB898016FAE26C9AAE9639D77417697E41B65C4BA0B0163C8494B53AA3B34B40E PUSH1 0x40 CALLER SWAP4 LOG3 PUSH1 0x1 DUP1 SSTORE DUP1 RETURN JUMPDEST PUSH2 0x6F2 SWAP4 DUP10 DUP3 PUSH1 0x2 SLOAD AND SWAP3 PUSH1 0x4 SLOAD AND SWAP2 PUSH1 0x40 MLOAD SWAP7 DUP8 SWAP6 DUP7 SWAP5 DUP6 SWAP4 DUP5 MSTORE PUSH1 0x4 DUP5 ADD PUSH2 0x2848 JUMP JUMPDEST SUB SWAP3 GAS CALL SWAP1 DUP2 ISZERO PUSH2 0x752 JUMPI DUP7 SWAP2 PUSH2 0x725 JUMPI JUMPDEST POP ISZERO PUSH2 0x713 JUMPI PUSH0 DUP2 DUP2 DUP1 PUSH2 0x693 JUMP JUMPDEST PUSH1 0x40 MLOAD PUSH4 0x4033E4E3 PUSH1 0xE0 SHL DUP2 MSTORE PUSH1 0x4 SWAP1 REVERT JUMPDEST PUSH2 0x745 SWAP2 POP DUP3 RETURNDATASIZE DUP5 GT PUSH2 0x74B JUMPI JUMPDEST PUSH2 0x73D DUP2 DUP4 PUSH2 0x279C JUMP JUMPDEST DUP2 ADD SWAP1 PUSH2 0x2863 JUMP JUMPDEST PUSH0 PUSH2 0x704 JUMP JUMPDEST POP RETURNDATASIZE PUSH2 0x733 JUMP JUMPDEST PUSH1 0x40 MLOAD RETURNDATASIZE DUP9 DUP3 RETURNDATACOPY RETURNDATASIZE SWAP1 REVERT JUMPDEST POP DUP1 PUSH1 0x4 SLOAD AND ISZERO ISZERO PUSH2 0x68E JUMP JUMPDEST SWAP5 SWAP1 SWAP5 ISZERO PUSH2 0x77B JUMPI JUMPDEST SWAP1 DUP4 SWAP2 PUSH2 0x685 JUMP JUMPDEST DUP8 SWAP5 POP PUSH2 0x773 JUMP JUMPDEST PUSH2 0x79B SWAP2 SWAP3 POP DUP7 RETURNDATASIZE DUP9 GT PUSH2 0x74B JUMPI PUSH2 0x73D DUP2 DUP4 PUSH2 0x279C JUMP JUMPDEST SWAP1 PUSH0 PUSH2 0x679 JUMP JUMPDEST SWAP2 SWAP1 POP DUP8 SWAP5 PUSH2 0x685 JUMP JUMPDEST POP DUP6 PUSH1 0x13 SLOAD AND ISZERO ISZERO PUSH2 0x63A JUMP JUMPDEST PUSH1 0x40 MLOAD PUSH4 0x880A1491 PUSH1 0xE0 SHL DUP2 MSTORE PUSH1 0x4 SWAP1 REVERT JUMPDEST PUSH2 0x7E2 SWAP2 POP DUP6 RETURNDATASIZE DUP8 GT PUSH2 0x74B JUMPI PUSH2 0x73D DUP2 DUP4 PUSH2 0x279C JUMP JUMPDEST PUSH0 PUSH2 0x62A JUMP JUMPDEST PUSH1 0x40 MLOAD RETURNDATASIZE DUP12 DUP3 RETURNDATACOPY RETURNDATASIZE SWAP1 REVERT JUMPDEST SWAP3 POP DUP6 DUP9 MSTORE PUSH1 0xE DUP5 MSTORE PUSH1 0x40 DUP9 KECCAK256 SLOAD PUSH1 0xF DUP6 MSTORE PUSH1 0x40 DUP10 KECCAK256 SLOAD DUP2 ADD DUP1 SWAP2 GT PUSH2 0x890 JUMPI DUP8 SWAP4 DUP2 DUP11 SWAP3 PUSH2 0x824 JUMPI JUMPDEST POP POP PUSH2 0x5F0 JUMP JUMPDEST SWAP1 DUP1 SWAP3 SWAP6 POP EXTCODESIZE ISZERO PUSH2 0x88C JUMPI DUP5 SWAP2 PUSH1 0x24 DUP4 SWAP3 PUSH1 0x40 MLOAD SWAP8 DUP9 SWAP4 DUP5 SWAP3 PUSH4 0x17D38435 PUSH1 0xE3 SHL DUP5 MSTORE PUSH1 0x4 DUP5 ADD MSTORE GAS CALL SWAP4 DUP5 ISZERO PUSH2 0x87F JUMPI DUP9 SWAP5 PUSH2 0x862 JUMPI JUMPDEST DUP1 PUSH2 0x81D JUMP JUMPDEST PUSH2 0x86E SWAP2 SWAP3 SWAP5 POP PUSH2 0x2789 JUMP JUMPDEST PUSH2 0x87B JUMPI DUP6 SWAP2 DUP8 PUSH0 PUSH2 0x85C JUMP JUMPDEST DUP7 DUP1 REVERT JUMPDEST POP PUSH1 0x40 MLOAD SWAP1 RETURNDATASIZE SWAP1 DUP3 RETURNDATACOPY RETURNDATASIZE SWAP1 REVERT JUMPDEST DUP5 DUP1 REVERT JUMPDEST PUSH4 0x4E487B71 PUSH1 0xE0 SHL PUSH0 MSTORE PUSH1 0x11 PUSH1 0x4 MSTORE PUSH1 0x24 PUSH0 REVERT JUMPDEST PUSH1 0x3 ADD SLOAD SWAP1 PUSH2 0x5CD JUMP JUMPDEST PUSH4 0x4E487B71 PUSH1 0xE0 SHL DUP9 MSTORE PUSH1 0x11 PUSH1 0x4 MSTORE PUSH1 0x24 DUP9 REVERT JUMPDEST PUSH4 0x4E487B71 PUSH1 0xE0 SHL DUP8 MSTORE PUSH1 0x11 PUSH1 0x4 MSTORE PUSH1 0x24 DUP8 REVERT JUMPDEST PUSH1 0x40 MLOAD PUSH4 0x542CF5BF PUSH1 0xE1 SHL DUP2 MSTORE PUSH1 0x4 SWAP1 REVERT JUMPDEST PUSH1 0x40 MLOAD PUSH4 0x691F6547 PUSH1 0xE0 SHL DUP2 MSTORE PUSH1 0x4 SWAP1 REVERT JUMPDEST PUSH4 0x4E487B71 PUSH1 0xE0 SHL DUP7 MSTORE PUSH1 0x21 PUSH1 0x4 MSTORE PUSH1 0x24 DUP7 REVERT JUMPDEST POP CALLVALUE PUSH2 0x27D JUMPI DUP1 PUSH1 0x3 NOT CALLDATASIZE ADD SLT PUSH2 0x27D JUMPI PUSH1 0x20 PUSH1 0x40 MLOAD PUSH2 0x2710 DUP2 MSTORE RETURN JUMPDEST POP CALLVALUE PUSH2 0x27D JUMPI PUSH2 0x93A CALLDATASIZE PUSH2 0x274A JUMP JUMPDEST SWAP1 PUSH2 0x943 PUSH2 0x28FE JUMP JUMPDEST PUSH2 0x94B PUSH2 0x28B0 JUMP JUMPDEST PUSH1 0x7 SLOAD DUP3 LT DUP1 ISZERO PUSH2 0xD47 JUMPI JUMPDEST PUSH2 0xD35 JUMPI CALLER DUP4 MSTORE PUSH1 0xB PUSH1 0x20 MSTORE PUSH1 0x40 DUP4 KECCAK256 SLOAD PUSH2 0xD23 JUMPI DUP1 DUP4 MSTORE PUSH1 0xC PUSH1 0x20 MSTORE PUSH1 0x40 DUP4 KECCAK256 SLOAD PUSH2 0xD11 JUMPI PUSH1 0x5 SLOAD PUSH1 0x40 MLOAD PUSH4 0x31A9108F PUSH1 0xE1 SHL DUP2 MSTORE PUSH1 0x4 DUP2 ADD DUP4 SWAP1 MSTORE SWAP1 PUSH1 0x20 SWAP1 DUP3 SWAP1 PUSH1 0x24 SWAP1 DUP3 SWAP1 PUSH1 0x1 PUSH1 0x1 PUSH1 0xA0 SHL SUB AND GAS STATICCALL SWAP1 DUP2 ISZERO PUSH2 0xD06 JUMPI DUP5 SWAP2 PUSH2 0xCD7 JUMPI JUMPDEST POP CALLER PUSH1 0x1 PUSH1 0x1 PUSH1 0xA0 SHL SUB SWAP1 SWAP2 AND SUB PUSH2 0xCC5 JUMPI PUSH1 0x9 SLOAD PUSH0 NOT DUP2 EQ PUSH2 0xCB1 JUMPI PUSH1 0x1 ADD SWAP2 DUP3 PUSH1 0x9 SSTORE PUSH1 0x40 MLOAD SWAP3 PUSH1 0x20 DUP5 ADD SWAP1 CALLER PUSH1 0x60 SHL DUP3 MSTORE TIMESTAMP PUSH1 0x34 DUP7 ADD MSTORE PUSH1 0x54 DUP6 ADD MSTORE PUSH1 0x54 DUP5 MSTORE PUSH1 0x80 DUP5 ADD SWAP1 DUP5 DUP3 LT PUSH1 0x1 DUP1 PUSH1 0x40 SHL SUB DUP4 GT OR PUSH2 0xC9D JUMPI DUP2 PUSH1 0x40 MSTORE DUP5 MLOAD SWAP1 KECCAK256 SWAP4 DUP6 SWAP2 PUSH1 0x1 DUP1 PUSH1 0xA0 SHL SUB PUSH1 0x6 SLOAD AND DUP1 PUSH2 0xC26 JUMPI JUMPDEST POP POP POP DUP5 PUSH2 0xA3B DUP3 DUP5 PUSH2 0x2760 JUMP JUMPDEST DUP1 PUSH2 0xBA3 JUMPI JUMPDEST POP POP PUSH1 0x40 MLOAD PUSH2 0xA4F DUP2 PUSH2 0x276D JUMP JUMPDEST CALLER DUP2 MSTORE DUP5 PUSH2 0x100 PUSH1 0x8 PUSH1 0x20 DUP5 ADD DUP10 DUP2 MSTORE DUP5 DUP11 PUSH1 0x40 DUP3 ADD DUP11 DUP2 MSTORE PUSH1 0x60 DUP4 ADD DUP3 DUP2 MSTORE PUSH1 0x80 DUP5 ADD SWAP1 DUP12 DUP3 MSTORE PUSH1 0xA0 DUP6 ADD SWAP3 TIMESTAMP DUP5 MSTORE PUSH1 0x40 PUSH1 0xC0 DUP8 ADD SWAP6 DUP1 DUP8 MSTORE PUSH1 0x1 DUP12 PUSH1 0xE0 DUP11 ADD SWAP10 DUP4 DUP12 MSTORE ADD MSTORE PUSH2 0x120 DUP14 ADD SWAP12 DUP2 DUP14 MSTORE DUP2 MSTORE PUSH1 0xA PUSH1 0x20 MSTORE KECCAK256 SWAP7 PUSH1 0x1 DUP1 PUSH1 0xA0 SHL SUB DUP13 MLOAD AND PUSH1 0x1 DUP1 PUSH1 0xA0 SHL SUB NOT SWAP1 DUP2 DUP11 SLOAD AND OR DUP10 SSTORE PUSH1 0x1 DUP10 ADD SWAP2 PUSH1 0x1 DUP1 PUSH1 0xA0 SHL SUB SWAP1 MLOAD AND SWAP1 DUP3 SLOAD AND OR SWAP1 SSTORE MLOAD PUSH1 0x2 DUP8 ADD SSTORE MLOAD PUSH1 0x3 DUP7 ADD SSTORE MLOAD PUSH1 0x4 DUP6 ADD SSTORE MLOAD PUSH1 0x5 DUP5 ADD SSTORE MLOAD PUSH1 0x6 DUP4 ADD SSTORE MLOAD PUSH1 0x7 DUP3 ADD SSTORE ADD SWAP3 ADD MLOAD PUSH1 0x6 DUP2 LT ISZERO PUSH2 0xB8F JUMPI SWAP3 PUSH2 0xB32 PUSH1 0x40 SWAP4 PUSH1 0x20 SWAP10 SWAP4 DUP10 SWAP7 PUSH1 0xFF DUP1 NOT DUP5 SLOAD AND SWAP2 AND OR DUP3 SSTORE PUSH1 0x1 DUP1 PUSH1 0xA0 SHL SUB SWAP1 MLOAD AND SWAP1 PUSH2 0x2804 JUMP JUMPDEST DUP4 DUP3 MSTORE PUSH1 0xE DUP9 MSTORE DUP3 DUP3 KECCAK256 SSTORE CALLER DUP2 MSTORE PUSH1 0xB DUP8 MSTORE DUP3 DUP3 DUP3 KECCAK256 SSTORE DUP5 DUP2 MSTORE PUSH1 0xC DUP8 MSTORE KECCAK256 SSTORE PUSH1 0x40 MLOAD SWAP2 DUP3 MSTORE DUP4 DUP3 ADD MSTORE DUP2 PUSH32 0x9797DED04AFD2C3EE4ACC48528D0E1302ED90D1BE904D21E0A9C6724A025144 PUSH1 0x40 CALLER SWAP4 LOG3 PUSH1 0x1 DUP1 SSTORE PUSH1 0x40 MLOAD SWAP1 DUP2 MSTORE RETURN JUMPDEST PUSH4 0x4E487B71 PUSH1 0xE0 SHL DUP9 MSTORE PUSH1 0x21 PUSH1 0x4 MSTORE PUSH1 0x24 DUP9 REVERT JUMPDEST PUSH1 0x2 SLOAD PUSH1 0x40 MLOAD PUSH4 0x23B872DD PUSH1 0xE0 SHL DUP2 MSTORE SWAP3 PUSH1 0x20 SWAP3 DUP5 SWAP3 PUSH1 0x1 PUSH1 0x1 PUSH1 0xA0 SHL SUB AND SWAP2 DUP4 SWAP2 DUP3 SWAP1 PUSH2 0xBD6 SWAP1 ADDRESS CALLER PUSH1 0x4 DUP6 ADD PUSH2 0x287B JUMP JUMPDEST SUB SWAP3 GAS CALL SWAP1 DUP2 ISZERO PUSH2 0x752 JUMPI DUP7 SWAP2 PUSH2 0xC07 JUMPI JUMPDEST POP ISZERO PUSH2 0xBF5 JUMPI DUP5 PUSH0 PUSH2 0xA41 JUMP JUMPDEST PUSH1 0x40 MLOAD PUSH4 0x1231EC2F PUSH1 0xE2 SHL DUP2 MSTORE PUSH1 0x4 SWAP1 REVERT JUMPDEST PUSH2 0xC20 SWAP2 POP PUSH1 0x20 RETURNDATASIZE PUSH1 0x20 GT PUSH2 0x74B JUMPI PUSH2 0x73D DUP2 DUP4 PUSH2 0x279C JUMP JUMPDEST PUSH0 PUSH2 0xBE8 JUMP JUMPDEST PUSH4 0x24BF68E1 PUSH1 0xE2 SHL DUP3 MSTORE SWAP2 SWAP3 POP SWAP1 PUSH1 0x20 SWAP1 DUP3 SWAP1 DUP2 DUP10 PUSH1 0x7F NOT DUP8 PUSH2 0xC4D DUP11 CALLER PUSH1 0x84 DUP5 ADD PUSH2 0x2848 JUMP JUMPDEST SUB ADD SWAP3 GAS CALL SWAP2 DUP3 ISZERO PUSH2 0x752 JUMPI DUP7 SWAP3 PUSH2 0xC6A JUMPI JUMPDEST POP POP PUSH0 DUP1 DUP1 PUSH2 0xA2D JUMP JUMPDEST PUSH1 0x20 DUP1 SWAP3 SWAP4 POP RETURNDATASIZE DUP4 GT PUSH2 0xC96 JUMPI JUMPDEST PUSH2 0xC82 DUP2 DUP6 PUSH2 0x279C JUMP JUMPDEST DUP2 ADD SUB SLT PUSH2 0xC92 JUMPI MLOAD PUSH0 DUP1 PUSH2 0xC60 JUMP JUMPDEST PUSH0 DUP1 REVERT JUMPDEST POP RETURNDATASIZE PUSH2 0xC78 JUMP JUMPDEST PUSH4 0x4E487B71 PUSH1 0xE0 SHL PUSH0 MSTORE PUSH1 0x41 PUSH1 0x4 MSTORE PUSH1 0x24 PUSH0 REVERT JUMPDEST PUSH4 0x4E487B71 PUSH1 0xE0 SHL DUP5 MSTORE PUSH1 0x11 PUSH1 0x4 MSTORE PUSH1 0x24 DUP5 REVERT JUMPDEST PUSH1 0x40 MLOAD PUSH4 0xD967A6F3 PUSH1 0xE0 SHL DUP2 MSTORE PUSH1 0x4 SWAP1 REVERT JUMPDEST PUSH2 0xCF9 SWAP2 POP PUSH1 0x20 RETURNDATASIZE PUSH1 0x20 GT PUSH2 0xCFF JUMPI JUMPDEST PUSH2 0xCF1 DUP2 DUP4 PUSH2 0x279C JUMP JUMPDEST DUP2 ADD SWAP1 PUSH2 0x2829 JUMP JUMPDEST PUSH0 PUSH2 0x9B8 JUMP JUMPDEST POP RETURNDATASIZE PUSH2 0xCE7 JUMP JUMPDEST PUSH1 0x40 MLOAD RETURNDATASIZE DUP7 DUP3 RETURNDATACOPY RETURNDATASIZE SWAP1 REVERT JUMPDEST PUSH1 0x40 MLOAD PUSH4 0xF41FF0C9 PUSH1 0xE0 SHL DUP2 MSTORE PUSH1 0x4 SWAP1 REVERT JUMPDEST PUSH1 0x40 MLOAD PUSH4 0x1844F0A5 PUSH1 0xE1 SHL DUP2 MSTORE PUSH1 0x4 SWAP1 REVERT JUMPDEST PUSH1 0x40 MLOAD PUSH4 0x103BE3B PUSH1 0xE2 SHL DUP2 MSTORE PUSH1 0x4 SWAP1 REVERT JUMPDEST POP PUSH1 0x8 SLOAD DUP3 GT PUSH2 0x957 JUMP JUMPDEST POP CALLVALUE PUSH2 0x27D JUMPI PUSH1 0x20 DUP1 PUSH1 0x3 NOT CALLDATASIZE ADD SLT PUSH2 0x10C8 JUMPI PUSH1 0x4 CALLDATALOAD SWAP1 PUSH2 0xD71 PUSH2 0x28D3 JUMP JUMPDEST PUSH2 0xD79 PUSH2 0x28B0 JUMP JUMPDEST DUP2 DUP4 MSTORE PUSH1 0xA DUP2 MSTORE PUSH1 0x40 DUP4 KECCAK256 PUSH1 0x8 DUP2 ADD DUP1 SLOAD SWAP2 PUSH1 0xFF DUP4 AND PUSH1 0x6 DUP2 LT ISZERO PUSH2 0x10B4 JUMPI PUSH1 0x1 DUP2 EQ ISZERO SWAP1 DUP2 PUSH2 0x10A8 JUMPI JUMPDEST POP PUSH2 0x1097 JUMPI DUP6 PUSH1 0x1 DUP1 PUSH1 0xA0 SHL SUB SWAP2 DUP3 DUP2 SLOAD AND SWAP1 DUP7 DUP5 PUSH1 0x1 DUP4 ADD SLOAD AND SWAP6 PUSH1 0x2 DUP4 ADD SLOAD SWAP4 PUSH1 0x4 PUSH1 0x3 DUP6 ADD SLOAD SWAP5 ADD SLOAD SWAP5 DUP12 DUP8 MSTORE PUSH1 0xE DUP5 MSTORE PUSH1 0x40 DUP8 KECCAK256 SLOAD SWAP1 PUSH2 0xDE8 DUP3 DUP9 PUSH2 0x2760 JUMP JUMPDEST SWAP4 DUP14 DUP10 MSTORE PUSH1 0xF DUP7 MSTORE PUSH1 0x5 PUSH2 0xE01 PUSH1 0x40 DUP12 KECCAK256 SLOAD DUP1 SWAP11 PUSH2 0x2760 JUMP JUMPDEST SWAP13 PUSH1 0xFF NOT AND OR SWAP1 SSTORE DUP3 DUP9 MSTORE PUSH1 0xB DUP6 MSTORE DUP8 PUSH1 0x40 DUP2 KECCAK256 SSTORE DUP8 MSTORE PUSH1 0xC DUP5 MSTORE DUP7 PUSH1 0x40 DUP2 KECCAK256 SSTORE DUP9 ISZERO ISZERO SWAP5 DUP6 PUSH2 0x1078 JUMPI JUMPDEST POP DUP1 ISZERO ISZERO DUP1 PUSH2 0x106B JUMPI JUMPDEST PUSH2 0x1005 JUMPI JUMPDEST POP DUP2 PUSH2 0xF9D JUMPI JUMPDEST POP POP POP PUSH2 0xE93 JUMPI JUMPDEST POP DUP6 PUSH0 DUP1 MLOAD PUSH1 0x20 PUSH2 0x2A40 DUP4 CODECOPY DUP2 MLOAD SWAP2 MSTORE PUSH1 0x60 DUP8 PUSH1 0x19 PUSH1 0x40 MLOAD SWAP2 DUP1 DUP4 MSTORE DUP3 ADD MSTORE PUSH25 0x22B6B2B933B2B731BC903932B33AB73210313C9030B236B4B7 PUSH1 0x39 SHL PUSH1 0x40 DUP3 ADD MSTORE LOG2 PUSH1 0x1 DUP1 SSTORE DUP1 RETURN JUMPDEST DUP1 ISZERO ISZERO DUP1 PUSH2 0xF90 JUMPI JUMPDEST PUSH2 0xF28 JUMPI JUMPDEST POP POP DUP3 PUSH2 0xEB0 JUMPI JUMPDEST DUP6 DUP2 PUSH2 0xE4A JUMP JUMPDEST SWAP2 DUP4 SWAP2 PUSH2 0xED9 SWAP4 PUSH1 0x2 SLOAD AND SWAP1 DUP8 PUSH1 0x40 MLOAD DUP1 SWAP7 DUP2 SWAP6 DUP3 SWAP5 PUSH4 0xA9059CBB PUSH1 0xE0 SHL DUP5 MSTORE PUSH1 0x4 DUP5 ADD PUSH2 0x2848 JUMP JUMPDEST SUB SWAP3 GAS CALL SWAP1 DUP2 ISZERO PUSH2 0xD06 JUMPI DUP5 SWAP2 PUSH2 0xF0B JUMPI JUMPDEST POP ISZERO PUSH2 0xEF9 JUMPI PUSH0 DUP1 DUP1 PUSH2 0xEA9 JUMP JUMPDEST PUSH1 0x40 MLOAD PUSH4 0x3C312751 PUSH1 0xE2 SHL DUP2 MSTORE PUSH1 0x4 SWAP1 REVERT JUMPDEST PUSH2 0xF22 SWAP2 POP DUP3 RETURNDATASIZE DUP5 GT PUSH2 0x74B JUMPI PUSH2 0x73D DUP2 DUP4 PUSH2 0x279C JUMP JUMPDEST PUSH0 PUSH2 0xEEB JUMP JUMPDEST DUP3 PUSH1 0x6 SLOAD AND DUP1 EXTCODESIZE ISZERO PUSH2 0xF8C JUMPI PUSH1 0x40 MLOAD PUSH4 0xBD09001B PUSH1 0xE0 SHL DUP2 MSTORE SWAP2 DUP4 SWAP2 DUP4 SWAP2 DUP3 SWAP1 DUP5 SWAP1 DUP3 SWAP1 PUSH2 0xF5A SWAP1 DUP12 PUSH1 0x4 DUP5 ADD PUSH2 0x2848 JUMP JUMPDEST SUB SWAP3 GAS CALL DUP1 ISZERO PUSH2 0xF81 JUMPI ISZERO PUSH2 0xEA1 JUMPI PUSH2 0xF72 SWAP1 PUSH2 0x2789 JUMP JUMPDEST PUSH2 0xF7D JUMPI DUP6 PUSH0 PUSH2 0xEA1 JUMP JUMPDEST DUP6 DUP1 REVERT JUMPDEST PUSH1 0x40 MLOAD RETURNDATASIZE DUP5 DUP3 RETURNDATACOPY RETURNDATASIZE SWAP1 REVERT JUMPDEST DUP3 DUP1 REVERT JUMPDEST POP DUP3 PUSH1 0x6 SLOAD AND ISZERO ISZERO PUSH2 0xE9C JUMP JUMPDEST PUSH2 0xFC6 SWAP4 SWAP6 POP DUP7 PUSH1 0x2 SLOAD AND SWAP1 DUP13 PUSH1 0x40 MLOAD DUP1 SWAP7 DUP2 SWAP6 DUP3 SWAP5 PUSH4 0xA9059CBB PUSH1 0xE0 SHL DUP5 MSTORE PUSH1 0x4 DUP5 ADD PUSH2 0x2848 JUMP JUMPDEST SUB SWAP3 GAS CALL SWAP1 DUP2 ISZERO PUSH2 0x7E8 JUMPI DUP10 SWAP2 PUSH2 0xFE8 JUMPI JUMPDEST POP ISZERO PUSH2 0xEF9 JUMPI DUP8 SWAP2 DUP7 PUSH0 DUP1 PUSH2 0xE42 JUMP JUMPDEST PUSH2 0xFFF SWAP2 POP DUP8 RETURNDATASIZE DUP10 GT PUSH2 0x74B JUMPI PUSH2 0x73D DUP2 DUP4 PUSH2 0x279C JUMP JUMPDEST PUSH0 PUSH2 0xFD8 JUMP JUMPDEST SWAP3 POP DUP7 PUSH1 0x6 SLOAD AND DUP1 EXTCODESIZE ISZERO PUSH2 0x87B JUMPI PUSH1 0x40 MLOAD PUSH4 0xBD09001B PUSH1 0xE0 SHL DUP2 MSTORE SWAP4 DUP8 SWAP2 DUP6 SWAP2 DUP3 SWAP1 DUP5 SWAP1 DUP3 SWAP1 PUSH2 0x1039 SWAP1 DUP9 PUSH1 0x4 DUP5 ADD PUSH2 0x2848 JUMP JUMPDEST SUB SWAP3 GAS CALL DUP1 ISZERO PUSH2 0x752 JUMPI DUP11 SWAP4 DUP8 SWAP2 PUSH2 0x1052 JUMPI JUMPDEST POP PUSH2 0xE3B JUMP JUMPDEST PUSH2 0x105E SWAP2 SWAP3 SWAP5 POP PUSH2 0x2789 JUMP JUMPDEST PUSH2 0x88C JUMPI DUP9 SWAP2 DUP6 PUSH0 PUSH2 0x104C JUMP JUMPDEST POP DUP8 PUSH1 0x6 SLOAD AND ISZERO ISZERO PUSH2 0xE36 JUMP JUMPDEST DUP10 DUP9 MSTORE PUSH1 0xB DUP6 MSTORE DUP8 PUSH1 0x40 DUP2 KECCAK256 SSTORE DUP8 MSTORE PUSH1 0xC DUP5 MSTORE DUP7 PUSH1 0x40 DUP2 KECCAK256 SSTORE PUSH0 PUSH2 0xE2C JUMP JUMPDEST PUSH1 0x40 MLOAD PUSH3 0x2D949 PUSH1 0xED SHL DUP2 MSTORE PUSH1 0x4 SWAP1 REVERT JUMPDEST PUSH1 0x2 SWAP2 POP EQ ISZERO PUSH0 PUSH2 0xDA4 JUMP JUMPDEST PUSH4 0x4E487B71 PUSH1 0xE0 SHL DUP8 MSTORE PUSH1 0x21 PUSH1 0x4 MSTORE PUSH1 0x24 DUP8 REVERT JUMPDEST POP DUP1 REVERT JUMPDEST POP CALLVALUE PUSH2 0x27D JUMPI PUSH1 0x20 CALLDATASIZE PUSH1 0x3 NOT ADD SLT PUSH2 0x27D JUMPI PUSH1 0x4 CALLDATALOAD PUSH2 0x10E9 PUSH2 0x28D3 JUMP JUMPDEST PUSH2 0x1388 DUP2 GT PUSH2 0x1124 JUMPI PUSH1 0x20 DUP2 PUSH32 0x6EEB4D53C577FB16E278A66D3A43115A6A50746BCEBBE60326F0F6B1E2055A9D SWAP3 PUSH1 0x12 SSTORE PUSH1 0x40 MLOAD SWAP1 DUP2 MSTORE LOG1 DUP1 RETURN JUMPDEST PUSH1 0x40 MLOAD PUSH3 0x461BCD PUSH1 0xE5 SHL DUP2 MSTORE PUSH1 0x20 PUSH1 0x4 DUP3 ADD MSTORE PUSH1 0xD PUSH1 0x24 DUP3 ADD MSTORE PUSH13 0x13585E080D4C0948189BDBDCDD PUSH1 0x9A SHL PUSH1 0x44 DUP3 ADD MSTORE PUSH1 0x64 SWAP1 REVERT JUMPDEST POP CALLVALUE PUSH2 0x27D JUMPI PUSH1 0x20 CALLDATASIZE PUSH1 0x3 NOT ADD SLT PUSH2 0x27D JUMPI PUSH1 0x20 SWAP1 PUSH1 0x40 SWAP1 PUSH1 0x1 PUSH1 0x1 PUSH1 0xA0 SHL SUB PUSH2 0x1181 PUSH2 0x2727 JUMP JUMPDEST AND DUP2 MSTORE PUSH1 0xB DUP4 MSTORE KECCAK256 SLOAD PUSH1 0x40 MLOAD SWAP1 DUP2 MSTORE RETURN JUMPDEST POP CALLVALUE PUSH2 0x27D JUMPI DUP1 PUSH1 0x3 NOT CALLDATASIZE ADD SLT PUSH2 0x27D JUMPI PUSH1 0x20 PUSH1 0x12 SLOAD PUSH1 0x40 MLOAD SWAP1 DUP2 MSTORE RETURN JUMPDEST POP CALLVALUE PUSH2 0x27D JUMPI PUSH1 0x20 CALLDATASIZE PUSH1 0x3 NOT ADD SLT PUSH2 0x27D JUMPI PUSH1 0x4 CALLDATALOAD SWAP1 DUP2 PUSH1 0x1 SHL SWAP2 DUP1 DUP4 DIV PUSH1 0x2 EQ SWAP1 ISZERO OR ISZERO PUSH2 0x121A JUMPI PUSH2 0x1F4 SWAP1 DUP2 DUP4 MUL SWAP2 DUP4 DUP4 DIV EQ DUP4 ISZERO OR ISZERO PUSH2 0x121A JUMPI POP PUSH2 0x1200 PUSH1 0x40 SWAP3 PUSH2 0x2710 DUP1 SWAP4 DIV SWAP1 PUSH2 0x2760 JUMP JUMPDEST SWAP1 PUSH2 0x120D PUSH1 0x12 SLOAD DUP4 PUSH2 0x289D JUMP JUMPDEST DIV DUP3 MLOAD SWAP2 DUP3 MSTORE PUSH1 0x20 DUP3 ADD MSTORE RETURN JUMPDEST PUSH4 0x4E487B71 PUSH1 0xE0 SHL DUP2 MSTORE PUSH1 0x11 PUSH1 0x4 MSTORE PUSH1 0x24 SWAP1 REVERT JUMPDEST POP CALLVALUE PUSH2 0x27D JUMPI PUSH1 0x20 CALLDATASIZE PUSH1 0x3 NOT ADD SLT PUSH2 0x27D JUMPI PUSH2 0x1248 PUSH2 0x2727 JUMP JUMPDEST PUSH2 0x1250 PUSH2 0x28D3 JUMP JUMPDEST PUSH1 0x1 PUSH1 0x1 PUSH1 0xA0 SHL SUB SWAP1 DUP2 AND SWAP1 DUP2 ISZERO PUSH2 0x129E JUMPI PUSH1 0x5 DUP1 SLOAD PUSH1 0x1 PUSH1 0x1 PUSH1 0xA0 SHL SUB NOT DUP2 AND DUP5 OR SWAP1 SWAP2 SSTORE AND PUSH32 0x90B19857CA5857522922F4D0BC3DA0F54168BCF797640F23D6B82E61A56A1F08 DUP4 DUP1 LOG3 DUP1 RETURN JUMPDEST PUSH1 0x40 MLOAD PUSH3 0x461BCD PUSH1 0xE5 SHL DUP2 MSTORE PUSH1 0x20 PUSH1 0x4 DUP3 ADD MSTORE PUSH1 0x10 PUSH1 0x24 DUP3 ADD MSTORE PUSH16 0x496E76616C6964206372656174757265 PUSH1 0x80 SHL PUSH1 0x44 DUP3 ADD MSTORE PUSH1 0x64 SWAP1 REVERT JUMPDEST POP CALLVALUE PUSH2 0x27D JUMPI PUSH1 0x20 CALLDATASIZE PUSH1 0x3 NOT ADD SLT PUSH2 0x27D JUMPI PUSH2 0x12F0 PUSH2 0x2727 JUMP JUMPDEST PUSH2 0x12F8 PUSH2 0x28D3 JUMP JUMPDEST PUSH1 0x6 DUP1 SLOAD PUSH1 0x1 PUSH1 0x1 PUSH1 0xA0 SHL SUB SWAP3 DUP4 AND PUSH1 0x1 PUSH1 0x1 PUSH1 0xA0 SHL SUB NOT DUP3 AND DUP2 OR SWAP1 SWAP3 SSTORE SWAP1 SWAP2 AND PUSH32 0x81AA94D4892023EB47E9B92F72A673E7AD967F9B141925F604E650B76A8700A5 DUP4 DUP1 LOG3 DUP1 RETURN JUMPDEST POP CALLVALUE PUSH2 0x27D JUMPI PUSH1 0x20 CALLDATASIZE PUSH1 0x3 NOT ADD SLT PUSH2 0x27D JUMPI PUSH1 0x40 PUSH1 0x20 SWAP2 PUSH1 0x4 CALLDATALOAD DUP2 MSTORE PUSH1 0xE DUP4 MSTORE KECCAK256 SLOAD PUSH1 0x40 MLOAD SWAP1 DUP2 MSTORE RETURN JUMPDEST POP CALLVALUE PUSH2 0x27D JUMPI DUP1 PUSH1 0x3 NOT CALLDATASIZE ADD SLT PUSH2 0x27D JUMPI SLOAD PUSH1 0x40 MLOAD PUSH1 0x1 PUSH1 0x1 PUSH1 0xA0 SHL SUB SWAP1 SWAP2 AND DUP2 MSTORE PUSH1 0x20 SWAP1 RETURN JUMPDEST POP CALLVALUE PUSH2 0x27D JUMPI PUSH2 0x13A1 CALLDATASIZE PUSH2 0x274A JUMP JUMPDEST PUSH2 0x13A9 PUSH2 0x28D3 JUMP JUMPDEST DUP2 ISZERO ISZERO DUP1 PUSH2 0x1428 JUMPI JUMPDEST ISZERO PUSH2 0x13F2 JUMPI DUP2 PUSH1 0x40 SWAP2 PUSH32 0x2F6F9641C9C28674435527345C5B76EF1D9B57240E94D33D3F222AE58D6CAFF7 SWAP4 PUSH1 0x7 SSTORE DUP1 PUSH1 0x8 SSTORE DUP3 MLOAD SWAP2 DUP3 MSTORE PUSH1 0x20 DUP3 ADD MSTORE LOG1 DUP1 RETURN JUMPDEST PUSH1 0x40 MLOAD PUSH3 0x461BCD PUSH1 0xE5 SHL DUP2 MSTORE PUSH1 0x20 PUSH1 0x4 DUP3 ADD MSTORE PUSH1 0xE PUSH1 0x24 DUP3 ADD MSTORE PUSH14 0x496E76616C6964206C696D697473 PUSH1 0x90 SHL PUSH1 0x44 DUP3 ADD MSTORE PUSH1 0x64 SWAP1 REVERT JUMPDEST POP DUP1 DUP3 LT PUSH2 0x13B2 JUMP JUMPDEST POP CALLVALUE PUSH2 0x27D JUMPI DUP1 PUSH1 0x3 NOT CALLDATASIZE ADD SLT PUSH2 0x27D JUMPI PUSH2 0x144A PUSH2 0x28D3 JUMP JUMPDEST PUSH1 0x10 SLOAD PUSH1 0x1 PUSH1 0x1 PUSH1 0xA0 SHL SUB DUP1 DUP3 AND DUP1 ISZERO PUSH2 0x1510 JUMPI PUSH1 0x11 SLOAD PUSH3 0x2A300 DUP2 ADD DUP1 SWAP2 GT PUSH2 0x14FC JUMPI TIMESTAMP LT PUSH2 0x14C0 JUMPI PUSH1 0x3 DUP1 SLOAD PUSH1 0x1 PUSH1 0x1 PUSH1 0xA0 SHL SUB NOT DUP1 DUP3 AND DUP5 OR SWAP1 SWAP3 SSTORE SWAP4 AND PUSH1 0x10 SSTORE PUSH1 0x11 DUP5 SWAP1 SSTORE DUP4 DUP4 AND OR SWAP2 AND PUSH32 0xEA8CA364CC9C0E44AE5CEAB245CECECCC710724873A9ECFC89A0559983E44739 DUP4 DUP1 LOG3 DUP1 RETURN JUMPDEST PUSH1 0x40 MLOAD PUSH3 0x461BCD PUSH1 0xE5 SHL DUP2 MSTORE PUSH1 0x20 PUSH1 0x4 DUP3 ADD MSTORE PUSH1 0x14 PUSH1 0x24 DUP3 ADD MSTORE PUSH20 0x151A5B595B1BD8DAC81B9BDD08195E1C1A5C9959 PUSH1 0x62 SHL PUSH1 0x44 DUP3 ADD MSTORE PUSH1 0x64 SWAP1 REVERT JUMPDEST PUSH4 0x4E487B71 PUSH1 0xE0 SHL DUP6 MSTORE PUSH1 0x11 PUSH1 0x4 MSTORE PUSH1 0x24 DUP6 REVERT JUMPDEST PUSH1 0x40 MLOAD PUSH3 0x461BCD PUSH1 0xE5 SHL DUP2 MSTORE PUSH1 0x20 PUSH1 0x4 DUP3 ADD MSTORE PUSH1 0x12 PUSH1 0x24 DUP3 ADD MSTORE PUSH18 0x139BC81C195B991A5B99C8189858DAD95B99 PUSH1 0x72 SHL PUSH1 0x44 DUP3 ADD MSTORE PUSH1 0x64 SWAP1 REVERT JUMPDEST POP CALLVALUE PUSH2 0x27D JUMPI DUP1 PUSH1 0x3 NOT CALLDATASIZE ADD SLT PUSH2 0x27D JUMPI PUSH2 0x1563 PUSH2 0x28D3 JUMP JUMPDEST PUSH2 0x156B PUSH2 0x28FE JUMP JUMPDEST DUP1 SLOAD PUSH1 0xFF PUSH1 0xA0 SHL NOT AND PUSH1 0x1 PUSH1 0xA0 SHL OR DUP2 SSTORE PUSH1 0x40 MLOAD CALLER DUP2 MSTORE PUSH32 0x62E78CEA01BEE320CD4E420270B5EA74000D11B0C9F74754EBDBFC544B05A258 SWAP1 PUSH1 0x20 SWAP1 LOG1 DUP1 RETURN JUMPDEST POP CALLVALUE PUSH2 0x27D JUMPI DUP1 PUSH1 0x3 NOT CALLDATASIZE ADD SLT PUSH2 0x27D JUMPI PUSH1 0x20 PUSH1 0x11 SLOAD PUSH1 0x40 MLOAD SWAP1 DUP2 MSTORE RETURN JUMPDEST POP CALLVALUE PUSH2 0x27D JUMPI PUSH1 0x20 DUP1 PUSH1 0x3 NOT CALLDATASIZE ADD SLT PUSH2 0x10C8 JUMPI PUSH1 0x4 CALLDATALOAD SWAP1 PUSH2 0x15E8 PUSH2 0x28B0 JUMP JUMPDEST DUP2 DUP4 MSTORE PUSH1 0xA DUP2 MSTORE PUSH1 0x40 DUP4 KECCAK256 PUSH1 0x8 DUP2 ADD DUP1 SLOAD PUSH1 0xFF DUP2 AND PUSH1 0x6 DUP2 LT ISZERO PUSH2 0x10B4 JUMPI PUSH1 0x1 SUB PUSH2 0x1883 JUMPI DUP3 SLOAD PUSH1 0x1 PUSH1 0x1 PUSH1 0xA0 SHL SUB SWAP3 SWAP1 DUP4 AND SWAP2 CALLER DUP4 SUB PUSH2 0x1871 JUMPI PUSH1 0x5 DUP6 ADD SLOAD PUSH1 0x1E DUP2 ADD DUP1 SWAP2 GT PUSH2 0x185D JUMPI TIMESTAMP LT PUSH2 0x184B JUMPI PUSH1 0x5 SWAP1 PUSH1 0xFF NOT AND OR SWAP1 SSTORE DUP6 MSTORE PUSH1 0xB DUP4 MSTORE DUP5 PUSH1 0x40 DUP2 KECCAK256 SSTORE PUSH1 0x2 DUP3 ADD SLOAD DUP6 MSTORE PUSH1 0xC DUP4 MSTORE DUP5 PUSH1 0x40 DUP2 KECCAK256 SSTORE DUP4 DUP6 MSTORE PUSH1 0xE DUP4 MSTORE PUSH1 0x40 DUP6 KECCAK256 SLOAD SWAP2 DUP6 PUSH2 0x167C DUP5 PUSH1 0x4 DUP5 ADD SLOAD PUSH2 0x2760 JUMP JUMPDEST SWAP4 DUP1 ISZERO ISZERO DUP1 PUSH2 0x183E JUMPI JUMPDEST PUSH2 0x17E2 JUMPI JUMPDEST POP POP DUP3 ISZERO DUP1 ISZERO PUSH2 0x16C4 JUMPI JUMPDEST DUP7 CALLER DUP8 PUSH32 0xCB9EFE3DEE7D10A1CE7248D3BB4E58134AE02576D3439448ED856CC3373E17A3 DUP4 DUP1 LOG3 PUSH1 0x1 DUP1 SSTORE DUP1 RETURN JUMPDEST PUSH1 0x64 DUP5 MUL SWAP1 DUP5 DUP3 DIV PUSH1 0x64 EQ OR ISZERO PUSH2 0x8C2 JUMPI PUSH2 0x16E5 PUSH2 0x2710 DUP7 SWAP3 DIV DUP1 SWAP6 PUSH2 0x2760 JUMP JUMPDEST DUP1 PUSH2 0x177B JUMPI JUMPDEST POP POP POP DUP2 ISZERO ISZERO DUP1 PUSH2 0x176E JUMPI JUMPDEST PUSH2 0x1703 JUMPI JUMPDEST DUP1 DUP1 PUSH2 0x1696 JUMP JUMPDEST PUSH2 0x1730 SWAP2 DUP2 DUP5 SWAP3 PUSH1 0x2 SLOAD AND SWAP1 PUSH1 0x4 SLOAD AND DUP8 PUSH1 0x40 MLOAD DUP1 SWAP7 DUP2 SWAP6 DUP3 SWAP5 PUSH4 0xA9059CBB PUSH1 0xE0 SHL DUP5 MSTORE PUSH1 0x4 DUP5 ADD PUSH2 0x2848 JUMP JUMPDEST SUB SWAP3 GAS CALL SWAP2 DUP3 ISZERO PUSH2 0xD06 JUMPI DUP5 SWAP3 PUSH2 0x1751 JUMPI JUMPDEST POP POP ISZERO PUSH2 0x713 JUMPI PUSH0 DUP1 DUP1 PUSH2 0x16FC JUMP JUMPDEST PUSH2 0x1767 SWAP3 POP DUP1 RETURNDATASIZE LT PUSH2 0x74B JUMPI PUSH2 0x73D DUP2 DUP4 PUSH2 0x279C JUMP JUMPDEST PUSH0 DUP1 PUSH2 0x1742 JUMP JUMPDEST POP DUP1 PUSH1 0x4 SLOAD AND ISZERO ISZERO PUSH2 0x16F7 JUMP JUMPDEST PUSH2 0x17A5 SWAP3 DUP5 DUP1 PUSH1 0x2 SLOAD AND SWAP2 SLOAD AND DUP10 PUSH1 0x40 MLOAD DUP1 SWAP7 DUP2 SWAP6 DUP3 SWAP5 PUSH4 0xA9059CBB PUSH1 0xE0 SHL DUP5 MSTORE PUSH1 0x4 DUP5 ADD PUSH2 0x2848 JUMP JUMPDEST SUB SWAP3 GAS CALL SWAP1 DUP2 ISZERO PUSH2 0x752 JUMPI DUP7 SWAP2 PUSH2 0x17C5 JUMPI JUMPDEST POP ISZERO PUSH2 0xEF9 JUMPI PUSH0 DUP4 DUP2 PUSH2 0x16EB JUMP JUMPDEST PUSH2 0x17DC SWAP2 POP DUP5 RETURNDATASIZE DUP7 GT PUSH2 0x74B JUMPI PUSH2 0x73D DUP2 DUP4 PUSH2 0x279C JUMP JUMPDEST PUSH0 PUSH2 0x17B7 JUMP JUMPDEST DUP4 PUSH1 0x6 SLOAD AND SWAP1 DUP5 DUP5 SLOAD AND SWAP1 DUP3 EXTCODESIZE ISZERO PUSH2 0x183A JUMPI PUSH2 0x1817 SWAP3 DUP5 SWAP3 DUP4 PUSH1 0x40 MLOAD DUP1 SWAP7 DUP2 SWAP6 DUP3 SWAP5 PUSH4 0xBD09001B PUSH1 0xE0 SHL DUP5 MSTORE PUSH1 0x4 DUP5 ADD PUSH2 0x2848 JUMP JUMPDEST SUB SWAP3 GAS CALL DUP1 ISZERO PUSH2 0xF81 JUMPI ISZERO PUSH2 0x168B JUMPI PUSH2 0x182F SWAP1 PUSH2 0x2789 JUMP JUMPDEST PUSH2 0xF7D JUMPI DUP6 PUSH0 PUSH2 0x168B JUMP JUMPDEST DUP4 DUP1 REVERT JUMPDEST POP DUP4 PUSH1 0x6 SLOAD AND ISZERO ISZERO PUSH2 0x1686 JUMP JUMPDEST PUSH1 0x40 MLOAD PUSH4 0x4842335 PUSH1 0xE2 SHL DUP2 MSTORE PUSH1 0x4 SWAP1 REVERT JUMPDEST PUSH4 0x4E487B71 PUSH1 0xE0 SHL DUP10 MSTORE PUSH1 0x11 PUSH1 0x4 MSTORE PUSH1 0x24 DUP10 REVERT JUMPDEST PUSH1 0x40 MLOAD PUSH4 0x8FF4F0C9 PUSH1 0xE0 SHL DUP2 MSTORE PUSH1 0x4 SWAP1 REVERT JUMPDEST PUSH1 0x40 MLOAD PUSH4 0x1F7806AF PUSH1 0xE3 SHL DUP2 MSTORE PUSH1 0x4 SWAP1 REVERT JUMPDEST POP CALLVALUE PUSH2 0xC92 JUMPI PUSH1 0x20 DUP1 PUSH1 0x3 NOT CALLDATASIZE ADD SLT PUSH2 0xC92 JUMPI PUSH1 0x4 CALLDATALOAD SWAP1 PUSH2 0x18B4 PUSH2 0x28B0 JUMP JUMPDEST DUP2 PUSH0 MSTORE PUSH1 0xA DUP2 MSTORE PUSH1 0x40 PUSH0 KECCAK256 PUSH1 0x8 DUP2 ADD SWAP1 DUP2 SLOAD PUSH1 0xFF DUP2 AND PUSH1 0x6 DUP2 LT ISZERO PUSH2 0x1A92 JUMPI PUSH1 0x1 SUB PUSH2 0x1097 JUMPI DUP2 SLOAD PUSH1 0x1 PUSH1 0x1 PUSH1 0xA0 SHL SUB SWAP4 SWAP1 DUP5 AND SWAP2 CALLER DUP4 SUB PUSH2 0x1871 JUMPI PUSH1 0x5 DUP5 ADD SLOAD PUSH2 0x258 DUP2 ADD DUP1 SWAP2 GT PUSH2 0x890 JUMPI TIMESTAMP GT ISZERO PUSH2 0x1A80 JUMPI PUSH1 0x5 SWAP1 PUSH1 0xFF NOT AND OR SWAP1 SSTORE PUSH0 MSTORE PUSH1 0xB DUP4 MSTORE PUSH0 PUSH1 0x40 DUP2 KECCAK256 SSTORE PUSH1 0x2 DUP2 ADD SLOAD PUSH0 MSTORE PUSH1 0xC DUP4 MSTORE PUSH0 PUSH1 0x40 DUP2 KECCAK256 SSTORE DUP4 PUSH0 MSTORE PUSH1 0xE DUP4 MSTORE PUSH1 0x40 PUSH0 KECCAK256 SLOAD SWAP2 PUSH2 0x194A DUP4 PUSH1 0x4 DUP5 ADD SLOAD PUSH2 0x2760 JUMP JUMPDEST SWAP3 DUP1 ISZERO ISZERO DUP1 PUSH2 0x1A73 JUMPI JUMPDEST PUSH2 0x1A11 JUMPI JUMPDEST POP DUP3 PUSH2 0x19A8 JUMPI JUMPDEST POP POP POP PUSH1 0x60 PUSH0 DUP1 MLOAD PUSH1 0x20 PUSH2 0x2A40 DUP4 CODECOPY DUP2 MLOAD SWAP2 MSTORE SWAP2 PUSH1 0x17 PUSH1 0x40 MLOAD SWAP2 DUP1 DUP4 MSTORE DUP3 ADD MSTORE PUSH23 0x121BDCDD081D1A5B595BDD5D080B481B9BC819DD595CDD PUSH1 0x4A SHL PUSH1 0x40 DUP3 ADD MSTORE LOG2 PUSH1 0x1 DUP1 SSTORE DUP1 RETURN JUMPDEST SWAP2 DUP4 SWAP2 DUP4 PUSH2 0x19D4 SWAP5 PUSH1 0x2 SLOAD AND SWAP2 SLOAD AND DUP8 PUSH1 0x40 MLOAD DUP1 SWAP7 DUP2 SWAP6 DUP3 SWAP5 PUSH4 0xA9059CBB PUSH1 0xE0 SHL DUP5 MSTORE PUSH1 0x4 DUP5 ADD PUSH2 0x2848 JUMP JUMPDEST SUB SWAP3 GAS CALL SWAP1 DUP2 ISZERO PUSH2 0xD06 JUMPI DUP5 SWAP2 PUSH2 0x19F4 JUMPI JUMPDEST POP ISZERO PUSH2 0xEF9 JUMPI PUSH0 DUP1 DUP1 PUSH2 0x1960 JUMP JUMPDEST PUSH2 0x1A0B SWAP2 POP DUP3 RETURNDATASIZE DUP5 GT PUSH2 0x74B JUMPI PUSH2 0x73D DUP2 DUP4 PUSH2 0x279C JUMP JUMPDEST PUSH0 PUSH2 0x19E6 JUMP JUMPDEST DUP2 PUSH1 0x6 SLOAD AND SWAP1 DUP3 DUP5 SLOAD AND SWAP1 DUP3 EXTCODESIZE ISZERO PUSH2 0xC92 JUMPI PUSH2 0x1A46 SWAP3 PUSH0 SWAP3 DUP4 PUSH1 0x40 MLOAD DUP1 SWAP7 DUP2 SWAP6 DUP3 SWAP5 PUSH4 0xBD09001B PUSH1 0xE0 SHL DUP5 MSTORE PUSH1 0x4 DUP5 ADD PUSH2 0x2848 JUMP JUMPDEST SUB SWAP3 GAS CALL DUP1 ISZERO PUSH2 0x1A68 JUMPI ISZERO PUSH2 0x1959 JUMPI PUSH2 0x1A60 SWAP2 SWAP7 POP PUSH2 0x2789 JUMP JUMPDEST PUSH0 SWAP5 PUSH0 PUSH2 0x1959 JUMP JUMPDEST PUSH1 0x40 MLOAD RETURNDATASIZE PUSH0 DUP3 RETURNDATACOPY RETURNDATASIZE SWAP1 REVERT JUMPDEST POP DUP2 PUSH1 0x6 SLOAD AND ISZERO ISZERO PUSH2 0x1954 JUMP JUMPDEST PUSH1 0x40 MLOAD PUSH4 0x26C015AB PUSH1 0xE2 SHL DUP2 MSTORE PUSH1 0x4 SWAP1 REVERT JUMPDEST PUSH4 0x4E487B71 PUSH1 0xE0 SHL PUSH0 MSTORE PUSH1 0x21 PUSH1 0x4 MSTORE PUSH1 0x24 PUSH0 REVERT JUMPDEST CALLVALUE PUSH2 0xC92 JUMPI PUSH1 0x20 CALLDATASIZE PUSH1 0x3 NOT ADD SLT PUSH2 0xC92 JUMPI PUSH1 0x4 CALLDATALOAD PUSH0 MSTORE PUSH1 0xA PUSH1 0x20 MSTORE PUSH2 0x140 PUSH1 0x40 PUSH0 KECCAK256 PUSH1 0x1 DUP1 PUSH1 0xA0 SHL SUB DUP1 DUP3 SLOAD AND SWAP2 DUP2 PUSH1 0x1 DUP3 ADD SLOAD AND SWAP1 PUSH1 0x2 DUP2 ADD SLOAD PUSH1 0x3 DUP3 ADD SLOAD PUSH1 0x4 DUP4 ADD SLOAD PUSH1 0x5 DUP5 ADD SLOAD SWAP2 PUSH1 0x6 DUP6 ADD SLOAD SWAP4 PUSH1 0x8 PUSH1 0x7 DUP8 ADD SLOAD SWAP7 ADD SLOAD SWAP7 PUSH1 0x40 MLOAD SWAP10 DUP11 MSTORE PUSH1 0x20 DUP11 ADD MSTORE PUSH1 0x40 DUP10 ADD MSTORE PUSH1 0x60 DUP9 ADD MSTORE PUSH1 0x80 DUP8 ADD MSTORE PUSH1 0xA0 DUP7 ADD MSTORE PUSH1 0xC0 DUP6 ADD MSTORE PUSH1 0xE0 DUP5 ADD MSTORE PUSH2 0x1B3C PUSH2 0x100 DUP5 ADD PUSH1 0xFF DUP4 AND PUSH2 0x273D JUMP JUMPDEST PUSH1 0x8 SHR AND PUSH2 0x120 DUP3 ADD MSTORE RETURN JUMPDEST CALLVALUE PUSH2 0xC92 JUMPI PUSH0 CALLDATASIZE PUSH1 0x3 NOT ADD SLT PUSH2 0xC92 JUMPI PUSH1 0x10 SLOAD PUSH1 0x40 MLOAD PUSH1 0x1 PUSH1 0x1 PUSH1 0xA0 SHL SUB SWAP1 SWAP2 AND DUP2 MSTORE PUSH1 0x20 SWAP1 RETURN JUMPDEST CALLVALUE PUSH2 0xC92 JUMPI PUSH0 CALLDATASIZE PUSH1 0x3 NOT ADD SLT PUSH2 0xC92 JUMPI PUSH2 0x1B88 PUSH2 0x28D3 JUMP JUMPDEST PUSH0 DUP1 SLOAD PUSH1 0x1 PUSH1 0x1 PUSH1 0xA0 SHL SUB NOT DUP2 AND DUP3 SSTORE PUSH1 0x1 PUSH1 0x1 PUSH1 0xA0 SHL SUB AND PUSH0 DUP1 MLOAD PUSH1 0x20 PUSH2 0x2A60 DUP4 CODECOPY DUP2 MLOAD SWAP2 MSTORE DUP3 DUP1 LOG3 STOP JUMPDEST CALLVALUE PUSH2 0xC92 JUMPI PUSH1 0x20 CALLDATASIZE PUSH1 0x3 NOT ADD SLT PUSH2 0xC92 JUMPI PUSH1 0x4 CALLDATALOAD PUSH0 MSTORE PUSH1 0xC PUSH1 0x20 MSTORE PUSH1 0x20 PUSH1 0x40 PUSH0 KECCAK256 SLOAD PUSH1 0x40 MLOAD SWAP1 DUP2 MSTORE RETURN JUMPDEST CALLVALUE PUSH2 0xC92 JUMPI PUSH0 CALLDATASIZE PUSH1 0x3 NOT ADD SLT PUSH2 0xC92 JUMPI PUSH1 0x5 SLOAD PUSH1 0x40 MLOAD PUSH1 0x1 PUSH1 0x1 PUSH1 0xA0 SHL SUB SWAP1 SWAP2 AND DUP2 MSTORE PUSH1 0x20 SWAP1 RETURN JUMPDEST CALLVALUE PUSH2 0xC92 JUMPI PUSH0 CALLDATASIZE PUSH1 0x3 NOT ADD SLT PUSH2 0xC92 JUMPI PUSH1 0x4 SLOAD PUSH1 0x40 MLOAD PUSH1 0x1 PUSH1 0x1 PUSH1 0xA0 SHL SUB SWAP1 SWAP2 AND DUP2 MSTORE PUSH1 0x20 SWAP1 RETURN JUMPDEST CALLVALUE PUSH2 0xC92 JUMPI PUSH0 CALLDATASIZE PUSH1 0x3 NOT ADD SLT PUSH2 0xC92 JUMPI PUSH1 0x20 PUSH1 0xFF PUSH0 SLOAD PUSH1 0xA0 SHR AND PUSH1 0x40 MLOAD SWAP1 ISZERO ISZERO DUP2 MSTORE RETURN JUMPDEST CALLVALUE PUSH2 0xC92 JUMPI PUSH0 CALLDATASIZE PUSH1 0x3 NOT ADD SLT PUSH2 0xC92 JUMPI PUSH1 0x20 PUSH1 0x40 MLOAD PUSH1 0x1E DUP2 MSTORE RETURN JUMPDEST CALLVALUE PUSH2 0xC92 JUMPI PUSH1 0x20 CALLDATASIZE PUSH1 0x3 NOT ADD SLT PUSH2 0xC92 JUMPI PUSH1 0x1 PUSH1 0x1 PUSH1 0xA0 SHL SUB PUSH2 0x1C8E PUSH2 0x2727 JUMP JUMPDEST AND PUSH0 MSTORE PUSH1 0xB PUSH1 0x20 MSTORE PUSH1 0x20 PUSH1 0x40 PUSH0 KECCAK256 SLOAD ISZERO ISZERO PUSH1 0x40 MLOAD SWAP1 DUP2 MSTORE RETURN JUMPDEST CALLVALUE PUSH2 0xC92 JUMPI PUSH0 CALLDATASIZE PUSH1 0x3 NOT ADD SLT PUSH2 0xC92 JUMPI PUSH1 0x20 PUSH1 0x40 MLOAD PUSH2 0x1F4 DUP2 MSTORE RETURN JUMPDEST CALLVALUE PUSH2 0xC92 JUMPI PUSH0 CALLDATASIZE PUSH1 0x3 NOT ADD SLT PUSH2 0xC92 JUMPI PUSH1 0x2 SLOAD PUSH1 0x40 MLOAD PUSH1 0x1 PUSH1 0x1 PUSH1 0xA0 SHL SUB SWAP1 SWAP2 AND DUP2 MSTORE PUSH1 0x20 SWAP1 RETURN JUMPDEST CALLVALUE PUSH2 0xC92 JUMPI PUSH1 0x40 CALLDATASIZE PUSH1 0x3 NOT ADD SLT PUSH2 0xC92 JUMPI PUSH1 0x24 CALLDATALOAD PUSH1 0x4 CALLDATALOAD PUSH2 0x1D0A PUSH2 0x28FE JUMP JUMPDEST PUSH2 0x1D12 PUSH2 0x28B0 JUMP JUMPDEST DUP1 PUSH0 MSTORE PUSH1 0x20 PUSH1 0xA DUP2 MSTORE PUSH1 0x40 PUSH0 KECCAK256 SWAP1 PUSH1 0x8 DUP3 ADD PUSH1 0xFF DUP2 SLOAD AND PUSH1 0x6 DUP2 LT ISZERO PUSH2 0x1A92 JUMPI PUSH1 0x1 SUB PUSH2 0x1F7F JUMPI DUP3 SLOAD PUSH1 0x1 PUSH1 0x1 PUSH1 0xA0 SHL SUB SWAP2 SWAP1 DUP3 AND CALLER EQ PUSH2 0x1F6D JUMPI CALLER PUSH0 MSTORE PUSH1 0xB DUP4 MSTORE PUSH1 0x40 PUSH0 KECCAK256 SLOAD PUSH2 0xD23 JUMPI DUP6 PUSH0 MSTORE PUSH1 0xC DUP4 MSTORE PUSH1 0x40 PUSH0 KECCAK256 SLOAD PUSH2 0xD11 JUMPI PUSH1 0x5 DUP5 ADD SLOAD PUSH2 0x258 DUP2 ADD DUP1 SWAP2 GT PUSH2 0x890 JUMPI TIMESTAMP LT ISZERO PUSH2 0x1F5B JUMPI PUSH1 0x24 DUP4 DUP4 PUSH1 0x5 SLOAD AND PUSH1 0x40 MLOAD SWAP3 DUP4 DUP1 SWAP3 PUSH4 0x31A9108F PUSH1 0xE1 SHL DUP3 MSTORE DUP12 PUSH1 0x4 DUP4 ADD MSTORE GAS STATICCALL SWAP1 DUP2 ISZERO PUSH2 0x1A68 JUMPI PUSH0 SWAP2 PUSH2 0x1F3E JUMPI JUMPDEST POP DUP3 CALLER SWAP2 AND SUB PUSH2 0xCC5 JUMPI PUSH0 SWAP2 DUP4 DUP2 PUSH1 0x6 SLOAD AND DUP1 PUSH2 0x1ECC JUMPI JUMPDEST POP POP PUSH2 0x1DDC DUP4 PUSH1 0x4 DUP8 ADD SLOAD PUSH2 0x2760 JUMP JUMPDEST SWAP1 DUP2 PUSH2 0x1E66 JUMPI JUMPDEST POP POP DUP4 PUSH1 0x1 PUSH32 0x4480FDF0275FF0748200AB3CDCC450685E845D860FDC94461FEA4E0DC0362177 SWAP6 ADD CALLER PUSH1 0x1 DUP1 PUSH1 0xA0 SHL SUB NOT DUP3 SLOAD AND OR SWAP1 SSTORE DUP7 PUSH1 0x3 DUP3 ADD SSTORE PUSH1 0x6 TIMESTAMP SWAP2 ADD SSTORE PUSH1 0x2 PUSH1 0xFF NOT DUP3 SLOAD AND OR SWAP1 SSTORE DUP4 PUSH0 MSTORE PUSH1 0xF DUP3 MSTORE PUSH1 0x40 PUSH0 KECCAK256 SSTORE CALLER PUSH0 MSTORE PUSH1 0xB DUP2 MSTORE DUP3 PUSH1 0x40 PUSH0 KECCAK256 SSTORE DUP4 PUSH0 MSTORE PUSH1 0xC DUP2 MSTORE DUP3 PUSH1 0x40 PUSH0 KECCAK256 SSTORE PUSH1 0x40 MLOAD SWAP4 DUP5 MSTORE CALLER SWAP4 LOG3 PUSH1 0x1 DUP1 SSTORE STOP JUMPDEST PUSH2 0x1E90 PUSH0 SWAP3 DUP7 SWAP3 PUSH1 0x2 SLOAD AND SWAP1 PUSH1 0x40 MLOAD SWAP5 DUP6 DUP1 SWAP5 DUP2 SWAP4 PUSH4 0x23B872DD PUSH1 0xE0 SHL DUP4 MSTORE ADDRESS CALLER PUSH1 0x4 DUP6 ADD PUSH2 0x287B JUMP JUMPDEST SUB SWAP3 GAS CALL SWAP1 DUP2 ISZERO PUSH2 0x1A68 JUMPI PUSH0 SWAP2 PUSH2 0x1EAF JUMPI JUMPDEST POP ISZERO PUSH2 0xBF5 JUMPI DUP7 DUP1 PUSH2 0x1DE3 JUMP JUMPDEST PUSH2 0x1EC6 SWAP2 POP DUP5 RETURNDATASIZE DUP7 GT PUSH2 0x74B JUMPI PUSH2 0x73D DUP2 DUP4 PUSH2 0x279C JUMP JUMPDEST DUP8 PUSH2 0x1EA2 JUMP JUMPDEST PUSH0 SWAP3 SWAP5 POP PUSH2 0x1EF6 SWAP1 PUSH1 0x4 DUP9 ADD SLOAD PUSH1 0x40 MLOAD SWAP5 DUP6 DUP1 SWAP5 DUP2 SWAP4 PUSH4 0x24BF68E1 PUSH1 0xE2 SHL DUP4 MSTORE CALLER PUSH1 0x4 DUP5 ADD PUSH2 0x2848 JUMP JUMPDEST SUB SWAP3 GAS CALL SWAP1 DUP2 ISZERO PUSH2 0x1A68 JUMPI PUSH0 SWAP2 PUSH2 0x1F11 JUMPI JUMPDEST POP SWAP2 DUP4 DUP9 PUSH2 0x1DCC JUMP JUMPDEST SWAP1 POP DUP4 DUP2 DUP2 RETURNDATASIZE DUP4 GT PUSH2 0x1F37 JUMPI JUMPDEST PUSH2 0x1F28 DUP2 DUP4 PUSH2 0x279C JUMP JUMPDEST DUP2 ADD SUB SLT PUSH2 0xC92 JUMPI MLOAD DUP8 PUSH2 0x1F08 JUMP JUMPDEST POP RETURNDATASIZE PUSH2 0x1F1E JUMP JUMPDEST PUSH2 0x1F55 SWAP2 POP DUP5 RETURNDATASIZE DUP7 GT PUSH2 0xCFF JUMPI PUSH2 0xCF1 DUP2 DUP4 PUSH2 0x279C JUMP JUMPDEST DUP8 PUSH2 0x1DB4 JUMP JUMPDEST PUSH1 0x40 MLOAD PUSH4 0x7382E321 PUSH1 0xE0 SHL DUP2 MSTORE PUSH1 0x4 SWAP1 REVERT JUMPDEST PUSH1 0x40 MLOAD PUSH4 0x50C8FD5 PUSH1 0xE0 SHL DUP2 MSTORE PUSH1 0x4 SWAP1 REVERT JUMPDEST PUSH1 0x40 MLOAD PUSH4 0x71007189 PUSH1 0xE0 SHL DUP2 MSTORE PUSH1 0x4 SWAP1 REVERT JUMPDEST CALLVALUE PUSH2 0xC92 JUMPI PUSH0 CALLDATASIZE PUSH1 0x3 NOT ADD SLT PUSH2 0xC92 JUMPI PUSH1 0x13 SLOAD PUSH1 0x40 MLOAD PUSH1 0x1 PUSH1 0x1 PUSH1 0xA0 SHL SUB SWAP1 SWAP2 AND DUP2 MSTORE PUSH1 0x20 SWAP1 RETURN JUMPDEST CALLVALUE PUSH2 0xC92 JUMPI PUSH1 0x20 CALLDATASIZE PUSH1 0x3 NOT ADD SLT PUSH2 0xC92 JUMPI PUSH2 0x1FD2 PUSH2 0x2727 JUMP JUMPDEST PUSH2 0x1FDA PUSH2 0x28D3 JUMP JUMPDEST PUSH1 0x1 PUSH1 0x1 PUSH1 0xA0 SHL SUB AND DUP1 ISZERO PUSH2 0x2029 JUMPI PUSH1 0x13 DUP1 SLOAD PUSH1 0x1 PUSH1 0x1 PUSH1 0xA0 SHL SUB NOT AND DUP3 OR SWAP1 SSTORE PUSH1 0x40 MLOAD SWAP1 DUP2 MSTORE PUSH32 0x289CB603F5B7B3E891B42AAEF6AEF54FD5547FF527F4118F238750F37B312861 SWAP1 PUSH1 0x20 SWAP1 LOG1 STOP JUMPDEST PUSH1 0x40 MLOAD PUSH3 0x461BCD PUSH1 0xE5 SHL DUP2 MSTORE PUSH1 0x20 PUSH1 0x4 DUP3 ADD MSTORE PUSH1 0xE PUSH1 0x24 DUP3 ADD MSTORE PUSH14 0x125B9D985B1A59081DD85B1B195D PUSH1 0x92 SHL PUSH1 0x44 DUP3 ADD MSTORE PUSH1 0x64 SWAP1 REVERT JUMPDEST CALLVALUE PUSH2 0xC92 JUMPI PUSH0 CALLDATASIZE PUSH1 0x3 NOT ADD SLT PUSH2 0xC92 JUMPI PUSH1 0x20 PUSH1 0x40 MLOAD PUSH3 0x2A300 DUP2 MSTORE RETURN JUMPDEST CALLVALUE PUSH2 0xC92 JUMPI PUSH1 0x20 CALLDATASIZE PUSH1 0x3 NOT ADD SLT PUSH2 0xC92 JUMPI PUSH0 PUSH2 0x120 PUSH1 0x40 MLOAD PUSH2 0x209D DUP2 PUSH2 0x276D JUMP JUMPDEST DUP3 DUP2 MSTORE DUP3 PUSH1 0x20 DUP3 ADD MSTORE DUP3 PUSH1 0x40 DUP3 ADD MSTORE DUP3 PUSH1 0x60 DUP3 ADD MSTORE DUP3 PUSH1 0x80 DUP3 ADD MSTORE DUP3 PUSH1 0xA0 DUP3 ADD MSTORE DUP3 PUSH1 0xC0 DUP3 ADD MSTORE DUP3 PUSH1 0xE0 DUP3 ADD MSTORE DUP3 PUSH2 0x100 DUP3 ADD MSTORE ADD MSTORE PUSH1 0x4 CALLDATALOAD PUSH0 MSTORE PUSH1 0xA PUSH1 0x20 MSTORE PUSH1 0x40 PUSH0 KECCAK256 PUSH1 0x8 PUSH1 0x40 MLOAD SWAP2 PUSH2 0x20F0 DUP4 PUSH2 0x276D JUMP JUMPDEST DUP1 SLOAD PUSH1 0x1 PUSH1 0x1 PUSH1 0xA0 SHL SUB SWAP1 DUP2 AND DUP5 MSTORE PUSH1 0x1 DUP3 ADD SLOAD AND PUSH1 0x20 DUP5 ADD MSTORE PUSH1 0x2 DUP2 ADD SLOAD PUSH1 0x40 DUP5 ADD MSTORE PUSH1 0x3 DUP2 ADD SLOAD PUSH1 0x60 DUP5 ADD MSTORE PUSH1 0x4 DUP2 ADD SLOAD PUSH1 0x80 DUP5 ADD MSTORE PUSH1 0x5 DUP2 ADD SLOAD PUSH1 0xA0 DUP5 ADD MSTORE PUSH1 0x6 DUP1 DUP3 ADD SLOAD PUSH1 0xC0 DUP6 ADD MSTORE PUSH1 0x7 DUP3 ADD SLOAD PUSH1 0xE0 DUP6 ADD MSTORE SWAP2 ADD SLOAD PUSH1 0xFF DUP2 AND SWAP3 SWAP2 DUP4 LT ISZERO PUSH2 0x1A92 JUMPI PUSH2 0x140 SWAP3 PUSH2 0x100 DUP4 ADD MSTORE PUSH1 0x1 DUP1 PUSH1 0xA0 SHL SUB SWAP1 PUSH1 0x8 SHR AND PUSH2 0x120 DUP3 ADD MSTORE PUSH1 0x40 MLOAD SWAP1 PUSH1 0x1 DUP1 PUSH1 0xA0 SHL SUB DUP2 MLOAD AND DUP3 MSTORE PUSH1 0x1 DUP1 PUSH1 0xA0 SHL SUB PUSH1 0x20 DUP3 ADD MLOAD AND PUSH1 0x20 DUP4 ADD MSTORE PUSH1 0x40 DUP2 ADD MLOAD PUSH1 0x40 DUP4 ADD MSTORE PUSH1 0x60 DUP2 ADD MLOAD PUSH1 0x60 DUP4 ADD MSTORE PUSH1 0x80 DUP2 ADD MLOAD PUSH1 0x80 DUP4 ADD MSTORE PUSH1 0xA0 DUP2 ADD MLOAD PUSH1 0xA0 DUP4 ADD MSTORE PUSH1 0xC0 DUP2 ADD MLOAD PUSH1 0xC0 DUP4 ADD MSTORE PUSH1 0xE0 DUP2 ADD MLOAD PUSH1 0xE0 DUP4 ADD MSTORE PUSH2 0x21E5 PUSH2 0x100 DUP3 ADD MLOAD PUSH2 0x100 DUP5 ADD SWAP1 PUSH2 0x273D JUMP JUMPDEST PUSH2 0x120 SWAP1 DUP2 ADD MLOAD PUSH1 0x1 PUSH1 0x1 PUSH1 0xA0 SHL SUB AND SWAP1 DUP3 ADD MSTORE RETURN JUMPDEST CALLVALUE PUSH2 0xC92 JUMPI PUSH0 CALLDATASIZE PUSH1 0x3 NOT ADD SLT PUSH2 0xC92 JUMPI PUSH2 0x2213 PUSH2 0x28D3 JUMP JUMPDEST PUSH0 SLOAD PUSH1 0xFF DUP2 PUSH1 0xA0 SHR AND ISZERO PUSH2 0x2258 JUMPI PUSH1 0xFF PUSH1 0xA0 SHL NOT AND PUSH0 SSTORE PUSH1 0x40 MLOAD CALLER DUP2 MSTORE PUSH32 0x5DB9EE0A495BF2E6FF9C91A7834C1BA4FDD244A5E8AA4E537BD38AEAE4B073AA SWAP1 PUSH1 0x20 SWAP1 LOG1 STOP JUMPDEST PUSH1 0x40 MLOAD PUSH4 0x8DFC202B PUSH1 0xE0 SHL DUP2 MSTORE PUSH1 0x4 SWAP1 REVERT JUMPDEST CALLVALUE PUSH2 0xC92 JUMPI PUSH0 CALLDATASIZE PUSH1 0x3 NOT ADD SLT PUSH2 0xC92 JUMPI PUSH1 0x20 PUSH1 0x7 SLOAD PUSH1 0x40 MLOAD SWAP1 DUP2 MSTORE RETURN JUMPDEST CALLVALUE PUSH2 0xC92 JUMPI PUSH0 CALLDATASIZE PUSH1 0x3 NOT ADD SLT PUSH2 0xC92 JUMPI PUSH1 0x6 SLOAD PUSH1 0x40 MLOAD PUSH1 0x1 PUSH1 0x1 PUSH1 0xA0 SHL SUB SWAP1 SWAP2 AND DUP2 MSTORE PUSH1 0x20 SWAP1 RETURN JUMPDEST CALLVALUE PUSH2 0xC92 JUMPI PUSH0 CALLDATASIZE PUSH1 0x3 NOT ADD SLT PUSH2 0xC92 JUMPI PUSH1 0x20 PUSH1 0x9 SLOAD PUSH1 0x40 MLOAD SWAP1 DUP2 MSTORE RETURN JUMPDEST CALLVALUE PUSH2 0xC92 JUMPI PUSH1 0x80 CALLDATASIZE PUSH1 0x3 NOT ADD SLT PUSH2 0xC92 JUMPI PUSH1 0x24 PUSH1 0x1 PUSH1 0x1 PUSH1 0xA0 SHL SUB DUP2 CALLDATALOAD DUP2 DUP2 AND SWAP2 PUSH1 0x4 CALLDATALOAD SWAP2 DUP4 DUP2 SUB PUSH2 0xC92 JUMPI PUSH1 0x1 PUSH1 0x1 PUSH1 0x40 SHL SUB SWAP2 PUSH1 0x44 CALLDATALOAD SWAP1 PUSH1 0x64 CALLDATALOAD DUP5 DUP2 GT PUSH2 0xC92 JUMPI CALLDATASIZE PUSH1 0x23 DUP3 ADD SLT ISZERO PUSH2 0xC92 JUMPI DUP1 PUSH1 0x4 ADD CALLDATALOAD SWAP4 DUP6 DUP6 GT PUSH2 0xC92 JUMPI DUP9 DUP3 ADD SWAP2 DUP10 DUP7 CALLDATASIZE SWAP3 ADD ADD GT PUSH2 0xC92 JUMPI PUSH2 0x233E PUSH2 0x28B0 JUMP JUMPDEST DUP7 PUSH0 MSTORE PUSH1 0x20 SWAP5 PUSH1 0xA DUP7 MSTORE PUSH1 0x40 PUSH0 KECCAK256 SWAP5 PUSH1 0x8 DUP7 ADD SWAP8 PUSH1 0xFF DUP10 SLOAD AND PUSH1 0x6 DUP2 LT ISZERO PUSH2 0x26B5 JUMPI PUSH1 0x2 SUB PUSH2 0x26A3 JUMPI DUP6 DUP8 SLOAD AND DUP12 EQ ISZERO DUP1 PUSH2 0x2693 JUMPI JUMPDEST PUSH2 0x2681 JUMPI PUSH2 0x12B NOT TIMESTAMP ADD TIMESTAMP DUP2 GT PUSH2 0x266E JUMPI DUP3 GT ISZERO PUSH2 0x265C JUMPI PUSH2 0x2397 CALLDATASIZE DUP5 DUP8 PUSH2 0x27BF JUMP JUMPDEST DUP9 DUP2 MLOAD SWAP2 ADD KECCAK256 PUSH0 MSTORE PUSH1 0xD DUP9 MSTORE PUSH1 0xFF PUSH1 0x40 PUSH0 KECCAK256 SLOAD AND PUSH2 0x264A JUMPI PUSH1 0x40 MLOAD SWAP1 DUP9 DUP3 ADD SWAP3 DUP12 DUP5 MSTORE PUSH1 0x1 DUP1 PUSH1 0x60 SHL SUB NOT DUP7 PUSH1 0x60 SHL AND PUSH1 0x40 DUP5 ADD MSTORE PUSH1 0x54 DUP4 ADD MSTORE CHAINID PUSH1 0x74 DUP4 ADD MSTORE PUSH1 0x74 DUP3 MSTORE PUSH1 0xA0 DUP3 ADD SWAP1 DUP3 DUP3 LT SWAP1 DUP3 GT OR PUSH2 0x2637 JUMPI PUSH1 0x40 MSTORE MLOAD SWAP1 KECCAK256 PUSH28 0xCA2BA3432B932BAB69029B4B3B732B21026B2B9B9B0B3B29D051999 PUSH1 0x21 SHL PUSH0 MSTORE PUSH1 0x1C MSTORE PUSH2 0x243A PUSH2 0x2431 PUSH1 0x3C PUSH0 KECCAK256 PUSH2 0x242B CALLDATASIZE DUP6 DUP9 PUSH2 0x27BF JUMP JUMPDEST SWAP1 PUSH2 0x291E JUMP JUMPDEST SWAP1 SWAP3 SWAP2 SWAP3 PUSH2 0x2958 JUMP JUMPDEST DUP5 DUP1 PUSH1 0x3 SLOAD AND SWAP2 AND SUB PUSH2 0x2625 JUMPI PUSH1 0x3 SWAP3 PUSH2 0x2455 SWAP2 CALLDATASIZE SWAP2 PUSH2 0x27BF JUMP JUMPDEST DUP6 DUP2 MLOAD SWAP2 ADD KECCAK256 PUSH0 MSTORE PUSH1 0xD DUP6 MSTORE PUSH2 0x247C PUSH1 0x40 PUSH0 KECCAK256 SWAP2 PUSH1 0xFF NOT SWAP3 PUSH1 0x1 DUP5 DUP3 SLOAD AND OR SWAP1 SSTORE DUP8 PUSH2 0x2804 JUMP JUMPDEST DUP6 SLOAD AND OR DUP5 SSTORE TIMESTAMP PUSH1 0x7 DUP4 ADD SSTORE DUP2 SLOAD DUP2 AND DUP7 DUP2 EQ SWAP8 SWAP1 DUP9 ISZERO PUSH2 0x261F JUMPI POP DUP2 PUSH1 0x1 DUP5 ADD SLOAD AND SWAP8 JUMPDEST ISZERO PUSH2 0x2614 JUMPI PUSH1 0x2 DUP4 ADD SLOAD SWAP5 JUMPDEST DUP3 PUSH1 0x5 SLOAD AND SWAP6 DUP7 EXTCODESIZE ISZERO PUSH2 0xC92 JUMPI PUSH1 0x40 MLOAD PUSH0 DUP2 PUSH1 0x44 DUP2 DUP4 PUSH4 0x28A37507 PUSH1 0xE1 SHL SWAP13 DUP14 DUP4 MSTORE DUP8 PUSH1 0x4 DUP5 ADD MSTORE PUSH1 0x64 DUP11 DUP5 ADD MSTORE GAS CALL SWAP1 DUP2 PUSH2 0x2605 JUMPI JUMPDEST POP PUSH2 0x25FF JUMPI PUSH0 DUP1 MLOAD PUSH1 0x20 PUSH2 0x2A80 DUP4 CODECOPY DUP2 MLOAD SWAP2 MSTORE DUP7 PUSH1 0x40 MLOAD PUSH1 0x64 DUP2 MSTORE LOG2 JUMPDEST DUP4 SLOAD SWAP9 DUP4 AND SWAP9 DUP4 AND DUP10 SUB PUSH2 0x25F5 JUMPI PUSH1 0x2 DUP5 ADD SLOAD JUMPDEST DUP4 PUSH1 0x5 SLOAD AND DUP1 EXTCODESIZE ISZERO PUSH2 0xC92 JUMPI PUSH0 DUP6 SWAP5 PUSH1 0x44 PUSH1 0xC SWAP11 DUP4 PUSH1 0x1E SWAP6 PUSH1 0x40 MLOAD SWAP7 DUP8 SWAP6 DUP7 SWAP5 DUP6 MSTORE DUP10 PUSH1 0x4 DUP7 ADD MSTORE DUP5 ADD MSTORE GAS CALL SWAP1 DUP2 PUSH2 0x25E6 JUMPI JUMPDEST POP PUSH2 0x25E0 JUMPI PUSH0 DUP1 MLOAD PUSH1 0x20 PUSH2 0x2A80 DUP4 CODECOPY DUP2 MLOAD SWAP2 MSTORE DUP7 PUSH1 0x40 MLOAD PUSH1 0x1E DUP2 MSTORE LOG2 JUMPDEST SLOAD PUSH1 0x8 SHR AND SWAP2 DUP2 DUP2 SLOAD AND DUP1 SWAP4 EQ SWAP3 DUP4 PUSH0 EQ PUSH2 0x25DA JUMPI POP DUP2 PUSH1 0x1 DUP3 ADD SLOAD AND SWAP3 JUMPDEST ISZERO PUSH2 0x25D0 JUMPI PUSH1 0x3 ADD SLOAD SWAP2 JUMPDEST AND PUSH0 MSTORE PUSH1 0xB DUP3 MSTORE PUSH0 PUSH1 0x40 DUP2 KECCAK256 SSTORE PUSH0 MSTORE MSTORE PUSH0 PUSH1 0x40 DUP2 KECCAK256 SSTORE PUSH32 0x3B3B5126E644EA297563595413600AB9DCD3D089CBFB03E7FAEDECDA6CCF3C76 PUSH0 DUP1 LOG4 PUSH1 0x1 DUP1 SSTORE STOP JUMPDEST PUSH1 0x2 ADD SLOAD SWAP2 PUSH2 0x2590 JUMP JUMPDEST SWAP3 PUSH2 0x2585 JUMP JUMPDEST POP PUSH2 0x2566 JUMP JUMPDEST PUSH2 0x25EF SWAP1 PUSH2 0x2789 JUMP JUMPDEST DUP12 PUSH2 0x2549 JUMP JUMPDEST PUSH1 0x3 DUP5 ADD SLOAD PUSH2 0x2515 JUMP JUMPDEST POP PUSH2 0x2501 JUMP JUMPDEST PUSH2 0x260E SWAP1 PUSH2 0x2789 JUMP JUMPDEST DUP12 PUSH2 0x24E4 JUMP JUMPDEST PUSH1 0x3 DUP4 ADD SLOAD SWAP5 PUSH2 0x24AD JUMP JUMPDEST SWAP8 PUSH2 0x24A1 JUMP JUMPDEST PUSH1 0x40 MLOAD PUSH4 0x8BAA579F PUSH1 0xE0 SHL DUP2 MSTORE PUSH1 0x4 SWAP1 REVERT JUMPDEST DUP13 PUSH4 0x4E487B71 PUSH1 0xE0 SHL PUSH0 MSTORE PUSH1 0x41 PUSH1 0x4 MSTORE PUSH0 REVERT JUMPDEST PUSH1 0x40 MLOAD PUSH4 0x900BB2C9 PUSH1 0xE0 SHL DUP2 MSTORE PUSH1 0x4 SWAP1 REVERT JUMPDEST PUSH1 0x40 MLOAD PUSH4 0x819BDCD PUSH1 0xE0 SHL DUP2 MSTORE PUSH1 0x4 SWAP1 REVERT JUMPDEST DUP13 PUSH4 0x4E487B71 PUSH1 0xE0 SHL PUSH0 MSTORE PUSH1 0x11 PUSH1 0x4 MSTORE PUSH0 REVERT JUMPDEST PUSH1 0x40 MLOAD PUSH4 0x93A5F3C7 PUSH1 0xE0 SHL DUP2 MSTORE PUSH1 0x4 SWAP1 REVERT JUMPDEST POP DUP6 PUSH1 0x1 DUP9 ADD SLOAD AND DUP12 EQ ISZERO PUSH2 0x2374 JUMP JUMPDEST PUSH1 0x40 MLOAD PUSH4 0xB78EA157 PUSH1 0xE0 SHL DUP2 MSTORE PUSH1 0x4 SWAP1 REVERT JUMPDEST DUP13 PUSH4 0x4E487B71 PUSH1 0xE0 SHL PUSH0 MSTORE PUSH1 0x21 PUSH1 0x4 MSTORE PUSH0 REVERT JUMPDEST CALLVALUE PUSH2 0xC92 JUMPI PUSH1 0x20 CALLDATASIZE PUSH1 0x3 NOT ADD SLT PUSH2 0xC92 JUMPI PUSH1 0x4 CALLDATALOAD PUSH0 MSTORE PUSH1 0xF PUSH1 0x20 MSTORE PUSH1 0x20 PUSH1 0x40 PUSH0 KECCAK256 SLOAD PUSH1 0x40 MLOAD SWAP1 DUP2 MSTORE RETURN JUMPDEST CALLVALUE PUSH2 0xC92 JUMPI PUSH0 CALLDATASIZE PUSH1 0x3 NOT ADD SLT PUSH2 0xC92 JUMPI PUSH1 0x20 PUSH1 0x40 MLOAD PUSH2 0x258 DUP2 MSTORE RETURN JUMPDEST CALLVALUE PUSH2 0xC92 JUMPI PUSH0 CALLDATASIZE PUSH1 0x3 NOT ADD SLT PUSH2 0xC92 JUMPI DUP1 PUSH1 0x64 PUSH1 0x20 SWAP3 MSTORE RETURN JUMPDEST PUSH1 0x4 CALLDATALOAD SWAP1 PUSH1 0x1 PUSH1 0x1 PUSH1 0xA0 SHL SUB DUP3 AND DUP3 SUB PUSH2 0xC92 JUMPI JUMP JUMPDEST SWAP1 PUSH1 0x6 DUP3 LT ISZERO PUSH2 0x1A92 JUMPI MSTORE JUMP JUMPDEST PUSH1 0x40 SWAP1 PUSH1 0x3 NOT ADD SLT PUSH2 0xC92 JUMPI PUSH1 0x4 CALLDATALOAD SWAP1 PUSH1 0x24 CALLDATALOAD SWAP1 JUMP JUMPDEST SWAP2 SWAP1 DUP3 SUB SWAP2 DUP3 GT PUSH2 0x890 JUMPI JUMP JUMPDEST PUSH2 0x140 DUP2 ADD SWAP1 DUP2 LT PUSH1 0x1 PUSH1 0x1 PUSH1 0x40 SHL SUB DUP3 GT OR PUSH2 0xC9D JUMPI PUSH1 0x40 MSTORE JUMP JUMPDEST PUSH1 0x1 PUSH1 0x1 PUSH1 0x40 SHL SUB DUP2 GT PUSH2 0xC9D JUMPI PUSH1 0x40 MSTORE JUMP JUMPDEST PUSH1 0x1F SWAP1 SWAP2 ADD PUSH1 0x1F NOT AND DUP2 ADD SWAP1 PUSH1 0x1 PUSH1 0x1 PUSH1 0x40 SHL SUB DUP3 GT SWAP1 DUP3 LT OR PUSH2 0xC9D JUMPI PUSH1 0x40 MSTORE JUMP JUMPDEST SWAP2 SWAP3 SWAP2 PUSH1 0x1 PUSH1 0x1 PUSH1 0x40 SHL SUB DUP3 GT PUSH2 0xC9D JUMPI PUSH1 0x40 MLOAD SWAP2 PUSH2 0x27E8 PUSH1 0x1F DUP3 ADD PUSH1 0x1F NOT AND PUSH1 0x20 ADD DUP5 PUSH2 0x279C JUMP JUMPDEST DUP3 SWAP5 DUP2 DUP5 MSTORE DUP2 DUP4 ADD GT PUSH2 0xC92 JUMPI DUP3 DUP2 PUSH1 0x20 SWAP4 DUP5 PUSH0 SWAP7 ADD CALLDATACOPY ADD ADD MSTORE JUMP JUMPDEST DUP1 SLOAD PUSH2 0x100 PUSH1 0x1 PUSH1 0xA8 SHL SUB NOT AND PUSH1 0x8 SWAP3 SWAP1 SWAP3 SHL PUSH2 0x100 PUSH1 0x1 PUSH1 0xA8 SHL SUB AND SWAP2 SWAP1 SWAP2 OR SWAP1 SSTORE JUMP JUMPDEST SWAP1 DUP2 PUSH1 0x20 SWAP2 SUB SLT PUSH2 0xC92 JUMPI MLOAD PUSH1 0x1 PUSH1 0x1 PUSH1 0xA0 SHL SUB DUP2 AND DUP2 SUB PUSH2 0xC92 JUMPI SWAP1 JUMP JUMPDEST PUSH1 0x1 PUSH1 0x1 PUSH1 0xA0 SHL SUB SWAP1 SWAP2 AND DUP2 MSTORE PUSH1 0x20 DUP2 ADD SWAP2 SWAP1 SWAP2 MSTORE PUSH1 0x40 ADD SWAP1 JUMP JUMPDEST SWAP1 DUP2 PUSH1 0x20 SWAP2 SUB SLT PUSH2 0xC92 JUMPI MLOAD DUP1 ISZERO ISZERO DUP2 SUB PUSH2 0xC92 JUMPI SWAP1 JUMP JUMPDEST PUSH1 0x1 PUSH1 0x1 PUSH1 0xA0 SHL SUB SWAP2 DUP3 AND DUP2 MSTORE SWAP2 AND PUSH1 0x20 DUP3 ADD MSTORE PUSH1 0x40 DUP2 ADD SWAP2 SWAP1 SWAP2 MSTORE PUSH1 0x60 ADD SWAP1 JUMP JUMPDEST DUP2 DUP2 MUL SWAP3 SWAP2 DUP2 ISZERO SWAP2 DUP5 DIV EQ OR ISZERO PUSH2 0x890 JUMPI JUMP JUMPDEST PUSH1 0x2 PUSH1 0x1 SLOAD EQ PUSH2 0x28C1 JUMPI PUSH1 0x2 PUSH1 0x1 SSTORE JUMP JUMPDEST PUSH1 0x40 MLOAD PUSH4 0x3EE5AEB5 PUSH1 0xE0 SHL DUP2 MSTORE PUSH1 0x4 SWAP1 REVERT JUMPDEST PUSH0 SLOAD PUSH1 0x1 PUSH1 0x1 PUSH1 0xA0 SHL SUB AND CALLER SUB PUSH2 0x28E6 JUMPI JUMP JUMPDEST PUSH1 0x40 MLOAD PUSH4 0x118CDAA7 PUSH1 0xE0 SHL DUP2 MSTORE CALLER PUSH1 0x4 DUP3 ADD MSTORE PUSH1 0x24 SWAP1 REVERT JUMPDEST PUSH1 0xFF PUSH0 SLOAD PUSH1 0xA0 SHR AND PUSH2 0x290C JUMPI JUMP JUMPDEST PUSH1 0x40 MLOAD PUSH4 0xD93C0665 PUSH1 0xE0 SHL DUP2 MSTORE PUSH1 0x4 SWAP1 REVERT JUMPDEST DUP2 MLOAD SWAP2 SWAP1 PUSH1 0x41 DUP4 SUB PUSH2 0x294E JUMPI PUSH2 0x2947 SWAP3 POP PUSH1 0x20 DUP3 ADD MLOAD SWAP1 PUSH1 0x60 PUSH1 0x40 DUP5 ADD MLOAD SWAP4 ADD MLOAD PUSH0 BYTE SWAP1 PUSH2 0x29C7 JUMP JUMPDEST SWAP2 SWAP3 SWAP1 SWAP2 SWAP1 JUMP JUMPDEST POP POP PUSH0 SWAP2 PUSH1 0x2 SWAP2 SWAP1 JUMP JUMPDEST PUSH1 0x4 DUP2 LT ISZERO PUSH2 0x1A92 JUMPI DUP1 PUSH2 0x296A JUMPI POP POP JUMP JUMPDEST PUSH1 0x1 DUP2 SUB PUSH2 0x2984 JUMPI PUSH1 0x40 MLOAD PUSH4 0xF645EEDF PUSH1 0xE0 SHL DUP2 MSTORE PUSH1 0x4 SWAP1 REVERT JUMPDEST PUSH1 0x2 DUP2 SUB PUSH2 0x29A5 JUMPI PUSH1 0x40 MLOAD PUSH4 0xFCE698F7 PUSH1 0xE0 SHL DUP2 MSTORE PUSH1 0x4 DUP2 ADD DUP4 SWAP1 MSTORE PUSH1 0x24 SWAP1 REVERT JUMPDEST PUSH1 0x3 EQ PUSH2 0x29AF JUMPI POP JUMP JUMPDEST PUSH1 0x24 SWAP1 PUSH1 0x40 MLOAD SWAP1 PUSH4 0x35E2F383 PUSH1 0xE2 SHL DUP3 MSTORE PUSH1 0x4 DUP3 ADD MSTORE REVERT JUMPDEST SWAP2 SWAP1 PUSH16 0xA2A8918CA85BAFE22016D0B997E4DF60 PUSH1 0x1 PUSH1 0xFF SHL SUB DUP5 GT PUSH2 0x2A34 JUMPI SWAP2 PUSH1 0x20 SWAP4 PUSH1 0x80 SWAP3 PUSH1 0xFF PUSH0 SWAP6 PUSH1 0x40 MLOAD SWAP5 DUP6 MSTORE AND DUP7 DUP5 ADD MSTORE PUSH1 0x40 DUP4 ADD MSTORE PUSH1 0x60 DUP3 ADD MSTORE DUP3 DUP1 MSTORE PUSH1 0x1 GAS STATICCALL ISZERO PUSH2 0x1A68 JUMPI PUSH0 MLOAD PUSH1 0x1 PUSH1 0x1 PUSH1 0xA0 SHL SUB DUP2 AND ISZERO PUSH2 0x2A2A JUMPI SWAP1 PUSH0 SWAP1 PUSH0 SWAP1 JUMP JUMPDEST POP PUSH0 SWAP1 PUSH1 0x1 SWAP1 PUSH0 SWAP1 JUMP JUMPDEST POP POP POP PUSH0 SWAP2 PUSH1 0x3 SWAP2 SWAP1 JUMP INVALID SWAP5 SWAP9 SMOD 0xB4 PUSH13 0x14A57084ED9F902241D002578 0xF8 GASPRICE 0xE6 PUSH1 0x1 SAR CODECOPY 0xEC 0xB1 DUP3 TIMESTAMP 0xE7 DUP14 MULMOD DUP12 0xE0 SMOD SWAP13 MSTORE8 AND MSIZE EQ SGT PREVRANDAO 0xCD 0x1F 0xD0 LOG4 CALLCODE DUP5 NOT BLOBHASH PUSH32 0x9722A3DAAFE3B4186F6B6457E017FE5EFA39289E1D4E3BEB20A5412E13015B71 PUSH17 0x122C1D7BB4CFBE171AF7F30CA264697066 PUSH20 0x58221220AF77F65193B3FFD62E19A3F4DD4344FE DUP2 0xF7 0xAF MSTORE SIGNEXTEND COINBASE PUSH21 0xF772F3F1101374887064736F6C6343000818003300 "},"methodIdentifiers":{"BPS_DENOMINATOR()":"e1a45218","CANCEL_FEE_BPS()":"04136546","CANCEL_LOCKOUT()":"5a254085","CLAIM_TIMEOUT()":"f5f5dd41","HOST_TIMEOUT()":"043c4f39","PLATFORM_FEE_BPS()":"539aa77f","TIMELOCK_DURATION()":"4623c81e","airdropVault()":"32c90099","battleNonce()":"24c07058","battles(bytes32)":"78547e6c","calculateWinnings(uint256)":"a2e279eb","cancelBackendChange()":"ee4b2907","cancelBattle(bytes32)":"803da9c3","claimHostTimeout(bytes32)":"7ffade17","claimWinnings(bytes32)":"e49b606c","createBattle(uint256,uint256)":"df73c49f","creatureContract()":"6cbc16ef","creatureInBattle(uint256)":"6f5d938a","emergencyRefund(bytes32)":"d92e0af2","executeBackendChange()":"86ac85b4","getBattle(bytes32)":"43cc2213","getPlayerBattle(address)":"846e5376","guestLockedStake(bytes32)":"1596c6cd","hostLockedStake(bytes32)":"8db16d7d","isInBattle(address)":"57a4f251","joinBattle(bytes32,uint256)":"516f9cf3","maxStake()":"ea1b28e0","minStake()":"375b3c0a","owner()":"8da5cb5b","pause()":"8456cb59","paused()":"5c975abb","pendingBackend()":"719a5c99","pendingBackendTime()":"824ac88a","proposeBackend(address)":"f25947bc","renounceOwnership()":"715018a6","resolveBattle(bytes32,address,uint256,bytes)":"190f771e","setAirdropVault(address)":"91507bdb","setCreatureContract(address)":"95afd656","setStakeLimits(uint256,uint256)":"8c9bd1b5","setTreasury(address)":"f0f44260","setWinBoost(uint256)":"ba611917","setWinBoostWallet(address)":"4b4ad96f","stakeToken()":"51ed6a30","transferOwnership(address)":"f2fde38b","treasury()":"61d027b3","trustedBackend()":"e4beb87f","unpause()":"3f4ba83a","usedSignatures(bytes32)":"f978fd61","walletInBattle(address)":"b8912c17","winBoostBPS()":"ae48180a","winBoostWallet()":"4da90fec"}}}}}