{
  "_format": "hh3-artifact-1",
  "contractName": "GameConfig",
  "sourceName": "src/GameConfig.sol",
  "abi": [
    {
      "inputs": [],
      "stateMutability": "nonpayable",
      "type": "constructor"
    },
    {
      "inputs": [],
      "name": "EnforcedPause",
      "type": "error"
    },
    {
      "inputs": [],
      "name": "ExpectedPause",
      "type": "error"
    },
    {
      "inputs": [],
      "name": "InvalidTreasuryAddress",
      "type": "error"
    },
    {
      "inputs": [],
      "name": "MultiplierMustBePositive",
      "type": "error"
    },
    {
      "inputs": [
        {
          "internalType": "address",
          "name": "owner",
          "type": "address"
        }
      ],
      "name": "OwnableInvalidOwner",
      "type": "error"
    },
    {
      "inputs": [
        {
          "internalType": "address",
          "name": "account",
          "type": "address"
        }
      ],
      "name": "OwnableUnauthorizedAccount",
      "type": "error"
    },
    {
      "inputs": [],
      "name": "RegenPercentTooHigh",
      "type": "error"
    },
    {
      "anonymous": false,
      "inputs": [
        {
          "indexed": false,
          "internalType": "uint256",
          "name": "dgne",
          "type": "uint256"
        },
        {
          "indexed": false,
          "internalType": "uint256",
          "name": "rmrk",
          "type": "uint256"
        },
        {
          "indexed": false,
          "internalType": "uint256",
          "name": "reward",
          "type": "uint256"
        }
      ],
      "name": "BattleCostsUpdated",
      "type": "event"
    },
    {
      "anonymous": false,
      "inputs": [
        {
          "indexed": false,
          "internalType": "string",
          "name": "name",
          "type": "string"
        },
        {
          "indexed": false,
          "internalType": "address",
          "name": "addr",
          "type": "address"
        }
      ],
      "name": "ContractAddressUpdated",
      "type": "event"
    },
    {
      "anonymous": false,
      "inputs": [
        {
          "indexed": false,
          "internalType": "uint256",
          "name": "costPerHP",
          "type": "uint256"
        },
        {
          "indexed": false,
          "internalType": "uint256",
          "name": "regenPercent",
          "type": "uint256"
        }
      ],
      "name": "HealingParamsUpdated",
      "type": "event"
    },
    {
      "anonymous": false,
      "inputs": [
        {
          "indexed": false,
          "internalType": "uint256",
          "name": "dgne",
          "type": "uint256"
        },
        {
          "indexed": false,
          "internalType": "uint256",
          "name": "rmrk",
          "type": "uint256"
        }
      ],
      "name": "MintCostsUpdated",
      "type": "event"
    },
    {
      "anonymous": false,
      "inputs": [
        {
          "indexed": true,
          "internalType": "address",
          "name": "previousOwner",
          "type": "address"
        },
        {
          "indexed": true,
          "internalType": "address",
          "name": "newOwner",
          "type": "address"
        }
      ],
      "name": "OwnershipTransferred",
      "type": "event"
    },
    {
      "anonymous": false,
      "inputs": [
        {
          "indexed": false,
          "internalType": "address",
          "name": "account",
          "type": "address"
        }
      ],
      "name": "Paused",
      "type": "event"
    },
    {
      "anonymous": false,
      "inputs": [
        {
          "indexed": false,
          "internalType": "uint256",
          "name": "baseRate",
          "type": "uint256"
        },
        {
          "indexed": false,
          "internalType": "uint256",
          "name": "multiplier",
          "type": "uint256"
        }
      ],
      "name": "StakingParamsUpdated",
      "type": "event"
    },
    {
      "anonymous": false,
      "inputs": [
        {
          "indexed": false,
          "internalType": "address",
          "name": "account",
          "type": "address"
        }
      ],
      "name": "Unpaused",
      "type": "event"
    },
    {
      "inputs": [],
      "name": "battleCostDGNE",
      "outputs": [
        {
          "internalType": "uint256",
          "name": "",
          "type": "uint256"
        }
      ],
      "stateMutability": "view",
      "type": "function"
    },
    {
      "inputs": [],
      "name": "battleCostRMRK",
      "outputs": [
        {
          "internalType": "uint256",
          "name": "",
          "type": "uint256"
        }
      ],
      "stateMutability": "view",
      "type": "function"
    },
    {
      "inputs": [],
      "name": "battleGate",
      "outputs": [
        {
          "internalType": "address",
          "name": "",
          "type": "address"
        }
      ],
      "stateMutability": "view",
      "type": "function"
    },
    {
      "inputs": [],
      "name": "battleRewardDGNE",
      "outputs": [
        {
          "internalType": "uint256",
          "name": "",
          "type": "uint256"
        }
      ],
      "stateMutability": "view",
      "type": "function"
    },
    {
      "inputs": [],
      "name": "creatureContract",
      "outputs": [
        {
          "internalType": "address",
          "name": "",
          "type": "address"
        }
      ],
      "stateMutability": "view",
      "type": "function"
    },
    {
      "inputs": [],
      "name": "dragonToken",
      "outputs": [
        {
          "internalType": "address",
          "name": "",
          "type": "address"
        }
      ],
      "stateMutability": "view",
      "type": "function"
    },
    {
      "inputs": [
        {
          "internalType": "uint256",
          "name": "maxHP",
          "type": "uint256"
        },
        {
          "internalType": "uint256",
          "name": "hoursElapsed",
          "type": "uint256"
        }
      ],
      "name": "getHPRegen",
      "outputs": [
        {
          "internalType": "uint256",
          "name": "",
          "type": "uint256"
        }
      ],
      "stateMutability": "view",
      "type": "function"
    },
    {
      "inputs": [
        {
          "internalType": "uint256",
          "name": "hpToHeal",
          "type": "uint256"
        }
      ],
      "name": "getHealCost",
      "outputs": [
        {
          "internalType": "uint256",
          "name": "",
          "type": "uint256"
        }
      ],
      "stateMutability": "view",
      "type": "function"
    },
    {
      "inputs": [
        {
          "internalType": "uint8",
          "name": "talent",
          "type": "uint8"
        }
      ],
      "name": "getStakingRate",
      "outputs": [
        {
          "internalType": "uint256",
          "name": "",
          "type": "uint256"
        }
      ],
      "stateMutability": "view",
      "type": "function"
    },
    {
      "inputs": [],
      "name": "healCostPerHP",
      "outputs": [
        {
          "internalType": "uint256",
          "name": "",
          "type": "uint256"
        }
      ],
      "stateMutability": "view",
      "type": "function"
    },
    {
      "inputs": [],
      "name": "mintCostDGNE",
      "outputs": [
        {
          "internalType": "uint256",
          "name": "",
          "type": "uint256"
        }
      ],
      "stateMutability": "view",
      "type": "function"
    },
    {
      "inputs": [],
      "name": "mintCostRMRK",
      "outputs": [
        {
          "internalType": "uint256",
          "name": "",
          "type": "uint256"
        }
      ],
      "stateMutability": "view",
      "type": "function"
    },
    {
      "inputs": [],
      "name": "mintTreasury",
      "outputs": [
        {
          "internalType": "address",
          "name": "",
          "type": "address"
        }
      ],
      "stateMutability": "view",
      "type": "function"
    },
    {
      "inputs": [],
      "name": "owner",
      "outputs": [
        {
          "internalType": "address",
          "name": "",
          "type": "address"
        }
      ],
      "stateMutability": "view",
      "type": "function"
    },
    {
      "inputs": [],
      "name": "pause",
      "outputs": [],
      "stateMutability": "nonpayable",
      "type": "function"
    },
    {
      "inputs": [],
      "name": "paused",
      "outputs": [
        {
          "internalType": "bool",
          "name": "",
          "type": "bool"
        }
      ],
      "stateMutability": "view",
      "type": "function"
    },
    {
      "inputs": [],
      "name": "regenPercentPerHour",
      "outputs": [
        {
          "internalType": "uint256",
          "name": "",
          "type": "uint256"
        }
      ],
      "stateMutability": "view",
      "type": "function"
    },
    {
      "inputs": [],
      "name": "renounceOwnership",
      "outputs": [],
      "stateMutability": "nonpayable",
      "type": "function"
    },
    {
      "inputs": [],
      "name": "rmrkToken",
      "outputs": [
        {
          "internalType": "address",
          "name": "",
          "type": "address"
        }
      ],
      "stateMutability": "view",
      "type": "function"
    },
    {
      "inputs": [
        {
          "internalType": "uint256",
          "name": "_dgne",
          "type": "uint256"
        },
        {
          "internalType": "uint256",
          "name": "_rmrk",
          "type": "uint256"
        },
        {
          "internalType": "uint256",
          "name": "_reward",
          "type": "uint256"
        }
      ],
      "name": "setBattleCosts",
      "outputs": [],
      "stateMutability": "nonpayable",
      "type": "function"
    },
    {
      "inputs": [
        {
          "internalType": "address",
          "name": "_addr",
          "type": "address"
        }
      ],
      "name": "setBattleGate",
      "outputs": [],
      "stateMutability": "nonpayable",
      "type": "function"
    },
    {
      "inputs": [
        {
          "internalType": "address",
          "name": "_addr",
          "type": "address"
        }
      ],
      "name": "setCreatureContract",
      "outputs": [],
      "stateMutability": "nonpayable",
      "type": "function"
    },
    {
      "inputs": [
        {
          "internalType": "address",
          "name": "_addr",
          "type": "address"
        }
      ],
      "name": "setDragonToken",
      "outputs": [],
      "stateMutability": "nonpayable",
      "type": "function"
    },
    {
      "inputs": [
        {
          "internalType": "uint256",
          "name": "_costPerHP",
          "type": "uint256"
        },
        {
          "internalType": "uint256",
          "name": "_regenPercent",
          "type": "uint256"
        }
      ],
      "name": "setHealingParams",
      "outputs": [],
      "stateMutability": "nonpayable",
      "type": "function"
    },
    {
      "inputs": [
        {
          "internalType": "uint256",
          "name": "_mintCost",
          "type": "uint256"
        },
        {
          "internalType": "uint256",
          "name": "_skipCost",
          "type": "uint256"
        },
        {
          "internalType": "uint256",
          "name": "_rmrk",
          "type": "uint256"
        }
      ],
      "name": "setMintCosts",
      "outputs": [],
      "stateMutability": "nonpayable",
      "type": "function"
    },
    {
      "inputs": [
        {
          "internalType": "address",
          "name": "_treasury",
          "type": "address"
        }
      ],
      "name": "setMintTreasury",
      "outputs": [],
      "stateMutability": "nonpayable",
      "type": "function"
    },
    {
      "inputs": [
        {
          "internalType": "address",
          "name": "_addr",
          "type": "address"
        }
      ],
      "name": "setRmrkToken",
      "outputs": [],
      "stateMutability": "nonpayable",
      "type": "function"
    },
    {
      "inputs": [
        {
          "internalType": "address",
          "name": "_addr",
          "type": "address"
        }
      ],
      "name": "setStakingContract",
      "outputs": [],
      "stateMutability": "nonpayable",
      "type": "function"
    },
    {
      "inputs": [
        {
          "internalType": "uint256",
          "name": "_baseRate",
          "type": "uint256"
        },
        {
          "internalType": "uint256",
          "name": "_multiplier",
          "type": "uint256"
        }
      ],
      "name": "setStakingParams",
      "outputs": [],
      "stateMutability": "nonpayable",
      "type": "function"
    },
    {
      "inputs": [],
      "name": "skipCostDGNE",
      "outputs": [
        {
          "internalType": "uint256",
          "name": "",
          "type": "uint256"
        }
      ],
      "stateMutability": "view",
      "type": "function"
    },
    {
      "inputs": [],
      "name": "stakingBaseRate",
      "outputs": [
        {
          "internalType": "uint256",
          "name": "",
          "type": "uint256"
        }
      ],
      "stateMutability": "view",
      "type": "function"
    },
    {
      "inputs": [],
      "name": "stakingContract",
      "outputs": [
        {
          "internalType": "address",
          "name": "",
          "type": "address"
        }
      ],
      "stateMutability": "view",
      "type": "function"
    },
    {
      "inputs": [],
      "name": "talentMultiplier",
      "outputs": [
        {
          "internalType": "uint256",
          "name": "",
          "type": "uint256"
        }
      ],
      "stateMutability": "view",
      "type": "function"
    },
    {
      "inputs": [
        {
          "internalType": "address",
          "name": "newOwner",
          "type": "address"
        }
      ],
      "name": "transferOwnership",
      "outputs": [],
      "stateMutability": "nonpayable",
      "type": "function"
    },
    {
      "inputs": [],
      "name": "unpause",
      "outputs": [],
      "stateMutability": "nonpayable",
      "type": "function"
    }
  ],
  "bytecode": "0x608080604052346100dc5733156100c7575f8054336001600160a01b03198216811783556040519290916001600160a01b0316907f8be0079c531659141344cd1fd0a4f28419497f9722a3daafe3b4186f6b6457e09080a3674563918244f40000600155670de0b6b3a7640000600255676f05b59d3b200000600355683635c9adc5dea0000060045568056bc75e2d63100000600555678ac7230489e8000080600655600855606460095567016345785d8a0000600a556005600b55610be590816100e18239f35b631e4fbdf760e01b81525f6004820152602490fd5b5f80fdfe6080604081815260049182361015610015575f80fd5b5f3560e01c9081630e42323b14610aca5750806310c8181514610aac57806314ffa85d14610a845780631c6fd22214610a135780631cdc5232146109f55780631e0d6eea146109a45780632a64edce146109865780633abd06511461095e5780633f4ba83a146108f1578063430a83121461089757806343c5df531461081b578063576deb1d146107fd5780635c975abb146107d85780636cbc16ef146107b05780636ccaafba1461076b578063715018a6146107275780637e227f4b146106965780638456cb59146106245780638da5cb5b146105fd57806393cf7abc146105d457806395afd65614610553578063971dab80146105375780639dd373b9146104bc5780639dea6f9714610458578063a87b6e121461043a578063abc508b31461041c578063b12b0d9e146103a2578063ced4ceb914610384578063d03db08914610366578063d412d71914610348578063db1e4ab2146102cd578063ddcd79b814610267578063e3e350621461023f578063ee99205c146102175763f2fde38b146101a0575f80fd5b34610213576020366003190112610213576001600160a01b03823581811693919290849003610213576101d1610b44565b83156101fd5750505f548260018060a01b03198216175f55165f80516020610b908339815191525f80a3005b905f6024925191631e4fbdf760e01b8352820152fd5b5f80fd5b5034610213575f36600319011261021357600f5490516001600160a01b039091168152602090f35b5034610213575f3660031901126102135760075490516001600160a01b039091168152602090f35b50346102135761027636610b07565b61027e610b44565b606481116102be577f929aa5fbc5af73715b32bcf907f09be6ddf346f97acc57a5049e42bce228797a935081600a5580600b5582519182526020820152a1005b50505163467a952f60e01b8152fd5b50903461021357602036600319011261021357356001600160a01b03811690819003610213575f80516020610b708339815191529160809161030d610b44565b601080546001600160a01b031916821790558151828152600a9281019290925269626174746c654761746560b01b60608301526020820152a1005b5034610213575f366003190112610213576020906008549051908152f35b5034610213575f366003190112610213576020906001549051908152f35b5034610213575f366003190112610213576020906005549051908152f35b50903461021357602036600319011261021357356001600160a01b03811690819003610213575f80516020610b70833981519152916080916103e2610b44565b600d80546001600160a01b031916821790558151828152600992810192909252683936b935aa37b5b2b760b91b60608301526020820152a1005b5034610213575f36600319011261021357602090600a549051908152f35b5034610213575f366003190112610213576020906002549051908152f35b50346102135761046736610b07565b61046f610b44565b80156104ad577f61f6c4cc9665a257352c0b46189ffc2ae6fbbc11e155ff20901217ff203a517e9350816008558060095582519182526020820152a1005b505051638f27530160e01b8152fd5b50903461021357602036600319011261021357356001600160a01b03811690819003610213575f80516020610b70833981519152916080916104fc610b44565b600f80546001600160a01b031916821781558251838152928301526e1cdd185ada5b99d0dbdb9d1c9858dd608a1b60608301526020820152a1005b5034610213575f36600319011261021357602091549051908152f35b50903461021357602036600319011261021357356001600160a01b03811690819003610213575f80516020610b7083398151915291608091610593610b44565b600e80546001600160a01b0319168217905581518281526010928101929092526f18dc99585d1d5c9950dbdb9d1c9858dd60821b60608301526020820152a1005b5034610213576020366003190112610213576105f6602092600a549035610b1d565b9051908152f35b5034610213575f366003190112610213575f5490516001600160a01b039091168152602090f35b5034610213575f3660031901126102135761063d610b44565b5f549160ff8360a01c166106885760ff60a01b198316600160a01b175f5581513381527f62e78cea01bee320cd4e420270b5ea74000d11b0c9f74754ebdbfc544b05a25890602090a1005b905163d93c066560e01b8152fd5b50346102135760203660031901126102135781356001600160a01b0381169290839003610213576106c5610b44565b821561071957600780546001600160a01b031916841790558151828152600c818401526b6d696e74547265617375727960a01b6060820152602081018490525f80516020610b7083398151915290608090a1005b905163cfe2ea6360e01b8152fd5b34610213575f3660031901126102135761073f610b44565b5f80546001600160a01b0319811682556001600160a01b03165f80516020610b908339815191528280a3005b503461021357602090610796606461078236610b07565b610791600b9492945485610b1d565b610b1d565b04818111156107a85750905b51908152f35b9050906107a2565b5034610213575f36600319011261021357600e5490516001600160a01b039091168152602090f35b5034610213575f3660031901126102135760209060ff5f5460a01c1690519015158152f35b5034610213575f366003190112610213576020906006549051908152f35b50903461021357602036600319011261021357356001600160a01b03811690819003610213575f80516020610b708339815191529160809161085b610b44565b600c80546001600160a01b031916821790558151828152600b928101929092526a323930b3b7b72a37b5b2b760a91b60608301526020820152a1005b50346102135760607f0406bdb1a2cb2047ec3753b3029833a110d31cfd012a3cd56a55fccc6cc5db66916108ca36610aed565b9192906108d5610b44565b83600155806002558260035581519384526020840152820152a1005b5034610213575f3660031901126102135761090a610b44565b5f549160ff8360a01c16156109505760ff60a01b1983165f5581513381527f5db9ee0a495bf2e6ff9c91a7834c1ba4fdd244a5e8aa4e537bd38aeae4b073aa90602090a1005b9051638dfc202b60e01b8152fd5b5034610213575f36600319011261021357600d5490516001600160a01b039091168152602090f35b5034610213575f366003190112610213576020906003549051908152f35b5034610213577f9d3ed135dc28d913338c05114617e647db1079f0cb6877d77ddf3b1f7ca2188d916109d536610aed565b9180936109e0610b44565b556005558060065582519182526020820152a1005b5034610213575f36600319011261021357602090600b549051908152f35b50346102135760203660031901126102135781359060ff821680920361021357610a406008549283610b1d565b600954908115610a7157048201809211610a5e576020925051908152f35b601183634e487b7160e01b5f525260245ffd5b601285634e487b7160e01b5f525260245ffd5b5034610213575f3660031901126102135760105490516001600160a01b039091168152602090f35b5034610213575f366003190112610213576020906009549051908152f35b34610213575f36600319011261021357600c546001600160a01b03168152602090f35b606090600319011261021357600435906024359060443590565b6040906003190112610213576004359060243590565b81810292918115918404141715610b3057565b634e487b7160e01b5f52601160045260245ffd5b5f546001600160a01b03163303610b5757565b60405163118cdaa760e01b8152336004820152602490fdfea42de6429c1410f4470a8ff5afeeae27c734519ac1693e8eb58798a81715c9478be0079c531659141344cd1fd0a4f28419497f9722a3daafe3b4186f6b6457e0a26469706673582212208a11c52c412fe0ae4009cf4059dde4ab33334c067d1880dd142520386314750e64736f6c63430008180033",
  "linkReferences": {},
  "deployedLinkReferences": {},
  "immutableReferences": {},
  "inputSourceName": "project/src/GameConfig.sol",
  "buildInfoId": "solc-0_8_24-131852bb837723ad01ff5b5445a456e497323693"
}