{
  "_format": "hh3-artifact-1",
  "contractName": "BattleGateV2",
  "sourceName": "src/BattleGateV2.sol",
  "abi": [
    {
      "inputs": [
        {
          "internalType": "address",
          "name": "_stakeToken",
          "type": "address"
        },
        {
          "internalType": "address",
          "name": "_trustedBackend",
          "type": "address"
        },
        {
          "internalType": "address",
          "name": "_treasury",
          "type": "address"
        },
        {
          "internalType": "address",
          "name": "_creatureContract",
          "type": "address"
        }
      ],
      "stateMutability": "nonpayable",
      "type": "constructor"
    },
    {
      "inputs": [],
      "name": "AlreadyInBattle",
      "type": "error"
    },
    {
      "inputs": [],
      "name": "BattleExpiredError",
      "type": "error"
    },
    {
      "inputs": [],
      "name": "BattleNotInProgress",
      "type": "error"
    },
    {
      "inputs": [],
      "name": "BattleNotOpen",
      "type": "error"
    },
    {
      "inputs": [],
      "name": "BattleNotResolved",
      "type": "error"
    },
    {
      "inputs": [],
      "name": "CancelLockoutNotPassed",
      "type": "error"
    },
    {
      "inputs": [],
      "name": "CannotCancel",
      "type": "error"
    },
    {
      "inputs": [],
      "name": "CannotJoinOwnBattle",
      "type": "error"
    },
    {
      "inputs": [],
      "name": "CannotRefund",
      "type": "error"
    },
    {
      "inputs": [],
      "name": "CreatureInBattle",
      "type": "error"
    },
    {
      "inputs": [],
      "name": "ECDSAInvalidSignature",
      "type": "error"
    },
    {
      "inputs": [
        {
          "internalType": "uint256",
          "name": "length",
          "type": "uint256"
        }
      ],
      "name": "ECDSAInvalidSignatureLength",
      "type": "error"
    },
    {
      "inputs": [
        {
          "internalType": "bytes32",
          "name": "s",
          "type": "bytes32"
        }
      ],
      "name": "ECDSAInvalidSignatureS",
      "type": "error"
    },
    {
      "inputs": [],
      "name": "EnforcedPause",
      "type": "error"
    },
    {
      "inputs": [],
      "name": "ExpectedPause",
      "type": "error"
    },
    {
      "inputs": [],
      "name": "FeeTransferFailed",
      "type": "error"
    },
    {
      "inputs": [],
      "name": "InvalidSignature",
      "type": "error"
    },
    {
      "inputs": [],
      "name": "InvalidStakeAmount",
      "type": "error"
    },
    {
      "inputs": [],
      "name": "InvalidWinner",
      "type": "error"
    },
    {
      "inputs": [],
      "name": "NotCreatureOwner",
      "type": "error"
    },
    {
      "inputs": [],
      "name": "NotHost",
      "type": "error"
    },
    {
      "inputs": [],
      "name": "NotTheWinner",
      "type": "error"
    },
    {
      "inputs": [
        {
          "internalType": "address",
          "name": "owner",
          "type": "address"
        }
      ],
      "name": "OwnableInvalidOwner",
      "type": "error"
    },
    {
      "inputs": [
        {
          "internalType": "address",
          "name": "account",
          "type": "address"
        }
      ],
      "name": "OwnableUnauthorizedAccount",
      "type": "error"
    },
    {
      "inputs": [],
      "name": "PrizeTransferFailed",
      "type": "error"
    },
    {
      "inputs": [],
      "name": "ReentrancyGuardReentrantCall",
      "type": "error"
    },
    {
      "inputs": [],
      "name": "RefundFailed",
      "type": "error"
    },
    {
      "inputs": [],
      "name": "SignatureAlreadyUsed",
      "type": "error"
    },
    {
      "inputs": [],
      "name": "SignatureExpired",
      "type": "error"
    },
    {
      "inputs": [],
      "name": "StakeTransferFailed",
      "type": "error"
    },
    {
      "inputs": [],
      "name": "TimeoutNotReached",
      "type": "error"
    },
    {
      "anonymous": false,
      "inputs": [
        {
          "indexed": true,
          "internalType": "address",
          "name": "oldVault",
          "type": "address"
        },
        {
          "indexed": true,
          "internalType": "address",
          "name": "newVault",
          "type": "address"
        }
      ],
      "name": "AirdropVaultChanged",
      "type": "event"
    },
    {
      "anonymous": false,
      "inputs": [
        {
          "indexed": true,
          "internalType": "address",
          "name": "oldBackend",
          "type": "address"
        },
        {
          "indexed": true,
          "internalType": "address",
          "name": "newBackend",
          "type": "address"
        }
      ],
      "name": "BackendChanged",
      "type": "event"
    },
    {
      "anonymous": false,
      "inputs": [
        {
          "indexed": true,
          "internalType": "address",
          "name": "newBackend",
          "type": "address"
        },
        {
          "indexed": false,
          "internalType": "uint256",
          "name": "effectiveTime",
          "type": "uint256"
        }
      ],
      "name": "BackendProposed",
      "type": "event"
    },
    {
      "anonymous": false,
      "inputs": [
        {
          "indexed": true,
          "internalType": "bytes32",
          "name": "battleId",
          "type": "bytes32"
        },
        {
          "indexed": true,
          "internalType": "address",
          "name": "host",
          "type": "address"
        }
      ],
      "name": "BattleCancelled",
      "type": "event"
    },
    {
      "anonymous": false,
      "inputs": [
        {
          "indexed": true,
          "internalType": "bytes32",
          "name": "battleId",
          "type": "bytes32"
        },
        {
          "indexed": true,
          "internalType": "address",
          "name": "host",
          "type": "address"
        },
        {
          "indexed": false,
          "internalType": "uint256",
          "name": "creatureId",
          "type": "uint256"
        },
        {
          "indexed": false,
          "internalType": "uint256",
          "name": "stakeAmount",
          "type": "uint256"
        }
      ],
      "name": "BattleCreated",
      "type": "event"
    },
    {
      "anonymous": false,
      "inputs": [
        {
          "indexed": true,
          "internalType": "bytes32",
          "name": "battleId",
          "type": "bytes32"
        },
        {
          "indexed": false,
          "internalType": "string",
          "name": "reason",
          "type": "string"
        }
      ],
      "name": "BattleExpired",
      "type": "event"
    },
    {
      "anonymous": false,
      "inputs": [
        {
          "indexed": true,
          "internalType": "bytes32",
          "name": "battleId",
          "type": "bytes32"
        },
        {
          "indexed": true,
          "internalType": "address",
          "name": "guest",
          "type": "address"
        },
        {
          "indexed": false,
          "internalType": "uint256",
          "name": "creatureId",
          "type": "uint256"
        }
      ],
      "name": "BattleMatched",
      "type": "event"
    },
    {
      "anonymous": false,
      "inputs": [
        {
          "indexed": true,
          "internalType": "bytes32",
          "name": "battleId",
          "type": "bytes32"
        },
        {
          "indexed": true,
          "internalType": "address",
          "name": "winner",
          "type": "address"
        },
        {
          "indexed": true,
          "internalType": "address",
          "name": "loser",
          "type": "address"
        }
      ],
      "name": "BattleResolved",
      "type": "event"
    },
    {
      "anonymous": false,
      "inputs": [
        {
          "indexed": true,
          "internalType": "address",
          "name": "oldContract",
          "type": "address"
        },
        {
          "indexed": true,
          "internalType": "address",
          "name": "newContract",
          "type": "address"
        }
      ],
      "name": "CreatureContractChanged",
      "type": "event"
    },
    {
      "anonymous": false,
      "inputs": [
        {
          "indexed": true,
          "internalType": "address",
          "name": "previousOwner",
          "type": "address"
        },
        {
          "indexed": true,
          "internalType": "address",
          "name": "newOwner",
          "type": "address"
        }
      ],
      "name": "OwnershipTransferred",
      "type": "event"
    },
    {
      "anonymous": false,
      "inputs": [
        {
          "indexed": false,
          "internalType": "address",
          "name": "account",
          "type": "address"
        }
      ],
      "name": "Paused",
      "type": "event"
    },
    {
      "anonymous": false,
      "inputs": [
        {
          "indexed": false,
          "internalType": "uint256",
          "name": "newMin",
          "type": "uint256"
        },
        {
          "indexed": false,
          "internalType": "uint256",
          "name": "newMax",
          "type": "uint256"
        }
      ],
      "name": "StakeLimitsChanged",
      "type": "event"
    },
    {
      "anonymous": false,
      "inputs": [
        {
          "indexed": true,
          "internalType": "address",
          "name": "oldTreasury",
          "type": "address"
        },
        {
          "indexed": true,
          "internalType": "address",
          "name": "newTreasury",
          "type": "address"
        }
      ],
      "name": "TreasuryChanged",
      "type": "event"
    },
    {
      "anonymous": false,
      "inputs": [
        {
          "indexed": false,
          "internalType": "address",
          "name": "account",
          "type": "address"
        }
      ],
      "name": "Unpaused",
      "type": "event"
    },
    {
      "anonymous": false,
      "inputs": [
        {
          "indexed": true,
          "internalType": "bytes32",
          "name": "battleId",
          "type": "bytes32"
        },
        {
          "indexed": true,
          "internalType": "address",
          "name": "winner",
          "type": "address"
        },
        {
          "indexed": false,
          "internalType": "uint256",
          "name": "amount",
          "type": "uint256"
        }
      ],
      "name": "WinningsClaimed",
      "type": "event"
    },
    {
      "anonymous": false,
      "inputs": [
        {
          "indexed": true,
          "internalType": "uint256",
          "name": "creatureId",
          "type": "uint256"
        },
        {
          "indexed": false,
          "internalType": "uint256",
          "name": "amount",
          "type": "uint256"
        }
      ],
      "name": "XPFailed",
      "type": "event"
    },
    {
      "inputs": [],
      "name": "BPS_DENOMINATOR",
      "outputs": [
        {
          "internalType": "uint256",
          "name": "",
          "type": "uint256"
        }
      ],
      "stateMutability": "view",
      "type": "function"
    },
    {
      "inputs": [],
      "name": "CANCEL_FEE_BPS",
      "outputs": [
        {
          "internalType": "uint256",
          "name": "",
          "type": "uint256"
        }
      ],
      "stateMutability": "view",
      "type": "function"
    },
    {
      "inputs": [],
      "name": "CANCEL_LOCKOUT",
      "outputs": [
        {
          "internalType": "uint256",
          "name": "",
          "type": "uint256"
        }
      ],
      "stateMutability": "view",
      "type": "function"
    },
    {
      "inputs": [],
      "name": "CLAIM_TIMEOUT",
      "outputs": [
        {
          "internalType": "uint256",
          "name": "",
          "type": "uint256"
        }
      ],
      "stateMutability": "view",
      "type": "function"
    },
    {
      "inputs": [],
      "name": "HOST_TIMEOUT",
      "outputs": [
        {
          "internalType": "uint256",
          "name": "",
          "type": "uint256"
        }
      ],
      "stateMutability": "view",
      "type": "function"
    },
    {
      "inputs": [],
      "name": "PLATFORM_FEE_BPS",
      "outputs": [
        {
          "internalType": "uint256",
          "name": "",
          "type": "uint256"
        }
      ],
      "stateMutability": "view",
      "type": "function"
    },
    {
      "inputs": [],
      "name": "TIMELOCK_DURATION",
      "outputs": [
        {
          "internalType": "uint256",
          "name": "",
          "type": "uint256"
        }
      ],
      "stateMutability": "view",
      "type": "function"
    },
    {
      "inputs": [],
      "name": "airdropVault",
      "outputs": [
        {
          "internalType": "contract IAirdropVault",
          "name": "",
          "type": "address"
        }
      ],
      "stateMutability": "view",
      "type": "function"
    },
    {
      "inputs": [],
      "name": "battleNonce",
      "outputs": [
        {
          "internalType": "uint256",
          "name": "",
          "type": "uint256"
        }
      ],
      "stateMutability": "view",
      "type": "function"
    },
    {
      "inputs": [
        {
          "internalType": "bytes32",
          "name": "",
          "type": "bytes32"
        }
      ],
      "name": "battles",
      "outputs": [
        {
          "internalType": "address",
          "name": "host",
          "type": "address"
        },
        {
          "internalType": "address",
          "name": "guest",
          "type": "address"
        },
        {
          "internalType": "uint256",
          "name": "hostCreatureId",
          "type": "uint256"
        },
        {
          "internalType": "uint256",
          "name": "guestCreatureId",
          "type": "uint256"
        },
        {
          "internalType": "uint256",
          "name": "stakeAmount",
          "type": "uint256"
        },
        {
          "internalType": "uint256",
          "name": "createdAt",
          "type": "uint256"
        },
        {
          "internalType": "uint256",
          "name": "matchedAt",
          "type": "uint256"
        },
        {
          "internalType": "uint256",
          "name": "resolvedAt",
          "type": "uint256"
        },
        {
          "internalType": "enum BattleGateV2.BattleState",
          "name": "state",
          "type": "uint8"
        },
        {
          "internalType": "address",
          "name": "winner",
          "type": "address"
        }
      ],
      "stateMutability": "view",
      "type": "function"
    },
    {
      "inputs": [],
      "name": "cancelBackendChange",
      "outputs": [],
      "stateMutability": "nonpayable",
      "type": "function"
    },
    {
      "inputs": [
        {
          "internalType": "bytes32",
          "name": "battleId",
          "type": "bytes32"
        }
      ],
      "name": "cancelBattle",
      "outputs": [],
      "stateMutability": "nonpayable",
      "type": "function"
    },
    {
      "inputs": [
        {
          "internalType": "bytes32",
          "name": "battleId",
          "type": "bytes32"
        }
      ],
      "name": "claimHostTimeout",
      "outputs": [],
      "stateMutability": "nonpayable",
      "type": "function"
    },
    {
      "inputs": [
        {
          "internalType": "bytes32",
          "name": "battleId",
          "type": "bytes32"
        }
      ],
      "name": "claimWinnings",
      "outputs": [],
      "stateMutability": "nonpayable",
      "type": "function"
    },
    {
      "inputs": [
        {
          "internalType": "uint256",
          "name": "creatureId",
          "type": "uint256"
        },
        {
          "internalType": "uint256",
          "name": "stakeAmount",
          "type": "uint256"
        }
      ],
      "name": "createBattle",
      "outputs": [
        {
          "internalType": "bytes32",
          "name": "battleId",
          "type": "bytes32"
        }
      ],
      "stateMutability": "nonpayable",
      "type": "function"
    },
    {
      "inputs": [],
      "name": "creatureContract",
      "outputs": [
        {
          "internalType": "address",
          "name": "",
          "type": "address"
        }
      ],
      "stateMutability": "view",
      "type": "function"
    },
    {
      "inputs": [
        {
          "internalType": "uint256",
          "name": "",
          "type": "uint256"
        }
      ],
      "name": "creatureInBattle",
      "outputs": [
        {
          "internalType": "bytes32",
          "name": "",
          "type": "bytes32"
        }
      ],
      "stateMutability": "view",
      "type": "function"
    },
    {
      "inputs": [
        {
          "internalType": "bytes32",
          "name": "battleId",
          "type": "bytes32"
        }
      ],
      "name": "emergencyRefund",
      "outputs": [],
      "stateMutability": "nonpayable",
      "type": "function"
    },
    {
      "inputs": [],
      "name": "executeBackendChange",
      "outputs": [],
      "stateMutability": "nonpayable",
      "type": "function"
    },
    {
      "inputs": [
        {
          "internalType": "bytes32",
          "name": "battleId",
          "type": "bytes32"
        }
      ],
      "name": "getBattle",
      "outputs": [
        {
          "components": [
            {
              "internalType": "address",
              "name": "host",
              "type": "address"
            },
            {
              "internalType": "address",
              "name": "guest",
              "type": "address"
            },
            {
              "internalType": "uint256",
              "name": "hostCreatureId",
              "type": "uint256"
            },
            {
              "internalType": "uint256",
              "name": "guestCreatureId",
              "type": "uint256"
            },
            {
              "internalType": "uint256",
              "name": "stakeAmount",
              "type": "uint256"
            },
            {
              "internalType": "uint256",
              "name": "createdAt",
              "type": "uint256"
            },
            {
              "internalType": "uint256",
              "name": "matchedAt",
              "type": "uint256"
            },
            {
              "internalType": "uint256",
              "name": "resolvedAt",
              "type": "uint256"
            },
            {
              "internalType": "enum BattleGateV2.BattleState",
              "name": "state",
              "type": "uint8"
            },
            {
              "internalType": "address",
              "name": "winner",
              "type": "address"
            }
          ],
          "internalType": "struct BattleGateV2.Battle",
          "name": "",
          "type": "tuple"
        }
      ],
      "stateMutability": "view",
      "type": "function"
    },
    {
      "inputs": [
        {
          "internalType": "address",
          "name": "wallet",
          "type": "address"
        }
      ],
      "name": "getPlayerBattle",
      "outputs": [
        {
          "internalType": "bytes32",
          "name": "",
          "type": "bytes32"
        }
      ],
      "stateMutability": "view",
      "type": "function"
    },
    {
      "inputs": [
        {
          "internalType": "address",
          "name": "wallet",
          "type": "address"
        }
      ],
      "name": "isInBattle",
      "outputs": [
        {
          "internalType": "bool",
          "name": "",
          "type": "bool"
        }
      ],
      "stateMutability": "view",
      "type": "function"
    },
    {
      "inputs": [
        {
          "internalType": "bytes32",
          "name": "battleId",
          "type": "bytes32"
        },
        {
          "internalType": "uint256",
          "name": "creatureId",
          "type": "uint256"
        }
      ],
      "name": "joinBattle",
      "outputs": [],
      "stateMutability": "nonpayable",
      "type": "function"
    },
    {
      "inputs": [],
      "name": "maxStake",
      "outputs": [
        {
          "internalType": "uint256",
          "name": "",
          "type": "uint256"
        }
      ],
      "stateMutability": "view",
      "type": "function"
    },
    {
      "inputs": [],
      "name": "minStake",
      "outputs": [
        {
          "internalType": "uint256",
          "name": "",
          "type": "uint256"
        }
      ],
      "stateMutability": "view",
      "type": "function"
    },
    {
      "inputs": [],
      "name": "owner",
      "outputs": [
        {
          "internalType": "address",
          "name": "",
          "type": "address"
        }
      ],
      "stateMutability": "view",
      "type": "function"
    },
    {
      "inputs": [],
      "name": "pause",
      "outputs": [],
      "stateMutability": "nonpayable",
      "type": "function"
    },
    {
      "inputs": [],
      "name": "paused",
      "outputs": [
        {
          "internalType": "bool",
          "name": "",
          "type": "bool"
        }
      ],
      "stateMutability": "view",
      "type": "function"
    },
    {
      "inputs": [],
      "name": "pendingBackend",
      "outputs": [
        {
          "internalType": "address",
          "name": "",
          "type": "address"
        }
      ],
      "stateMutability": "view",
      "type": "function"
    },
    {
      "inputs": [],
      "name": "pendingBackendTime",
      "outputs": [
        {
          "internalType": "uint256",
          "name": "",
          "type": "uint256"
        }
      ],
      "stateMutability": "view",
      "type": "function"
    },
    {
      "inputs": [
        {
          "internalType": "address",
          "name": "_backend",
          "type": "address"
        }
      ],
      "name": "proposeBackend",
      "outputs": [],
      "stateMutability": "nonpayable",
      "type": "function"
    },
    {
      "inputs": [],
      "name": "renounceOwnership",
      "outputs": [],
      "stateMutability": "nonpayable",
      "type": "function"
    },
    {
      "inputs": [
        {
          "internalType": "bytes32",
          "name": "battleId",
          "type": "bytes32"
        },
        {
          "internalType": "address",
          "name": "winner",
          "type": "address"
        },
        {
          "internalType": "uint256",
          "name": "timestamp",
          "type": "uint256"
        },
        {
          "internalType": "bytes",
          "name": "signature",
          "type": "bytes"
        }
      ],
      "name": "resolveBattle",
      "outputs": [],
      "stateMutability": "nonpayable",
      "type": "function"
    },
    {
      "inputs": [
        {
          "internalType": "address",
          "name": "_airdropVault",
          "type": "address"
        }
      ],
      "name": "setAirdropVault",
      "outputs": [],
      "stateMutability": "nonpayable",
      "type": "function"
    },
    {
      "inputs": [
        {
          "internalType": "address",
          "name": "_creature",
          "type": "address"
        }
      ],
      "name": "setCreatureContract",
      "outputs": [],
      "stateMutability": "nonpayable",
      "type": "function"
    },
    {
      "inputs": [
        {
          "internalType": "uint256",
          "name": "_min",
          "type": "uint256"
        },
        {
          "internalType": "uint256",
          "name": "_max",
          "type": "uint256"
        }
      ],
      "name": "setStakeLimits",
      "outputs": [],
      "stateMutability": "nonpayable",
      "type": "function"
    },
    {
      "inputs": [
        {
          "internalType": "address",
          "name": "_treasury",
          "type": "address"
        }
      ],
      "name": "setTreasury",
      "outputs": [],
      "stateMutability": "nonpayable",
      "type": "function"
    },
    {
      "inputs": [],
      "name": "stakeToken",
      "outputs": [
        {
          "internalType": "contract IERC20",
          "name": "",
          "type": "address"
        }
      ],
      "stateMutability": "view",
      "type": "function"
    },
    {
      "inputs": [
        {
          "internalType": "address",
          "name": "newOwner",
          "type": "address"
        }
      ],
      "name": "transferOwnership",
      "outputs": [],
      "stateMutability": "nonpayable",
      "type": "function"
    },
    {
      "inputs": [],
      "name": "treasury",
      "outputs": [
        {
          "internalType": "address",
          "name": "",
          "type": "address"
        }
      ],
      "stateMutability": "view",
      "type": "function"
    },
    {
      "inputs": [],
      "name": "trustedBackend",
      "outputs": [
        {
          "internalType": "address",
          "name": "",
          "type": "address"
        }
      ],
      "stateMutability": "view",
      "type": "function"
    },
    {
      "inputs": [],
      "name": "unpause",
      "outputs": [],
      "stateMutability": "nonpayable",
      "type": "function"
    },
    {
      "inputs": [
        {
          "internalType": "bytes32",
          "name": "",
          "type": "bytes32"
        }
      ],
      "name": "usedSignatures",
      "outputs": [
        {
          "internalType": "bool",
          "name": "",
          "type": "bool"
        }
      ],
      "stateMutability": "view",
      "type": "function"
    },
    {
      "inputs": [
        {
          "internalType": "address",
          "name": "",
          "type": "address"
        }
      ],
      "name": "walletInBattle",
      "outputs": [
        {
          "internalType": "bytes32",
          "name": "",
          "type": "bytes32"
        }
      ],
      "stateMutability": "view",
      "type": "function"
    }
  ],
  "bytecode": "0x6080346200019857601f620025e938819003918201601f191683019291906001600160401b038411838510176200019c57816080928492604096875283398101031262000198576200005181620001b0565b6200005f60208301620001b0565b916200007b606062000073868401620001b0565b9201620001b0565b90331562000181575f549360018060a01b03908160018060a01b03199533878916175f55885197823391167f8be0079c531659141344cd1fd0a4f28419497f9722a3daafe3b4186f6b6457e05f80a360018055678ac7230489e80000600755683635c9adc5dea00000600855169586156200017257508116918215620001615781169283156200015057169384156200013f578360025416176002558260035416176003558160045416176004556005541617600555516124239081620001c68239f35b855163d967a6f360e01b8152600490fd5b8651634033e4e360e01b8152600490fd5b8651638baa579f60e01b8152600490fd5b630103be3b60e21b8152600490fd5b8451631e4fbdf760e01b81525f6004820152602490fd5b5f80fd5b634e487b7160e01b5f52604160045260245ffd5b51906001600160a01b0382168203620001985756fe60808060405260049081361015610014575f80fd5b5f3560e01c908163041365461461203357508063043c4f3914612017578063190f771e14611c1d57806324c0705814611c0057806332c9009914611bd8578063375b3c0a14611bbb5780633f4ba83a14611b4c57806343cc2213146119cd5780634623c81e146119b0578063516f9cf3146116c557806351ed6a301461169d578063539aa77f1461168157806357a4f251146116475780635a2540851461162c5780635c975abb1461160857806361d027b3146115e15780636cbc16ef146115b95780636f5d938a14611590578063715018a61461154c578063719a5c991461152457806378547e6c1461147f5780637ffade1714611306578063803da9c3146110e2578063824ac88a146110c55780638456cb5914611065578063846e537614610d4457806386ac85b414610f525780638c9bd1b514610eb35780638da5cb5b14610e8c57806391507bdb14610e2357806395afd65614610d7c578063b8912c1714610d44578063d92e0af214610b11578063df73c49f1461073e578063e1a4521814610722578063e49b606c146104a6578063e4beb87f1461047e578063ea1b28e014610461578063ee4b290714610433578063f0f442601461038f578063f25947bc146102c0578063f2fde38b14610250578063f5f5dd41146102335763f978fd6114610202575f80fd5b3461022f57602036600319011261022f57355f52600d602052602060ff60405f2054166040519015158152f35b5f80fd5b3461022f575f36600319011261022f57602060405162093a808152f35b503461022f57602036600319011261022f5761026a61204c565b610272612221565b6001600160a01b039081169182156102a957505f548260018060a01b03198216175f55165f805160206123ae8339815191525f80a3005b6024905f60405191631e4fbdf760e01b8352820152fd5b503461022f57602036600319011261022f576102da61204c565b6102e2612221565b6001600160a01b031690811561035957600e80546001600160a01b0319168317905542600f8190556202a300810191908210610346575060207f25d14971bf5abb0c607decd31964bbff2ed5cc2f9e4e1168ede3784d4f7a36b391604051908152a2005b601190634e487b7160e01b5f525260245ffd5b60649060206040519162461bcd60e51b8352820152600f60248201526e125b9d985b1a5908189858dad95b99608a1b6044820152fd5b503461022f57602036600319011261022f576103a961204c565b6103b1612221565b6001600160a01b039081169182156103fc5780546001600160a01b031981168417909155167f8c3aa5f43a388513435861bf27dfad7829cd248696fed367c62d441f629544965f80a3005b60649060206040519162461bcd60e51b8352820152601060248201526f496e76616c696420747265617375727960801b6044820152fd5b3461022f575f36600319011261022f5761044b612221565b600e80546001600160a01b03191690555f600f55005b3461022f575f36600319011261022f576020600854604051908152f35b3461022f575f36600319011261022f576003546040516001600160a01b039091168152602090f35b503461022f5760208060031936011261022f578135906104c46121fe565b815f52600a815260405f20926008840180549460ff8616600681101561070f576003036106fe576001600160a01b039033600888901c8316036106ed5783810154928360011b93808504600214901517156106da576101f48085029085820414851517156106c757908561053e6127108694048097612099565b9960ff19161780915560081c16908281541682145f146106bd5760020154905b5f52600b85525f60408120555f52600c84525f6040812055858160025416856040518092815f8161059d63a9059cbb60e01b98898352338d84016121a9565b03925af1908115610678575f916106a0575b501561068f5782151580610683575b6105f6575b86867fac1dfcff29900d7010c04a6028e48814b8a49daf045127abd10a4636d1d49115876040519384523393a360018055005b918161061c935f87946002541692875416916040519687958694859384528a84016121a9565b03925af1908115610678575f9161064b575b501561063c578080806105c3565b604051634033e4e360e01b8152fd5b61066b9150833d8511610671575b61066381836120fd565b8101906121c4565b5f61062e565b503d610659565b6040513d5f823e3d90fd5b508184541615156105be565b60405163880a149160e01b81528490fd5b6106b79150863d88116106715761066381836120fd565b5f6105af565b600301549061055e565b601186634e487b7160e01b5f525260245ffd5b601185634e487b7160e01b5f525260245ffd5b60405163542cf5bf60e11b81528490fd5b60405163691f654760e01b81528390fd5b602184634e487b7160e01b5f525260245ffd5b3461022f575f36600319011261022f5760206040516127108152f35b503461022f5761074d36612083565b919061075761224c565b61075f6121fe565b60075483108015610b06575b610af657335f52602092600b845260405f2054610ae557815f52600c845260405f2054610ad4576005546040516331a9108f60e11b81528481018490526001600160a01b039186908290602490829086165afa908115610678575f91610aa7575b508133911603610a96576009545f1981146106da576001018060095560405194868601913360601b8352426034880152605487015260548652608086019186831060018060401b03841117610a8357908291889493604052875190209687925f91856006541680610a04575b5050506108459086612099565b80610988575b50604051610858816120ba565b3381528481015f815260408201888152606083015f81526080840189815260a085019142835260c08601935f855260e08701955f875261010088019b60018d5261012089019a5f8c525f52600a90528a60405f20985116600160a01b600190031990818a54161789558b60018a01925116908254161790555160028701555160038601555185850155516005840155516006830155516007820155600801935190600682101561097557509061091e93929160ff80198554169116178355511690612165565b335f52600b84528260405f2055815f52600c84528260405f205560405191825283820152817f09797ded04afd2c3ee4acc48528d0e1302ed90d1be904d21e0a9c6724a02514460403393a360018055604051908152f35b602190634e487b7160e01b5f525260245ffd5b5f92506109b690846002969395965416906040519485809481936323b872dd60e01b835230338b85016121dc565b03925af1908115610678575f916109e7575b50156109d857908486925f61084b565b604051631231ec2f60e21b8152fd5b6109fe9150873d89116106715761066381836120fd565b5f6109c8565b6324bf68e160e21b8352919690945091508590815f607f1987610a2b8c33608484016121a9565b0301925af1801561067857889488935f92610a4d575b50506108455f80610838565b915092508491943d8311610a7c575b610a6681856120fd565b8101031261022f5751869286916108455f610a41565b503d610a5c565b604182634e487b7160e01b5f525260245ffd5b60405163d967a6f360e01b81528490fd5b610ac79150863d8811610acd575b610abf81836120fd565b81019061218a565b5f6107cc565b503d610ab5565b60405163f41ff0c960e01b81528390fd5b604051631844f0a560e11b81528390fd5b50604051630103be3b60e21b8152fd5b50600854831161076b565b503461022f5760208060031936011261022f57813591610b2f612221565b610b376121fe565b825f52600a825260405f206008810180549060ff82166006811015610d315760018114159081610d25575b50610d155782840154600184015485936001600160a01b03918216939192610bed9289928615801590610d0e5783995b87815416936005600360028401549301549460ff1916179055835f52600b86525f60408120555f52600c85525f6040812055610cef575b508460025416905f60405180968195829463a9059cbb60e01b9c8d855284016121a9565b03925af1908115610678575f91610cd2575b5015610cc15783610c52575b865f8051602061238e8339815191526060886019604051918083528201527822b6b2b933b2b731bc903932b33ab73210313c9030b236b4b760391b6040820152a260018055005b91610c7493915f879460025416926040519687958694859384528a84016121a9565b03925af1908115610678575f91610ca4575b5015610c955780808080610c0b565b604051633c31275160e21b8152fd5b610cbb9150833d85116106715761066381836120fd565b5f610c86565b604051633c31275160e21b81528590fd5b610ce99150873d89116106715761066381836120fd565b5f610bff565b865f52600b84525f60408120555f52600c83525f60408120555f610bc9565b5f99610b92565b6040516202d94960ed1b81528490fd5b6002915014155f610b62565b602185634e487b7160e01b5f525260245ffd5b3461022f57602036600319011261022f576001600160a01b03610d6561204c565b165f52600b602052602060405f2054604051908152f35b503461022f57602036600319011261022f57610d9661204c565b610d9e612221565b6001600160a01b03908116918215610dec5750600580546001600160a01b031981168417909155167f90b19857ca5857522922f4d0bc3da0f54168bcf797640f23d6b82e61a56a1f085f80a3005b60649060206040519162461bcd60e51b8352820152601060248201526f496e76616c696420637265617475726560801b6044820152fd5b3461022f57602036600319011261022f57610e3c61204c565b610e44612221565b600680546001600160a01b039283166001600160a01b0319821681179092559091167f81aa94d4892023eb47e9b92f72a673e7ad967f9b141925f604e650b76a8700a55f80a3005b3461022f575f36600319011261022f575f546040516001600160a01b039091168152602090f35b503461022f57610ec236612083565b9091610ecc612221565b82151580610f49575b15610f14577f2f6f9641c9c28674435527345c5b76ef1d9b57240e94d33d3f222ae58d6caff760408484816007558060085582519182526020820152a1005b60649060206040519162461bcd60e51b8352820152600e60248201526d496e76616c6964206c696d69747360901b6044820152fd5b50818310610ed5565b503461022f575f36600319011261022f57610f6b612221565b600e546001600160a01b0380821692909190831561102c57600f546202a3008101809111611019574210610fde57506003549060018060a01b031990848284161760035516600e555f600f55167fea8ca364cc9c0e44ae5ceab245cececcc710724873a9ecfc89a0559983e447395f80a3005b60649060206040519162461bcd60e51b83528201526014602482015273151a5b595b1bd8dac81b9bdd08195e1c1a5c995960621b6044820152fd5b601182634e487b7160e01b5f525260245ffd5b60649060206040519162461bcd60e51b83528201526012602482015271139bc81c195b991a5b99c8189858dad95b9960721b6044820152fd5b3461022f575f36600319011261022f5761107d612221565b61108561224c565b5f805460ff60a01b1916600160a01b1790556040513381527f62e78cea01bee320cd4e420270b5ea74000d11b0c9f74754ebdbfc544b05a25890602090a1005b3461022f575f36600319011261022f576020600f54604051908152f35b503461022f576020908160031936011261022f578035916111016121fe565b825f52600a815260405f206008810190815460ff811660068110156112f3576001036112e25781546001600160a01b0393908416913383036112d1576005840154601e81018091116112be5742106112ad5760059060ff19161790555f52600b83525f604081205560028101545f52600c83525f6040812055838101549060648202828104606414831517156106c757848693926111a76127106111ce94048095612099565b908680600254169154165f60405180968195829463a9059cbb60e01b9b8c855284016121a9565b03925af1908115610678575f91611290575b5015610cc15780151580611284575b611220575b33867fcb9efe3dee7d10a1ce7248d3bb4e58134ae02576d3439448ed856cc3373e17a35f80a360018055005b8284925f611245956002541692885416916040519687958694859384528b84016121a9565b03925af1918215610678575f92611267575b50501561063c57808080806111f4565b61127d9250803d106106715761066381836120fd565b5f80611257565b508285541615156111ef565b6112a79150853d87116106715761066381836120fd565b5f6111e0565b604051630484233560e21b81528790fd5b601188634e487b7160e01b5f525260245ffd5b604051638ff4f0c960e01b81528790fd5b604051631f7806af60e31b81528590fd5b602186634e487b7160e01b5f525260245ffd5b503461022f5760208060031936011261022f578135916113246121fe565b825f52600a825260405f2060088101805460ff81166006811015610d3157600103610d155782546001600160a01b03929083169133830361146e576005850154610258810180911161145b5742111561144a579186939160056113d0969460ff19161790555f52600b83525f604081205560028201545f52600c83525f604081205584816002541691835416920154915f60405180968195829463a9059cbb60e01b84528a84016121a9565b03925af1908115610678575f9161142d575b5015610c95575060605f8051602061238e8339815191529160176040519180835282015276121bdcdd081d1a5b595bdd5d080b481b9bc819dd595cdd604a1b6040820152a260018055005b6114449150833d85116106715761066381836120fd565b5f6113e2565b6040516326c015ab60e21b81528690fd5b601187634e487b7160e01b5f525260245ffd5b604051638ff4f0c960e01b81528690fd5b503461022f57602036600319011261022f578061014091355f52600a60205260405f209060018060a01b0390818354169282600182015416916002820154906003830154908301546005840154916006850154936008600787015496015496604051998a5260208a015260408901526060880152608087015260a086015260c085015260e0840152611518610100840160ff8316612062565b60081c16610120820152f35b3461022f575f36600319011261022f57600e546040516001600160a01b039091168152602090f35b3461022f575f36600319011261022f57611564612221565b5f80546001600160a01b0319811682556001600160a01b03165f805160206123ae8339815191528280a3005b503461022f57602036600319011261022f57355f52600c602052602060405f2054604051908152f35b3461022f575f36600319011261022f576005546040516001600160a01b039091168152602090f35b503461022f575f36600319011261022f57546040516001600160a01b039091168152602090f35b3461022f575f36600319011261022f57602060ff5f5460a01c166040519015158152f35b3461022f575f36600319011261022f576020604051601e8152f35b3461022f57602036600319011261022f576001600160a01b0361166861204c565b165f52600b602052602060405f20541515604051908152f35b3461022f575f36600319011261022f5760206040516101f48152f35b3461022f575f36600319011261022f576002546040516001600160a01b039091168152602090f35b503461022f57604036600319011261022f5760243581356116e461224c565b6116ec6121fe565b805f526020600a815260405f20600881019060ff825416600681101561199d5760010361198c5780546001600160a01b03908116331461197b57335f52600b845260405f205461196a57855f52600c845260405f205461195957600582015461025881018091116112be57421015611948576024848260055416604051928380926331a9108f60e11b82528b8d8301525afa908115610678575f9161192b575b50813391160361191a575f848260065416806118a9575b50506117b29088840154612099565b9081611832575b5050908160017f4480fdf0275ff0748200ab3cdcc450685e845d860fdc94461fea4e0dc03621779493013360018060a01b0319825416179055856003820155600642910155600260ff19825416179055335f52600b81528260405f2055835f52600c81528260405f20556040519384523393a360018055005b61185c91859160025416895f6040518096819582946323b872dd60e01b84523090339085016121dc565b03925af1908115610678575f9161188c575b501561187b5785806117b9565b604051631231ec2f60e21b81528690fd5b6118a39150843d86116106715761066381836120fd565b5f61186e565b6118d1925089850154908a5f6040518096819582946324bf68e160e21b8452339084016121a9565b03925af18015610678575f906118eb575b9050845f6117a3565b508481813d8311611913575b61190181836120fd565b8101031261022f576117b290516118e2565b503d6118f7565b60405163d967a6f360e01b81528790fd5b6119429150853d8711610acd57610abf81836120fd565b5f61178c565b604051637382e32160e01b81528790fd5b60405163f41ff0c960e01b81528790fd5b604051631844f0a560e11b81528790fd5b60405163050c8fd560e01b81528790fd5b604051637100718960e01b81528690fd5b602187634e487b7160e01b5f525260245ffd5b3461022f575f36600319011261022f5760206040516202a3008152f35b503461022f57602036600319011261022f575f6101206040516119ef816120ba565b8281528260208201528260408201528260608201528260808201528260a08201528260c08201528260e082015282610100820152015280355f52600a60205260405f20600860405191611a41836120ba565b80546001600160a01b03908116845260018201541660208401526002810154604084015260038101546060840152838101546080840152600581015460a084015260068082015460c0850152600782015460e08501529101549060ff82169081101561070f57610140935061010083015260018060a01b039060081c166101208201526040519060018060a01b03815116825260018060a01b03602082015116602083015260408101516040830152606081015160608301526080810151608083015260a081015160a083015260c081015160c083015260e081015160e0830152611b36610100820151610100840190612062565b610120908101516001600160a01b031690820152f35b503461022f575f36600319011261022f57611b65612221565b5f549060ff8260a01c1615611bac575060ff60a01b19165f556040513381527f5db9ee0a495bf2e6ff9c91a7834c1ba4fdd244a5e8aa4e537bd38aeae4b073aa90602090a1005b604051638dfc202b60e01b8152fd5b3461022f575f36600319011261022f576020600754604051908152f35b3461022f575f36600319011261022f576006546040516001600160a01b039091168152602090f35b3461022f575f36600319011261022f576020600954604051908152f35b503461022f57608036600319011261022f5760248035916001600160a01b03808416928235929184860361022f576001600160401b039560643592604435929188851161022f573660238601121561022f57848601359489861161022f57828101908387369201011161022f57611c926121fe565b875f52602095600a875260405f2095600887019b60ff8d5416600681101561200557600203611ff457868854168c141580611fe4575b611fd35761012b194201428111611fc157821115611fb057611ceb368486612120565b8981519101205f52600d895260ff60405f205416611f9f5760405190898201928c845260018060601b03198760601b16604084015260548301524660748301526074825260a082019082821090821117611f8d576040525190207b0ca2ba3432b932bab69029b4b3b732b21026b2b9b9b0b3b29d05199960211b5f52601c52611d8e611d85603c5f20611d7f368587612120565b9061226c565b909291926122a6565b858060035416911603611f7c5760039291611daa913691612120565b8681519101205f52600d8652611dd160405f209160ff19926001848254161790558b612165565b8954161788554260078401558254821687811498908915611f76575082600185015416985b15611f6c5760028401545b836005541690813b1561022f575f808993604460405180948193876328a3750760e11b998a855284015260648b8401525af19081611f5d575b50611f57575f805160206123ce8339815191528760405160648152a25b84549984169984168a03611f4c576002850154905b846005541693843b1561022f57600c98604484935f8998601e8296604051988997889687528601528401525af19081611f3d575b50611f37575f805160206123ce83398151915286604051601e8152a25b5460081c16918181541680931492835f14611f31575081600182015416925b15611f275760030154915b165f52600b82525f60408120555f52525f60408120557f3b3b5126e644ea297563595413600ab9dcd3d089cbfb03e7faedecda6ccf3c765f80a460018055005b6002015491611ee7565b92611edc565b50611ebd565b611f46906120ea565b5f611ea0565b600385015490611e6c565b50611e57565b611f66906120ea565b5f611e3a565b6003840154611e01565b98611df6565b604051638baa579f60e01b81528890fd5b8660418c634e487b7160e01b5f52525ffd5b60405163900bb2c960e01b81528a90fd5b604051630819bdcd60e01b81528a90fd5b8660118c634e487b7160e01b5f52525ffd5b6040516393a5f3c760e01b81528a90fd5b50866001890154168c1415611cc8565b60405163b78ea15760e01b81528a90fd5b8660218c634e487b7160e01b5f52525ffd5b3461022f575f36600319011261022f5760206040516102588152f35b3461022f575f36600319011261022f5780606460209252f35b600435906001600160a01b038216820361022f57565b90600682101561206f5752565b634e487b7160e01b5f52602160045260245ffd5b604090600319011261022f576004359060243590565b919082039182116120a657565b634e487b7160e01b5f52601160045260245ffd5b61014081019081106001600160401b038211176120d657604052565b634e487b7160e01b5f52604160045260245ffd5b6001600160401b0381116120d657604052565b601f909101601f19168101906001600160401b038211908210176120d657604052565b9192916001600160401b0382116120d65760405191612149601f8201601f1916602001846120fd565b82948184528183011161022f578281602093845f960137010152565b8054610100600160a81b03191660089290921b610100600160a81b0316919091179055565b9081602091031261022f57516001600160a01b038116810361022f5790565b6001600160a01b039091168152602081019190915260400190565b9081602091031261022f5751801515810361022f5790565b6001600160a01b03918216815291166020820152604081019190915260600190565b60026001541461220f576002600155565b604051633ee5aeb560e01b8152600490fd5b5f546001600160a01b0316330361223457565b60405163118cdaa760e01b8152336004820152602490fd5b60ff5f5460a01c1661225a57565b60405163d93c066560e01b8152600490fd5b815191906041830361229c576122959250602082015190606060408401519301515f1a90612315565b9192909190565b50505f9160029190565b600481101561206f57806122b8575050565b600181036122d25760405163f645eedf60e01b8152600490fd5b600281036122f35760405163fce698f760e01b815260048101839052602490fd5b6003146122fd5750565b602490604051906335e2f38360e21b82526004820152fd5b91906fa2a8918ca85bafe22016d0b997e4df60600160ff1b038411612382579160209360809260ff5f9560405194855216868401526040830152606082015282805260015afa15610678575f516001600160a01b0381161561237857905f905f90565b505f906001905f90565b5050505f916003919056fe949807b46c014a57084ed9f902241d002578f83ae660011d39ecb18242e78d098be0079c531659141344cd1fd0a4f28419497f9722a3daafe3b4186f6b6457e017fe5efa39289e1d4e3beb20a5412e13015b7170122c1d7bb4cfbe171af7f30ca2646970667358221220fe200c6d1c361e3271e647431653f428722f4040f5c0082a4ea0e424e784340d64736f6c63430008180033",
  "linkReferences": {},
  "deployedLinkReferences": {},
  "immutableReferences": {},
  "inputSourceName": "project/src/BattleGateV2.sol",
  "buildInfoId": "solc-0_8_24-67eb50a512e466a4c1b495b30256d28c374942f1"
}