{
  "_format": "hh3-artifact-1",
  "contractName": "CreatureNFT",
  "sourceName": "src/CreatureNFT.sol",
  "abi": [
    {
      "inputs": [],
      "stateMutability": "nonpayable",
      "type": "constructor"
    },
    {
      "inputs": [],
      "name": "ERC721EnumerableForbiddenBatchMint",
      "type": "error"
    },
    {
      "inputs": [
        {
          "internalType": "address",
          "name": "sender",
          "type": "address"
        },
        {
          "internalType": "uint256",
          "name": "tokenId",
          "type": "uint256"
        },
        {
          "internalType": "address",
          "name": "owner",
          "type": "address"
        }
      ],
      "name": "ERC721IncorrectOwner",
      "type": "error"
    },
    {
      "inputs": [
        {
          "internalType": "address",
          "name": "operator",
          "type": "address"
        },
        {
          "internalType": "uint256",
          "name": "tokenId",
          "type": "uint256"
        }
      ],
      "name": "ERC721InsufficientApproval",
      "type": "error"
    },
    {
      "inputs": [
        {
          "internalType": "address",
          "name": "approver",
          "type": "address"
        }
      ],
      "name": "ERC721InvalidApprover",
      "type": "error"
    },
    {
      "inputs": [
        {
          "internalType": "address",
          "name": "operator",
          "type": "address"
        }
      ],
      "name": "ERC721InvalidOperator",
      "type": "error"
    },
    {
      "inputs": [
        {
          "internalType": "address",
          "name": "owner",
          "type": "address"
        }
      ],
      "name": "ERC721InvalidOwner",
      "type": "error"
    },
    {
      "inputs": [
        {
          "internalType": "address",
          "name": "receiver",
          "type": "address"
        }
      ],
      "name": "ERC721InvalidReceiver",
      "type": "error"
    },
    {
      "inputs": [
        {
          "internalType": "address",
          "name": "sender",
          "type": "address"
        }
      ],
      "name": "ERC721InvalidSender",
      "type": "error"
    },
    {
      "inputs": [
        {
          "internalType": "uint256",
          "name": "tokenId",
          "type": "uint256"
        }
      ],
      "name": "ERC721NonexistentToken",
      "type": "error"
    },
    {
      "inputs": [
        {
          "internalType": "address",
          "name": "owner",
          "type": "address"
        },
        {
          "internalType": "uint256",
          "name": "index",
          "type": "uint256"
        }
      ],
      "name": "ERC721OutOfBoundsIndex",
      "type": "error"
    },
    {
      "inputs": [
        {
          "internalType": "address",
          "name": "owner",
          "type": "address"
        }
      ],
      "name": "OwnableInvalidOwner",
      "type": "error"
    },
    {
      "inputs": [
        {
          "internalType": "address",
          "name": "account",
          "type": "address"
        }
      ],
      "name": "OwnableUnauthorizedAccount",
      "type": "error"
    },
    {
      "anonymous": false,
      "inputs": [
        {
          "indexed": true,
          "internalType": "address",
          "name": "owner",
          "type": "address"
        },
        {
          "indexed": true,
          "internalType": "address",
          "name": "approved",
          "type": "address"
        },
        {
          "indexed": true,
          "internalType": "uint256",
          "name": "tokenId",
          "type": "uint256"
        }
      ],
      "name": "Approval",
      "type": "event"
    },
    {
      "anonymous": false,
      "inputs": [
        {
          "indexed": true,
          "internalType": "address",
          "name": "owner",
          "type": "address"
        },
        {
          "indexed": true,
          "internalType": "address",
          "name": "operator",
          "type": "address"
        },
        {
          "indexed": false,
          "internalType": "bool",
          "name": "approved",
          "type": "bool"
        }
      ],
      "name": "ApprovalForAll",
      "type": "event"
    },
    {
      "anonymous": false,
      "inputs": [
        {
          "indexed": false,
          "internalType": "uint256",
          "name": "_fromTokenId",
          "type": "uint256"
        },
        {
          "indexed": false,
          "internalType": "uint256",
          "name": "_toTokenId",
          "type": "uint256"
        }
      ],
      "name": "BatchMetadataUpdate",
      "type": "event"
    },
    {
      "anonymous": false,
      "inputs": [
        {
          "indexed": true,
          "internalType": "uint256",
          "name": "tokenId",
          "type": "uint256"
        },
        {
          "indexed": true,
          "internalType": "address",
          "name": "owner",
          "type": "address"
        },
        {
          "indexed": false,
          "internalType": "string",
          "name": "definitionId",
          "type": "string"
        },
        {
          "indexed": false,
          "internalType": "uint8",
          "name": "talent",
          "type": "uint8"
        },
        {
          "indexed": false,
          "internalType": "string",
          "name": "temperament",
          "type": "string"
        }
      ],
      "name": "CreatureMinted",
      "type": "event"
    },
    {
      "anonymous": false,
      "inputs": [
        {
          "indexed": true,
          "internalType": "uint256",
          "name": "tokenId",
          "type": "uint256"
        },
        {
          "indexed": false,
          "internalType": "uint256",
          "name": "newXP",
          "type": "uint256"
        }
      ],
      "name": "CreatureXPUpdated",
      "type": "event"
    },
    {
      "anonymous": false,
      "inputs": [
        {
          "indexed": false,
          "internalType": "uint256",
          "name": "_tokenId",
          "type": "uint256"
        }
      ],
      "name": "MetadataUpdate",
      "type": "event"
    },
    {
      "anonymous": false,
      "inputs": [
        {
          "indexed": true,
          "internalType": "address",
          "name": "minter",
          "type": "address"
        }
      ],
      "name": "MinterAuthorized",
      "type": "event"
    },
    {
      "anonymous": false,
      "inputs": [
        {
          "indexed": true,
          "internalType": "address",
          "name": "minter",
          "type": "address"
        }
      ],
      "name": "MinterRevoked",
      "type": "event"
    },
    {
      "anonymous": false,
      "inputs": [
        {
          "indexed": true,
          "internalType": "address",
          "name": "previousOwner",
          "type": "address"
        },
        {
          "indexed": true,
          "internalType": "address",
          "name": "newOwner",
          "type": "address"
        }
      ],
      "name": "OwnershipTransferred",
      "type": "event"
    },
    {
      "anonymous": false,
      "inputs": [
        {
          "indexed": true,
          "internalType": "address",
          "name": "from",
          "type": "address"
        },
        {
          "indexed": true,
          "internalType": "address",
          "name": "to",
          "type": "address"
        },
        {
          "indexed": true,
          "internalType": "uint256",
          "name": "tokenId",
          "type": "uint256"
        }
      ],
      "name": "Transfer",
      "type": "event"
    },
    {
      "inputs": [
        {
          "internalType": "uint256",
          "name": "tokenId",
          "type": "uint256"
        },
        {
          "internalType": "uint256",
          "name": "amount",
          "type": "uint256"
        }
      ],
      "name": "addXP",
      "outputs": [],
      "stateMutability": "nonpayable",
      "type": "function"
    },
    {
      "inputs": [
        {
          "internalType": "address",
          "name": "to",
          "type": "address"
        },
        {
          "internalType": "uint256",
          "name": "tokenId",
          "type": "uint256"
        }
      ],
      "name": "approve",
      "outputs": [],
      "stateMutability": "nonpayable",
      "type": "function"
    },
    {
      "inputs": [
        {
          "internalType": "address",
          "name": "minter",
          "type": "address"
        }
      ],
      "name": "authorizeMinter",
      "outputs": [],
      "stateMutability": "nonpayable",
      "type": "function"
    },
    {
      "inputs": [
        {
          "internalType": "address",
          "name": "",
          "type": "address"
        }
      ],
      "name": "authorizedMinters",
      "outputs": [
        {
          "internalType": "bool",
          "name": "",
          "type": "bool"
        }
      ],
      "stateMutability": "view",
      "type": "function"
    },
    {
      "inputs": [
        {
          "internalType": "address",
          "name": "owner",
          "type": "address"
        }
      ],
      "name": "balanceOf",
      "outputs": [
        {
          "internalType": "uint256",
          "name": "",
          "type": "uint256"
        }
      ],
      "stateMutability": "view",
      "type": "function"
    },
    {
      "inputs": [
        {
          "internalType": "uint256",
          "name": "",
          "type": "uint256"
        }
      ],
      "name": "creatures",
      "outputs": [
        {
          "internalType": "string",
          "name": "definitionId",
          "type": "string"
        },
        {
          "internalType": "uint8",
          "name": "talent",
          "type": "uint8"
        },
        {
          "internalType": "string",
          "name": "temperament",
          "type": "string"
        },
        {
          "internalType": "bytes32",
          "name": "statsHash",
          "type": "bytes32"
        },
        {
          "internalType": "uint256",
          "name": "bornAt",
          "type": "uint256"
        },
        {
          "internalType": "uint256",
          "name": "xp",
          "type": "uint256"
        }
      ],
      "stateMutability": "view",
      "type": "function"
    },
    {
      "inputs": [
        {
          "internalType": "uint256",
          "name": "tokenId",
          "type": "uint256"
        }
      ],
      "name": "getApproved",
      "outputs": [
        {
          "internalType": "address",
          "name": "",
          "type": "address"
        }
      ],
      "stateMutability": "view",
      "type": "function"
    },
    {
      "inputs": [
        {
          "internalType": "uint256",
          "name": "tokenId",
          "type": "uint256"
        }
      ],
      "name": "getCreature",
      "outputs": [
        {
          "components": [
            {
              "internalType": "string",
              "name": "definitionId",
              "type": "string"
            },
            {
              "internalType": "uint8",
              "name": "talent",
              "type": "uint8"
            },
            {
              "internalType": "string",
              "name": "temperament",
              "type": "string"
            },
            {
              "internalType": "bytes32",
              "name": "statsHash",
              "type": "bytes32"
            },
            {
              "internalType": "uint256",
              "name": "bornAt",
              "type": "uint256"
            },
            {
              "internalType": "uint256",
              "name": "xp",
              "type": "uint256"
            }
          ],
          "internalType": "struct CreatureNFT.CreatureData",
          "name": "",
          "type": "tuple"
        }
      ],
      "stateMutability": "view",
      "type": "function"
    },
    {
      "inputs": [
        {
          "internalType": "uint256",
          "name": "tokenId",
          "type": "uint256"
        }
      ],
      "name": "getLevel",
      "outputs": [
        {
          "internalType": "uint256",
          "name": "",
          "type": "uint256"
        }
      ],
      "stateMutability": "view",
      "type": "function"
    },
    {
      "inputs": [
        {
          "internalType": "address",
          "name": "owner",
          "type": "address"
        },
        {
          "internalType": "address",
          "name": "operator",
          "type": "address"
        }
      ],
      "name": "isApprovedForAll",
      "outputs": [
        {
          "internalType": "bool",
          "name": "",
          "type": "bool"
        }
      ],
      "stateMutability": "view",
      "type": "function"
    },
    {
      "inputs": [
        {
          "internalType": "address",
          "name": "to",
          "type": "address"
        },
        {
          "internalType": "string",
          "name": "definitionId",
          "type": "string"
        },
        {
          "internalType": "uint8",
          "name": "talent",
          "type": "uint8"
        },
        {
          "internalType": "string",
          "name": "temperament",
          "type": "string"
        },
        {
          "internalType": "bytes32",
          "name": "statsHash",
          "type": "bytes32"
        },
        {
          "internalType": "string",
          "name": "uri",
          "type": "string"
        }
      ],
      "name": "mint",
      "outputs": [
        {
          "internalType": "uint256",
          "name": "",
          "type": "uint256"
        }
      ],
      "stateMutability": "nonpayable",
      "type": "function"
    },
    {
      "inputs": [],
      "name": "name",
      "outputs": [
        {
          "internalType": "string",
          "name": "",
          "type": "string"
        }
      ],
      "stateMutability": "view",
      "type": "function"
    },
    {
      "inputs": [],
      "name": "owner",
      "outputs": [
        {
          "internalType": "address",
          "name": "",
          "type": "address"
        }
      ],
      "stateMutability": "view",
      "type": "function"
    },
    {
      "inputs": [
        {
          "internalType": "uint256",
          "name": "tokenId",
          "type": "uint256"
        }
      ],
      "name": "ownerOf",
      "outputs": [
        {
          "internalType": "address",
          "name": "",
          "type": "address"
        }
      ],
      "stateMutability": "view",
      "type": "function"
    },
    {
      "inputs": [
        {
          "internalType": "address",
          "name": "owner",
          "type": "address"
        },
        {
          "internalType": "uint256",
          "name": "tokenId",
          "type": "uint256"
        }
      ],
      "name": "ownsCreature",
      "outputs": [
        {
          "internalType": "bool",
          "name": "",
          "type": "bool"
        }
      ],
      "stateMutability": "view",
      "type": "function"
    },
    {
      "inputs": [],
      "name": "renounceOwnership",
      "outputs": [],
      "stateMutability": "nonpayable",
      "type": "function"
    },
    {
      "inputs": [
        {
          "internalType": "address",
          "name": "minter",
          "type": "address"
        }
      ],
      "name": "revokeMinter",
      "outputs": [],
      "stateMutability": "nonpayable",
      "type": "function"
    },
    {
      "inputs": [
        {
          "internalType": "address",
          "name": "from",
          "type": "address"
        },
        {
          "internalType": "address",
          "name": "to",
          "type": "address"
        },
        {
          "internalType": "uint256",
          "name": "tokenId",
          "type": "uint256"
        }
      ],
      "name": "safeTransferFrom",
      "outputs": [],
      "stateMutability": "nonpayable",
      "type": "function"
    },
    {
      "inputs": [
        {
          "internalType": "address",
          "name": "from",
          "type": "address"
        },
        {
          "internalType": "address",
          "name": "to",
          "type": "address"
        },
        {
          "internalType": "uint256",
          "name": "tokenId",
          "type": "uint256"
        },
        {
          "internalType": "bytes",
          "name": "data",
          "type": "bytes"
        }
      ],
      "name": "safeTransferFrom",
      "outputs": [],
      "stateMutability": "nonpayable",
      "type": "function"
    },
    {
      "inputs": [
        {
          "internalType": "address",
          "name": "operator",
          "type": "address"
        },
        {
          "internalType": "bool",
          "name": "approved",
          "type": "bool"
        }
      ],
      "name": "setApprovalForAll",
      "outputs": [],
      "stateMutability": "nonpayable",
      "type": "function"
    },
    {
      "inputs": [
        {
          "internalType": "bytes4",
          "name": "interfaceId",
          "type": "bytes4"
        }
      ],
      "name": "supportsInterface",
      "outputs": [
        {
          "internalType": "bool",
          "name": "",
          "type": "bool"
        }
      ],
      "stateMutability": "view",
      "type": "function"
    },
    {
      "inputs": [],
      "name": "symbol",
      "outputs": [
        {
          "internalType": "string",
          "name": "",
          "type": "string"
        }
      ],
      "stateMutability": "view",
      "type": "function"
    },
    {
      "inputs": [
        {
          "internalType": "uint256",
          "name": "index",
          "type": "uint256"
        }
      ],
      "name": "tokenByIndex",
      "outputs": [
        {
          "internalType": "uint256",
          "name": "",
          "type": "uint256"
        }
      ],
      "stateMutability": "view",
      "type": "function"
    },
    {
      "inputs": [
        {
          "internalType": "address",
          "name": "owner",
          "type": "address"
        },
        {
          "internalType": "uint256",
          "name": "index",
          "type": "uint256"
        }
      ],
      "name": "tokenOfOwnerByIndex",
      "outputs": [
        {
          "internalType": "uint256",
          "name": "",
          "type": "uint256"
        }
      ],
      "stateMutability": "view",
      "type": "function"
    },
    {
      "inputs": [
        {
          "internalType": "uint256",
          "name": "tokenId",
          "type": "uint256"
        }
      ],
      "name": "tokenURI",
      "outputs": [
        {
          "internalType": "string",
          "name": "",
          "type": "string"
        }
      ],
      "stateMutability": "view",
      "type": "function"
    },
    {
      "inputs": [],
      "name": "totalSupply",
      "outputs": [
        {
          "internalType": "uint256",
          "name": "",
          "type": "uint256"
        }
      ],
      "stateMutability": "view",
      "type": "function"
    },
    {
      "inputs": [
        {
          "internalType": "address",
          "name": "from",
          "type": "address"
        },
        {
          "internalType": "address",
          "name": "to",
          "type": "address"
        },
        {
          "internalType": "uint256",
          "name": "tokenId",
          "type": "uint256"
        }
      ],
      "name": "transferFrom",
      "outputs": [],
      "stateMutability": "nonpayable",
      "type": "function"
    },
    {
      "inputs": [
        {
          "internalType": "address",
          "name": "newOwner",
          "type": "address"
        }
      ],
      "name": "transferOwnership",
      "outputs": [],
      "stateMutability": "nonpayable",
      "type": "function"
    }
  ],
  "bytecode": "0x60803462000359576001600160401b03906040908082018381118282101762000277578252601881526020927f4e4654204175746f626174746c657220437265617475726500000000000000008483015282519383850185811083821117620002775784526008855267435245415455524560c01b8186015282519082821162000277575f54916001948584811c941680156200034e575b8385101462000258578190601f94858111620002fb575b50839085831160011462000297575f926200028b575b50505f19600383901b1c191690851b175f555b8551928311620002775783548481811c911680156200026c575b82821014620002585782811162000210575b5080918311600114620001ab5750819293945f926200019f575b50505f19600383901b1c191690821b1790555b33156200018957600b8054336001600160a01b0319821681179092559151916001600160a01b03167f8be0079c531659141344cd1fd0a4f28419497f9722a3daafe3b4186f6b6457e05f80a3611e1490816200035e8239f35b51631e4fbdf760e01b81525f6004820152602490fd5b015190505f806200011d565b90601f19831695845f52825f20925f905b888210620001f85750508385969710620001df575b505050811b01905562000130565b01515f1960f88460031b161c191690555f8080620001d1565b808785968294968601518155019501930190620001bc565b845f52815f208380860160051c8201928487106200024e575b0160051c019085905b8281106200024257505062000103565b5f815501859062000232565b9250819262000229565b634e487b7160e01b5f52602260045260245ffd5b90607f1690620000f1565b634e487b7160e01b5f52604160045260245ffd5b015190505f80620000c4565b90879350601f198316915f8052855f20925f5b87828210620002e45750508411620002cb575b505050811b015f55620000d7565b01515f1960f88460031b161c191690555f8080620002bd565b8385015186558b97909501949384019301620002aa565b9091505f8052835f208580850160051c82019286861062000344575b918991869594930160051c01915b82811062000335575050620000ae565b5f815585945089910162000325565b9250819262000317565b93607f169362000097565b5f80fdfe6080806040526004361015610012575f80fd5b5f3560e01c90816301ffc9a7146115a55750806306fdde031461151b578063081812fc146114df578063095ea7b3146113fe5780630c9848321461139657806318160ddd1461137957806323b872dd146113625780632f745c59146112ed578063372c04611461098057806342842e0e146109535780634f6ccce7146108fe5780635146ea0e1461080b5780636352211e146107db57806370a08231146107b0578063715018a61461076857806386481d40146106f65780638da5cb5b146106ce5780638f8930da1461063d57806395d89b411461057d578063a22cb465146104dc578063aa2fe91b1461049f578063b88d4fde14610431578063c87b56dd146103d7578063cfbd488514610372578063e985e9c514610320578063f052d65a14610201578063f2fde38b1461018e5763faa33a1414610150575f80fd5b3461018a57604036600319011261018a57602061016b611682565b610176602435611bb1565b60018060a01b038060405193169116148152f35b5f80fd5b3461018a57602036600319011261018a576101a7611682565b6101af611beb565b6001600160a01b039081169081156101e957600b80546001600160a01b031981168417909155165f80516020611d7f8339815191525f80a3005b604051631e4fbdf760e01b81525f6004820152602490fd5b3461018a5760208060031936011261018a5760c0906004355f60a060405161022881611748565b606081528285820152606060408201528260608201528260808201520152805f526002825261026460018060a01b0360405f2054161515611b38565b5f52600d815260405f206040519161027b83611748565b610284826117a1565b835260ff600183015416918184019283526103096102a4600283016117a1565b93604086019485526003830154946060870195865260ff6102ef600560048701549660808b0197885201549660a08a019788526040519a8b9a828c5251918b015260e08a0190611644565b925116604088015251868203601f19016060880152611644565b925160808501525160a08401525160c08301520390f35b3461018a57604036600319011261018a57610339611682565b610341611698565b9060018060a01b038091165f52600560205260405f2091165f52602052602060ff60405f2054166040519015158152f35b3461018a57602036600319011261018a5761038b611682565b610393611beb565b6001600160a01b03165f818152600e60205260408120805460ff191690557f44f4322f8daa225d5f4877ad0f7d3dfba248a774396f3ca99405ed40a044fe819080a2005b3461018a57602036600319011261018a576004356103f481611bb1565b505f52600a60205261042d61040b60405f206117a1565b5f60405161041881611763565b52604051918291602083526020830190611644565b0390f35b3461018a57608036600319011261018a5761044a611682565b610452611698565b6064359190604435906001600160401b03841161018a573660238501121561018a5761048b61049d94369060248160040135910161185e565b92610497838383611894565b33611c17565b005b3461018a57602036600319011261018a576001600160a01b036104c0611682565b165f52600e602052602060ff60405f2054166040519015158152f35b3461018a57604036600319011261018a576104f5611682565b6024359081151580920361018a576001600160a01b031690811561056457335f52600560205260405f20825f5260205260405f2060ff1981541660ff83161790556040519081527f17307eab39ab6107e8899845ad3d59bd9653f200f220920489ca2b5937696c3160203392a3005b604051630b61174360e31b815260048101839052602490fd5b3461018a575f36600319011261018a576040515f600182600154926105a184611710565b92838352602094856001821691825f1461061d5750506001146105e0575b506105cc9250038361177e565b61042d604051928284938452830190611644565b84915060015f52815f20905f915b8583106106055750506105cc9350820101856105bf565b805483890185015287945086939092019181016105ee565b60ff1916858201526105cc95151560051b85010192508791506105bf9050565b3461018a57602036600319011261018a576004355f52600d6020526106a760405f20610668816117a1565b9060ff6001820154169061067e600282016117a1565b906106ba600382015493600560048401549301549360405197889760c0895260c0890190611644565b9160208801528682036040880152611644565b926060850152608084015260a08301520390f35b3461018a575f36600319011261018a57600b546040516001600160a01b039091168152602090f35b3461018a57602036600319011261018a576004355f8181526002602052604090205461072c906001600160a01b03161515611b38565b5f52600d6020526064600560405f200154046001810180911161075457602090604051908152f35b634e487b7160e01b5f52601160045260245ffd5b3461018a575f36600319011261018a57610780611beb565b600b80546001600160a01b031981169091555f906001600160a01b03165f80516020611d7f8339815191528280a3005b3461018a57602036600319011261018a5760206107d36107ce611682565b611b7b565b604051908152f35b3461018a57602036600319011261018a5760206107f9600435611bb1565b6040516001600160a01b039091168152f35b3461018a57604036600319011261018a57600435335f526020600e815260ff60405f20541680156108ea575b156108b5575f82815260028252604090205461085d906001600160a01b03161515611b38565b815f52600d8152600560405f20019081546024358101809111610754577f95ea165db24e999124a2918ded69d02341a72dd47c9f428c7219012fbafc70879255825f52600d8152600560405f200154604051908152a2005b6064906040519062461bcd60e51b82526004820152600e60248201526d139bdd08185d5d1a1bdc9a5e995960921b6044820152fd5b50600b546001600160a01b03163314610837565b3461018a57602036600319011261018a5760043560085481101561093557610927602091611b0c565b90546040519160031b1c8152f35b6044906040519063295f44f760e21b82525f60048301526024820152fd5b3461018a5761049d610964366116ae565b906040519261097284611763565b5f8452610497838383611894565b3461018a5760c036600319011261018a57610999611682565b6024356001600160401b03811161018a576109b89036906004016116e3565b6044929192359060ff8216820361018a576064356001600160401b03811161018a576109e89036906004016116e3565b909290919060a4356001600160401b03811161018a57610a0c9036906004016116e3565b9590335f52600e60205260ff60405f20541680156112d9575b1561129b57600160ff841610158061128d575b1561125157600c54965f1988146107545760018801600c55604051610a5c81611763565b5f81526001600160a01b03841615611239575f898152600260205260409020546001600160a01b03168015908115611218575b6001600160a01b0386165f818152600360209081526040808320805460010190558e83526002909152812080546001600160a01b031916831790558c919083905f80516020611d9f8339815191529080a48115611196576008548b5f5260096020528060405f2055600160401b811015610e50578b610b17826001610b2f9401600855611b0c565b90919082549060031b91821b915f19901b1916179055565b6001600160a01b0386160361114b575b1561113357833b610fe4575b5090610b5891369161185e565b5f878152600a60205260409020815190916001600160401b038211610e50578190610b838454611710565b601f8111610f97575b50602090601f8311600114610f2f575f92610f24575b50508160011b915f199060031b1c19161790555b7ff8e1a15aba9398e019f0b49df1a4fde98ee17ae345cb5f6b5e2c27f5033e8ce76020604051888152a1604051610bec81611748565b610bf736858a61185e565b815260ff83166020820152610c0d36868861185e565b604082015260843560608201524260808201525f60a0820152865f52600d60205260405f2090805180519060018060401b038211610e50578190610c518554611710565b601f8111610ed7575b50602090601f8311600114610e6f575f92610e64575b50508160011b915f199060031b1c19161782555b6001820160ff60208301511660ff19825416179055604081015180519060018060401b038211610e5057610cbb6002850154611710565b601f8111610e0c575b509160209a9593918a9795938c90601f8311600114610d7f57610d69969593835f80516020611dbf8339815191529b9c969460059460a0945f92610d74575b50508160011b915f199060031b1c19161760028501555b6060810151600385015560808101516004850155015191015560ff610d4c604051978897606089526060890191611aec565b9316858c015284830360408601526001600160a01b031697611aec565b0390a3604051908152f35b015190505f80610d03565b999493929190600284015f528d5f209a5f5b601f1984168110610df25750926001835f80516020611dbf8339815191529c9d60a094610d699b9a999897600597601f19811610610dda575b505050811b016002850155610d1a565b01515f1960f88460031b161c191690555f8080610dca565b828201518d556001909c019b8e9b50918f01918f01610d91565b600285015f5260205f20601f840160051c810160208510610e49575b601f830160051c82018110610e3e575050610cc4565b5f8155600101610e28565b5080610e28565b634e487b7160e01b5f52604160045260245ffd5b015190508b80610c70565b9250845f5260205f20905f935b601f1984168510610ebc576001945083601f19811610610ea4575b505050811b018255610c84565b01515f1960f88460031b161c191690558b8080610e97565b81810151835560209485019460019093019290910190610e7c565b909150845f5260205f20601f840160051c810160208510610f1d575b90849392915b601f830160051c82018110610f0f575050610c5a565b5f8155859450600101610ef9565b5080610ef3565b015190508a80610ba2565b9250835f5260205f20905f935b601f1984168510610f7c576001945083601f19811610610f64575b505050811b019055610bb6565b01515f1960f88460031b161c191690558a8080610f57565b81810151835560209485019460019093019290910190610f3c565b909150835f5260205f20601f840160051c810160208510610fdd575b90849392915b601f830160051c82018110610fcf575050610b8c565b5f8155859450600101610fb9565b5080610fb3565b602061102a91858b5f60409e9d9c9b9a99989e51809681958294630a85bd0160e11b84523360048501528460248501526044840152608060648401526084830190611644565b03926001600160a01b03165af15f91816110ee575b506110a657893d1561109e573d9061105682611843565b91611064604051938461177e565b82523d5f602084013e5b8151918261109757604051633250574960e11b81526001600160a01b0383166004820152602490fd5b6020915001fd5b60609061106e565b630a85bd0160e19a9495969798999a1b9063ffffffff60e01b16036110cd57610b58610b4b565b604051633250574960e11b81526001600160a01b0384166004820152602490fd5b9091506020813d60201161112b575b8161110a6020938361177e565b8101031261018a57516001600160e01b03198116810361018a57908b61103f565b3d91506110fd565b6040516339e3563760e11b81525f6004820152602490fd5b61115485611b7b565b805f198101116107545760018060a01b0386165f52600660205260405f205f1982015f526020528a60405f20558a5f5260076020525f190160405f2055610b3f565b6001600160a01b0386168114610b2f576111af81611b7b565b8b5f52600760205260405f205490825f52600660205260405f20918181036111f1575b508c5f5260076020525f60408120555f526020525f6040812055610b2f565b815f528260205260405f2054815f528060405f20555f52600760205260405f20558e6111d2565b6112218b611d61565b805f52600360205260405f205f198154019055610a8f565b604051633250574960e11b81525f6004820152602490fd5b60405162461bcd60e51b8152602060048201526014602482015273054616c656e74206d75737420626520312d3130360641b6044820152606490fd5b50606460ff84161115610a38565b60405162461bcd60e51b8152602060048201526016602482015275139bdd08185d5d1a1bdc9a5e9959081d1bc81b5a5b9d60521b6044820152606490fd5b50600b546001600160a01b03163314610a25565b3461018a57604036600319011261018a57611306611682565b6024359061131381611b7b565b8210156113425760018060a01b03165f52600660205260405f20905f52602052602060405f2054604051908152f35b61135e60405192839263295f44f760e21b845260048401611ad1565b0390fd5b3461018a5761049d611373366116ae565b91611894565b3461018a575f36600319011261018a576020600854604051908152f35b3461018a57602036600319011261018a576113af611682565b6113b7611beb565b6001600160a01b03165f818152600e60205260408120805460ff191660011790557f83b05b6735acd4b85e3bded8e72c851d1a87718f81e3c8e6f0c9d9a2baa88e469080a2005b3461018a57604036600319011261018a57611417611682565b60243561142381611bb1565b331515806114cc575b806114a3575b61148b576001600160a01b039283169282918491167f8c5be1e5ebec7d5bd14f71427d1e84f3dd0314c0f7b2291e5b200ac8c7c3b9255f80a45f90815260046020526040902080546001600160a01b0319169091179055005b60405163a9fbf51f60e01b8152336004820152602490fd5b5060018060a01b0381165f52600560205260405f20335f5260205260ff60405f20541615611432565b506001600160a01b03811633141561142c565b3461018a57602036600319011261018a576004356114fc81611bb1565b505f526004602052602060018060a01b0360405f205416604051908152f35b3461018a575f36600319011261018a576040515f8054908261153c83611710565b91828252602093600190856001821691825f1461061d57505060011461156957506105cc9250038361177e565b8491505f8052815f20905f915b85831061158d5750506105cc9350820101856105bf565b80548389018501528794508693909201918101611576565b3461018a57602036600319011261018a576004359063ffffffff60e01b821680920361018a57602091632483248360e11b81149081156115e7575b5015158152f35b63780e9d6360e01b811491508115611601575b50836115e0565b6380ac58cd60e01b811491508115611633575b8115611622575b50836115fa565b6301ffc9a760e01b1490508361161b565b635b5e139f60e01b81149150611614565b91908251928382525f5b84811061166e575050825f602080949584010152601f8019910116010190565b60208183018101518483018201520161164e565b600435906001600160a01b038216820361018a57565b602435906001600160a01b038216820361018a57565b606090600319011261018a576001600160a01b0390600435828116810361018a5791602435908116810361018a579060443590565b9181601f8401121561018a578235916001600160401b03831161018a576020838186019501011161018a57565b90600182811c9216801561173e575b602083101461172a57565b634e487b7160e01b5f52602260045260245ffd5b91607f169161171f565b60c081019081106001600160401b03821117610e5057604052565b602081019081106001600160401b03821117610e5057604052565b601f909101601f19168101906001600160401b03821190821017610e5057604052565b9060405191825f82546117b381611710565b908184526020946001916001811690815f1461182157506001146117e3575b5050506117e19250038361177e565b565b5f90815285812095935091905b8183106118095750506117e193508201015f80806117d2565b855488840185015294850194879450918301916117f0565b925050506117e194925060ff191682840152151560051b8201015f80806117d2565b6001600160401b038111610e5057601f01601f191660200190565b92919261186a82611843565b91611878604051938461177e565b82948184528183011161018a578281602093845f960137010152565b6001600160a01b038281169391841561123957825f5260206002815260409583875f2054169533151580611a45575b5086158015611a26575b5f83815260038552898120805460010190558781526002855289812080546001600160a01b03191685179055879084908a905f80516020611d9f8339815191529080a4156119ba57600854865f526009845280895f2055600160401b811015610e505786610b178260016119449401600855611b0c565b81870361197f575b505050169283830361195e5750505050565b6064945051926364283d7b60e01b8452600484015260248301526044820152fd5b61198890611b7b565b5f19810192908311610754576007915f5260068152875f20835f52815285885f2055855f5252855f20555f808061194c565b868214611944576119ca87611b7b565b865f5260078452885f205490885f5260068552895f2091818103611a04575b50875f52600785525f8a8120555f5283525f88812055611944565b815f528286528a5f2054815f52808c5f20555f52600786528a5f20555f6119e9565b611a2f87611d61565b875f5260038452885f205f1981540190556118cd565b80611a90575b15611a56575f6118c3565b878688611a73576024915190637e27328960e01b82526004820152fd5b905163177e802f60e01b815290819061135e903360048401611ad1565b503387148015611ab5575b80611a4b5750855f52600483523385895f20541614611a4b565b50865f5260058352875f20335f52835260ff885f205416611a9b565b6001600160a01b039091168152602081019190915260400190565b908060209392818452848401375f828201840152601f01601f1916010190565b600854811015611b245760085f5260205f2001905f90565b634e487b7160e01b5f52603260045260245ffd5b15611b3f57565b60405162461bcd60e51b8152602060048201526014602482015273151bdad95b88191bd95cc81b9bdd08195e1a5cdd60621b6044820152606490fd5b6001600160a01b03168015611b99575f52600360205260405f205490565b6040516322718ad960e21b81525f6004820152602490fd5b5f818152600260205260409020546001600160a01b0316908115611bd3575090565b60249060405190637e27328960e01b82526004820152fd5b600b546001600160a01b03163303611bff57565b60405163118cdaa760e01b8152336004820152602490fd5b9293909193843b611c2a575b5050505050565b604051630a85bd0160e11b8082526001600160a01b039586166004830152938516602482015260448101919091526080606482015260209594909316939290859082908190611c7d906084830190611644565b03815f885af15f9181611d21575b50611cea575050503d5f14611ce2573d91611ca583611843565b92611cb3604051948561177e565b83523d5f8285013e5b82519283611cdd57604051633250574960e11b815260048101849052602490fd5b019050fd5b606091611cbc565b9193506001600160e01b031990911603611d0957505f80808080611c23565b60249060405190633250574960e11b82526004820152fd5b9091508581813d8311611d5a575b611d39818361177e565b8101031261018a57516001600160e01b03198116810361018a57905f611c8b565b503d611d2f565b5f90815260046020526040902080546001600160a01b031916905556fe8be0079c531659141344cd1fd0a4f28419497f9722a3daafe3b4186f6b6457e0ddf252ad1be2c89b69c2b068fc378daa952ba7f163c4a11628f55a4df523b3efc9480ada18a75f8ff5f2b9295e3e9795682d5686aafaaa1b82c7ad9a719005b5a2646970667358221220aeb1e38079fe752da760ce3efdf1ea64516c041bed287879344f8556ebc315fa64736f6c63430008180033",
  "linkReferences": {},
  "deployedLinkReferences": {},
  "immutableReferences": {},
  "inputSourceName": "project/src/CreatureNFT.sol",
  "buildInfoId": "solc-0_8_24-51e682cd951db4ab161c5dde04dbd3ae1866b31c"
}